:0400000084EF00F099
:100008005E82FACF20F0FBCF21F0E9CF22F0EACFD1
:1000180023F0E1CF24F0E2CF25F0D9CF26F0DACFD4
:1000280027F0F3CF28F0F4CF29F0F6CF2AF0F7CF56
:100038002BF0F8CF2CF0F5CF2DF05EC02EF05FC07E
:100048002FF060C030F061C031F09DB09EA004D0A8
:1000580073EC2DF0B4EC2DF0A0B2A1A203D063ECA8
:100068002CF013D09DBA9EAA05D0A0EC2DF03DEC43
:100078002BF00BD09DB89EA803D025EC2BF005D013
:10008800A0BCA1AC02D0CAEC2DF0F2BAF2A405D003
:10009800C2EC2DF084EC17F00DD0F2B6F2A008D027
:1000A800F290000E81BE010E326E6CEC2BF002D085
:1000B80013EC14F031C061F030C060F02FC05FF075
:1000C8002EC05EF02DC0F5FF2CC0F8FF2BC0F7FF47
:1000D8002AC0F6FF29C0F4FF28C0F3FF27C0DAFFC3
:1000E80026C0D9FF25C0E2FF24C0E1FF23C0EAFFF4
:1000F80022C0E9FF21C0FBFF20C0FAFF5E92110079
:10010800D2EF21F00001B56F000E0001B06FAE51C3
:10011800D8B4DCEF07F0FA51D8B4DCEF07F0FD51A2
:10012800EF5DD8A0C4D06AEC22F0000E01015B6F2D
:10013800000E5A6F000E0001DB6F000EDA6F00F040
:1001480006EC25F0000E0001B16F9CEC28F06EC0A3
:1001580072F06FC073F0C7EC24F072C05AF173C02C
:100168005BF16DEC2DF060C072F061C073F0060EAB
:100178000001746F010E756F27EC26F06DEC2DF001
:1001880060C072F061C073F0040E0001746F8FECF0
:1001980027F00001B16F71EC29F063C072F064C000
:1001A80073F0C7EC24F072C0DAF073C0DBF0000122
:1001B800DA5180EC18F00001AF6FAF51DA6FDB6BEA
:1001C800A8EC2DF0050F0001666FDA5178EC1FF0EE
:1001D800000E0001EF6F8EEC2CF0310E0001726FF3
:1001E8007C0E736F000E746F000E756F27EC26F08F
:1001F800340E0001726F7E0E736F000E746F010E65
:10020800756F27EC26F0720E0001726F7D0E736F0A
:10021800000E746F020E756F27EC26F06DEC2DF052
:1002280060C072F061C073F0030E0001746F020EBB
:10023800756F27EC26F00B0E0001776F020E786FB2
:10024800DA5130EC21F07FEC2DF00001F16FF15123
:10025800D8A402D0050E05D0DF0EF16503D0F15108
:10026800CE0FF16F0A0E776F010E786FF151F8EC2F
:1002780022F0000E0001666FF15178EC1FF0200E9D
:100288000101C76F00F02D0E0001616F7D0E626FD6
:10029800C40E636F010E646F0C0E656F01EC1EF0E7
:1002A800070E0001F06F080EF36FDCEF07F0FB514B
:1002B800D8B407D0EF2B0F0EF36F010EAC6FDCEF45
:1002C80007F0000EEF6FDCEF07F0FFD70001B55124
:1002D800D8A403D0AC51D8B412008EEC2CF0210E67
:1002E8000001726F7B0E736F000E746F000E756FD6
:1002F80027EC26F0870E0001726F7B0E736F000EDD
:10030800746F010E756F27EC26F0830E0001726F73
:100318007C0E736F000E746F030E756F27EC26F05A
:10032800060E0001F36F1200B551D8B427D08EEC39
:100338002CF0100E0001726F7B0E736F000E746F3D
:10034800000E756F27EC26F0FF0E0001726F7A0E13
:10035800736F000E746F010E756F27EC26F0830E15
:100368000001726F7C0E736F000E746F030E756F51
:1003780027EC26F00A0E0001F36F1200AC51D8B436
:100388001200000EEF6F8EEC2CF0DC0E0001726F85
:100398007B0E736F000E746F000E756F27EC26F0DE
:1003A800650E0001726F7D0E736F000E746F010E83
:1003B800756F27EC26F0A90E0001726F7A0E736F25
:1003C800000E746F030E756F27EC26F06AEC22F0AE
:1003D8007FEC2DF00001F16FF151D8A402D0050E89
:1003E80005D0DF0EF16503D0F151CE0FF16F0C0E81
:1003F800776F010E786FF151F8EC22F0000E0001D2
:10040800666FF15178EC1FF0200E0101C76F000EE6
:100418005B6F000E5A6F000E0001DB6F000EDA6F83
:1004280000F006EC25F0010E0001616FF40E606F1C
:1004380093EC2AF0000E0001B26F9CEC28F06EC01D
:1004480072F06FC073F0C7EC24F072C05AF173C039
:100458005BF19CEC28F06EC072F06FC073F0040E74
:100468000001746F8FEC27F00001B26F00F000F00C
:1004780071EC29F063C072F064C073F0C7EC24F02B
:1004880072C0DAF073C0DBF00001DA5180EC18F0CA
:100498000001AF6FAF51DA6FDB6BA8EC2DF0050FE1
:1004A8000001666FDA5178EC1FF000F0070E0001CA
:1004B800F36F1200B551D8B40CD02D0E616F7D0EBC
:1004C800626FC40E636F010E646F0C0E656F01ECF2
:1004D8001EF00001AC51D8B40CD0640E616F7E0ED2
:1004E800626FC40E636F010E646F0C0E656F01ECD2
:1004F8001EF00001B551D8A403D0AC51D8B41200F5
:100508008EEC2CF04C0E0001726F7E0E736F000E95
:10051800746F000E756F27EC26F0400E0001726FA5
:100528007E0E736F000E746F010E756F27EC26F048
:100538000C0E0001776F010E786FF151F8EC22F084
:10054800720E0001726F7D0E736F000E746F020ED3
:10055800756F27EC26F06DEC2DF060C072F061C06D
:1005680073F0030E0001746F020E756F27EC26F00E
:100578000B0E0001776F020E786FDA5130EC21F024
:10058800899C080E0001F36F1200AD51D8B403D155
:10059800640E606F010E616FF70E626F7F0E636FFE
:1005A800C3EC28F0000160516111D8A403D0898CF4
:1005B800080EF36F640E606F010E616FAA0E626F12
:1005C8007F0E636F000E656F060E646F3DEC23F0BF
:1005D800000160516111D8A478D0070EB46FB451EE
:1005E800010D640EF324D96E010EF420DA6EDF508B
:1005F8000101F76F0001B42BB451010D640EF3240F
:10060800D96E010EF420DA6EDF500101F86F000197
:10061800B42B200E0101F819D8B415D00001B4513B
:10062800010D640EF324D96E010EF420DA6EDF504A
:100638000101F96F0001B42B200E0101F919D8B49A
:1006480002D00001B42B000E0001B36F3F0EB3655A
:1006580001D023D0B451010D640EF324D96E010EDC
:10066800F420DA6EB351010DA40EF324E16E010EED
:10067800F420E26EDFCFE7FFB351010DA40EF3249F
:10068800D96E010EF420DA6EDF50D8B402D0B42B44
:1006980002D0400EB36FB32BD9D7898E899C540EE4
:1006A800726F7B0E736F000E746F020E756F27ECFE
:1006B80026F0CC0E0001726F7A0E736F000E746F05
:1006C800030E756F27EC26F05DD0640E0001606F95
:1006D800010E616FB10E626F7F0E636F000E656F62
:1006E800060E646F3DEC23F0000160516111D8A43F
:1006F8000CD0899CBA0E726F7B0E736F000E746FEC
:10070800030E756F27EC26F03DD0640E0001606F74
:10071800010E616FA30E626F7F0E636F000E656F2F
:10072800060E646F3DEC23F0000160516111D8A4FE
:100738000BD0960E726F7A0E736F000E746F030EE5
:10074800756F27EC26F01ED0640E0001606F010E55
:10075800616F9C0E626F7F0E636F000E656F060EF1
:10076800646F3DEC23F0000160516111D8A40AD0F8
:10077800B30E726F7C0E736F000E746F030E756F7D
:1007880027EC26F0FA0E0001AF6F580EE82EFED7C0
:10079800AF2FFCD700F00001B551D8A403D0AC515D
:1007A800D8B412008EEC2CF0210E0001726F7B0E73
:1007B800736F000E746F000E756F27EC26F0870EAE
:1007C8000001726F7B0E736F000E746F010E756FF0
:1007D80027EC26F0830E0001726F7C0E736F000EFB
:1007E800746F030E756F27EC26F0060E0001F36F89
:1007F8001200B551D8B427D08EEC2CF0630E00014E
:10080800726F7C0E736F000E746F000E756F27EC9D
:1008180026F0530E0001726F7C0E736F000E746F1A
:10082800010E756F27EC26F0830E0001726F7C0EA7
:10083800736F000E746F030E756F27EC26F0010EB0
:100848000001F36F1200AC51D8B412008EEC2CF0FA
:10085800899E420E0001726F7C0E736F000E746FDA
:10086800000E756F27EC26F0CA0E0001726F7E0E1F
:10087800736F000E746F010E756F27EC26F0F70E7C
:100888000001726F010E736F090E746F010E756FA0
:1008980027EC26F0510E0001726F7E0E736F000E6A
:1008A800746F020E756F27EC26F0A40E0001726FAC
:1008B800010E736F060E746F020E756F27EC26F02B
:1008C800AE0E0001726F010E736F000E746F030E8F
:1008D800756F27EC26F00B0E0001F36F1200B5516F
:1008E800D8A403D0AC51D8B412008EEC2CF0100E62
:1008F8000001726F7B0E736F000E746F000E756FC0
:1009080027EC26F0FF0E0001726F7A0E736F000E4F
:10091800746F010E756F27EC26F0830E0001726F5D
:100928007C0E736F000E746F030E756F27EC26F044
:100938000A0E0001F36F1200B551D8B436D08EEC10
:100948002CF0200E0001726F7C0E736F000E746F16
:10095800000E756F27EC26F00001FB51D8B40BD0C0
:10096800D30E726F7C0E736F000E746F020E756F6C
:1009780027EC26F00BD0E20E0001726F7C0E736F2D
:10098800000E746F020E756F27EC26F0730E0001CF
:10099800726F7C0E736F000E746F030E756F27EC09
:1009A80026F00C0E0001F36F1200AC51D8B41200FF
:1009B8008EEC2CF0630E0001726F7C0E736F000ECC
:1009C800746F000E756F27EC26F0800E0001726FB1
:1009D8007F0E736F000E746F010E756F27EC26F093
:1009E800790E0001726F7F0E736F000E746F020E26
:1009F800756F27EC26F0FA0E0001726F7F0E736F89
:100A08000A0E746F020E756F27EC26F006EC25F0BF
:100A1800020E0001F36F1200B551D8B49BD08EECD2
:100A28002CF0760E0001726F7B0E736F000E746FE0
:100A3800000E756F27EC26F0650E0001726F7B0EB5
:100A4800736F000E746F010E756F27EC26F0870E1A
:100A58000001726F7F0E736F000E746F020E756F58
:100A680027EC26F0C20E0001726F7F0E736F0C0E1A
:100A7800746F020E756F27EC26F048D0CB0E00017C
:100A8800726F7D0E736F070E746F020E756F27EC11
:100A980026F051D0E00E0001726F7F0E736F070EC3
:100AA800746F020E756F27EC26F045D0EC0E00012E
:100AB800726F7F0E736F070E746F020E756F27ECDF
:100AC80026F039D0E40E0001726F7F0E736F070EA7
:100AD800746F020E756F27EC26F02DD0E80E00011A
:100AE800726F7F0E736F070E746F020E756F27ECAF
:100AF80026F021D0EF0E0001726F7F0E736F070E84
:100B0800746F020E756F27EC26F015D00001FE51A8
:100B1800000AD8B4B3D7010AD8B4BCD7030AD8B4EA
:100B2800C5D7010AD8B4CED7070AD8B4D7D7010A8F
:100B3800D8B4E0D7A3D7730E0001726F7C0E736F21
:100B4800000E746F030E756F27EC26F00D0E000172
:100B5800F36F1200AC51D8B41200FB51D8B40DD0C9
:100B6800000EFB6FE20E726F7C0E736F000E746FD7
:100B7800020E756F27EC26F01200010E0001FB6FC4
:100B8800D30E726F7C0E736F000E746F020E756F4A
:100B980027EC26F012000001B551D8A403D0AC51BF
:100BA800D8B412008EEC2CF0630E0001726F7C0E2C
:100BB800736F000E746F000E756F27EC26F0530EDE
:100BC8000001726F7C0E736F000E746F010E756FEB
:100BD80027EC26F0830E0001726F7C0E736F000EF7
:100BE800746F030E756F27EC26F0010E0001F36F8A
:100BF8001200B551D8B492D08EEC2CF0ED0E000155
:100C0800726F7B0E736F000E746F000E756F27EC9A
:100C180026F0580E0001726F7E0E736F000E746F0F
:100C2800020E756F27EC26F0730E0001726F7C0EB2
:100C3800736F000E746F030E756F27EC26F0030EAA
:100C48000001F36F53D0C70E726F7F0E736F0A0ED9
:100C5800746F020E756F27EC26F060D0CB0E000182
:100C6800726F7F0E736F0A0E746F020E756F27EC2A
:100C780026F054D0CF0E0001726F7F0E736F0A0EEC
:100C8800746F020E756F27EC26F048D0D30E000162
:100C9800726F7F0E736F0A0E746F020E756F27ECFA
:100CA80026F03CD0D70E0001726F7F0E736F0A0ECC
:100CB800746F020E756F27EC26F030D0DB0E000142
:100CC800726F7F0E736F0A0E746F020E756F27ECCA
:100CD80026F024D0F30E0001726F7F0E736F0A0E98
:100CE800746F020E756F27EC26F018D00001FC51C6
:100CF800000AD8B4A8D7010AD8B4B0D7030AD8B420
:100D0800B9D7010AD8B4C2D7070AD8B4CBD7010AD1
:100D1800D8B4D4D7030AD8B4DDD795D70001AC51DD
:100D2800D8B41200050EFE6102D0FE2B54D0000E7E
:100D3800FE6F51D0090EFD6FDB0E726F7F0E736F61
:100D4800070E746F020E756F27EC26F01200120E54
:100D58000001FD6FDF0E726F7F0E736F070E746FE9
:100D6800020E756F27EC26F012001B0E0001FD6FB6
:100D7800EB0E726F7F0E736F070E746F020E756F36
:100D880027EC26F01200360E0001FD6FE30E726F9D
:100D98007F0E736F070E746F020E756F27EC26F0C7
:100DA80012006C0E0001FD6FE70E726F7F0E736FFD
:100DB800070E746F020E756F27EC26F01200FD699E
:100DC800EF0E726F7F0E736F070E746F020E756FE2
:100DD80027EC26F012000001FE51000AD8B4AAD769
:100DE800010AD8B4B4D7030AD8B4BFD7010AD8B413
:100DF800CAD7070AD8B4D5D7010AD8B4E0D79AD742
:100E0800B551D8B41ED0FC517CEC11F08EEC2CF00E
:100E1800CB0E0001726F7B0E736F000E746F000EA5
:100E2800756F27EC26F0930E0001726F7C0E736FBE
:100E3800000E746F030E756F27EC26F00F0E00017D
:100E4800F36FAC51D8B41200060EFC610AD0EE055F
:100E5800D8A405D0030EFC6502D0060E03D0FC2BE7
:100E680056D0000EFC6F53D0C70E726F7F0E736F93
:100E78000A0E746F020E756F27EC26F01200CB0E67
:100E88000001726F7F0E736F0A0E746F020E756F1A
:100E980027EC26F01200CF0E0001726F7F0E736FE1
:100EA8000A0E746F020E756F27EC26F01200D30E2F
:100EB8000001726F7F0E736F0A0E746F020E756FEA
:100EC80027EC26F01200D70E0001726F7F0E736FA9
:100ED8000A0E746F020E756F27EC26F01200DB0EF7
:100EE8000001726F7F0E736F0A0E746F020E756FBA
:100EF80027EC26F01200F30E0001726F7F0E736F5D
:100F08000A0E746F020E756F27EC26F012000001AE
:100F1800FC51000AD8B4A8D7010AD8B4B0D7030A3C
:100F2800D8B4B9D7010AD8B4C2D7070AD8B4CBD72E
:100F3800010AD8B4D4D7030AD8B4DDD795D7AC51B1
:100F4800D8B40CD09BEC1BF00009D8B404D0010E27
:100F58000001B56F03D0090E0001F06FB551D8B488
:100F680012008EEC2CF0210E0001726F7B0E736F55
:100F7800000E746F000E756F27EC26F0870E0001C7
:100F8800726F7B0E736F000E746F010E756F27EC16
:100F980026F0830E0001726F7C0E736F000E746F63
:100FA800030E756F27EC26F0060E0001F36F120092
:100FB800F351000AD8B46AEF01F0010AD8B4BCD4DE
:100FC800030AD8B4E8D5010AD8B41AD7050AD8B4A0
:100FD80098EF01F0010AD8B45EEF02F00F0AD8B416
:100FE800C9EF02F0020AD8B404D4010AD8B477D4FD
:100FF800070AD8B411D5010AD8B4FBD5020AD8B467
:101008009ED769EF01F000017C6F000E00017B6F35
:1010180066D2FFD7FC0E0001616F7E0E626FDDECB9
:101028002AF03AD17851D8B402D00A0EF46F7C5124
:10103800D8B479D2640E606F010E616FB80E626F1A
:101048007F0E636F000E656F040E646F3DEC23F036
:10105800000160516111D8A429D0000EEE6F8EEC0A
:101068002CF0430E0001726F7B0E736F000E746FCD
:10107800000E756F27EC26F0980E0001726F7B0E3C
:10108800736F000E746F020E756F27EC26F0EE0E6C
:101098000001726F7A0E736F000E746F030E756F16
:1010A80027EC26F03BD00001F46F3DD2640E606F50
:1010B800010E616FBD0E626F7F0E636F000E656F6C
:1010C800040E646F3DEC23F0000160516111D8A457
:1010D80027D0010EEE6F8EEC2CF0430E0001726FDC
:1010E8007B0E736F000E746F000E756F27EC26F081
:1010F800980E0001726F7B0E736F000E746F020EF4
:10110800756F27EC26F0EE0E0001726F7A0E736F82
:10111800000E746F030E756F27EC26F0020EC3D70E
:10112800FC0E616F7E0E626FDDEC2AF0000E00018E
:10113800616F190E606F93EC2AF0000EB4D77751E7
:10114800D8B419D0BB0E726F7A0E736F000E746F1D
:10115800030E756F27EC26F0010E0001616FF40E87
:10116800606F93EC2AF0E70E0001616F7D0E626FED
:10117800DDEC2AF05ED07851D8B4D5D1DD0E726F8F
:101188007A0E736F000E746F030E756F27EC26F0DE
:10119800010E0001616FF40E606F93EC2AF03B0EB4
:1011A8000001616F7D0E626FDDEC2AF02FD17C515A
:1011B800D8B4B9D1640E606F010E616FF70E626F1B
:1011C8007F0E636FC3EC28F0000160516111D8A451
:1011D80002D0040E69D7640E606F010E616F570E5E
:1011E800626F7D0E636FC3EC28F0000160516111DE
:1011F800D8A419D08EEC2CF0B40E0001726F7E0EBC
:10120800736F000E746F000E756F27EC26F0190EC1
:101218000001726F7F0E736F000E746F010E756F91
:1012280027EC26F076D0E70E616F7D0E626FDDEC5D
:101238002AF0030E38D77C51D8B475D1640E606F8C
:10124800010E616F220E626F7F0E636FC3EC28F090
:10125800000160516111D8A419D08EEC2CF0D40E85
:101268000001726F7E0E736F000E746F000E756F43
:1012780027EC26F09E0E0001726F7E0E736F000E33
:10128800746F010E756F27EC26F090D0F20E616F27
:101298007E0E626FDDEC2AF0010E05D77C51D8B4C2
:1012A80042D1640E606F010E616FF70E626F7F0EA0
:1012B800636FC3EC28F0000160516111D8A402D01B
:1012C800060EF2D6640E606F010E616F570E626FE4
:1012D8007D0E636FC3EC28F0000160516111D8A442
:1012E8001AD08EEC2CF0B40E0001726F7E0E736F64
:1012F800000E746F000E756F27EC26F0190E0001B2
:10130800726F7F0E736F000E746F010E756F27EC8E
:1013180026F0090EC8D6640E606F010E616F490E83
:10132800626F7D0E636FC3EC28F00001605161119C
:10133800D8A407D03B0E616F7D0E626FDDEC2AF0FA
:1013480065D0640E606F010E616F930E626F7E0E42
:10135800636FC3EC28F066D07C51D8B4E4D0640E37
:10136800606F010E616F220E626F7F0E636FC3ECB8
:1013780028F0000160516111D8A41AD08EEC2CF02D
:10138800880E0001726F7E0E736F000E746F000E70
:10139800756F27EC26F09E0E0001726F7E0E736F3C
:1013A800000E746F010E756F27EC26F0070E7BD6C2
:1013B800640E606F010E616F950E626F7F0E636F32
:1013C800C3EC28F0000160516111D8A421D08EEC43
:1013D8002CF0E80E0001726F7E0E736F010E746FB1
:1013E800000E756F27EC26F08E0E0001726F7F0ECF
:1013F800736F020E746F010E756F27EC26F03B0EAB
:101408000001616F7D0E626FDDEC2AF0050E4BD690
:10141800640E606F010E616F930E626F7E0E636FD4
:10142800C3EC28F0000160516111D8A47CD0000EF3
:101438003BD6A90E616F7E0E626FDDEC2AF018D0E4
:101448007C51D8B470D0640E606F010E616F490E84
:10145800626F7D0E636FC3EC28F00001605161116B
:10146800D8A408D0A90E616F7E0E626FDDEC2AF059
:10147800080E19D601016451D00F00017A6F7AC0A5
:10148800FCF0010E7B6F4FD07851D8B44CD00A0EC7
:101498000BD6000E606F000ECFEC29F081B202D09F
:1014A80081A0FCD7FA0E0001796F580EE82EFED7FE
:1014B800792FFCD700F0FA0E0001796F580EE82E4C
:1014C800FED7792FFCD700F0FA0E0001796F580E7D
:1014D800E82EFED7792FFCD700F0FF0024D00001BA
:1014E800F451000AD8B496D5010AD8B49BD5030A9A
:1014F800D8B425D6010AD8B45AD6070AD8B49BD688
:10150800010AD8B4CBD6030AD8B426D7010AD8B46E
:1015180090D70F0AD8B494D7010AD8B4B5D7030A1C
:10152800D8B4B7D776D500017B51120000017751A6
:10153800800B806F77517725866F76BF86818651BD
:10154800D8B40DD08629D8A408D0000E746F000E28
:10155800756F000E766F000E776F768F08D0000ECD
:10156800746F000E756F000E766F000E776F7B51EB
:10157800800B801B7B517B25856F7ABF85818551C8
:10158800D8B40DD08529D8A408D0000E786F000EE5
:10159800796F000E7A6F000E7B6F7A8F08D0000E7D
:1015A800786F000E796F000E7A6F000E7B6F855191
:1015B800D8B403D08651D8A409D0000E746F000E99
:1015C800756F000E766F000E776F12007A517403F4
:1015D800F3CF8BF0F4CF8CF08B51816F826B836BE0
:1015E800846B8C51876F886B896B8A6B7951750313
:1015F800F3CF8BF0F4CF8CF08B518127000E822330
:10160800832384238C518727000E882389238A23E8
:1016180078517603F3CF8BF0F4CF8CF08B51812780
:10162800000E8223832384238C518727000E88236E
:1016380089238A2383C084F082C083F081C082F02A
:10164800816B78517503F3CF8BF0F4CF8CF08B510D
:1016580081278C518223000E8323000E8423795125
:101668007403F3CF8BF0F4CF8CF08B5181278C511E
:101678008223000E8323000E842383C084F082C05B
:1016880083F081C082F0816B78517403F3CF8BF0C3
:10169800F4CF8CF08B5181278C518223000E832349
:1016A800000E84237A517503F3CF8BF0F4CF8CF0BE
:1016B8008B5187278C518823000E8923000E8A239B
:1016C80079517603F3CF8BF0F4CF8CF08B518727C9
:1016D8008C518823000E8923000E8A237A517603C1
:1016E800F3CF8BF0F4CF8CF08B517C6F8C517D6FE6
:1016F8007E6B7F6B7EC07FF07DC07EF07CC07DF00E
:101708007C6B7C5187277D5188237E5189237F51AB
:101718008A2381C07CF082C07DF083C07EF084C0C3
:101728007FF0190E05D0D8907F337E337D337C331C
:10173800E82EF9D77C5187277D5188237E5189234C
:101748007F518A2383C084F082C083F081C082F0F5
:10175800816B855186C07CF07D6B7C27000E7D23D4
:10176800820E7C258B6FFF0E7D218C6F0FD0D89059
:101778008737883789378A3784BF8781D8908137F8
:101788008237833784378B07D8A08C0789AFEFD788
:10179800000E856F84AF16D0FF0E81157C6FFF0E8B
:1017A80082157D6FFF0E83157E6F7F0E84157F6F08
:1017B8007C517D117E117F11D8A402D087A102D05F
:1017C800010E856F8551D8B41FD0010E8727000EF2
:1017D800882389238A238AA117D087C07CF088C0F0
:1017E8007DF089C07EF08AC07FF07F357F337E33FD
:1017F8007D337C337CC087F07DC088F07EC089F063
:101808007FC08AF08B4B8C2B8CBF0DD08C5103E1A1
:101818008B29D8A008D0000E876F000E886F800E25
:10182800896F7F0E20D08CBF05D08C510EE18B05BF
:10183800D8B00BD0000E876F000E886F000E896F2E
:10184800000E8A6F000E806F0FD08BC086F0FF0EDF
:101858008717FF0E88177F0E8917000E8A1786B123
:10186800898FD89086318A6F80518A1387C074F027
:1018780088C075F089C076F08AC077F01200000140
:101888006351800B706F63516325726F62BF728101
:101898007251D8B40DD07229D8A408D0000E606F48
:1018A800000E616F000E626F000E636F628F06D0CC
:1018B800000E606F000E616F000E626F000E636FA6
:1018C8006751800B716F70517119D8A4708D675171
:1018D8006725716F66BF71817151D8B40DD07129B8
:1018E800D8A408D0000E646F000E656F000E666FF6
:1018F800000E676F668F06D0000E646F000E656F6E
:10190800000E666F000E676F7251715DD8B022D0FD
:1019180070AD02D0800E701B72C073F071C072F08F
:1019280073C071F060C073F064C060F073C064F09D
:1019380061C073F065C061F073C065F062C073F098
:1019480066C062F073C066F063C073F067C063F08E
:1019580073C067F0000E736F7251686F696B681F10
:10196800691F684B692B71516A6F6B6B68516A27E5
:1019780069516B236BBF2CD06B5104E11A0E6A5D61
:10198800D8A026D06051611162116311D8B402D079
:10199800010E01D0000E736F000E606F000E616FB4
:1019A800000E626F000E636F71C072F015D073A1E4
:1019B80005D0D89073310109736F02D0D890733372
:1019C80060B1738F63356333623361336033722B75
:1019D8007151725DD8A0EBD770BD29D07251D8A4CF
:1019E80009D0000E606F000E616F000E626F000E6E
:1019F800636F120064516027655161236651622349
:101A08006751632363A183D073A106D0D890733341
:101A180073510109736F02D0D890733360B1738F1B
:101A280063356333623361336033722B70D0645132
:101A3800605D65516159665162596351800A686FEA
:101A48006751800A6859D8B036D060C068F061C064
:101A580069F062C06AF063C06BF0681F691F6A1F93
:101A68006B1F682B000E69236A236B23645168255A
:101A78006C6F655169216D6F66516A216E6F675190
:101A88006B216F6FFF0E6C25606FFF0E6D21616F0C
:101A9800FF0E6E21626FFF0E6F21636F800E701B49
:101AA800736D7351D8A40FD0010E6027000E612307
:101AB8006223632308D06451605F6551615B66519E
:101AC800625B6751635B6051611162116311D8A455
:101AD8001CD07351D8A419D0000E606F000E616F2E
:101AE800000E626F000E636F1200D8906037613786
:101AF8006237633773BF608173A102D0D88001D089
:101B0800D89073377251D8A4720762AFEED7000E1F
:101B1800716F73AF0AD073C068F07F0E6817D8A4CE
:101B280002D060A102D0010E716F7151D8B420D0DB
:101B3800010E6027000E61236223632363A118D07E
:101B480060C068F061C069F062C06AF063C06BF0A1
:101B58006B356B336A336933683368C060F069C0CA
:101B680061F06AC062F06BC063F07229D8A4722B6E
:101B78007229D8B403D07251D8A40DD0000E606F6A
:101B8800000E616F000E626F000E636F7251D8A471
:101B980002D0000E706F72A102D0628F01D0629FD6
:101BA800D8907231636F70BF638F60C060F061C09E
:101BB80061F062C062F063C063F0120000019051EE
:101BC800800B996F90519025A46F8FBFA481A45169
:101BD800D8B40DD0A429D8A408D0000E8D6F000E5B
:101BE8008E6F000E8F6F000E906F8F8F06D0000ED5
:101BF8008D6F000E8E6F000E8F6F000E906F9451D8
:101C0800800B991B94519425A56F93BFA581A5516D
:101C1800D8B40DD0A529D8A408D0000E916F000E15
:101C2800926F000E936F000E946F938F06D0000E84
:101C3800916F000E926F000E936F000E946F91518A
:101C4800921193119411D8A415D0000E8D6F000E27
:101C58008E6F000E8F6F000E906F800E8F137F0EA9
:101C680090138DC08DF08EC08EF08FC08FF090C015
:101C780090F01200A451D8A411D0000E8D6F000E60
:101C88008E6F000E8F6F000E906F8DC08DF08EC01E
:101C98008EF08FC08FF090C090F01200A551956F14
:101CA800966B951F961F954B962BA451976F986B23
:101CB80095519727965198237F0E97259E6F000E72
:101CC80098219F6F8DC09AF08EC09BF08FC09CF0BA
:101CD80090C09DF0000E8D6F000E8E6F000E8F6FFE
:101CE800000E906F000EA06F000EA16F000EA26F85
:101CF800000EA36F000EA56F28D0A551D8B411D03F
:101D0800D8909A379B379C379D37D8908D378E3728
:101D18008F379037A3BF8D81D890A037A137A237CE
:101D2800A33791519A5D92519B5993519C59945163
:101D38009D59D8A009D0A38D91519A5F92519B5B70
:101D480093519C5B94519D5BA52B190EA565D5D726
:101D58009A519B119C119D11D8B411D0A0810FD01C
:101D6800D8908D378E378F379037A3BF8D81D89015
:101D7800A037A137A237A3379E07D8A09F078FAFF8
:101D8800EFD7000EA56FA3AF16D0FF0EA015956F65
:101D9800FF0EA115966FFF0EA215976F7F0EA31564
:101DA800986F9551961197119811D8A402D08DA1CA
:101DB80002D0010EA56FA551D8B41FD0010E8D27F2
:101DC800000E8E238F23902390A117D08DC095F0FD
:101DD8008EC096F08FC097F090C098F098359833E1
:101DE80097339633953395C08DF096C08EF097C093
:101DF8008FF098C090F09E4B9F2B9FBF10D09F51A3
:101E080003E19E29D8A00BD0000E9F6F9E69000E9B
:101E18008D6F000E8E6F000E8F6F000E906F9FBF3C
:101E280005D09F5111E19E05D8B00ED0000E9F6FCE
:101E3800000E9E6F000E8D6F000E8E6F000E8F6F5E
:101E4800000E906F000E996F9EC0A4F0A4A102D05E
:101E58008F8F01D08F9FD890A431906F9951901394
:101E68008DC08DF08EC08EF08FC08FF090C090F036
:101E7800120004013205D8A410D030511F0B0009FC
:101E8800D8A40BD00001C78F030E04013119D8A4C0
:101E980002D0010E01D0000E496E3251D8A41200B2
:101EA80030511F0B020AD8A4120034510F0B00093D
:101EB800D8B4120034510F0B166E030E16601200C0
:101EC800200E0001EC19D8A41200C78F040134BFFA
:101ED80019D034510F0B166E1650020D400EF32414
:101EE800D96E010EF420DA6EDECF1AF0DDCF1BF0CA
:101EF80034510F0B166E1650010DD00EF324D96E07
:101F0800000E18D034510F0B166E1650020DCA0E63
:101F1800F324D96E000EF420DA6EDECF1AF0DDCF8E
:101F28001BF034510F0B166E1650010DD30EF3240F
:101F3800D96E000EF420DA6EDF50196E19B002D097
:101F48001A9401D01A8434BF0AD034510F0B166E7C
:101F58001650020D400EF324D96E010E09D03451EB
:101F68000F0B166E1650020DCA0EF324D96E000E12
:101F7800F420DA6E1AC0DEFF1BC0DDFF030E311934
:101F8800D8A42DD01AC0D9FF1BC0DAFFDFAE1AD0F3
:101F980034BF0AD034510F0B166E1650010DD00EF7
:101FA800F324D96E000E0AD0040134510F0B166EBB
:101FB8001650010DD30EF324D96E000EF420DA6EFC
:101FC8000001DF821AC0D9FF1BC0DAFF000EDB84D4
:101FD8001AC0D9FF1BC0DAFF000EDB8E1200040EF8
:101FE8001A1A1AC0D9FF1BC0DAFFDFAE1BD01AC0FD
:101FF800D9FF1BC0DAFF7F0EDF161AC0D9FF1BC03E
:10200800DAFF000EDB8C000E0F6E050E0E6E1AC086
:1020180010F01BC011F0000E136E020E126EBEEC13
:1020280027F006D01AC0D9FF1BC0DAFF000EDB8CE0
:10203800040E1A1A19B206D01AC0D9FF1BC0DAFF4B
:10204800DFAE30D0040134BF0AD034510F0B166E06
:102058001650010DD00EF324D96E000E0AD00401DB
:1020680034510F0B166E1650010DD30EF324D96E92
:10207800000EF420DA6E0001DF921AC0D9FF1BC0EF
:10208800DAFF3B0EDF16000E0F6E050E0E6E1AC03D
:1020980010F01BC011F0000E136E020E126EBEEC93
:1020A80027F006D01AC0D9FF1BC0DAFF3B0EDF1697
:1020B800040134510F0B166E1650010D6A0EF324ED
:1020C800176E0F0EF420186E17C0D9FF18C0DAFF6C
:1020D800FE0EDF161200000E0001B76F000EB86F7B
:1020E800000EB96F000EBB6F030EBA6F80A009D047
:1020F800ABEC2DF00009D8A407D0040E0001FF6F47
:1021080003D0000E84EC2DF00001F8A108D09CEC5F
:102118002DF0FEEC16F00001F85133EC2CF0F0EC49
:1021280025F00001BA6FBA05D8A405D0000EF06FEB
:10213800010EB86F08D0020EBA19D8A404D0000E48
:10214800F06F010EB96FC6EC26F00009D8B402D0C2
:10215800010E01D0000E0001BB6F020EF319D8A4C6
:1021680041D00101595104E1640E585DD8A03AD01C
:1021780000F0C70E0001726F7A0E736F060E746F4F
:10218800010E756F27EC26F09CEC28F06EC072F0FB
:102198006FC073F0060E0001746F010E756F27ECA7
:1021A80026F071EC29F063C072F064C073F0C7ECDC
:1021B80024F072C0DAF073C0DBF00001DA5180EC71
:1021C80018F00001B66FB651DA6FDB6B060E776F49
:1021D800020E786FDA5130EC21F0000E0101596FD0
:1021E800000E586F0001F051D8B471D0090EF06597
:1021F8006ED0FB51D8B46BD0010EB76F000EF06FE4
:1022080066D0FFD78EEC2CF0DE0E0001726F7E0ECA
:10221800736F010E746F000E756F27EC26F0340E85
:102228000001726F7F0E736F020E746F010E756F6F
:1022380027EC26F0A90E0001726F7B0E736F000E5B
:10224800746F030E756F27EC26F0000E0001F46F13
:10225800020E31D0B8C077F0B9C078F0BB5107ECA6
:1022680008F00009D8B441D08EEC2CF0FE0E000125
:10227800726F7B0E736F000E746F000E756F27EC14
:1022880026F00F0E0001726F7C0E736F000E746FD4
:10229800020E756F27EC26F0320E0001726F7B0E6E
:1022A800736F000E746F030E756F27EC26F0000E27
:1022B8000001F36F030EFF6F18D0B9C0ACF0BBC0BC
:1022C800ADF0B7C0AEF0B85186EC00F00ED000010A
:1022D800FF51010AD8B496D7030AD8B4BBD7010A6C
:1022E800D8B4EBD7070AD8A48CD70001FF51120045
:1022F8000001646F080E00016419D8B46AD0A30EF7
:10230800616F7C0E626FDDEC2AF0FA0E0001636FDC
:10231800580EE82EFED7632FFCD700F0FA0E000106
:10232800636F580EE82EFED7632FFCD700F0FA0E25
:102338000001636F580EE82EFED7632FFCD700F01C
:1023480048D07F0E0001616F7D0E626FDDEC2AF0D0
:102358005DD08C0E0001616F7D0E626FDDEC2AF09E
:1023680055D0990E0001616F7D0E626FDDEC2AF089
:102378004DD0A60E0001616F7D0E626FDDEC2AF074
:1023880045D0B30E0001616F7D0E626FDDEC2AF05F
:102398003DD0C00E0001616F7D0E626FDDEC2AF04A
:1023A80035D0CD0E0001616F7D0E626FDDEC2AF035
:1023B8002DD0DA0E0001616F7D0E626FDDEC2AF020
:1023C80025D0F10E0001616F7C0E626FDDEC2AF002
:1023D8001DD000016451000AD8B4B3D7010AD8B49B
:1023E800B8D7030AD8B4BDD7010AD8B4C2D7070AE8
:1023F800D8B4C7D7010AD8B4CCD7030AD8B4D1D730
:10240800010AD8B4D6D70F0AD8B4DBD7FA0E000120
:10241800636F580EE82EFED7632FFCD700F0FA0E34
:102428000001636F580EE82EFED7632FFCD700F02B
:10243800FA0E0001636F580EE82EFED7632FFCD703
:1024480000F02B0E0001616F7F0E626FDDEC2AF049
:1024580012000001686F00016851D8A463AF1AD058
:1024680060C064F061C065F062C066F063C067F088
:10247800641F651F661F671F642B000E6523662394
:10248800672364C06AF065C06BF066C06CF067C013
:102498006DF008D060C06AF061C06BF062C06CF08B
:1024A80063C06DF06051611162116311D8A409D045
:1024B800000E606F000E616F000E626F000E636F9A
:1024C8001200960E696F06D0692BD8906D336C3365
:1024D8006B336A33000E6A15646F000E6B15656FF7
:1024E800000E6C15666FFE0E6D15676F64516511F1
:1024F80066116711D8B40DD0E7D7692B010E6A278A
:10250800000E6B236C236D23D8906D336C336B33C3
:102518006A33000E6A15646F000E6B15656F000E46
:102528006C15666FFF0E6D15676F64516511661146
:102538006711D8B407D0E1D76907D8906A376B37E5
:102548006C376D376CBF03D0020E6961F5D769B17E
:1025580008D0FF0E6A17FF0E6B177F0E6C17FF0E61
:102568006D17D890693369C064F0656B666B676BEB
:1025780064C067F0666B656B646B64516A13655180
:102588006B1366516C1367516D136851D8A463AF10
:1025980001D06D8F6AC060F06BC061F06CC062F0F2
:1025A8006DC063F01200A39433503410D8B410D027
:1025B80033C0D9FF34C0DAFFDFAE04D00001676B47
:1025C800672B02D00001676B6751686F696B05D094
:1025D800000E0001696F000E686F68516911D8B468
:1025E80002D0A3841200030EEB19D8A402D0000E67
:1025F800EB6FEB51D8A402D0A3841200020EEB19A2
:10260800D8A413D0010E606F000E616F000E626FC8
:10261800000E636F020E60EC1EF060C033F061C004
:1026280034F0030E0001EB6F5ED0EB05D8A45BD04D
:10263800400EDD6503D0400E6B6F02D0DDC06BF03D
:102648006B510008DD25DD6F000E01014E6F050E90
:102658004F6F6BC06AF00001DC51D8B412D026D09D
:1026680051C1D9FF52C1DAFF4EC1E1FF4FC1E2FFAC
:10267800DFCFE7FF01014E4B4F2B514B522B00018F
:102688006A076A51D8B415D0EBD751C1D9FF52C1E6
:10269800DAFF4EC1E1FF4FC1E2FFDFCFE7FF0101E3
:1026A8004E4B4F2B514B522B00016A076A51D8A44D
:1026B800ECD7DD51D8A408D0400E6B19D8A402D0AD
:1026C800020E01D0030EEB6F010E606F000E616FFA
:1026D800050E626F6BC063F0020E60EC1EF060C006
:1026E80033F061C034F0A384120020EE01F03750BB
:1026F800D9263850DA22DF50136E13500001C05D1E
:10270800000EC159D8A0C0C013F01350C05F000E0E
:10271800C15B000E126E11D01250010D380EF32459
:10272800D96E040EF420DA6EBCC0E1FFBDC0E2FF32
:10273800DFCFE7FFBC4BBD2B122A1350125CD8A089
:10274800EBD7C051C111D8B432D020EE01F03550CA
:10275800D9263650DA22080EDF6E20EE02F0355008
:10276800D9263650DA22380EDE6E040EDD6E37C0FA
:10277800D9FF38C0DAFFDFBC0DD035C0D9FF36C06D
:10278800DAFF480EDF6E35C0D9FF36C0DAFF000E1B
:10279800DB8E120035C0D9FF36C0DAFF080EDF6EB7
:1027A80035C0D9FF36C0DAFF000EDB8E120020EEEE
:1027B80001F03550D9263650DA22080EDF6E20EEA9
:1027C80002F03550D9263650DA22300EDE6E040E6D
:1027D800DD6E35C0D9FF36C0DAFF040EDF6E35C0B6
:1027E800D9FF36C0DAFF000EDB8EC251C311D8B450
:1027F8000ED020EEC2F001D80AD00500FA6EDE50E5
:10280800FD6EDE50FE6EF850FF6EFA5012000001A9
:10281800BF9F4550D8A412009FEC1DF01200000184
:10282800EC05D8B460BA06D0000E656E6480648882
:10283800020EEC6F65B464A403D065940DEC2BF024
:1028480060A202D0A494120065B064A007D044EC42
:1028580015F0A384040E0001EC6F659065B864A8B8
:1028680003D0AEEC2BF0659865AC18D064AC0ED0F4
:10287800000E0F6E730E0E6E000E106E000E116EAF
:10288800000E136E010E126EBEEC27F0659C4650CA
:10289800D8A446064650D8B49FEC1DF065BA64AA81
:1028A80002D050EC29F065B264A20FD07F0E0F6EF3
:1028B8000E68000E106E000E116E000E136E010EE3
:1028C800126EBEEC27F0000E676E040E0001EC617C
:1028D80002D0A494120064A639D0000E1F6E030E15
:1028E8001F6401D033D065A631D061CF59F059307B
:1028F800E832E8320F0B486E659659B407D0485055
:10290800010DD00EF324D96E000E06D04850010DEB
:10291800D30EF324D96E000EF420DA6E0001DF70B6
:102928004850D8A403D06FEC1CF00ED0000E0F6EE8
:10293800720E0E6E590E106E000E116E000E136E92
:10294800000E126EBEEC27F01F2AC9D7A4941200FD
:10295800A394000E676E000E656E000E6A6E6B0E15
:102968000001606F0F0E616F000E636F000E626FE3
:10297800000E656F020E646FF5EC2AF0160E626E9B
:102988009F0E666E7B0E646E000E0001686F0B0E64
:10299800686501D00ED06851040D000EF324D96E7D
:1029A800040EF420DA6EDE6ADE6ADE6ADD6A682BFF
:1029B800EED7608C000E636E6098609C09D06596B7
:1029C800000EC76F000EBF6F000EC16F000EC06F04
:1029D80065B6F5D7010E446E010E436E000E426EC9
:1029E800000E416E000E01015D6F000E0001686F60
:1029F800020E686501D02ED06851020DCA0EF3246C
:102A0800D96E000EF420DA6E000EDE6E000EDD6E5A
:102A18006851020D400EF324D96E010EF420DA6ECF
:102A2800000EDE6E000EDD6E6851010DD30EF3242C
:102A3800D96E000EF420DA6E000EDF6E6851010DBB
:102A4800D00EF324D96E000EF420DA6E000EDF6E7D
:102A5800682BCED7080ECA6F040ECB6F160E6A6E9F
:102A6800040E0401036F300E026F080E016F040E8E
:102A7800006F008F000E5A6E000E0001EC6F1200FE
:102A8800A394000E676E000E656E000E6A6E6B0EE4
:102A9800016E0F0E026E000E046E000E036E000E25
:102AA800066E020E056E83EC2BF0160E626E9F0EFC
:102AB800666E7B0E646E000E096E0B0E096401D003
:102AC8000ED00950040D000EF324D96E040EF42024
:102AD800DA6EDE6ADE6ADE6ADD6A092AEED7608CA3
:102AE800000E636E6098609C0AD06596000E000127
:102AF800C76F000EBF6F000EC16F000EC06F65B6C6
:102B0800F4D7010E446E010E436E000E426E000EA5
:102B1800416E000E01015D6F000E096E020E096420
:102B280001D02ED00950020DCA0EF324D96E000E22
:102B3800F420DA6E000EDE6E000EDD6E0950020D16
:102B4800400EF324D96E010EF420DA6E000EDE6E0C
:102B5800000EDD6E0950010DD30EF324D96E000E60
:102B6800F420DA6E000EDF6E0950010DD00EF3244A
:102B7800D96E000EF420DA6E000EDF6E092ACED769
:102B8800080E0001CA6F040ECB6F160E6A6E040E93
:102B98000401036F300E026F080E016F040E006F00
:102BA800008F000E5A6E000E0001EC6F1200800EAE
:102BB80004013019D8A41200C00E0001C76F82D0DA
:102BC800A20E0001C46F790EC56F000EC96F120EF8
:102BD800C86F120004013251D8A440D03251020DFE
:102BE800F50EF324F66E750EF420F76E0900F5CF96
:102BF800C4F00A00F5CFC5F0020E0001C425016E2D
:102C0800000EC521026E01C0F6FF02C0F7FFF86A88
:102C1800070EF76403D00800F55005D0F6CFE9FF9A
:102C2800F7CFEAFFEF500001C86F030EC425016E0D
:102C3800000EC521026E01C0F6FF02C0F7FFF86A58
:102C4800070EF76403D00800F55005D0F6CFE9FF6A
:102C5800F7CFEAFFEF500001C96F1200000E000124
:102C6800C76F1200030E0401326124D03251020DE5
:102C7800EF0EF324F66E750EF420F76E0900F5CF0B
:102C8800C4F00A00F5CFC5F0C4C0F6FFC5C0F7FF11
:102C9800F86A070EF76403D00800F55005D0F6CFA0
:102CA800E9FFF7CFEAFFEF50016E01500001C86F4E
:102CB800C96B1200000E0001C76F1200000E000160
:102CC800C76F120004013351010AD8B479D7030A37
:102CD800D8B480D7010AD8B4C5D7F0D799EC2BF06F
:102CE800C5EC2AF0ACEC14F060EC2AF08A8A000EED
:102CF8000001616F320E606F93EC2AF08A9A010E20
:102D08000001616FF40E606F93EC2AF0F28CF28E82
:102D180081EC23F0000E0001616F140E606F93ECDC
:102D28002AF056EC2DF0000E0001616F140E606F52
:102D380093EC2AF0000EE3EC2CF00001F66F550E30
:102D4800F619D8B408D07EEC25F0550E0001606F56
:102D5800000ECFEC29F0000E0001F76F000E89EC91
:102D68002DF08EEC2CF01E0E0001726F7D0E736F2D
:102D7800000E746F000E756F27EC26F0000E000130
:102D8800726F7D0E736F000E746F010E756F27ECF6
:102D980026F00F0E0001726F7D0E736F000E746FB8
:102DA800030E756F27EC26F0030E0001616FE80E25
:102DB800606F93EC2AF015D0FFD7D3EC1FF0010E0B
:102DC8000001F76F010E8EEC2DF00BD06FEC10F0B8
:102DD800040AD8A406D0000E0001F76F000E89EC93
:102DE8002DF00001F751000AD8B4E7D7010AD8B48A
:102DF800EDD7E2D70001D84BD92BD8C060F0D9C0A5
:102E080061F0000E636F0A0E626F0DEC29F000018D
:102E180060516111D8A41200F883D8C060F0D9C0FD
:102E280061F0000E636F640E626F0DEC29F0000113
:102E380060516111D8A41200F885D8C060F0D9C0DB
:102E480061F0030E636FE80E626F0DEC29F000016C
:102E580060516111D8A41200F887D8C060F0D9C0B9
:102E680061F0626B636B600E646FEA0E656F000E53
:102E7800666F000E676F85EC20F0000160516111EC
:102E880062116311D8A412003D4A3E2AF8893DC058
:102E980060F03EC061F0000E636F3C0E626F0DEC97
:102EA80029F0000160516111D8A41200F88B3DC0CF
:102EB80060F03EC061F0020E636FD00E626F0DECE1
:102EC80029F0000160516111D8A41200F88D3DC0AD
:102ED80060F03EC061F0050E636FA00E626F0DECEE
:102EE80029F0000160516111D8A41200F88F000E7A
:102EF800D96F000ED86F000E3E6E000E3D6E1200A8
:102F080080BE03D0156A152A01D0156A153215320C
:102F1800805015187F0B1518806E64D0150E4C184C
:102F2800D8A418D0C6EC2DF0B5EC2CF04D50010DFE
:102F3800000EF324D96E030EF420DA6E000EDF6E55
:102F4800000E126E030E136E4DC014F0A8EC2CF098
:102F5800000E4D6E160E4C6053D04C2A6E0E93EC3C
:102F68002DF04ED05BC015F0010E166E152A02D05A
:102F7800D8901636152EFCD71650176E81AE05D090
:102F880017504E1201015E2B03D01750FF0A4E1640
:102F98005B2A080E5B18D8A402D0020E4F6E6E0E84
:102FA80093EC2DF02DD08150030E4F6E6E0E93ECE6
:102FB8002DF026D04D50010D000EF324D96E030ECE
:102FC800F420DA6E4EC0DFFF4D2A000E4F6E6E0EF3
:102FD80093EC2DF015D0000E4D6E000E4F6E160EB0
:102FE8004C6E0ED04F50000AD8B498D7010AD8B406
:102FF800B9D7030AD8B4D7D7010AD8B4DBD7EBD7E7
:10300800B7EC2DF0120060980001C7BF38D0BFAFF1
:103018000BD0020E4A6E4150D8B483EC21F0000E5A
:10302800436E000E446E120020EE01F03550D92692
:103038003650DA22080EDF6E20EE02F03550D9261F
:103048003650DA22300EDE6E040EDD6E35C0D9FF42
:1030580036C0DAFF0C0EDF6E35C0D9FF36C0DAFF96
:10306800000EDB8ECAC0D9FFCBC0DAFF040EDF6EBC
:10307800CAC0D9FFCBC0DAFF000EDB8E12000401F4
:1030880030AF10D0010E4A6E4250D8B483EC21F014
:10309800000E436E000E446E4550D8A412009FECFB
:1030A8001DF01200020E4A6E20EE01F03550D926AE
:1030B8003650DA22080EDF6E20EE02F03550D9269F
:1030C8003650DA22300EDE6E040EDD6E35C0D9FFC2
:1030D80036C0DAFF040EDF6E35C0D9FF36C0DAFF1E
:1030E800000EDB8E000E436E000E446E4550D8A4D1
:1030F80012009FEC1DF012000001A66FCD0E00011A
:10310800786FCC0E796F4C0E7A6F400E7B6FA6519C
:10311800606F616B626B636B000E2DEC12F060C028
:1031280074F061C075F062C076F063C077F09AEC15
:103138000AF074C08DF075C08EF076C08FF077C03D
:1031480090F0000E0001916F000E926F800E936F49
:10315800440E946FE2EC0DF08DC0A8F08EC0A9F07B
:103168008FC0AAF090C0ABF0000E0001646F000E93
:10317800656F000E666FBF0E676FA8C060F0A9C0CC
:1031880061F0AAC062F0ABC063F043EC0CF060C021
:1031980074F061C075F062C076F063C077F0000E1D
:1031A8000001786F000E796FC80E7A6F420E7B6F40
:1031B8009AEC0AF074C0A8F075C0A9F076C0AAF01D
:1031C80077C0ABF0A8C060F0A9C061F0AAC062F0F7
:1031D800ABC063F02CEC1BF000016051A76FA75146
:1031E80012000001646FFA0E0001636F580EE82E9A
:1031F800FED7632FFCD700F0FA0E0001636F580E5C
:10320800E82EFED7632FFCD700F0FA0E0001636F9B
:10321800580EE82EFED7632FFCD700F0000164514A
:10322800D8B429D0220E616F7A0E626FDDEC2AF0D5
:10323800FA0E0001636F580EE82EFED7632FFCD7F5
:1032480000F0FA0E0001636F580EE82EFED7632FC8
:10325800FCD700F0FA0E0001636F580EE82EFED777
:10326800632FFCD700F03C0E0001616F7A0E626F8D
:10327800DDEC2AF01200EE0E0001616F790E626F2C
:10328800DDEC2AF0FA0E0001636F580EE82EFED727
:10329800632FFCD700F0FA0E0001636F580EE82E7A
:1032A800FED7632FFCD700F0FA0E0001636F580EAB
:1032B800E82EFED7632FFCD700F0080E0001616FDF
:1032C8007A0E626FDDEC2AF0120004013039E83220
:1032D800030B0009D8A4120047D00001C78F080EBD
:1032E800EC6F1200DBEC15F01200DAEC19F01200AA
:1032F8005A0E0001C46F000EC56FC781010EC86F5A
:10330800C78F1200DCEC20F012003DEC0FF0120029
:1033180004013451010D570EF3240001C46F000E4F
:10332800F420C56FC781010EC86FC78F1200000156
:10333800C78F04013451010D570EF324D96E000EC6
:10334800F420DA6E32C4DFFF1200000E0F6E020E98
:103358000E6E000E106E000E116E000E136E000E33
:10336800126EBEEC27F0120004013151000AD8B4E5
:10337800C9D7010AD8B4C9D7020AD8B4C6D7060A29
:10338800D8B4ABD7030AD8B4ADD7010AD8B4DDD7BF
:103398000F0AD8B4ADD7010AD8B4A7D7030AD8B44E
:1033A800B7D7010AD8B4C3D7070A12000001C78FDC
:1033B8006B0E016E0F0E026E000E046E000E036E91
:1033C800000E066E020E056E83EC2BF0000E016EE9
:1033D800040E026E000E046E000E036E000E066EE2
:1033E800300E056E83EC2BF0608C000E166E020E0C
:1033F800166401D016D01650010DD30EF324D96EE1
:10340800000EF420DA6E000EDF6E1650010DD00E9D
:10341800F324D96E000EF420DA6E000EDF6E162A41
:10342800E6D7570E016E000E026E000E046E000EF7
:10343800036E000E066E020E056E83EC2BF0609C88
:10344800080E0001CA6F040ECB6F000E376E040E13
:10345800386E37C035F038C036F032C45AF05A509A
:10346800D8A403D0100EEC6F1200000E0F6E010EE0
:103478000E6E5A0E106E000E116E000E136E010EB7
:10348800126EBEEC27F0200E0001EC6F1200CAC0CD
:10349800D9FFCBC0DAFF0001000EDFBC010E126EAF
:1034A800040ECA1B080EEC19D8A40CD00401325122
:1034B8007F0B636E6350D8B402D0100E01D0040E97
:1034C8000001EC6F4A04D8A43AD020EE02F0CA51A9
:1034D800D926CB51DA22380EDE6E040EDD6E05ECED
:1034E8001CF0020E4B18D8A40DD0CAC0D9FFCBC00F
:1034F800DAFF040EDF6ECAC0D9FFCBC0DAFF000EB8
:10350800DB8E12001250D8A40DD0CAC0D9FFCBC090
:10351800DAFF480EDF6ECAC0D9FFCBC0DAFF000E53
:10352800DB8E1200CAC0D9FFCBC0DAFF080EDF6EEF
:10353800CAC0D9FFCBC0DAFF000EDB8E1200BFAFC6
:1035480014D0C251C311D8B40ED020EEC2F001D8A5
:103558000AD00500FA6EDE50FD6EDE50FE6EF850A1
:10356800FF6EFA5012000001BF9F000E4A6E120053
:103578001F0E0001EC65120060B21200E751D8A4DA
:1035880011D0800E676F020E686F400E696F1CECD9
:103598001FF00001E66FE651D8B404D0010EE76FC2
:1035A800000EE56FE751D8A4ACA213D0E551010D88
:1035B800800EF324D96E020EF420DA6EDF50B0ECE0
:1035C80029F00001E52BE651E519D8A402D0000E38
:1035D800E76FF551D8B425D0AEEC2DF00009D8B47A
:1035E80020D03F0E0001E8611CD000F00BEC2AF05F
:1035F80000016D6FE851010D800EF324D96E020EA3
:10360800F420DA6E6DC0DFFFE82BE851010D800E63
:10361800F324D96E020EF420DA6E000EDF6E000E6F
:10362800E96F0001EB51D8A410D0E851D8B40DD0FF
:10363800800E606F020E616FE8C062F011EC2CF032
:10364800B1EC2DF0000E0001E86FD7EC12F012007B
:10365800000162356335696F6951D8A409D0000E3D
:10366800606F000E616F000E626F000E636F1200D4
:1036780060C064F061C065F062C066F063C067F066
:10368800200E05D0D8906733663365336433E82E4F
:10369800F9D76451686F628FFF0E6017FF0E6117CC
:1036A800FF0E6217000E6317960E695F69AF16D09A
:1036B8006951800A970FD8B009D0000E606F000ECC
:1036C800616F000E626F000E636F1200D890633353
:1036D800623361336033693FF9D715D01F0E6965CE
:1036E8000FD0000E606F000E616F000E626F000E4B
:1036F800636F1200D89060376137623763376907A4
:103708006951D8A4F7D76851D8B408D0631F621F8D
:10371800611F606D000E61236223632360C060F047
:1037280061C061F062C062F063C063F01200000E15
:1037380000016E6F81A0FED7EBEC2BF0010E98EC28
:103748002DF0C290F29EF29EF29C8D94A0920F01F1
:103758005B81A08CF086F2888784000E81B2010E0E
:1037680000016E6F000E81B0010E6E6F000E82B404
:10377800010E6E6FFA51D8A4D180F292F090A19CFC
:1037880000F0030000F0D1902FEC29F0F096F298A9
:103798008794A09CF28E72EC28F0F2A2F0B002D0CE
:1037A800A1AC11D0F292F090010E00016E6F000EE4
:1037B80098EC2DF0C5EC2AF08D84FB0EB36E500EFC
:1037C800B26EA08207D00A0E0001F06F000E6E6F75
:1037D8008D94A0920F015B9181EC23F0000E000103
:1037E800616F280E606F93EC2AF081EC23F0000ED5
:1037F8000001616F280E606F93EC2AF000016E5192
:103808001200080E016E0001C95110E1080EC85DD2
:10381800D8B00CD0C8C001F04B50D8A402D0010ECB
:1038280004D04B04D8A402D0020E4B6E0150C85FDE
:10383800000EC95B20EE01F0CA51D926CB51DA221D
:1038480001C0DFFF380E0101546F040E556F0001EF
:10385800C7A11DD03CD0C4C0F6FFC5C0F7FFF86AA9
:1038680054C1D9FF55C1DAFF070EF76403D0080029
:10387800F55005D0F6CFE9FFF7CFEAFFEF50DF6E3E
:103888000001C44BC52B0101544B552B01060150B7
:10389800D8B41200E0D7C4C0F6FFC5C0F7FFF86A75
:1038A80054C1D9FF55C1DAFF070EF76403D00800E9
:1038B800F55005D0F6CFE9FFF7CFEAFFEF50DF6EFE
:1038C8000001C44BC52B0101544B552B0106015077
:1038D800D8B41200E0D72D0E466E59C01CF0FD0E6C
:1038E8001C16D8A457D059C01CF0D8901C323F0ED3
:1038F8001C161C50040D000EF324376E040EF42021
:10390800386E37C035F038C036F0040E351A37C077
:10391800D9FF38C0DAFFDF30E8320F0B0D0AD8A420
:1039280036D0000E1E6E070E1E6401D023D020EE86
:1039380002F03750D9263850DA22DECF1CF0DDCF1E
:103948001DF01CC0D9FF1DC0DAFF1E50010D300E3E
:10395800F324E16E040EF420E26EDFCFE7FF20EEE1
:1039680002F03750D9263850DA22DE2A000EDD223E
:103978001E2AD9D720EE02F03750D9263850DA223D
:10398800300EDE6E040EDD6EC3EC23F01200ECEC9C
:1039980027F012005950FD0B040AD8A412004BEC72
:1039A8001AF01200010E0001796FF40E786F000E04
:1039B8007A6F8EEC2CF0F40E0001726F7D0E736F2F
:1039C800000E746F000E756F27EC26F081A202D0EE
:1039D80081B00CD07C0E0001726F7E0E736F000EEA
:1039E800746F030E756F27EC26F038D01B0E00019C
:1039F800726F7E0E736F000E746F010E756F27EC79
:103A080026F02CD081B20ED0010E726F7E0E736F2D
:103A1800000E746F020E756F27EC26F000017A51C4
:103A2800080F7A6F81B00ED00E0E726F7E0E736F14
:103A3800000E746F030E756F27EC26F000017A51A3
:103A4800800F7A6F880E7A19D8B412009C0E000184
:103A5800776FD70EE82EFED7772FFCD700017807AF
:103A6800D8A079077829CEE17929D8B41200CAD725
:103A780006EC25F08EEC2CF0580E0001726F7F0ECC
:103A8800736F000E746F000E756F27EC26F0710EC1
:103A98000001726F7F0E736F000E746F010E756FE9
:103AA80027EC26F0690E0001726F7F0E736F000E0F
:103AB800746F020E756F27EC26F00E0E0001626F10
:103AC800020E636F430E05EC24F071EC29F063C01D
:103AD80072F064C073F0C7EC24F072C0DAF073C0FF
:103AE800DBF00001DA5180EC18F00001AC6FAC514A
:103AF800DA6FDB6B0A0E776F020E786FDA5130ECF3
:103B080021F000F0C70E0001726F7A0E736F0A0E73
:103B1800746F010E756F27EC26F09CEC28F06EC0D0
:103B280072F06FC073F00A0E0001746F010E756FAA
:103B380027EC26F012004450D8A41200010E446E5F
:103B48004350D8A41200010E436E020E4A18D8A49E
:103B580016D0000120EE01F0CA51D926CB51DA2245
:103B6800000EDF6ECAC0D9FFCBC0DAFF480EDF6E89
:103B7800CAC0D9FFCBC0DAFF000EDB8E12004A04A0
:103B8800D8A41200000E476E20EE01F03750D92657
:103B98003850DA22080EDF6E20EE02F03750D926B0
:103BA8003850DA22300EDE6E040EDD6E37C0D9FFD3
:103BB80038C0DAFF040EDF6E37C0D9FF38C0DAFF2D
:103BC800000EDB8E010E476E20EE01F03550D9262F
:103BD8003650DA22080EDF6E20EE02F03550D92674
:103BE8003650DA22300EDE6E040EDD6E35C0D9FF97
:103BF80036C0DAFF800EDF6E12000BD061C0F6FF10
:103C080062C0F7FF0800F550B0EC29F00001614BE5
:103C1800622B61C0F6FF62C0F7FF0800F55000098B
:103C2800D8A4ECD7000E0001676F020E676501D0BB
:103C38000ED06751010DF3506325D96EF4506421FD
:103C4800DA6EDF50B0EC29F00001672BEED720EEDA
:103C580003F06351D9266451DA22DF50B0EC29F021
:103C6800040E0001686F21D06851010DF3506325DF
:103C7800D96EF4506421DA6EDF50666F66390F0B27
:103C880055EC2BF0B0EC29F000016851010DF35010
:103C98006325D96EF4506421DA6EDF500F0B55ECB2
:103CA8002BF0B0EC29F00001682B6551685DD8A0B5
:103CB800DBD766EC2DF012000001646F0001605143
:103CC800D8B407D06451020DCA0EF324D96E000E81
:103CD80006D06451020D400EF324D96E010EF42073
:103CE800DA6EDECF65F0DDCF66F065516611D8A4D7
:103CF80005D0000E606F000E616F120020EE02F01A
:103D08006551D9266651DA2261C0DEFF62C0DDFF47
:103D180020EE01F06551D9266651DA2263C0DFFF33
:103D280065C0D9FF66C0DAFF400EDF1665C0D9FF4F
:103D380066C0DAFF000EDB8665C0D9FF66C0DAFF11
:103D4800000EDB8E6051D8B407D06451020DCA0E44
:103D5800F324D96E000E06D06451020D400EF324F0
:103D6800D96E010EF420DA6E040EDF1A65C060F019
:103D780066C061F01200056E0150D8B407D0055036
:103D8800020DCA0EF324D96E000E06D00550020D9E
:103D9800400EF324D96E010EF420DA6EDECF06F061
:103DA800DDCF07F006500710D8A405D0000E016E2D
:103DB800000E026E120020EE02F00650D9260750BF
:103DC800DA2202C0DEFF03C0DDFF20EE01F006505C
:103DD800D9260750DA2204C0DFFF06C0D9FF07C082
:103DE800DAFF400EDF1606C0D9FF07C0DAFF000E63
:103DF800DB8606C0D9FF07C0DAFF000EDB8E015054
:103E0800D8B407D00550020DCA0EF324D96E000E9F
:103E180006D00550020D400EF324D96E010EF42091
:103E2800DA6E040EDF1A06C001F007C002F01200B5
:103E3800000E0001DE6FD651D711D8B40FD0D6C00E
:103E4800D9FFD7C0DAFFDFAE03D06A6B6A2B02D086
:103E580000016A6B6A516B6F6C6B04D0000E6C6F5B
:103E6800000E6B6F6B516C11D8A43BD020EE01F0A3
:103E7800D651D926D751DA226951DE5CD8B008D09C
:103E880020EE01F0D651D926D751DA22DF50696FDA
:103E9800000EDE6F13D0DE51010D400EF324D96EF3
:103EA800050EF420DA6EDE51010DF3506725E16E40
:103EB800F4506821E26EDFCFE7FFDE2B6951DE5D4B
:103EC800D8A0E9D7000E606F400E616F050E626FD3
:103ED800400E636F020E60EC1EF060C0D6F061C049
:103EE800D7F00001DE5112000001696F0001665130
:103EF800676F686B020E6727000E6823C40E67257C
:103F0800D96E010E6821DA6E69C060F0616B000E2F
:103F1800636F0A0E626FB7EC25F000016051300F35
:103F2800DF6E0A0E606F695191EC29F00001696F2C
:103F38006651676F686B010E6727000E6823C40E11
:103F48006725D96E010E6821DA6E69C060F0616B71
:103F5800000E636F0A0E626FB7EC25F00001605126
:103F6800300FDF6E0A0E606F695191EC29F0000185
:103F7800696F6651010DC40EF324D96E010EF42049
:103F8800DA6E69C060F0616B000E636F0A0E626FD3
:103F9800B7EC25F000016051300FDF6E12003ED003
:103FA800FFD78EEC2CF0100E0001726F7F0E736F2E
:103FB800010E746F000E756F27EC26F0610E00017C
:103FC800726F7F0E736F020E746F010E756F27ECA0
:103FD80026F0280E0001726F7E0E736F000E746F4C
:103FE800020E756F27EC26F0010E000105D0200E99
:103FF800EC6101D01FD0020EEA6F1CD0BCEC1AF0A5
:10400800030E0001776FF0EC25F00001776F030EC7
:104018007719D8B40FD0020EF96F0CD00001EA510D
:10402800000AD8B4BED7010AD8B4E1D7030AD8B475
:10403800E5D7B6D780A004D00001F951D8B4EED79F
:1040480000F0020E0001F919D8B41200000EF96F41
:104058001200040130511F0BE806D8A412003039B1
:10406800E832030BE806D8A412003451D8B437D08C
:104078003405D8A4120033D0DE0E0001C46F010E3F
:10408800C56F000EC96F080EC86FC781C78F1200B1
:10409800DE0E0001C46F010EC56FC78F120036C453
:1040A800C0F037C4C1F0D40E0001BC6F010EBD6F63
:1040B800340EC26F500EC36FBF8F1200E60E0001A0
:1040C800C46F010EC56F000EC96F070EC86FC10E11
:1040D800C76F120032C45CF10001C78F12000401DF
:1040E8003151000AD8B4C8D7010AD8B4D1D7210AA7
:1040F800D8B4D5D7010AD8B4E1D7030AD8A4120096
:10410800E9D7000E0001696F63AF0AD0631F621F11
:10411800611F606D000E612362236323010E696FC6
:1041280067AF08D0671F661F651F646D000E6523A3
:10413800662367236451651166116711D8B424D0CA
:10414800010E686F06D0D8906437653766376737D1
:10415800682B67AFF8D76451605D65516159665146
:10416800625967516359D8A008D06451605F65519E
:10417800615B6651625B6751635BD89067336633F6
:1041880065336433682FE7D76951D8B408D0631F03
:10419800621F611F606D000E61236223632360C08C
:1041A80060F061C061F062C062F063C063F0120049
:1041B800000E0401386F000E396F38D00001C78F28
:1041C8004904D8A43ED0040138833BD00001C78FEE
:1041D80038D00001C78F040134BF0AD034510F0B07
:1041E800016E0150020D400EF324D96E010E09D064
:1041F80034510F0B016E0150020DCA0EF324D96E13
:10420800000EF420DA6EDECF02F0DDCF03F002C03C
:10421800D9FF03C0DAFFDFAE14D002C0D9FF03C054
:10422800DAFFDFA40ED0010E386F0BD030511F0B10
:10423800000AD8B4C3D7010AD8B4C8D7030AD8B477
:10424800C8D70001C7AF1200380EC46F040EC56F7F
:10425800C781020EC86F12000001806F000E0001B6
:10426800796F80AF02D0010E796F80517F0B806F1C
:1042780080C060F0616B000E636F0A0E626FB7EC6E
:1042880025F000016051300F7C6F0A0E606F80517D
:1042980091EC29F00001806F80C060F0616B000E26
:1042A800636F0A0E626FB7EC25F000016051300FA2
:1042B8007B6F0A0E606F805191EC29F00001806FCE
:1042C80080C060F0616B000E636F0A0E626FB7EC1E
:1042D80025F000016051300F7A6F7951D8B402D0BF
:1042E8002D0E7A6F000E7D6F7A0E726F000E736F4F
:1042F80077C074F078C075F027EC26F01200000E35
:10430800426E000E416E020E4A18D8A41FD020EE4D
:1043180001F03550D9263650DA22080EDF6E20EE2D
:1043280002F03550D9263650DA22380EDE6E040EE9
:10433800DD6E35C0D9FF36C0DAFF480EDF6E35C0F6
:10434800D9FF36C0DAFF000EDB8E12000001C8511B
:104358000401365D0001C95104013759D8B004D0B1
:1043680036C4C8F037C4C9F005EC1CF0000120EED3
:1043780002F0CA51D926CB51DA22380EDE6E040E6D
:10438800DD6ECAC0D9FFCBC0DAFF480EDF6ECAC0E7
:10439800D9FFCBC0DAFF000EDB8E1200980EF66E46
:1043A8005B0EF76E000EF86E0900F5CFFAF1090002
:1043B800F5CFFBF10900F5CFFCF1480EF66E5B0E68
:1043C800F76E000EF86E00EEF9F010EE07F0090037
:1043D800F5CFEEFFE550E150FAE19B0EF66E5B0E6D
:1043E800F76E000EF86E0900F5CF5DF003EE00F0F1
:1043F800800EEE6AE806FDE102EE00F0C00EEE6AFD
:10440800E806FDE101EE00F0FA0EEE6AE806FDE1CD
:1044180000EEBCF03D0EEE6AE806FDE15C6A00EED7
:1044280033F0290EEE6AE806FDE15E905E92000E1A
:10443800F86E000172EF16F0066E000E076E040E9D
:10444800086E0150026E036AD89002360336065091
:10445800046E056AD89004360536D89004360536B9
:104468000250042603500522D89004360536D89009
:1044780004360536045007260550082207C0D9FF20
:1044880008C0DAFFDF9E0150D8A407D00650020DFD
:10449800400EF324D96E010E06D00650020DCA0E46
:1044A800F324D96E000EF420DA6E07C0DEFF08C0D0
:1044B800DDFF07C0D9FF08C0DAFFDF9C20EE04F05B
:1044C8000750D9260850DA22DF8C1200000E0001AE
:1044D800606F020E606501D00CD06051010DF70EBF
:1044E800F324D96E010EF420DA6E000EDF6E602B15
:1044F800F0D7000E616F210E616501D00CD06151BB
:10450800010D300EF324D96E010EF420DA6E000E80
:10451800DF6E612BF0D7000E626F1F0E626501D04F
:104528000CD06251010DA40EF324D96E010EF420B3
:10453800DA6E000EDF6E622BF0D7000E636F0F0E7F
:10454800636501D012006351010DC40EF324D96EC6
:10455800010EF420DA6E000EDF6E632BF0D78EECBE
:104568002CF03D0E0001726F7F0E736F000E746F9A
:10457800000E756F27EC26F08A0E0001726F7D0E13
:10458800736F000E746F060E756F27EC26F0970E8A
:104598000001726F7D0E736F000E746F080E756FD9
:1045A80027EC26F0C30E0001726F7C0E736F000EAD
:1045B800746F010E756F27EC26F0700E0001726F94
:1045C8007E0E736F000E746F020E756F27EC26F067
:1045D800460E0001726F7F0E736F000E746F030E2C
:1045E800756F27EC26F012000001796F79C060F032
:1045F8000001616B000E636F0A0E626FB7EC25F065
:1046080000016051300F7C6F0A0E606F795191EC98
:1046180029F00001796F79C060F0616B000E636F5B
:104628000A0E626FB7EC25F000016051300F7B6F06
:104638000A0E606F795191EC29F00001796F79C009
:1046480060F0616B000E636F0A0E626FB7EC25F0C5
:1046580000016051300F7A6F000E7D6F7A0E726F15
:10466800000E736F77C074F078C075F027EC26F0F1
:10467800120035D060C0D9FF61C0DAFFDF50D8B46E
:1046880010D060C0D9FF61C0DAFFDF500001666F4B
:1046980062C0F6FF63C0F7FF0800F5506619D8B48A
:1046A8001AD062C0F6FF63C0F7FF0800F55000019A
:1046B800666F676B661F671F664B672B60C0D9FF05
:1046C80061C0DAFFDF50686F68516625606F000EC1
:1046D8006721616F1200604B612B624B632B0001F5
:1046E8006407D8A065076429C5E16529D8A4C2D79D
:1046F800000E616F000E606F1200000E0001676F00
:10470800000E666F000E656FAC9A8B9C000E616F91
:104718000A0E606F93EC2AF0AC8A000E0001616FFC
:10472800050E606F93EC2AF0550EAD6EACA2FED765
:10473800FC0E0001616F7F0E626FDDEC2AF0000E47
:104748000001616F280E606F93EC2AF013D0C6EC5D
:1047580026F00009D8B403D0010E00010AD00001E8
:10476800654B662B890E655D130E6659D8A002D07D
:10477800010E676F00016751D8B41200E8D7000E28
:104788004B6E000E456E000E426E000E416E000E1E
:10479800476E000E4A6ECAC0D9FFCBC0DAFF7F0E43
:1047A800DF16040E0001CA1BCAC0D9FFCBC0DAFF4E
:1047B8007F0EDF16040ECA1B35C0D9FF36C0DAFFDC
:1047C8007F0EDF16000EC76F000EC96F000EC86F90
:1047D800000EBF6F000EC16F000EC06F69EC19F0BC
:1047E800000E0F6E030E0E6E000E106E000E116E90
:1047F800000E136E000E126EBEEC27F007EC18F0D8
:10480800120000016A6F000163510DEC2DF00001E8
:104818006251080DF350040F72EC2CF0000E0001E9
:104828006B6F070E6B6501D012006B51010D000E06
:10483800646FFF0E656F6A51666F676BD890663755
:104848006737D89066376737D890663767376451C7
:10485800662765516723FAC168F0FBC169F06651A4
:10486800682767516923F3506827F450692368C0A3
:10487800F6FF69C0F7FF0800F550C2EC2CF0000104
:104888006B2BCFD7000E096E000E0A6E000E0B6E52
:10489800000E0C6E0550061007100810D8B42AD068
:1048A800010E0D6E06D0D890053606360736083646
:1048B8000D2A08AEF8D7D89009360A360B360C36CA
:1048C8000550015C06500258075003580850045818
:1048D800D8A009D00550015E0650025A0750035A65
:1048E8000850045A0980D890083207320632053237
:1048F8000D2EE1D709C001F00AC002F00BC003F089
:104908000CC004F01200E20ECDEC2CF08A84040EE8
:104918000001626F1C0EE82EFED7622FFCD700F054
:104928008A94200E0001626F290EE82EFED7622FAE
:10493800FCD700D08A84100E0001626F940EE82E16
:10494800FED7622FFCD700F0A10ECDEC2CF0C00EE4
:10495800CDEC2CF0A30ECDEC2CF0070E46EC2DF090
:10496800050E3EEC2DF05D5003EC2DF0000E4EECE4
:104978002DF0F80ECDEC2CF0000ECDEC2CF0AF0E97
:10498800CDEC2CF01200000E0001786F000E776F4E
:10499800000E796F030E796501D02FD072C0D9FF50
:1049A80073C0DAFFDF50D8B428D07951D8B40ED00C
:1049B80077C060F078C061F0000E636F0A0E626F16
:1049C800C3EC2BF060C077F061C078F072C0D9FFFB
:1049D80073C0DAFFDF500001746F74517725756F6B
:1049E800000E7821766FD00E7525776FFF0E762131
:1049F800786F724B732B792BCDD777C072F078C054
:104A080073F01200000E0001666F000E656FD30E82
:104A1800616F790E626FDDEC2AF009D00001654BF9
:104A2800662B510E655DC30E6659D8B005D0C6EC2D
:104A380026F00009D8B4F2D7000E0001666F000E08
:104A4800656FB80E616F790E626FDDEC2AF009D0E0
:104A58000001654B662B510E655DC30E6659D8B0D3
:104A680005D0C6EC26F00009D8B4F2D7000E000134
:104A7800616F640E606F93EC2AF012000B6E0450A5
:104A88005EEC2DF00350080DF350040FEEEC2CF003
:104A9800000E0C6E070E0C6401D012000C50010DB4
:104AA800000E056EFF0E066E0B50076E086AD89052
:104AB80007360836D89007360836D89007360836AD
:104AC8000550072606500822FAC109F0FBC10AF072
:104AD8000750092608500A22F3500926F4500A22E2
:104AE80009C0F6FF0AC0F7FF0800F55021EC2DF0C9
:104AF8000C2AD0D7B3EC22F0000E0001616F140E1F
:104B0800606F93EC2AF0D6EC1CF08EEC2CF0000EC3
:104B18000001616F140E606F93EC2AF092EC26F09E
:104B2800000E0001616F140E606F93EC2AF05FECC9
:104B380027F0000E0001616F140E606F93EC2AF0ED
:104B48002FEC29F0000E0001616F140E606F93ECDA
:104B58002AF03CEC1DF00B0E0001616FB80E606F7F
:104B680093EC2AF01200000E0001656F61AF06D0C9
:104B7800606D611FD8B0612B010E656F63AF04D003
:104B8800626D631FD8B0632B62516311D8B418D01B
:104B9800010E646F04D0D89062376337642B63AF1B
:104BA800FAD76251605D63516159D8A004D062514F
:104BB800605F6351615BD89063336233642FF1D7D0
:104BC8006551D8B404D0606D611FD8B0612B60C046
:104BD80060F061C061F01200000E0001606F81A2F8
:104BE80002D081B01AD0010E01014A27000E4B23D2
:104BF8004C234D23370E4A194B114C114D11D8A493
:104C080009D0000E0001E46F81B202D0010E18D065
:104C1800020E16D0000E000113D0140EE419D8A409
:104C28000DD0000E01014A6F000E4B6F000E4C6F45
:104C3800000E4D6F000E0001E46F01D0E42B030E4F
:104C4800606F6051120074C076F00F0E0001766537
:104C580001D0120072C0F6FF73C0F7FFF86A070EA2
:104C6800F76403D00800F55005D0F6CFE9FFF7CF79
:104C7800EAFFEF500009D8B4120076C062F075C0A0
:104C880063F072C0F6FF73C0F7FFF86A070EF764A7
:104C980003D00800F55005D0F6CFE9FFF7CFEAFFBB
:104CA800EF5005EC24F00001724B732B762B0F0E9E
:104CB800CED7F20E0001606F010E616FED0E626FCC
:104CC800010E636F000E656F050E646FE9EC28F046
:104CD800F20E0001606F010E616F6BC062F06CC074
:104CE80063F0000E656F050E646FE9EC28F0000EA6
:104CF80000016D6F040E6D6501D00ED06D51010D70
:104D0800F20EF324D96E010EF420DA6EDF50D8B417
:104D18006DC0EDF06D2BEED700F01200BF0E000154
:104D2800726F7E0E736F000E746F000E756F27EC36
:104D380026F0010EF5EC18F0010E0001616FF40E7B
:104D4800606F7AEC2AF0000EF5EC18F0010E000105
:104D5800616FF40E606F7AEC2AF0010EF5EC18F032
:104D6800010E0001616FF40E606F7AEC2AF0000EFC
:104D7800F5EC18F0010E0001616FF40E606F7AEC2B
:104D88002AF01200000E0001616FF551D8B42BD043
:104D9800000E626F0BEC2AF00001626F0D0E6219B3
:104DA800D8A40FD0F251010D640EF324D96E010E70
:104DB800F420DA6E000EDF6E010E616F000EF26FE6
:104DC80012D06251D8B40FD00A0E6219D8B40BD0E1
:104DD800F251010D640EF324D96E010EF420DA6E3F
:104DE80062C0DFFFF22B61511200000E0101E66F75
:104DF8004B0EE76F000EE86F000EE96F000EEA6FCA
:104E0800000EEB6F080EEC6F000E0001DE6F1A0E3D
:104E1800096E010EEDEC29F01E0E096E020EEDEC86
:104E280029F0000E016E400E026E050E036E400E54
:104E3800046E020EBFEC1EF001C0D6F002C0D7F01F
:104E4800000E336E000E346E000E0001EB6F120080
:104E58000FC011F00F0E116401D012000DC0F6FF43
:104E68000EC0F7FFF86A070EF76403D00800F55084
:104E780005D0F6CFE9FFF7CFEAFFEF500009D8B425
:104E8800120011C003F010C004F00DC0F6FF0EC0F0
:104E9800F7FFF86A070EF76403D00800F55005D04D
:104EA800F6CFE9FFF7CFEAFFEF5042EC25F00D4AC5
:104EB8000E2A112ACFD7060E0001726F7F0E736F6C
:104EC800000E746F010E756F27EC26F0898C898EA1
:104ED800010E0001616FF40E606F7AEC2AF0899C74
:104EE800899E010E0001616FF40E606F7AEC2AF062
:104EF800898C898E010E0001616FF40E606F7AEC67
:104F08002AF0899C899E010E0001616FF40E606F82
:104F18007AEC2AF01200000E0001756F050E756517
:104F280001D026D072C0D9FF73C0DAFFDF50D8B4E1
:104F380012D072C0D9FF73C0DAFF7451010DC40ECC
:104F4800F324E16E010EF420E26EDFCFE7FF724B2F
:104F5800732B742B0BD07451010DC40EF324D96E2E
:104F6800010EF420DA6E200EDF6E02D0752BD6D734
:104F78007551120006D047EC28F012002DEC20F0F5
:104F880012000EC014F00FC015F01550000AD8B466
:104F980004D07F0AD8A4120018D01450010AD8B43B
:104FA800EAD7030AD8B41200010AD8B4E7D7060A28
:104FB800D8B41200770AD8B41200010AD8B4120083
:104FC800070AD8B41200010A12001450FF0A12008E
:104FD800020E4A18D8A403D079EC13F01200000E80
:104FE8004A6E4750D8A41FD020EE01F03550D9267C
:104FF8003650DA22080EDF6E20EE02F03550D92640
:105008003650DA22300EDE6E040EDD6E35C0D9FF62
:1050180036C0DAFF0C0EDF6E35C0D9FF36C0DAFFB6
:10502800000EDB8E1200000E476E1200D4C1E6F1AE
:10503800D5C1E7F1D6C1E8F1D7C1E9F1000E016E9B
:105048001B0E026EB70E036E000E046EE6C105F06D
:10505800E7C106F0E8C107F0E9C108F046EC24F022
:10506800FF0E01240E6EFF0E02200F6EFF0E0320AE
:10507800106EFF0E0420116E0EC0AFFF0FC0B0FF00
:1050880044EC2AF01200F9EC26F0000E0101EA6F58
:10509800080EEC6F000EEB6F000EE66F4B0EE76F1D
:1050A800000EE86F000EE96F44EC2AF0000E0D6E5A
:1050B8003F0E0D6401D00CD00D50010D800EF3246D
:1050C800D96E020EF420DA6E000EDF6E0D2AF0D7CC
:1050D800000E0001E86F000EE66F120092809282C7
:1050E800928492868D949694929A929C929EF19E26
:1050F800868EF28693829380938E93949396939858
:10510800939A949094929484949C948E000E956EA5
:105118009694899A899C899E8A948B948B9C8D8479
:105128000F015B915B835B855B875D9F5D9D1200D3
:10513800000E0001716F000E706F6C0E616F7A0EB9
:10514800626FDDEC2AF009D00001704B712B510E13
:10515800705DC30E7159D8B005D0C6EC26F00009B1
:10516800D8B4F2D7640E00016B6F010E6C6F5DEC62
:1051780026F0640E00016E6F010E6F6F120005D0ED
:105188000001604B612B624B632B60C0D9FF61C08B
:10519800DAFFDF500001646F62C0F6FF63C0F7FFFB
:1051A8000800F55000086425656F6551D8A407D03C
:1051B80060C0D9FF61C0DAFFDF50D8A4E1D76551DC
:1051C800606F616B60BF6107120062C068F063C006
:1051D80069F060C066F061C067F011D068C0D9FF9F
:1051E80069C0DAFFDF5000016A6F684B692B66C03F
:1051F800D9FF67C0DAFF6AC0DFFF664B672B000183
:105208006407D8A065076429E9E16529D8B41200C4
:10521800E5D7000162516311D8B418D0010E646F4C
:1052280004D0D89062376337642B63AFFAD76251E2
:10523800605D63516159D8A004D06251605F6351C9
:10524800615BD89063336233642FF1D760C060F03C
:1052580061C061F01200000E0001606F3F0E6065D2
:1052680001D00CD06051010D000EF324D96E020E4E
:10527800F420DA6E000EDF6E602BF0D7000EE06FC0
:10528800000EDF6F000EF56F9D98000EE36F000EA5
:10529800E26F400EE16F12006AA01DD037C0D9FF3F
:1052A80038C0DAFF800EDE18D8A414D0CAC0D9FFDF
:1052B800CBC0DAFF840EDE18D8A40CD037C0D9FFD3
:1052C80038C0DAFF0C0EDF6E37C0D9FF38C0DAFFFE
:1052D800000EDB8E6A90659A1200000E0001666F60
:1052E800000E656F560E616F7A0E626FDDEC2AF064
:1052F80009D00001654B662B510E655DC30E6659DA
:10530800D8B005D0C6EC26F00009D8B4F2D7640EA0
:105318000001636F010E646F12000001616F000EDF
:105328000001636F6051D8B415D0010E626F03D0CD
:10533800D8906037622B60AFFBD7D8906337605145
:10534800615DD8A003D06051615F6381D8906033FC
:10535800622FF3D7635112000001606F0001E15121
:10536800D8B4FCD79DB803D060C0ADFF12D09D98CB
:10537800E351010D400EF324D96E020EF420DA6ECB
:1053880060C0DFFFE32B3F0EE36502D0000EE36F42
:10539800E1079D8812000001616F000EF2BE010E48
:1053A8000001626F61C0A9FF60C0A8FFA69EA69C0D
:1053B800A684F29E550EA76EAA0EA76EA682A6B266
:1053C800FED7A694000162B102D0F29E01D0F28EFF
:1053D80012000C6E09A405D0000E016E0C5020ECD2
:1053E80022F009A205D0010E016E0C5020EC22F02B
:1053F8000C50010D6A0EF3240A6E0F0EF4200B6E8A
:105408000AC0D9FF0BC0DAFF09C0DFFF1200000E87
:105418000001606F01D0898EF551D8B4FCD79D9AF0
:10542800DF51010D000EF324D96E020EF420DA6E5E
:10543800DF50606FDF2B3F0EDF6502D0000EDF6F9D
:10544800F5079D8A605112009D9A9D98480EB86E86
:10545800900EAB6E260EAC6ED00EAF6E000EB06E18
:10546800000E0001E36F000EE26F400EE16F000EC8
:10547800E06F000EDF6F000EF56F9D8AAB8812009B
:105488009D9A9D98480EB86E900EAB6E260EAC6E27
:10549800D00EAF6E000EB06E000E0001E36F000E6E
:1054A800E26F400EE16F000EE06F000EDF6F000E3E
:1054B800F56F9D8AAB8812000001EC51D8A4120048
:1054C800000E606E000E646E160E626E9F0E666EA3
:1054D8007B0E646ED08EA584A384F28E01D0608684
:1054E80060A6FDD7010E0001EC6F1200000E00014E
:1054F800646F000E636F0CD0100E0001626F940E83
:10550800E82EFED7622FFCD700F00001634B642B16
:105518006051635D61516459D8B01200EDD7000E37
:105528000001646F000E636F0CD0100E0001626FF3
:10553800940EE82EFED7622FFCD700F00001634BD3
:10554800642B6051635D61516459D8B01200EDD786
:10555800000ECD6E000ECC6ED00ECF6E200ECE6E2D
:10556800CE50CFCF60F00001616B60C061F0606B1E
:1055780060113B6E61513C6E9E909D80BEEC2DF09B
:10558800120096948D849394939693989490949201
:105598008A868A9887EC24F0010ED7EC2BF0F70E58
:1055A8000001606F750E616FF9EC2CF08EEC2CF039
:1055B80012000BD061C0F6FF62C0F7FF0800F5507B
:1055C800B0EC29F00001614B622B61C0F6FF62C0AC
:1055D800F7FF0800F5500009D8A4ECD766EC2DF0C9
:1055E800120060C066F061C067F009D066C0D9FFDC
:1055F80067C0DAFF62C0DFFF0001664B672B00015E
:105608006407D8A065076429F1E16529D8B41200B8
:10561800EDD7000E01015D6F000E0F6E740E0E6E59
:10562800000E106E000E116E000E136E000E126E3C
:10563800BEEC27F06092649401D0659465A41200D2
:10564800FCD7400E0001E16112D0E251010D400E7D
:10565800F324D96E020EF420DA6EDF50AD6EE22B21
:105668003F0EE26502D0000EE26FE12B12009D981A
:105678001200ABA203D0AB98AB8812000001E05136
:10568800010D000EF324D96E020EF420DA6EAECFAF
:10569800DFFFE02B3F0EE06502D0000EE06FF52B38
:1056A80012000001606F000160510F0B606F0A0E5D
:1056B800606103D06051300F1200090E606506D09A
:1056C800100E606103D06051370F1200000E1200F7
:1056D8004F50D8B481BE10D0C8EC2DF0220E93ECF8
:1056E8002DF0000E4C6E000E5B6E000E01015E6F19
:1056F800000E4E6E010E4F6E79EC2DF0120001C0B7
:1057080007F002C008F008D007C0D9FF08C0DAFFC8
:1057180003C0DFFF074A082A0506D8A006060528A1
:10572800F3E10628D8B41200EFD7D8EC2CF072ECCD
:1057380028F0ACEC2AF017EC2DF022EC2CF028EC39
:105748002AF043EC2CF09BEC2CF035EC2DF080EC9F
:105758002CF01200648465986082010E01015D6F6F
:10576800000E0F6E750E0E6E000E106E000E116E8E
:10577800000E136E000E126EBEEC27F01200000130
:1057880060516203F3CF64F0F4CF65F060516303B6
:10579800F350652761516203F350652764C060F0D8
:1057A80065C061F012000001616F00016151D8A469
:1057B80007D0A00ECDEC2CF0C80ECDEC2CF01200CA
:1057C800A10ECDEC2CF0C00ECDEC2CF01200820E08
:1057D8000001616F7A0E626FDDEC2AF09DB8FED78A
:1057E800FA0E0001636F580EE82EFED7632FFCD720
:1057F80000F0120000016C6F000E00016D6F0F0EBB
:105808006D6501D012006DC062F06CC063F0200EAF
:1058180005EC24F000016D2BF2D7A3940001EB51A5
:10582800D8A40AD060C051F161C052F162C0DDF065
:10583800010EDC6F010EEB6FA3841200040EB16E33
:10584800000EB46ED50EB36ED00EB26EB2CF39F074
:10585800B3CF3AF0A192A082BAEC2DF01200000169
:10586800606F000160A303D00101584B592B000160
:1058780060B7F02B60A912000101632B1200D59AC2
:10588800D598D596D594D582D590000E0101576F3D
:105898006E0E566FF294F28AC0EC2DF012000D6E67
:1058A800000E0E6E0F0E0E6401D012000EC003F033
:1058B8000DC004F0200E42EC25F00E2AF3D7A19279
:1058C8008DA406D08D94D50EB36ED00EB26E120094
:1058D8008D84FB0EB36E500EB26E12000001616F24
:1058E800000161390F0B1009CDEC2CF0000161515A
:1058F8000F0BCDEC2CF01200000E4F6E000E5B6EFD
:10590800000E4E6E000E01015E6F000E4D6E000E11
:105918004C6E1200000EFEEC2BF0010EFEEC2BF08C
:10592800020EFEEC2BF0030EFEEC2BF01200A00E84
:105938007D6E010EC26E080EC16E8E0EC06E000E18
:10594800C36E000EC46E1200B5EC2CF012C00DF040
:1059580013C00EF0000E0F6E000E106E2CEC27F028
:105968001200000E53EC2CF0010E53EC2CF0020E3A
:1059780053EC2CF0030E53EC2CF012000001606F76
:105988008A988B8060C08CFF8B9200F08B828A880B
:1059980012000001606F8A988B9060C08CFF8B9218
:1059A80000F08B828A881200800E9B6E700ED36E78
:1059B800100ED26ED2AEFED7900EB56E1200000158
:1059C800606F60C0A9FFA69CA69EA68000F000F0AC
:1059D800A8501200026E02380F0B10092BEC2DF0A4
:1059E80002500F0B2BEC2DF01200000160516111D9
:1059F800D8B4120060C0FAF161C0FBF112000001D6
:105A0800616F810ECDEC2CF000016151CDEC2CF0D2
:105A180012000001616F00016151B009616F6151AD
:105A2800CDEC2CF012007A0EBA6E9B0EBB6E000EF7
:105A3800BC6E9E92BCEC2DF01200016E8A988B8091
:105A480001C08CFF8B9200F08B828A881200016E55
:105A58008A988B9001C08CFF8B9200F08B828A8889
:105A68001200A09C9C0E986E9A8A9A929A96A19C73
:105A7800A09C12000001616F000161512009CDEC6A
:105A88002CF012000001616F000161512809CDEC72
:105A98002CF012000001616F0001618D6151CDECA5
:105AA8002CF01200050E0001616F7A0E626FDDECBA
:105AB8002AF01200026E0250B009026E02502BEC5E
:105AC8002DF012000D0EB0EC29F00A0EB0EC29F002
:105AD8001200F20E0001606F010E616F12009E90BD
