:0400000098EF00F085
:100008005B82FACF20F0FBCF21F0E9CF22F0EACFD4
:1000180023F0E1CF24F0E2CF25F0D9CF26F0DACFD4
:1000280027F0F3CF28F0F4CF29F0F6CF2AF0F7CF56
:100038002BF0F8CF2CF0F5CF2DF09DA001D001D0FA
:1000480009D09EA001D001D005D054EC39F088EC3D
:1000580039F000D0A0A201D001D007D0A1A201D0D0
:1000680001D003D051EC38F041D09DAA01D001D085
:1000780009D09EAA01D001D005D085EC39F07BECDF
:1000880036F034D09DA801D001D007D09EA801D069
:1000980001D003D05AEC36F029D0A0AC01D001D061
:1000A80007D0A1AC01D001D003D091EC39F01ED01B
:1000B800F2A601D001D013D0F2A001D001D00FD008
:1000C800F29086AE01D001D011D081AE01D001D01E
:1000D80002D0808E0BD0809E09D008D007D005ECC6
:1000E80019F004D003D002D001D000D02DC0F5FF04
:1000F8002CC0F8FF2BC0F7FF2AC0F6FF29C0F4FF79
:1001080028C0F3FF27C0DAFF26C0D9FF25C0E2FFC9
:1001180024C0E1FF23C0EAFF22C0E9FF21C0FBFFA2
:1001280020C0FAFF5B9211001EEF31F00001B56F9D
:10013800000E0001B06F0001AE510001D8B4CCEF41
:1001480009F00001F951D8B4CCEF09F00001FC51D5
:100158000001E35DD8A0E5D082EC25F0000E010196
:10016800596F000E586F000E0001C86F000EC76F60
:1001780000F069EC2EF0000E0001B16F3DEC33F099
:100188006DC071F06EC072F04FEC2CF071C058F178
:1001980072C059F13FEC39F060C071F061C072F083
:1001A800060E0001736F010E0001746F96EC30F0BB
:1001B8003FEC39F060C071F061C072F0040E0001CC
:1001C800736F60EC31F00001B16F76EC34F063C00E
:1001D80071F064C072F04FEC2CF071C0C7F072C0BF
:1001E800C8F00001C751F5EC26F00001AF6F00011F
:1001F800AF510001C76FC86B6EEC39F0050F0001F5
:10020800666F0001C75112EC2BF0000E0001E36F7E
:10021800B1EC38F0310E0001716F7C0E0001726F85
:10022800000E0001736F000E0001746F96EC30F041
:10023800340E0001716F7E0E0001726F000E000116
:10024800736F010E0001746F96EC30F0720E0001AE
:10025800716F7D0E0001726F000E0001736F020E48
:100268000001746F96EC30F03FEC39F060C071F02B
:1002780061C072F0030E0001736F020E0001746F0B
:1002880096EC30F00B0E0001766F020E0001776FCE
:100298000001C751A3EC2AF04EEC39F00001E76FDA
:1002A8000001E7510001D8A402D0050E09D0DF0EE5
:1002B8000001E76508D001D006D00001E751CE0F54
:1002C8000001E76F00D00A0E0001766F010E0001F1
:1002D800776F0001E75115EC2EF0000E0001666FF4
:1002E8000001E75112EC2BF0200E0101C06F00F065
:1002F8002D0E0001616F7D0E0001626FBD0E0001C1
:10030800636F010E0001646F0C0E0001656F86ECCF
:1003180024F0070E0001E56F080E0001E96FCCEF2D
:1003280009F00001FA51D8B40AD00001E32B0F0EEE
:100338000001E96F010E0001AC6FCCEF09F0000E6F
:100348000001E36FCCEF09F0FFD712000001B551AF
:100358000001D8A407D00001AC510001D8A402D0F4
:10036800120000D0B1EC38F0210E0001716F7B0E45
:100378000001726F000E0001736F000E0001746FB0
:1003880096EC30F0870E0001716F7B0E0001726FE2
:10039800000E0001736F010E0001746F96EC30F0CF
:1003A800830E0001716F7C0E0001726F000E000158
:1003B800736F030E0001746F96EC30F0060E0001A7
:1003C800E96F12000001B5510001D8B430D0B1EC8A
:1003D80038F0100E0001716F7B0E0001726F000E75
:1003E8000001736F000E0001746F96EC30F0FF0E81
:1003F8000001716F7A0E0001726F000E0001736FB9
:10040800010E0001746F96EC30F0830E0001716FDD
:100418007C0E0001726F000E0001736F030E000165
:10042800746F96EC30F00A0E0001E96F12000001BB
:10043800AC510001D8B41200000E0001E36FB1EC1A
:1004480038F0DC0E0001716F7B0E0001726F000E38
:100458000001736F000E0001746F96EC30F0650EAA
:100468000001716F7D0E0001726F000E0001736F45
:10047800010E0001746F96EC30F0A90E0001716F47
:100488007A0E0001726F000E0001736F030E0001F7
:10049800746F96EC30F082EC25F04EEC39F00001E8
:1004A800E76F0001E7510001D8A402D0050E09D07A
:1004B800DF0E0001E76508D001D006D00001E75142
:1004C800CE0F0001E76F00D00C0E0001766F010E11
:1004D8000001776F0001E75115EC2EF0000E0001C6
:1004E800666F0001E75112EC2BF0200E0101C06F7E
:1004F800000E0101596F000E586F000E0001C86F01
:10050800000EC76F00F069EC2EF0010E0001616F5C
:10051800F40E606F9CEC36F0000E0001B26F3DECFB
:1005280033F06DC071F06EC072F04FEC2CF071C0FA
:1005380058F172C059F13DEC33F06DC071F06EC0E6
:1005480072F0040E0001736F60EC31F00001B26FBD
:1005580000F000F076EC34F063C071F064C072F023
:100568004FEC2CF071C0C7F072C0C8F00001C75141
:10057800F5EC26F00001AF6F0001AF510001C76F25
:10058800C86B6EEC39F0050F0001666F0001C751AA
:1005980012EC2BF000F0070E0001E96F12000001C9
:1005A800B5510001D8B412D02D0E0001616F7D0E37
:1005B8000001626FBD0E0001636F010E0001646FE0
:1005C8000C0E0001656F86EC24F000D00001AC51E0
:1005D8000001D8B412D0640E0001616F7E0E0001D4
:1005E800626FBD0E0001636F010E0001646F0C0E97
:1005F8000001656F86EC24F000D00001B5510001C0
:10060800D8A407D00001AC510001D8A402D0120030
:1006180000D0B1EC38F04C0E0001716F7E0E000175
:10062800726F000E0001736F000E0001746F96EC7C
:1006380030F0400E0001716F7E0E0001726F000EE7
:100648000001736F010E0001746F96EC30F00C0E10
:100658000001766F010E0001776F0001E75115EC7C
:100668002EF0720E0001716F7D0E0001726F000E88
:100678000001736F020E0001746F96EC30F03FECCE
:1006880039F060C071F061C072F0030E0001736F41
:10069800020E0001746F96EC30F00B0E0001766FBD
:1006A800020E0001776F0001C751A3EC2AF0899C64
:1006B800080E0001E96F12000001AD510001D8B425
:1006C80043D15D0E0001606F010E0001616FF70EEE
:1006D8000001626F7F0E0001636FDEEC33F00001F2
:1006E800605100016111D8A405D0898C080E000161
:1006F800E96F00D05D0E0001606F010E0001616FAF
:10070800AA0E0001626F7F0E0001636F000E0001E8
:10071800656F060E646F0BEC2DF00001605100014F
:100728006111D8A48ED0070E0001B46F0001B45136
:10073800010D5D0EF324D96E010EF420DA6EDF5040
:100748000101F06F0001B42B0001B451010D5D0EE1
:10075800F324D96E010EF420DA6EDF500101F16F37
:100768000001B42B200E0101F119D8B416D00001F4
:10077800B451010D5D0EF324D96E010EF420DA6E2A
:10078800DF500101F26F0001B42B200E0101F219B4
:10079800D8B403D00001B42B00D0000E0001B36F11
:1007A8003F0E0001B36503D02DD001D02BD000013E
:1007B800B451010D5D0EF324D96E010EF420DA6EEA
:1007C8000001B351010D9D0EF324E16E010EF420DA
:1007D800E26EDFCFE7FF0001B351010D9D0EF32458
:1007E800D96E010EF420DA6EDF50D8B403D00001C0
:1007F800B42B04D0400E0001B36F00D00001B32B1E
:10080800CFD7D5D7898E899C540E0001716F7B0E86
:100818000001726F000E0001736F020E0001746F09
:1008280096EC30F0CC0E0001716F7A0E0001726FF9
:10083800000E0001736F030E0001746F96EC30F028
:1008480079D05D0E0001606F010E0001616FB10E7D
:100858000001626F7F0E0001636F000E0001656F7B
:10086800060E646F0BEC2DF0000160510001611160
:10087800D8A410D0899CBA0E0001716F7B0E0001BC
:10088800726F000E0001736F030E0001746F96EC17
:1008980030F050D05D0E0001606F010E0001616FF5
:1008A800A30E0001626F7F0E0001636F000E00014E
:1008B800656F060E646F0BEC2DF0000160510001AE
:1008C8006111D8A40FD0960E0001716F7A0E000145
:1008D800726F000E0001736F030E0001746F96ECC7
:1008E80030F028D05D0E0001606F010E0001616FCD
:1008F8009C0E0001626F7F0E0001636F000E000105
:10090800656F060E646F0BEC2DF00001605100015D
:100918006111D8A40FD0B30E0001716F7C0E0001D5
:10092800726F000E0001736F030E0001746F96EC76
:1009380030F000D0FA0E0001AF6F580EE82EFED747
:10094800AF2FFCD700F000D00001B5510001D8A4AA
:1009580007D00001AC510001D8A402D0120000D089
:10096800B1EC38F0210E0001716F7B0E0001726F3F
:10097800000E0001736F000E0001746F96EC30F0EA
:10098800870E0001716F7B0E0001726F000E00016F
:10099800736F010E0001746F96EC30F0830E000146
:1009A800716F7C0E0001726F000E0001736F030EF1
:1009B8000001746F96EC30F0060E0001E96F12002A
:1009C8000001B5510001D8B430D0B1EC38F0630E55
:1009D8000001716F7C0E0001726F000E0001736FD1
:1009E800000E0001746F96EC30F0530E0001716F29
:1009F8007C0E0001726F000E0001736F010E000182
:100A0800746F96EC30F0830E0001716F7C0E00015C
:100A1800726F000E0001736F030E0001746F96EC85
:100A280030F0010E0001E96F12000001AC51000125
:100A3800D8B41200B1EC38F0899E420E0001716FF3
:100A48007C0E0001726F000E0001736F000E000132
:100A5800746F96EC30F0CA0E0001716F7E0E0001C3
:100A6800726F000E0001736F010E0001746F96EC37
:100A780030F0F00E0001716F010E0001726F090E67
:100A88000001736F010E0001746F96EC30F0510E87
:100A98000001716F7E0E0001726F000E0001736F0E
:100AA800020E0001746F96EC30F09D0E0001716F1C
:100AB800010E0001726F060E0001736F020E000135
:100AC800746F96EC30F0A70E0001716F010E0001F3
:100AD800726F000E0001736F030E0001746F96ECC5
:100AE80030F00B0E0001E96F12000001B551000152
:100AF800D8A407D00001AC510001D8A402D012003C
:100B080000D0B1EC38F0100E0001716F7B0E0001BF
:100B1800726F000E0001736F000E0001746F96EC87
:100B280030F0FF0E0001716F7A0E0001726F000E37
:100B38000001736F010E0001746F96EC30F0830EA4
:100B48000001716F7C0E0001726F000E0001736F5F
:100B5800030E0001746F96EC30F00A0E0001E96F85
:100B680012000001B5510001D8B443D0B1EC38F0FF
:100B7800200E0001716F7C0E0001726F000E0001E3
:100B8800736F000E0001746F96EC30F00001FA519B
:100B9800D8B40FD0D30E0001716F7C0E0001726FB4
:100BA800000E0001736F020E0001746F96EC30F0B6
:100BB8000ED0E20E0001716F7C0E0001726F000E04
:100BC8000001736F020E0001746F96EC30F0730E23
:100BD8000001716F7C0E0001726F000E0001736FCF
:100BE800030E0001746F96EC30F00C0E0001E96FF3
:100BF80012000001AC510001D8B41200B1EC38F079
:100C0800630E0001716F7C0E0001726F000E00010F
:100C1800736F000E0001746F96EC30F0800E0001C7
:100C2800716F7F0E0001726F000E0001736F010E6D
:100C38000001746F96EC30F0790E0001716F7F0E31
:100C48000001726F000E0001736F020E0001746FD5
:100C580096EC30F0FA0E0001716F7F0E0001726F92
:100C68000A0E0001736F020E0001746F96EC30F0EB
:100C780069EC2EF0020E0001E96F12000001B55177
:100C88000001D8B4BDD0B1EC38F0760E0001716F18
:100C98007B0E0001726F000E0001736F000E0001E1
:100CA800746F96EC30F0650E0001716F7B0E0001D9
:100CB800726F000E0001736F010E0001746F96ECE5
:100CC80030F0870E0001716F7F0E0001726F000E09
:100CD8000001736F020E0001746F96EC30F0C20EC3
:100CE8000001716F7F0E0001726F0C0E0001736FAF
:100CF800020E0001746F96EC30F05BD000D0CB0E82
:100D08000001716F7D0E0001726F070E0001736F95
:100D1800020E0001746F96EC30F060D0E00E000116
:100D2800716F7F0E0001726F070E0001736F020E64
:100D38000001746F96EC30F051D0EC0E0001716F29
:100D48007F0E0001726F070E0001736F020E000123
:100D5800746F96EC30F042D0E40E0001716F7F0E94
:100D68000001726F070E0001736F020E0001746FAD
:100D780096EC30F033D0E80E0001716F7F0E000161
:100D8800726F070E0001736F020E0001746F96EC0C
:100D980030F024D0EF0E0001716F7F0E0001726FEA
:100DA800070E0001736F020E0001746F96EC30F0AD
:100DB80015D00001FD51000AD8B4A1D7010AD8B452
:100DC800ADD7030AD8B4B9D7010AD8B4C5D7070A2A
:100DD800D8B4D1D7010AD8B4DDD791D7730E0001A2
:100DE800716F7C0E0001726F000E0001736F030EAD
:100DF8000001746F96EC30F00D0E0001E96F1200DF
:100E08000001AC510001D8B412000001FA51D8B465
:100E180012D0000E0001FA6FE20E0001716F7C0E15
:100E28000001726F000E0001736F020E0001746FF3
:100E380096EC30F01200010E0001FA6FD30E00019B
:100E4800716F7C0E0001726F000E0001736F020E4D
:100E58000001746F96EC30F012000001B5510001EA
:100E6800D8A407D00001AC510001D8A402D01200C8
:100E780000D0B1EC38F0630E0001716F7C0E0001F8
:100E8800726F000E0001736F000E0001746F96EC14
:100E980030F0530E0001716F7C0E0001726F000E6E
:100EA8000001736F010E0001746F96EC30F0830E31
:100EB8000001716F7C0E0001726F000E0001736FEC
:100EC800030E0001746F96EC30F0010E0001E96F1B
:100ED80012000001B5510001D8B4B3D0B1EC38F01C
:100EE800ED0E0001716F7B0E0001726F000E0001A4
:100EF800736F000E0001746F96EC30F0580E00010D
:100F0800716F7E0E0001726F000E0001736F020E8A
:100F18000001746F96EC30F0730E0001716F7C0E57
:100F28000001726F000E0001736F030E0001746FF1
:100F380096EC30F0030E0001E96F6AD000D0C70EBE
:100F48000001716F7F0E0001726F0A0E0001736F4E
:100F5800020E0001746F96EC30F073D0CB0E0001D6
:100F6800716F7F0E0001726F0A0E0001736F020E1F
:100F78000001746F96EC30F064D0CF0E0001716FF1
:100F88007F0E0001726F0A0E0001736F020E0001DE
:100F9800746F96EC30F055D0D30E0001716F7F0E50
:100FA8000001726F0A0E0001736F020E0001746F68
:100FB80096EC30F046D0D70E0001716F7F0E00011D
:100FC800726F0A0E0001736F020E0001746F96ECC7
:100FD80030F037D0DB0E0001716F7F0E0001726FA9
:100FE8000A0E0001736F020E0001746F96EC30F068
:100FF80028D0F30E0001716F7F0E0001726F0A0E88
:101008000001736F020E0001746F96EC30F019D076
:101018000001FB51000AD8B492D7010AD8B49ED770
:10102800030AD8B4AAD7010AD8B4B6D7070AD8B4DD
:10103800C2D7010AD8B4CED7030AD8B4DAD77FD733
:1010480000D00001AC510001D8B41200050E000117
:10105800FD6105D001D003D00001FD2B70D0000E3A
:101068000001FD6F6CD000D0090E0001FC6FDB0E93
:101078000001716F7F0E0001726F070E0001736F20
:10108800020E0001746F96EC30F01200120E00018F
:10109800FC6FDF0E0001716F7F0E0001726F070E8B
:1010A8000001736F020E0001746F96EC30F01200AD
:1010B8001B0E0001FC6FEB0E0001716F7F0E00012B
:1010C800726F070E0001736F020E0001746F96ECC9
:1010D80030F01200360E0001FC6FE30E0001716F54
:1010E8007F0E0001726F070E0001736F020E000180
:1010F800746F96EC30F012006C0E0001FC6FE70E76
:101108000001716F7F0E0001726F070E0001736F8F
:10111800020E0001746F96EC30F012000001FC69B9
:10112800EF0E0001716F7F0E0001726F070E000154
:10113800736F020E0001746F96EC30F0120000011C
:10114800FD51000AD8B490D7010AD8B49FD7030A32
:10115800D8B4AED7010AD8B4BDD7070AD8B4CCD70B
:10116800010AD8B4DBD780D712000001B5510001BD
:10117800D8B426D00001FB51D2EC1AF0B1EC38F00B
:10118800CB0E0001716F7B0E0001726F000E000123
:10119800736F000E0001746F96EC30F0930E00012F
:1011A800716F7C0E0001726F000E0001736F030EE9
:1011B8000001746F96EC30F00F0E0001E96F00D05B
:1011C8000001AC510001D8B41200060E0001FB6109
:1011D80011D001D00FD00001E205D8A408D0030E29
:1011E8000001FB6504D001D002D0060E04D0000136
:1011F800FB2B6ED0000E0001FB6F6AD000D0C70E2B
:101208000001716F7F0E0001726F0A0E0001736F8B
:10121800020E0001746F96EC30F01200CB0E000144
:10122800716F7F0E0001726F0A0E0001736F020E5C
:101238000001746F96EC30F01200CF0E0001716F50
:101248007F0E0001726F0A0E0001736F020E00011B
:10125800746F96EC30F01200D30E0001716F7F0EA0
:101268000001726F0A0E0001736F020E0001746FA5
:1012780096EC30F01200D70E0001716F7F0E00015E
:10128800726F0A0E0001736F020E0001746F96EC04
:1012980030F01200DB0E0001716F7F0E0001726FDB
:1012A8000A0E0001736F020E0001746F96EC30F0A5
:1012B8001200F30E0001716F7F0E0001726F0A0EAB
:1012C8000001736F020E0001746F96EC30F012008B
:1012D8000001FB51000AD8B492D7010AD8B49ED7AE
:1012E800030AD8B4AAD7010AD8B4B6D7070AD8B41B
:1012F800C2D7010AD8B4CED7030AD8B4DAD77FD771
:1013080012000001AC510001D8B40DD0FCEC22F061
:101318000009D8B404D0010E0001B56F04D0090E3D
:101328000001E56F00D00001B5510001D8B41200EA
:10133800B1EC38F0210E0001716F7B0E0001726F65
:10134800000E0001736F000E0001746F96EC30F010
:10135800870E0001716F7B0E0001726F000E000195
:10136800736F010E0001746F96EC30F0830E00016C
:10137800716F7C0E0001726F000E0001736F030E17
:101388000001746F96EC30F0060E0001E96F120050
:101398000001E951000AD8B4AAEF01F0010AD8B453
:1013A800B5EF05F0030AD8B458D5010AD8B4DDD68C
:1013B800050AD8B4E6EF01F0010AD8B4D3EF02F079
:1013C8000F0AD8B460EF03F0020AD8B4E4EF04F0CF
:1013D800010AD8B479EF05F0070AD8B44FD4010A46
:1013E800D8B477D5020AD8B48CD7A8EF01F0120088
:1013F80000017B6F000E00017A6F8CD3FFD7AED34C
:10140800FC0E0001616F7E0E0001626F71EC37F017
:10141800010E0001EB6FA2D3000177510001D8B48F
:1014280001D001D003D00A0E0001EB6F00017B51FF
:101438000001D8B401D001D091D35D0E0001606FD6
:10144800010E0001616FB80E0001626F7F0E00018E
:10145800636F000E0001656F040E646F0BEC2DF0D6
:101468000001605100016111D8A401D001D033D02E
:10147800000E0001E26FB1EC38F0430E0001716F0D
:101488007B0E0001726F000E0001736F000E0001E9
:10149800746F96EC30F0980E0001716F7B0E0001AE
:1014A800726F000E0001736F020E0001746F96ECEC
:1014B80030F0EE0E0001716F7A0E0001726F000EAF
:1014C8000001736F030E0001746F96EC30F0020E8A
:1014D8000001EB6F43D35D0E0001606F010E000148
:1014E800616FBD0E0001626F7F0E0001636F000E19
:1014F8000001656F040E646F0BEC2DF00001605164
:1015080000016111D8A401D001D033D0010E00012F
:10151800E26FB1EC38F0430E0001716F7B0E0001F1
:10152800726F000E0001736F000E0001746F96EC6D
:1015380030F0980E0001716F7B0E0001726F000E83
:101548000001736F020E0001746F96EC30F0EE0E1E
:101558000001716F7A0E0001726F000E0001736F47
:10156800030E0001746F96EC30F0020E0001EB6F71
:10157800F5D2FC0E0001616F7E0E0001626F71EC06
:1015880037F0000E0001616F190E606F9CEC36F0A9
:10159800000E0001EB6FE2D2E1D2E0D2DFD200010F
:1015A80076510001D8B401D001D021D0BB0E000182
:1015B800716F7A0E0001726F000E0001736F030ED7
:1015C8000001746F96EC30F0010E0001616FF40EAB
:1015D800606F9CEC36F0E70E0001616F7D0E000134
:1015E800626F71EC37F0030E0001EB6FB7D20001A8
:1015F80077510001D8B401D001D0B0D2DD0E00017E
:10160800716F7A0E0001726F000E0001736F030E86
:101618000001746F96EC30F0010E0001616FF40E5A
:10162800606F9CEC36F03B0E0001616F7D0E00018F
:10163800626F71EC37F0050E0001EB6F8FD28ED21E
:101648008DD200017B510001D8B401D001D086D2DF
:101658005D0E0001606F010E0001616FF70E000161
:10166800626F7F0E0001636FDEEC33F000016051A2
:1016780000016111D8A401D001D004D0040E0001EA
:10168800EB6F6CD25D0E0001606F010E0001616F9F
:10169800570E0001626F7D0E0001636FDEEC33F0C0
:1016A8000001605100016111D8A401D001D022D0FD
:1016B800B1EC38F0B40E0001716F7E0E0001726F4C
:1016C800000E0001736F000E0001746F96EC30F08D
:1016D800190E0001716F7F0E0001726F000E00017C
:1016E800736F010E0001746F96EC30F0090E000163
:1016F800EB6F34D2E70E0001616F7D0E0001626F5F
:1017080071EC37F0030E0001EB6F28D227D226D2F6
:1017180025D200017B510001D8B401D001D01ED2DE
:101728005D0E0001606F010E0001616F220E000165
:10173800626F7F0E0001636FDEEC33F000016051D1
:1017480000016111D8A401D001D022D0B1EC38F049
:10175800D40E0001716F7E0E0001726F000E000141
:10176800736F000E0001746F96EC30F09E0E00014E
:10177800716F7E0E0001726F000E0001736F010E13
:101788000001746F96EC30F0070E0001EB6FE6D1A4
:10179800F20E0001616F7E0E0001626F71EC37F08E
:1017A800010E0001EB6FDAD1D9D1D8D100017B51FC
:1017B8000001D8B401D001D0D1D15D0E0001606F15
:1017C800010E0001616FF70E0001626F7F0E0001CC
:1017D800636FDEEC33F00001605100016111D8A4A1
:1017E80001D001D004D0060E0001EB6FB7D15D0E19
:1017F8000001606F010E0001616F570E0001626FFA
:101808007D0E0001636FDEEC33F0000160510001D2
:101818006111D8A401D001D022D0B1EC38F0B40EB7
:101828000001716F7E0E0001726F000E0001736F70
:10183800000E0001746F96EC30F0190E0001716F04
:101848007F0E0001726F000E0001736F010E000120
:10185800746F96EC30F0090E0001EB6F7FD15D0ECE
:101868000001606F010E0001616F490E0001626F97
:101878007D0E0001636FDEEC33F000016051000162
:101888006111D8A401D001D00CD03B0E0001616FCA
:101898007D0E0001626F71EC37F0050E0001EB6FF1
:1018A8005DD15D0E0001606F010E0001616F930E46
:1018B8000001626F7E0E0001636FDEEC33F0000101
:1018C800605100016111D8A401D001D047D1000EA8
:1018D8000001EB6F43D142D141D140D13FD13ED13C
:1018E80000017B510001D8B401D001D037D15D0E81
:1018F8000001606F010E0001616F220E0001626F2E
:101908007F0E0001636FDEEC33F0000160510001CF
:101918006111D8A401D001D022D0B1EC38F0880EE2
:101928000001716F7E0E0001726F000E0001736F6F
:10193800000E0001746F96EC30F09E0E0001716F7E
:101948007E0E0001726F000E0001736F010E000120
:10195800746F96EC30F0070E0001EB6FFFD05D0E50
:101968000001606F010E0001616F950E0001626F4A
:101978007F0E0001636FDEEC33F00001605100015F
:101988006111D8A401D001D02AD0B1EC38F0E80E0A
:101998000001716F7E0E0001726F010E0001736FFE
:1019A800000E0001746F96EC30F08E0E0001716F1E
:1019B8007F0E0001726F020E0001736F010E0001AD
:1019C800746F96EC30F03B0E0001616F7D0E0001E4
:1019D800626F71EC37F0050E0001EB6FBFD05D0E42
:1019E8000001606F010E0001616F930E0001626FCC
:1019F8007E0E0001636FDEEC33F0000160510001E0
:101A08006111D8A401D001D0A9D0000E0001EB6F5C
:101A1800A5D0A4D0A3D0A2D0A1D0A90E0001616FF7
:101A28007E0E0001626F71EC37F0080E0001EB6F5B
:101A380095D000017B510001D8B401D001D08ED0DF
:101A48005D0E0001606F010E0001616F490E00011B
:101A5800626F7D0E0001636FDEEC33F000016051B0
:101A680000016111D8A401D001D00CD0A90E000149
:101A7800616F7E0E0001626F71EC37F0080E000195
:101A8800EB6F6CD001015D51D00F0001796F79C007
:101A9800FBF0010E00017A6F61D060D05FD00001C9
:101AA80077510001D8B401D001D058D00A0E0001F6
:101AB800EB6F54D053D0000E0001606F000E18EC8D
:101AC80036F000D081B201D001D006D081A001D07B
:101AD80001D0F8D701D000D0FA0E0001786F580E67
:101AE800E82EFED7782FFCD700F0FA0E0001786FA9
:101AF800580EE82EFED7782FFCD700F0FA0E00011A
:101B0800786F580EE82EFED7782FFCD700F0FF002C
:101B180025D024D00001EB51000AD8B471D4010AB1
:101B2800D8B47AD4030AD8B43AD5010AD8B489D536
:101B3800070AD8B4EED5010AD8B438D6030AD8B4FF
:101B4800CFD6010AD8B469D70F0AD8B472D7010A18
:101B5800D8B4A5D7030AD8B4AED750D400017A5167
:101B680000D0120000016351800B0001706F00016A
:101B7800635163250001726F000162AF01D001D08B
:101B880003D00001728100D0000172510001D8B465
:101B980001D001D016D000017229D8A401D001D0FB
:101BA8000AD0000E0001606F000E616F000E626FB8
:101BB800000E636F00D00001628F000E0001636F9A
:101BC8000AD0000E0001606F000E616F000E626F98
:101BD800000E636F00D000016751800B0001716F28
:101BE8000001705100017119D8B401D001D003D09F
:101BF8000001708D00D00001675167250001716FE9
:101C0800000166AF01D001D003D00001718100D07E
:101C1800000171510001D8B401D001D016D00001E3
:101C28007129D8A401D001D00AD0000E0001646F38
:101C3800000E656F000E666F000E676F00D0000122
:101C4800668F000E0001676F0AD0000E0001646FF6
:101C5800000E656F000E666F000E676F00D0000102
:101C680072510001715DD8B001D001D028D00001B7
:101C780070AD01D001D004D0800E0001701B00D0DF
:101C880072C073F071C072F073C071F060C073F00D
:101C980064C060F073C064F061C073F065C061F047
:101CA80073C065F062C073F066C062F073C066F01E
:101CB80063C073F067C063F073C067F000D0000EB4
:101CC8000001736F000172510001686F696B0001B8
:101CD800681F691F684B692B0001715100016A6F09
:101CE8006B6B0001685100016A270001695100010E
:101CF8006B2300016BBF09D000016B5107E11A0E7D
:101D080000016A5DD8A001D001D03DD0000160512A
:101D1800000161110001621100016311D8A401D012
:101D280002D0010E01D0000E0001736F000E0001F9
:101D3800606F000E616F000E626F000E636F71C0FE
:101D480072F02AD020D0000173A101D001D007D0B1
:101D58000001D890733101090001736F04D00001AC
:101D6800D890733300D0000160A101D001D003D016
:101D78000001738F00D00001633563336233613330
:101D880060330001722B000171510001725DD8A00F
:101D980001D001D0D8D700D0000170BD01D001D04A
:101DA8004BD0000172510001D8A401D001D00BD052
:101DB800000E0001606F000E616F000E626F000E72
:101DC800636F9AD199D10001645100016027000125
:101DD8006551000161230001665100016223000181
:101DE800675100016323000163A101D001D0EDD048
:101DF800000173A101D001D009D00001D89073333C
:101E08000001735101090001736F04D00001D890DB
:101E1800733300D0000160A101D001D003D00001CC
:101E2800738F00D0000163356333623361336033ED
:101E38000001722BCAD0C9D0000164510001605D55
:101E480000016551000161590001665100016259A4
:101E580000016351800A0001686F00016751800A20
:101E680000016859D8B001D001D053D060C068F0E3
:101E780061C069F062C06AF063C06BF00001681F5E
:101E8800691F6A1F6B1F682B000E69236A236B2367
:101E9800000164510001682500016C6F0001655163
:101EA8000001692100016D6F0001665100016A217E
:101EB80000016E6F0001675100016B2100016F6F17
:101EC800FF0E00016C250001606FFF0E00016D21FF
:101ED8000001616FFF0E00016E210001626FFF0EAD
:101EE80000016F210001636F800E0001701B00016B
:101EF800736D000173510001D8A401D001D019D02D
:101F0800010E00016027000E61236223632311D0B4
:101F180010D0000164510001605F000165510001AB
:101F2800615B000166510001625B000167510001BD
:101F3800635B000160510001611100016211000141
:101F48006311D8A401D001D039D000017351000128
:101F5800D8A401D001D032D0000E0001606F000E6D
:101F6800616F000E626F000E636FC6D0C5D026D0B9
:101F78000001D8906037613762376337000173AF6B
:101F880001D001D003D00001608100D0000173A10D
:101F980001D001D004D0D8800001733704D00001EB
:101FA800D890733700D0000172510001D8B401D025
:101FB80001D004D00001720701D000D0000162AF47
:101FC80001D001D0D5D701D000D0000E0001716F2B
:101FD800000173AF01D001D017D073C068F07F0E35
:101FE80000016817D8B401D001D004D0010E000157
:101FF800716F0AD0000160A101D001D005D0010E97
:102008000001716F01D000D0000171510001D8B4F6
:1020180001D001D02DD0010E00016027000E6123F0
:1020280062236323000163A101D001D021D060C0E5
:1020380068F061C069F062C06AF063C06BF00001CB
:102048006B356B336A336933683368C060F069C0D5
:1020580061F06AC062F06BC063F000017229D8B405
:1020680001D001D005D00001722B02D001D000D0E0
:1020780000017229D8B401D001D008D000017251F2
:102088000001D8A401D001D016D000D0000E000164
:10209800606F000E616F000E626F000E636F0001CB
:1020A80072510001D8A401D001D005D0000E000162
:1020B800706F01D000D0000172A101D001D003D00F
:1020C8000001628F03D00001629F00D00001D89008
:1020D80072310001636F000170AF01D001D003D0ED
:1020E8000001638F00D060C060F061C061F062C021
:1020F80062F063C063F000D0120000017751800BDA
:102108000001806F0001775177250001866F00017B
:1021180076AF01D001D003D00001868100D0000144
:1021280086510001D8B401D001D013D0000186290E
:10213800D8A401D001D00AD0000E0001746F000E9F
:10214800756F000E766F000E776F00D00001768FE6
:102158000AD0000E0001746F000E756F000E766FC6
:10216800000E776F00D000017B51800B0001801BAF
:1021780000017B517B250001816F00017AAF01D0FE
:1021880001D003D00001818100D0000181510001FC
:10219800D8B401D001D013D000018129D8A401D02E
:1021A80001D00AD0000E0001786F000E796F000E82
:1021B8007A6F000E7B6F00D000017A8F09D0000E75
:1021C8000001786F000E796F000E7A6F000E7B6F3A
:1021D800000181510001D8B401D001D008D000011C
:1021E80086510001D8A401D001D00CD000D0000E37
:1021F8000001746F000E756F000E766F000E776F1A
:1022080008D207D200017A5100017403F3CF8BF092
:10221800F4CF8CF000018B510001826F836B846BCB
:10222800856B00018C510001876F886B896B8A6B05
:102238000001795100017503F3CF8BF0F4CF8CF0D6
:1022480000018B5100018227000E832384238523FC
:1022580000018C5100018727000E882389238A23D7
:102268000001785100017603F3CF8BF0F4CF8CF0A6
:1022780000018B5100018227000E832384238523CC
:1022880000018C5100018727000E882389238A23A7
:1022980084C085F083C084F082C083F00001826B23
:1022A8000001785100017503F3CF8BF0F4CF8CF067
:1022B80000018B510001822700018C51000183230A
:1022C800000E00018423000E0001852300017951CE
:1022D80000017403F3CF8BF0F4CF8CF000018B5125
:1022E8000001822700018C5100018323000E0001A8
:1022F8008423000E0001852384C085F083C084F008
:1023080082C083F00001826B0001785100017403E0
:10231800F3CF8BF0F4CF8CF000018B5100018227B2
:1023280000018C5100018323000E00018423000E5C
:102338000001852300017A5100017503F3CF8BF06A
:10234800F4CF8CF000018B510001872700018C51DC
:1023580000018823000E00018923000E00018A2352
:102368000001795100017603F3CF8BF0F4CF8CF0A4
:1023780000018B510001872700018C51000188233F
:10238800000E00018923000E00018A2300017A5102
:1023980000017603F3CF8BF0F4CF8CF000018B5162
:1023A80000017C6F00018C5100017D6F00017E6B84
:1023B80000017F6B7EC07FF07DC07EF07CC07DF029
:1023C80000017C6B00017C510001872700017D51D1
:1023D8000001882300017E510001892300017F51FB
:1023E80000018A2382C07CF083C07DF084C07EF027
:1023F80085C07FF0190E06D00001D8907F337E3358
:102408007D337C33E82EF8D700017C510001872703
:1024180000017D510001882300017E5100018923BC
:1024280000017F5100018A2384C085F083C084F0B5
:1024380082C083F00001826B0001815186C07CF06C
:1024480000017D6B00017C27000E7D23820E0001B8
:102458007C2500018B6FFF0E00017D2100018C6F30
:1024680018D00001D8908737883789378A37000114
:1024780085AF01D001D002D0000187810001D8903A
:10248800823783378437853700018B07D8A08C07BC
:1024980000D0000189AF01D001D0E3D700D0000EF1
:1024A8000001816F000185AF01D001D02ED0FF0E51
:1024B8000001821500017C6FFF0E000183150001E9
:1024C8007D6FFF0E0001841500017E6F7F0E0001F5
:1024D800851500017F6F00017C5100017D1100010D
:1024E8007E1100017F11D8B401D001D004D0010EB3
:1024F8000001816F0AD0000187A101D001D005D069
:10250800010E0001816F01D000D00001815100014E
:10251800D8B401D001D027D0010E00018727000EC2
:10252800882389238A2300018AA101D001D01BD0E6
:1025380087C07CF088C07DF089C07EF08AC07FF0BB
:1025480000017F357F337E337D337C337CC087F059
:102558007DC088F07EC089F07FC08AF000018B4B77
:102568008C2B01D000D000018CBF08D000018C5109
:1025780006E100018B29D8A001D001D00AD0000EB5
:102588000001876F000E886F800E896F7F0E8A6F3B
:1025980033D000018CBF09D000018C5105E1000146
:1025A8008B05D8B001D001D00DD0000E0001876F87
:1025B800000E886F000E896F000E8A6F000E0001F2
:1025C800806F1AD08BC086F0FF0E00018717FF0EB0
:1025D80088177F0E8917000E8A17000186A101D07F
:1025E80001D003D00001898F00D00001D890863136
:1025F80000018A6F01D000D00001805100018A13C8
:1026080087C074F088C075F089C076F08AC077F00A
:1026180000D0120000019051800B0001996F000159
:10262800905190250001A46F00018FAF01D001D017
:1026380003D00001A48100D00001A4510001D8B446
:1026480001D001D016D00001A429D8A401D001D00E
:102658000AD0000E00018D6F000E8E6F000E8F6F76
:10266800000E906F00D000018F8F000E0001906F58
:102678000AD0000E00018D6F000E8E6F000E8F6F56
:10268800000E906F00D000019451800B0001991B3F
:102698000001945194250001A56F000193AF01D06A
:1026A80001D003D00001A58100D00001A55100018F
:1026B800D8B401D001D016D00001A529D8A401D0E2
:1026C80001D00AD0000E0001916F000E926F000E2B
:1026D800936F000E946F00D00001938F000E0001DD
:1026E800946F0AD0000E0001916F000E926F000ED9
:1026F800936F000E946F00D0000191510001921168
:102708000001931100019411D8A401D001D018D070
:10271800000E00018D6F000E8E6F000E8F6F000E81
:10272800906F0001800E8F137F0E90138DC08DF077
:102738008EC08EF08FC08FF090C090F094D193D15E
:102748000001A4510001D8A401D001D013D0000E7B
:1027580000018D6F000E8E6F000E8F6F000E906F50
:102768008DC08DF08EC08EF08FC08FF090C090F02D
:102778007AD179D10001A5510001956F966B0001BE
:10278800951F961F954B962B0001A4510001976F3A
:10279800986B00019551000197270001965100019F
:1027A80098237F0E0001972500019E6F000E0001FF
:1027B800982100019F6F8DC09AF08EC09BF08FC04A
:1027C8009CF090C09DF0000E00018D6F000E8E6F82
:1027D800000E8F6F000E906F000E0001A06F000EAC
:1027E800A16F000EA26F000EA36F000E0001A56F6F
:1027F8004AD00001A5510001D8B401D001D01AD0A7
:102808000001D8909A379B379C379D370001D890A4
:102818008D378E378F3790370001A3AF01D001D0A5
:1028280002D000018D810001D890A037A137A237CE
:10283800A33700D00001915100019A5D0001925127
:1028480000019B590001935100019C5900019451CA
:1028580000019D59D8A001D001D013D00001A38D4B
:102868000001915100019A5F0001925100019B5BA8
:102878000001935100019C5B0001945100019D5B94
:1028880000D00001A52B190E0001A56501D001D0CB
:10289800B0D700D000019A5100019B1100019C1192
:1028A80000019D11D8B401D001D01CD00001A08135
:1028B80019D018D00001D8908D378E378F379037C0
:1028C8000001A3AF01D001D002D000018D81000129
:1028D800D890A037A137A237A33700019E07D8A008
:1028E8009F0700D000018FAF01D001D0E3D700D0FF
:1028F800000E0001A56F0001A3AF01D001D02ED0BA
:10290800FF0E0001A0150001956FFF0E0001A11533
:102918000001966FFF0E0001A2150001976F7F0E50
:102928000001A3150001986F00019551000196114F
:102938000001971100019811D8B401D001D004D03A
:10294800010E0001A56F0AD000018DA101D001D0B0
:1029580005D0010E0001A56F01D000D00001A551DE
:102968000001D8B401D001D027D0010E00018D2775
:10297800000E8E238F239023000190A101D001D057
:102988001BD08DC095F08EC096F08FC097F090C088
:1029980098F000019835983397339633953395C05E
:1029A8008DF096C08EF097C08FF098C090F000011F
:1029B8009E4B9F2B01D000D000019FBF08D0000183
:1029C8009F5106E100019E29D8A001D001D00ED068
:1029D800000E00019F6F9E69000E00018D6F000EB2
:1029E8008E6F000E8F6F000E906F00D000019FBF9A
:1029F80009D000019F5105E100019E05D8B001D022
:102A080001D012D0000E00019F6F000E9E6F000EC5
:102A180000018D6F000E8E6F000E8F6F000E906F8D
:102A2800000E0001996F00D09EC0A4F00001A4A17F
:102A380001D001D003D000018F8F03D000018F9FF8
:102A480000D00001D890A4310001906F0001995185
:102A5800000190138DC08DF08EC08EF08FC08FF066
:102A680090C090F000D0120004013205D8A401D023
:102A780001D018D0040130511F0B0009D8A401D08F
:102A880001D010D0398E030E04013119D8A401D019
:102A980001D004D0010E0001D76F04D0000E000150
:102AA800D76F00D004013251D8A401D001D060D131
:102AB800040130511F0B020AD8A401D001D058D10B
:102AC800040134510F0B0009D8B401D001D050D102
:102AD800040134510F0B166E030E166001D001D09D
:102AE80047D1200E0001DE19D8A401D001D040D171
:102AF800398E040134BF01D001D01FD004013451F4
:102B08000F0B166E1650020D400EF324D96E010EEF
:102B1800F420DA6EDECF1AF0DDCF1BF00401345159
:102B28000F0B166E1650010DB70EF324D96E000E5A
:102B3800F420DA6EDF50196E1FD0040134510F0BE8
:102B4800166E1650020D3C0EF324D96E000EF420BA
:102B5800DA6EDECF1AF0DDCF1BF0040134510F0B13
:102B6800166E1650010DBA0EF324D96E000EF4201D
:102B7800DA6EDF50196E00D019B001D001D002D042
:102B88001A9402D01A8400D0040134BF01D001D0B5
:102B980011D0040134510F0B166E1650020D400E61
:102BA800F324D96E010EF420DA6E1AC0DEFF1BC0C2
:102BB800DDFF11D0040134510F0B166E1650020DB3
:102BC8003C0EF324D96E000EF420DA6E1AC0DEFF34
:102BD8001BC0DDFF00D0030E04013119D8A401D0B9
:102BE80001D039D01AC0D9FF1BC0DAFFDFAE01D03F
:102BF80001D024D0040134BF01D001D00FD004018A
:102C080034510F0B166E1650010DB70EF324D96E02
:102C1800000EF420DA6E0001DF8210D00401345176
:102C28000F0B166E1650010DBA0EF324D96E000E56
:102C3800F420DA6E0001DF8201D000D01AC0D9FF7B
:102C48001BC0DAFF000EDB841AC0D9FF1BC0DAFFF5
:102C5800000EDB8E8DD0040E1A1A1AC0D9FF1BC0C5
:102C6800DAFFDFAE01D001D01BD01AC0D9FF1BC0DC
:102C7800DAFF7F0EDF161AC0D9FF1BC0DAFF000E7D
:102C8800DB8C000E0F6E050E0E6E1AC010F01BC006
:102C980011F0000E136E020E126E1FEC32F007D008
:102CA8001AC0D9FF1BC0DAFF000EDB8C00D0040E5F
:102CB8001A1A19B201D001D008D01AC0D9FF1BC006
:102CC800DAFFDFAE01D001D038D0040134BF01D023
:102CD80001D00FD0040134510F0B166E1650010DA0
:102CE800B70EF324D96E000EF420DA6E0001DF92DD
:102CF8000FD0040134510F0B166E1650010DBA0E89
:102D0800F324D96E000EF420DA6E0001DF9200D0B1
:102D18001AC0D9FF1BC0DAFF3B0EDF16000E0F6E7C
:102D2800050E0E6E1AC010F01BC011F0000E136EC7
:102D3800020E126E1FEC32F007D01AC0D9FF1BC06A
:102D4800DAFF3B0EDF1600D0040134510F0B166E6C
:102D58001650010D6A0EF324176E0F0EF420186E2C
:102D680017C0D9FF18C0DAFFFE0EDF1601D000D059
:102D78001200000E0101F36F000E0101F46F000E46
:102D88000101F56F000E0101F76F030E0101F66FE7
:102D980080A009D076EC39F00009D8A408D0040E38
:102DA8000001FE6F04D0000E5AEC39F000D000018B
:102DB800F2A109D07AEC39F054EC1CF00001F25180
:102DC800D0EC35F000D0BDEC2EF00101F66F01011A
:102DD800F605D8A407D0000E0001E56F010E010129
:102DE800F46F0CD0020E0101F619D8A407D0000E1A
:102DF8000001E56F010E0101F56F00D04EEC30F0D7
:102E08000009D8B402D0010E01D0000E0101F76FFD
:102E180000D0020E0001E919D8A44CD00101575185
:102E280005E1640E0101565DD8A044D000F0C70E3C
:102E38000001716F7A0E0001726F060E0001736F48
:102E4800010E0001746F96EC30F03DEC33F06DC06C
:102E580071F06EC072F0060E0001736F010E000172
:102E6800746F96EC30F076EC34F063C071F064C0A7
:102E780072F04FEC2CF071C0C7F072C0C8F00001BE
:102E8800C751F5EC26F00001B66F0001B6510001FC
:102E9800C76FC86B060E0001766F020E0001776FD0
:102EA8000001C751A3EC2AF0000E0101576F000E74
:102EB800566F00D00001E551D8B48DD0090E00013D
:102EC800E56589D001D087D00001FA51D8B483D004
:102ED800010E0101F36F000E0001E56F7CD0FFD7F2
:102EE80088D0B1EC38F0DE0E0001716F7E0E000163
:102EF800726F010E0001736F000E0001746F96EC83
:102F080030F0340E0001716F7F0E0001726F020EF7
:102F18000001736F010E0001746F96EC30F0A90E7A
:102F28000001716F7B0E0001726F000E0001736F5C
:102F3800030E0001746F96EC30F0000E0001EB6F89
:102F4800020E3BD0F4C176F0F5C177F00101F751DC
:102F5800FCEC09F00009D8B44CD0B1EC38F0FE0E06
:102F68000001716F7B0E0001726F000E0001736F1C
:102F7800000E0001746F96EC30F00F0E0001716FB7
:102F88007C0E0001726F000E0001736F020E0001CB
:102F9800746F96EC30F0320E0001716F7B0E0001F9
:102FA800726F000E0001736F030E0001746F96ECD0
:102FB80030F0000E0001E96F030E0001FE6F19D01A
:102FC800F5C1ACF0F7C1ADF0F3C1AEF00101F451B9
:102FD8009AEC00F00ED00001FE51010AD8B481D756
:102FE800030AD8B4AFD7010AD8B4EAD7070AD8A4D5
:102FF80076D70001FE51120012000001686F00012F
:1030080068510001D8B401D001D020D0000163BFBD
:1030180002D000D01BD060C064F061C065F062C00F
:1030280066F063C067F00001641F651F661F671FB5
:10303800642B000E65236623672364C06AF065C0AD
:103048006BF066C06CF067C06DF009D060C06AF0C4
:1030580061C06BF062C06CF063C06DF000D000011D
:103068006051000161110001621100016311D8A4CF
:1030780001D001D00BD0000E0001606F000E616F0F
:10308800000E626F000E636FBBD0BAD0960E0001BF
:10309800696F09D00001692B0001D8906D336C333A
:1030A8006B336A3300D0000E00016A150001646FAB
:1030B800000E00016B150001656F000E00016C1514
:1030C8000001666FFE0E00016D150001676F0001BB
:1030D8006451000165110001661100016711D8A44F
:1030E80001D001D0D7D710D00FD00001692B010E25
:1030F80000016A27000E6B236C236D230001D89012
:103108006D336C336B336A33000E00016A150001AE
:10311800646F000E00016B150001656F000E000161
:103128006C150001666FFF0E00016D150001676FD9
:103138000001645100016511000166110001671169
:10314800D8A401D001D0D1D70AD009D0000169078D
:103158000001D8906A376B376C376D3700D00001A3
:103168006CBF01D001D007D0020E0001696101D007
:1031780001D0ECD700D0000169B101D001D009D04D
:10318800FF0E00016A17FF0E6B177F0E6C17FF0EFC
:103198006D170001D890693369C064F00001656B50
:1031A800666B676B64C067F00001666B656B646B88
:1031B8000001645100016A130001655100016B139D
:1031C8000001665100016C130001675100016D1385
:1031D800000168510001D8B401D001D008D0000125
:1031E80063BF02D000D003D000016D8F00D06AC049
:1031F80060F06BC061F06CC062F06DC063F000D02D
:1032080012000001DE05D8A401D001D00DD060BAAB
:1032180001D001D009D0000E656E64806488020E6A
:103228000001DE6F01D000D065A401D001D008D024
:1032380064A401D001D004D06594A9EC37F000D083
:1032480060A201D001D002D0A494C3D065A001D05F
:1032580001D00CD064A001D001D008D00AEC1DF038
:10326800A384040E0001DE6F659000D065A801D02C
:1032780001D008D064A801D001D004D028EC38F0DF
:10328800659800D065AC01D001D024D064AC01D0E1
:1032980001D00FD0000E0F6E730E0E6E000E106E62
:1032A800000E116E000E136E010E126E1FEC32F03E
:1032B80000D0659C4B50D8B401D001D002D04B0649
:1032C80000D04B50D8A401D001D004D04FEC29F045
:1032D80001D000D065AA01D001D007D064AA01D0DE
:1032E80001D003D0A8EC35F000D065A201D001D000
:1032F80014D064A201D001D010D07F0E0F6E0E68DA
:10330800000E106E000E116E000E136E010E126E7E
:103318001FEC32F0000E676E00D0040E0001DE6173
:1033280001D001D002D0A49454D064A601D001D019
:103338004FD0000E1F6E030E1F6401D001D002D0C3
:1033480047D046D065A601D001D042D061CF58F011
:103358005830E832E8320F0B4C6E659658B401D0FD
:1033680001D00BD04C50010DB70EF324D96E000ECE
:10337800F420DA6E0001DF700BD04C50010DBA0E4C
:10338800F324D96E000EF420DA6E0001DF7000D04D
:103398004C50D8A401D001D003D061EC28F011D052
:1033A800000E0F6E720E0E6E580E106E000E116E1D
:1033B800000E136E000E126E1FEC32F002D001D018
:1033C80007D01F2A030E1F6401D001D0BBD700D03D
:1033D800A4941200A3940001BD510001BE11D8B4F9
:1033E80001D001D014D0BDC0D9FFBEC0DAFF0001A2
:1033F800DFBE01D004D00001676B672B02D000014B
:10340800676B000167510001686F696B06D0000E99
:103418000001696F000E686F00D00001685100015B
:103428006911D8B401D001D002D0A384B6D0030E5C
:103438005518D8A401D001D002D0000E556E5550B1
:10344800D8A401D001D002D0A384A7D0020E551869
:10345800D8A401D001D016D0010E0001606F000E73
:103468000001616F000E0001626F000E0001636FC2
:10347800020E06EC24F060C0BDF061C0BEF0030E81
:10348800556E8AD05504D8A401D001D085D0400EFD
:103498000001CF6501D001D004D0400E00016B6F50
:1034A80003D0CFC06BF000D000016B5100080001C1
:1034B800CF250001CF6F000E01014E6F050E0101EF
:1034C8004F6F6BC06AF00001CE51D8A401D001D073
:1034D80032D014D013D051C1D9FF52C1DAFF4EC136
:1034E800E1FF4FC1E2FFDFCFE7FF01014E4B4F2B5A
:1034F8000101514B522B00016A0700D000016A51AB
:103508000001D8A401D001D0E6D71ED01DD013D019
:1035180051C1D9FF52C1DAFF4EC1E1FF4FC1E2FFED
:10352800DFCFE7FF01014E4B4F2B0101514B522BCF
:1035380000016A0700D000016A510001D8A401D037
:1035480001D0E6D701D000D00001CF51D8A401D0D6
:1035580001D00ED0400E00016B19D8A401D001D0C3
:1035680003D0020E556E04D0030E556E01D000D064
:10357800010E0001606F000E0001616F050E000171
:10358800626F6BC063F0020E06EC24F060C0BDF001
:1035980061C0BEF001D000D0A38412000001646FA6
:1035A800080E00016419D8B401D001D077D0A30E59
:1035B8000001616F7C0E0001626F71EC37F0FA0E4A
:1035C8000001636F580EE82EFED7632FFCD700F07A
:1035D800FA0E0001636F580EE82EFED7632FFCD752
:1035E80000F0FA0E0001636F580EE82EFED7632F25
:1035F800FCD700F053D052D07F0E0001616F7D0ED2
:103608000001626F71EC37F067D08C0E0001616FBA
:103618007D0E0001626F71EC37F05ED0990E0001EB
:10362800616F7D0E0001626F71EC37F055D0A60E08
:103638000001616F7D0E0001626F71EC37F04CD0B4
:10364800B30E0001616F7D0E0001626F71EC37F0FF
:1036580043D0C00E0001616F7D0E0001626F71ECF6
:1036680037F03AD0CD0E0001616F7D0E0001626F18
:1036780071EC37F031D0DA0E0001616F7D0E000178
:10368800626F71EC37F028D0F10E0001616F7C0E8B
:103698000001626F71EC37F01FD01ED00001645139
:1036A800000AD8B4A9D7010AD8B4AFD7030AD8B446
:1036B800B5D7010AD8B4BBD7070AD8B4C1D7010A0D
:1036C800D8B4C7D7030AD8B4CDD7010AD8B4D3D74A
:1036D8000F0AD8B4D9D700D0FA0E0001636F580E7C
:1036E800E82EFED7632FFCD700F0FA0E0001636FB7
:1036F800580EE82EFED7632FFCD700F0FA0E000113
:10370800636F580EE82EFED7632FFCD700F02B0E00
:103718000001616F7F0E0001626F71EC37F01200DB
:10372800A394000E676E000E656E000E6A6E6B0E37
:103738000001606F0F0E0001616F000E0001636FE2
:10374800000E626F000E0001656F020E646F37ECA9
:1037580037F0160E626E9F0E666E7B0E646E000E5C
:103768000001686F0B0E0001686501D001D002D01E
:1037780016D015D000016851040D000EF324D96E3F
:10378800040EF420DA6EDE6ADE6ADE6ADD6A0001A3
:10379800682B0B0E0001686501D001D0EBD7608C57
:1037A800000E636E6098609C0AD06596000E396EB4
:1037B800000E316E000E336E000E326E00D065B60C
:1037C80001D001D0F2D700D0010E0001D46F010E54
:1037D8000001D36F000E0001D26F000E0001D16FFF
:1037E800000E0001D66F000E0001686F020E000186
:1037F800686501D001D002D03AD039D000016851B3
:10380800020D3C0EF324D96E000EF420DA6E000E81
:10381800DE6E000EDD6E00016851020D400EF324CD
:10382800D96E010EF420DA6E000EDE6E000EDD6E2B
:1038380000016851010DBA0EF324D96E000EF42070
:10384800DA6E000EDF6E00016851010DB70EF32429
:10385800D96E000EF420DA6E000EDF6E0001682BC0
:10386800020E0001686501D001D0C8D700D0080E4B
:103878003C6E040E3D6E160E6A6E040E0401036F54
:10388800300E026F080E0401016F040E0401006F70
:103898000401008F000E596E000E0001DE6F120049
:1038A8000001C54BC62BC5C060F0C6C061F0000E54
:1038B8000001636F0A0E626FE3EC31F000016051A2
:1038C80000016111D8A401D001D09FD00001F2837A
:1038D800C5C060F0C6C061F0000E0001636F640EE1
:1038E800626FE3EC31F00001605100016111D8A46E
:1038F80001D001D08AD00001F285C5C060F0C6C0F1
:1039080061F0030E0001636FE80E626FE3EC31F0C3
:103918000001605100016111D8A401D001D075D017
:103928000001F287C5C060F0C6C061F00001626B9B
:10393800636B600E0001646FEA0E656F000E666FC0
:10394800000E676F60EC21F0000160510001611109
:103958000001621100016311D8A401D001D055D033
:103968000001C34BC42B0001F289C3C060F0C4C07E
:1039780061F0000E0001636F3C0E626FE3EC31F002
:103988000001605100016111D8A401D001D03DD0DF
:103998000001F28BC3C060F0C4C061F0020E0001E8
:1039A800636FD00E626FE3EC31F0000160510001EB
:1039B8006111D8A401D001D028D00001F28DC3C074
:1039C80060F0C4C061F0050E0001636FA00E626F65
:1039D800E3EC31F00001605100016111D8A401D07D
:1039E80001D013D00001F28F000E0001C66F000E47
:1039F800C56F000E0001C46F000EC36F06D005D05E
:103A080004D003D002D001D000D01200A394000E3D
:103A1800676E000E656E000E6A6E6B0E016E0F0EFD
:103A2800026E000E046E000E036E000E066E020E8D
:103A3800056EC5EC37F0160E626E9F0E666E7B0E35
:103A4800646E000E096E0B0E096401D001D002D01D
:103A580013D012D00950040D000EF324D96E040EB1
:103A6800F420DA6EDE6ADE6ADE6ADD6A092A0B0E87
:103A7800096401D001D0EED7608C000E636E6098A7
:103A8800609C0AD06596000E396E000E316E000EED
:103A9800336E000E326E00D065B601D001D0F2D779
:103AA80000D0010E0001D46F010E0001D36F000E8B
:103AB8000001D26F000E0001D16F000E0001D66F19
:103AC800000E096E020E096401D001D002D034D074
:103AD80033D00950020D3C0EF324D96E000EF420A9
:103AE800DA6E000EDE6E000EDD6E0950020D400E1D
:103AF800F324D96E010EF420DA6E000EDE6E000E8D
:103B0800DD6E0950010DBA0EF324D96E000EF420B3
:103B1800DA6E000EDF6E0950010DB70EF324D96E70
:103B2800000EF420DA6E000EDF6E092A020E096418
:103B380001D001D0CED700D0080E3C6E040E3D6EE9
:103B4800160E6A6E040E0401036F300E026F080E23
:103B58000401016F040E0401006F0401008F000EC0
:103B6800596E000E0001DE6F120020EE01F0445085
:103B7800D9264550DA22DF50136E1350325C000EFE
:103B88003358D8B001D001D003D032C013F000D0E0
:103B98001350325E000E335A000E126E12D01250BD
:103BA800010D380EF324D96E040EF420DA6E2EC0FF
:103BB800E1FF2FC0E2FFDFCFE7FF2E4A2F2A122AAC
:103BC80000D01350125CD8A001D001D0E8D700D0A3
:103BD80032503310D8B401D001D035D020EE01F0E6
:103BE8004250D9264350DA22080EDF6E20EE02F04A
:103BF8004250D9264350DA22380EDE6E040EDD6EAE
:103C080044C0D9FF45C0DAFFDFBC01D001D00DD0D8
:103C180042C0D9FF43C0DAFF480EDF6E42C0D9FF69
:103C280043C0DAFF000EDB8E4BD042C0D9FF43C041
:103C3800DAFF080EDF6E42C0D9FF43C0DAFF000E7C
:103C4800DB8E3ED03DD020EE01F04250D9264350C5
:103C5800DA22080EDF6E20EE02F04250D9264350D9
:103C6800DA22300EDE6E040EDD6E42C0D9FF43C08C
:103C7800DAFF040EDF6E42C0D9FF43C0DAFF000E40
:103C8800DB8E34503510D8B401D001D00FD020EEDF
:103C980034F001D80AD00500FA6EDE50FD6EDE5011
:103CA800FE6EF850FF6EFA50120000D0319E4A5056
:103CB800D8A401D001D004D04FEC29F001D000D015
:103CC80012000001623563350001696F0001695116
:103CD800D8A401D001D00BD0000E0001606F000EF7
:103CE800616F000E626F000E636F87D086D060C070
:103CF80064F061C065F062C066F063C067F0200ED2
:103D080006D00001D8906733663365336433E82EF4
:103D1800F8D7000164510001686F0001628FFF0E3F
:103D280000016017FF0E6117FF0E6217000E631780
:103D3800960E0001695F000169BF02D000D01FD054
:103D480000016951800A970FD8B001D001D00CD07A
:103D5800000E0001606F000E616F000E626F000EB2
:103D6800636F4BD04AD000D00001D89063336233E0
:103D7800613360330001693FF7D725D024D01F0E87
:103D88000001696501D001D015D0000E0001606FF7
:103D9800000E616F000E626F000E636F2ED02DD083
:103DA80009D00001D8906037613762376337000166
:103DB800690700D0000169510001D8A401D001D0E1
:103DC800F0D701D000D0000168510001D8B401D06B
:103DD80001D00AD00001631F621F611F606D000ED1
:103DE80061236223632300D060C060F061C061F08A
:103DF80062C062F063C063F000D0120063EC38F078
:103E0800DFEC37F094EC1BF039EC36F08A8A000EC0
:103E18000001616F320E606F9CEC36F08A9A010ED9
:103E28000001616FF40E606F9CEC36F0F28CF28E3C
:103E3800BEEC2DF0000E0001616F140E606F9CEC5B
:103E480036F02DEC39F0000E0001616F140E606F32
:103E58009CEC36F0000EF0EC38F00001ED6F550EDA
:103E68000001ED19D8B409D096EC32F0550E0001D6
:103E7800606F000E18EC36F000D0000E0001F16FF4
:103E8800000E5FEC39F0B1EC38F01E0E0001716FD6
:103E98007D0E0001726F000E0001736F000E0001AD
:103EA800746F96EC30F0000E0001716F7D0E00010A
:103EB800726F000E0001736F010E0001746F96ECB3
:103EC80030F00F0E0001716F7D0E0001726F000E51
:103ED8000001736F030E0001746F96EC30F0030E4F
:103EE8000001616FE80E606F9CEC36F017D0FFD7C9
:103EF80015D06FEC27F0010E0001F16F010E64EC94
:103F080039F00CD0BDEC16F0040AD8A407D0000E86
:103F18000001F16F000E5FEC39F000D00001F151A3
:103F2800000AD8B4E6D7010AD8B4ECD7E0D7F6D758
:103F380098EF00F0800E04013019D8A401D001D008
:103F480093D0C00E396E83D0A20E366E790E376EBE
:103F5800000E3B6E120E3A6E87D004013251D8A47F
:103F680001D001D03ED004013251020DF50EF324E8
:103F7800F66E750EF420F76E0900F5CF36F00A00DC
:103F8800F5CF37F0020E3624016E000E3720026E90
:103F980001C0F6FF02C0F7FFF86A070EF76403D006
:103FA8000800F55005D0F6CFE9FFF7CFEAFFEF504C
:103FB8003A6E030E3624016E000E3720026E01C0E1
:103FC800F6FF02C0F7FFF86A070EF76403D008008F
:103FD800F55005D0F6CFE9FFF7CFEAFFEF503B6E7B
:103FE80043D0000E396E40D03FD0030E0401326139
:103FF80001D001D024D004013251020DEF0EF32478
:10400800F66E750EF420F76E0900F5CF36F00A004B
:10401800F5CF37F036C0F6FF37C0F7FFF86A070E5E
:10402800F76403D00800F55005D0F6CFE9FFF7CFC5
:10403800EAFFEF50016E01503A6E3B6A15D0000E50
:10404800396E12D011D0000E396E0ED00DD0040189
:104058003351010AD8B478D7030AD8B47ED7010AF5
:10406800D8B4C3D7F0D700D01200609839BE01D0B9
:1040780001D042D031AE01D001D012D0020E4D6E27
:104088000001D151D8A401D001D003D011EC2FF0F8
:1040980000D0000E0001D36F000E0001D46F7BD05A
:1040A80020EE01F04250D9264350DA22080EDF6E86
:1040B80020EE02F04250D9264350DA22300EDE6E4E
:1040C800040EDD6E42C0D9FF43C0DAFF0C0EDF6E6E
:1040D80042C0D9FF43C0DAFF000EDB8E3CC0D9FFD7
:1040E8003DC0DAFF040EDF6E3CC0D9FF3DC0DAFFE9
:1040F800000EDB8E50D04FD0040130AF01D001D07C
:104108001AD0010E4D6E0001D251D8A401D001D0B1
:1041180003D011EC2FF000D0000E0001D36F000E79
:104128000001D46F4A50D8A401D001D034D04FEC4C
:1041380029F031D030D0020E4D6E20EE01F0425001
:10414800D9264350DA22080EDF6E20EE02F04250E4
:10415800D9264350DA22300EDE6E040EDD6E42C0E0
:10416800D9FF43C0DAFF040EDF6E42C0D9FF43C057
:10417800DAFF000EDB8E000E0001D36F000E000187
:10418800D46F4A50D8A401D001D005D04FEC29F003
:1041980002D001D000D012001F0E0001DE6501D050
:1041A80001D089D060A201D001D002D084D083D0C0
:1041B8005250D8A401D001D016D0800E0001676FEC
:1041C800020E0001686F400E0001696F82EC23F057
:1041D800516E5150D8B401D001D005D0010E526EA5
:1041E800000E506E00D05250D8B401D001D019D072
:1041F800ACA201D001D015D05050010D800EF3248F
:10420800D96E020EF420DA6EDF50FFEC34F0502A3B
:1042180051505018D8A401D001D003D0000E526ECE
:1042280000D05750D8B401D001D02AD082EC39F050
:104238000009D8B401D001D023D03F0E536001D07B
:1042480001D01ED000F055EC35F000016D6F5350D1
:10425800010D800EF324D96E020EF420DA6E6DC0C3
:10426800DFFF532A5350010D800EF324D96E020E3E
:10427800F420DA6E000EDF6E000E546E01D000D00E
:104288005550D8A401D001D014D05350D8B401D07F
:1042980001D00FD0800E0001606F020E0001616F27
:1042A80053C062F03DEC38F07EEC39F0000E536EEE
:1042B80000D0EEEC19F01200000E0001696F000149
:1042C80063BF02D000D00DD00001631F621F611FC1
:1042D800606D000E612362236323010E0001696F84
:1042E80000D0000167BF02D000D00AD00001671FCC
:1042F800661F651F646D000E65236623672300D063
:104308000001645100016511000166110001671187
:10431800D8B401D001D044D0010E0001686F09D093
:104328000001D89064376537663767370001682B16
:1043380000D0000167AF01D001D0F2D701D000D082
:10434800000164510001605D00016551000161597F
:10435800000166510001625900016751000163596B
:10436800D8A001D001D011D0000164510001605FD4
:10437800000165510001615B000166510001625B4B
:10438800000167510001635B00D00001D8906733DA
:104398006633653364330001682FD2D701D000D06B
:1043A800000169510001D8B401D001D00AD0000140
:1043B800631F621F611F606D000E61236223632308
:1043C80000D060C060F061C061F062C062F063C09C
:1043D80063F000D012003CC0D9FF3DC0DAFF000EE8
:1043E800DFBC010E126E040E3C1A080E0001DE1925
:1043F800D8A401D001D012D0040132517F0B636ED2
:104408006350D8B401D001D004D0100E0001DE6F83
:1044180005D0040E0001DE6F01D000D04D04D8A4F1
:1044280001D001D040D020EE02F03C50D9263D50BA
:10443800DA22380EDE6E040EDD6E04EC25F0020E74
:104448004E18D8A401D001D00DD03CC0D9FF3DC032
:10445800DAFF040EDF6E3CC0D9FF3DC0DAFF000E64
:10446800DB8E3FD01250D8A401D001D00DD03CC073
:10447800D9FF3DC0DAFF480EDF6E3CC0D9FF3DC012
:10448800DAFF000EDB8E2DD03CC0D9FF3DC0DAFF2D
:10449800080EDF6E3CC0D9FF3DC0DAFF000EDB8E90
:1044A80020D01FD01ED031AE01D001D017D034504B
:1044B8003510D8B401D001D00FD020EE34F001D897
:1044C8000AD00500FA6EDE50FD6EDE50FE6EF85022
:1044D800FF6EFA50120000D0319E00D0000E4D6ED3
:1044E80000D01200010E0001786FF40E776F000EF5
:1044F8000001796FB1EC38F0F40E0001716F7D0E98
:104508000001726F000E0001736F000E0001746FDE
:1045180096EC30F081A204D081A002D010D000D057
:104528007C0E0001716F7E0E0001726F000E00019B
:10453800736F030E0001746F96EC30F04BD01B0EB6
:104548000001716F7E0E0001726F000E0001736F23
:10455800010E0001746F96EC30F03CD081B214D09B
:10456800010E0001716F7E0E0001726F000E0001D6
:10457800736F020E0001746F96EC30F000017951F0
:10458800080F0001796F00D081B014D00E0E000121
:10459800716F7E0E0001726F000E0001736F030EC3
:1045A8000001746F96EC30F000017951800F000122
:1045B800796F00D0880E00017919D8B4120001D0A3
:1045C80012009C0E0001766FD70EE82EFED7762FCC
:1045D800FCD700D000017707D8A078070001772919
:1045E800BDE100017829D8B41200B8D71200120032
:1045F800000E00016E6F00D081A001D001D0FCD761
:1046080000D010EC38F0010E72EC39F0C290F29E36
:10461800F29EF29C8D94A0920F015B81A08CF08693
:10462800F2888784F286000E81B2010E00016E6F57
:10463800000E81B0010E00016E6F000E82B4010EF3
:1046480000016E6F0001F951D8B401D001D001D03A
:10465800D180F290F292F090A19C00F0030000F05B
:10466800D19045EC34F0F296F096F2988794A09C9D
:10467800F28EA4EC34F0F2B001D001D00CD0F2B23A
:1046880001D001D008D0F0B001D001D004D0A1AC45
:1046980001D001D012D0F290F292F090010E0001F8
:1046A8006E6F000E72EC39F0DFEC37F08D84FB0E84
:1046B800B36E500EB26EA08209D00A0E0001E56FEB
:1046C800000E00016E6F8D94A09200D00F015B91D7
:1046D800BEEC2DF0000E0001616F280E606F9CEC9F
:1046E80036F0BEEC2DF0000E0001616F280E606FF1
:1046F8009CEC36F000016E5100D01200000E000153
:10470800D06F0001BF510001C011D8B401D001D051
:1047180014D0BFC0D9FFC0C0DAFF0001DFBE01D08E
:1047280004D000016A6B6A2B02D000016A6B000199
:104738006A5100016B6F6C6B06D0000E00016C6F44
:10474800000E6B6F00D000016B5100016C11D8A4F2
:1047580001D001D053D0000120EE01F0BF51D9267D
:10476800C051DA2200016951DE5CD8B001D001D015
:104778000BD0000120EE01F0BF51D926C051DA223A
:10478800DF500001696F00D0000E0001D06F19D012
:104798000001D051010D400EF324D96E050EF4200E
:1047A800DA6E0001D051010DF35000016725E16E6A
:1047B800F45000016821E26EDFCFE7FF0001D02B43
:1047C80000D0000169510001D05DD8A001D001D00E
:1047D800DFD700D0000E0001606F400E0001616F4E
:1047E800050E0001626F400E0001636F020E06ECB9
:1047F80024F060C0BFF061C0C0F000D00001D0510B
:1048080000D012000001646F000160510001D8B4AB
:1048180001D001D00ED000016451020D3C0EF324EA
:10482800D96E000EF420DA6EDECF65F0DDCF66F0CB
:104838000ED000016451020D400EF324D96E010E12
:10484800F420DA6EDECF65F0DDCF66F000D000012F
:10485800655100016611D8A401D001D008D0000E1E
:104868000001606F000E0001616F4BD04AD000015B
:1048780020EE02F06551D9266651DA2261C0DEFFCA
:1048880062C0DDFF000120EE01F06551D9266651B6
:10489800DA2263C0DFFF65C0D9FF66C0DAFF400EC9
:1048A800DF1665C0D9FF66C0DAFF000EDB8665C07B
:1048B800D9FF66C0DAFF000EDB8E000160510001EF
:1048C800D8B401D001D00CD000016451020D3C0EC7
:1048D800F324D96E000EF420DA6E040EDF1A0CD021
:1048E80000016451020D400EF324D96E010EF4202C
:1048F800DA6E040EDF1A00D065C060F066C061F0A1
:1049080000D012000CD061C0F6FF62C0F7FF0800AB
:10491800F550FFEC34F00001614B622B00D061C010
:10492800F6FF62C0F7FF0800F5500009D8A401D0CF
:1049380001D0E9D700D0000E0001676F020E000118
:10494800676501D001D002D018D017D00001675197
:10495800010DF35000016325D96EF4500001642164
:10496800DA6EDF50FFEC34F00001672B020E000115
:10497800676501D001D0EAD700D0000120EE03F02E
:104988006351D9266451DA22DF50FFEC34F0040E6B
:104998000001686F29D000016851010DF350000132
:1049A8006325D96EF45000016421DA6EDF500001EE
:1049B800666F000166390F0B2BEC35F0FFEC34F015
:1049C80000016851010DF35000016325D96EF450C0
:1049D80000016421DA6EDF500F0B2BEC35F0FFEC91
:1049E80034F00001682B00D0000165510001685DBA
:1049F800D8A001D001D0CFD700D047EC39F01200B1
:104A0800080E016E3B5005E1080E3A5CD8B001D0A3
:104A180001D014D03AC001F04E50D8A401D001D032
:104A280003D0010E4E6E0AD04E04D8A401D001D096
:104A380005D0020E4E6E02D001D000D001503A5E71
:104A4800000E3B5A20EE01F03C50D9263D50DA22A8
:104A580001C0DFFF380E0101546F040E0101556FCC
:104A680039B001D001D042D01DD01CD036C0F6FFDD
:104A780037C0F7FFF86A54C1D9FF55C1DAFF070EEE
:104A8800F76403D00800F55005D0F6CFE9FFF7CF5B
:104A9800EAFFEF50DF6E364A372A0101544B552B97
:104AA800010600D00150D8A401D001D0DFD725D00D
:104AB80024D01CD036C0F6FF37C0F7FFF86A54C1BF
:104AC800D9FF55C1DAFF070EF76403D00800F55087
:104AD80005D0F6CFE9FFF7CFEAFFEF50DF6E364A91
:104AE800372A0101544B552B010600D00150D8A498
:104AF80001D001D0DFD701D000D01200000E000194
:104B0800606F020E0001606501D001D002D015D09F
:104B180014D000016051010DF00EF324D96E010E7E
:104B2800F420DA6E000EDF6E0001602B020E000129
:104B3800606501D001D0EDD700D0000E0001616F93
:104B4800210E0001616501D001D002D015D014D02A
:104B580000016151010D300EF324D96E010EF420CD
:104B6800DA6E000EDF6E0001612B210E0001616517
:104B780001D001D0EDD700D0000E0001626F1F0EEA
:104B88000001626501D001D002D015D014D0000117
:104B98006251010D9D0EF324D96E010EF420DA6ED8
:104BA800000EDF6E0001622B1F0E0001626501D04E
:104BB80001D0EDD700D0000E0001636F0F0E000189
:104BC800636501D001D002D015D014D00001635123
:104BD800010DBD0EF324D96E010EF420DA6E000E1D
:104BE800DF6E0001632B0F0E0001636501D001D059
:104BF800EDD700D012000001646FFA0E0001636F58
:104C0800580EE82EFED7632FFCD700F0FA0E0001ED
:104C1800636F580EE82EFED7632FFCD700F0FA0E0C
:104C28000001636F580EE82EFED7632FFCD700F003
:104C3800000164510001D8B42CD0220E0001616F2C
:104C48007A0E0001626F71EC37F0FA0E0001636FA3
:104C5800580EE82EFED7632FFCD700F0FA0E00019D
:104C6800636F580EE82EFED7632FFCD700F0FA0EBC
:104C78000001636F580EE82EFED7632FFCD700F0B3
:104C88003C0E0001616F7A0E0001626F71EC37F023
:104C98001200EE0E0001616F790E0001626F71EC77
:104CA80037F0FA0E0001636F580EE82EFED7632F17
:104CB800FCD700F0FA0E0001636F580EE82EFED7FD
:104CC800632FFCD700F0FA0E0001636F580EE82E30
:104CD800FED7632FFCD700F0080E0001616F7A0E33
:104CE8000001626F71EC37F012001200398E6B0E02
:104CF800016E0F0E026E000E046E000E036E000EA3
:104D0800066E020E056EC5EC37F0000E016E040E3D
:104D1800026E000E046E000E036E000E066E300E5C
:104D2800056EC5EC37F0608C000E166E020E166428
:104D380001D001D002D01CD01BD01650010DBA0EE4
:104D4800F324D96E000EF420DA6E000EDF6E1650D2
:104D5800010DB70EF324D96E000EF420DA6E000EA2
:104D6800DF6E162A020E166401D001D0E6D700D0F5
:104D7800F30E016E000E026E000E046E000E036E3E
:104D8800000E066E020E056EC5EC37F0609C080E2C
:104D98003C6E040E3D6E000E446E040E456E44C01B
:104DA80042F045C043F032C459F05950D8A401D05C
:104DB80001D004D0100E0001DE6F12D0000E0F6E6D
:104DC800010E0E6E590E106E000E116E000E136E4F
:104DD800010E126E1FEC32F0200E0001DE6F00D0C3
:104DE80012000001A66FCD0E0001786FCC0E796F0E
:104DF8004C0E7A6F400E7B6F0001A6510001606F68
:104E0800616B626B636B000E01EC18F060C074F0AC
:104E180061C075F062C076F063C077F081EC10F085
:104E280074C08DF075C08EF076C08FF077C090F0AA
:104E3800000E0001916F000E926F800E936F440E6A
:104E4800946F0EEC13F08DC0A8F08EC0A9F08FC03F
:104E5800AAF090C0ABF0000E0001646F000E656F01
:104E6800000E666FBF0E676FA8C060F0A9C061F042
:104E7800AAC062F0ABC063F0B6EC0DF060C074F08D
:104E880061C075F062C076F063C077F0000E000173
:104E9800786F000E796FC80E7A6F420E7B6F81ECC7
:104EA80010F074C0A8F075C0A9F076C0AAF077C059
:104EB800ABF0A8C060F0A9C061F0AAC062F0ABC0B6
:104EC80063F065EC1EF0000160510001A76F00015E
:104ED800A75100D0120054D0FFD75ED0B1EC38F003
:104EE800100E0001716F7F0E0001726F010E00013C
:104EF800736F000E0001746F96EC30F0610E0001C4
:104F0800716F7F0E0001726F020E0001736F010E48
:104F18000001746F96EC30F0280E0001716F7E0E60
:104F28000001726F000E0001736F020E0001746FB2
:104F380096EC30F0010E0001DD6F2ED0200E00013E
:104F4800DE6101D001D002D027D026D0020E0001A8
:104F5800DD6F22D0D0EC20F0030E0001766FBDEC9F
:104F68002EF00001766F030E00017619D8B401D037
:104F780001D012D0020E0001F76F0ED00DD00CD068
:104F88000001DD51000AD8B4A9D7010AD8B4D6D790
:104F9800030AD8B4DFD7A0D780A001D001D007D0AA
:104FA8000001F751D8B401D001D095D700D000F056
:104FB800020E0001F719D8B401D001D004D0000EB8
:104FC8000001F76F00D0120004013039E832030BFA
:104FD8000009D8B401D001D04BD06ED06DD048D0E4
:104FE800398E080E0001DE6F67D09EEC1FF064D08A
:104FF8007AEC26F061D0590E366E000E376E398085
:10500800010E3A6E398E58D033EC2AF055D000D0C4
:1050180038EC15F051D004013451010DF30EF3248E
:10502800366E000EF420376E3980010E3A6E398ED6
:1050380043D0398E04013451010DF30EF324D96E97
:10504800000EF420DA6E32C4DFFF36D0000E0F6E89
:10505800020E0E6E000E106E000E116E000E136E14
:10506800000E126E1FEC32F027D026D025D024D0A7
:1050780004013151000AD8B4C7D7010AD8B4C8D737
:10508800020AD8B4C5D7060AD8B4AAD7030AD8B42E
:10509800ACD7010AD8B4DAD70F0AD8B4ACD7010A0A
:1050A800D8B4A6D7030AD8B4B6D7010AD8B4C1D79A
:1050B800070AD8B401D000D012002D0E4B6E58C08C
:1050C8001CF0FD0E1C16D8A401D001D062D058C027
:1050D8001CF0D8901C323F0E1C161C50040D000EFC
:1050E800F324446E040EF420456E44C042F045C0DB
:1050F80043F0040E421A44C0D9FF45C0DAFFDF303E
:10510800E8320F0B0D0AD8A401D001D03ED0000E12
:105118001E6E070E1E6401D001D002D029D028D0FF
:1051280020EE02F04450D9264550DA22DECF1CF09A
:10513800DDCF1DF01CC0D9FF1DC0DAFF1E50010DC8
:10514800300EF324E16E040EF420E26EDFCFE7FFA9
:1051580020EE02F04450D9264550DA22DE2A000E0D
:10516800DD221E2A070E1E6401D001D0D9D700D037
:1051780020EE02F04450D9264550DA22300EDE6E79
:10518800040EDD6EDAEC30F00FD073EC33F00CD097
:105198000BD05850FD0B040AD8A401D001D004D07C
:1051A800EFEC21F001D000D0120069EC2EF0B1EC48
:1051B80038F0580E0001716F7F0E0001726F000EFB
:1051C8000001736F000E0001746F96EC30F0710EE1
:1051D8000001716F7F0E0001726F000E0001736F86
:1051E800010E0001746F96EC30F0690E0001716FCA
:1051F8007F0E0001726F000E0001736F020E000136
:10520800746F96EC30F00E0E0001626F020E000112
:10521800636F430EADEC2CF076EC34F063C071F0A4
:1052280064C072F04FEC2CF071C0C7F072C0C8F0C7
:105238000001C751F5EC26F00001AC6F0001AC513C
:105248000001C76FC86B0A0E0001766F020E0001DD
:10525800776F0001C751A3EC2AF000F0C70E0001D8
:10526800716F7A0E0001726F0A0E0001736F010EE2
:105278000001746F96EC30F03DEC33F06DC071F0C6
:105288006EC072F00A0E0001736F010E0001746F98
:1052980096EC30F012000001D451D8A401D001D00E
:1052A8006CD0010E0001D46F0001D351D8A401D0F5
:1052B80001D063D0010E0001D36F020E4D18D8A49F
:1052C80001D001D015D020EE01F03C50D9263D5038
:1052D800DA22000EDF6E3CC0D9FF3DC0DAFF480E6F
:1052E800DF6E3CC0D9FF3DC0DAFF000EDB8E45D033
:1052F8004D04D8A401D001D040D0000E0001D56FD4
:1053080020EE01F04450D9264550DA22080EDF6E0F
:1053180020EE02F04450D9264550DA22300EDE6ED7
:10532800040EDD6E44C0D9FF45C0DAFF040EDF6EFF
:1053380044C0D9FF45C0DAFF000EDB8E010E000124
:10534800D56F20EE01F04250D9264350DA22080EDC
:10535800DF6E20EE02F04250D9264350DA22300E9A
:10536800DE6E040EDD6E42C0D9FF43C0DAFF800E48
:10537800DF6E03D002D001D000D01200056E0150BC
:10538800D8B401D001D00DD00550020D3C0EF32445
:10539800D96E000EF420DA6EDECF06F0DDCF07F00E
:1053A8000DD00550020D400EF324D96E010EF420E5
:1053B800DA6EDECF06F0DDCF07F000D0065007101A
:1053C800D8A401D001D006D0000E016E000E026EE6
:1053D80045D044D020EE02F00650D9260750DA22F4
:1053E80002C0DEFF03C0DDFF20EE01F00650D92623
:1053F8000750DA2204C0DFFF06C0D9FF07C0DAFF72
:10540800400EDF1606C0D9FF07C0DAFF000EDB86A4
:1054180006C0D9FF07C0DAFF000EDB8E0150D8B4F2
:1054280001D001D00BD00550020D3C0EF324D96EEB
:10543800000EF420DA6E040EDF1A0BD00550020DB0
:10544800400EF324D96E010EF420DA6E040EDF1A32
:1054580000D006C001F007C002F000D01200000E14
:105468000401386F000E0401396F4FD0398E03D014
:105478000401388100D00001D705D8A401D001D09B
:1054880051D0040138834ED04DD0398E4BD0398E4F
:10549800040134BF01D001D011D0040134510F0BE5
:1054A800016E0150020D400EF324D96E010EF42056
:1054B800DA6EDECF02F0DDCF03F011D004013451F3
:1054C8000F0B016E0150020D3C0EF324D96E000E35
:1054D800F420DA6EDECF02F0DDCF03F000D002C098
:1054E800D9FF03C0DAFFDFAE01D001D01BD002C064
:1054F800D9FF03C0DAFFDFA401D001D013D0010E19
:105508000401386F0FD00ED00DD0040130511F0B9D
:10551800000AD8B4ABD7010AD8B4B7D7030AD8B4AD
:10552800B6D700D039AE01D001D008D0380E366ECB
:10553800040E376E3980020E3A6E00D01200000158
:105548007F6F000E0001786F00017FAF01D001D09E
:1055580004D0010E0001786F00D000017F517F0B4D
:1055680000017F6F7FC060F00001616B000E0001D9
:10557800636F0A0E626F81EC2BF000016051300FEF
:1055880000017B6F0A0E0001606F00017F515BEC28
:1055980032F000017F6F7FC060F00001616B000E88
:1055A8000001636F0A0E626F81EC2BF000016051FD
:1055B800300F00017A6F0A0E0001606F00017F5101
:1055C8005BEC32F000017F6F7FC060F00001616B1F
:1055D800000E0001636F0A0E626F81EC2BF0000170
:1055E8006051300F0001796F000178510001D8B483
:1055F80001D001D003D02D0E0001796F000E0001FB
:105608007C6F790E0001716F000E0001726F76C019
:1056180073F077C074F096EC30F012000001696FF7
:10562800000166510001676F686B020E0001672771
:10563800000E6823BD0E00016725D96E010E00011A
:105648006821DA6E69C060F00001616B000E00012C
:10565800636F0A0E626F81EC2BF000016051300F0E
:10566800DF6E0A0E0001606F000169515BEC32F0D9
:105678000001696F000166510001676F686B010ED8
:1056880000016727000E6823BD0E00016725D96E4B
:10569800010E00016821DA6E69C060F00001616BDB
:1056A800000E0001636F0A0E626F81EC2BF000019F
:1056B8006051300FDF6E0A0E0001606F0001695102
:1056C8005BEC32F00001696F00016651010DBD0EFF
:1056D800F324D96E010EF420DA6E69C060F000017F
:1056E800616B000E0001636F0A0E626F81EC2BF094
:1056F80000016051300FDF6E1200000E0001656F6F
:10570800000161BF02D000D009D00001606D611FA7
:10571800D8B0612B010E0001656F00D0000163BF96
:1057280002D000D006D00001626D631FD8B0632B91
:1057380000D00001625100016311D8B401D001D03A
:1057480030D0010E0001646F07D00001D890623795
:1057580063370001642B00D0000163AF01D001D092
:10576800F4D701D000D0000162510001605D000152
:10577800635100016159D8A001D001D009D00001BE
:1057880062510001605F000163510001615B00D05C
:105798000001D890633362330001642FE4D701D04D
:1057A80000D0000165510001D8B401D001D006D065
:1057B8000001606D611FD8B0612B00D060C060F03F
:1057C80061C061F000D01200040130511F0BE806DF
:1057D800D8B401D001D002D05DD05CD004013039FA
:1057E800E832030BE806D8B401D001D002D052D079
:1057F80051D004013451D8B401D001D039D00401BA
:105808003405D8B401D001D033D044D043D030D0FF
:10581800D70E366E010E376E000E3B6E080E3A6ECE
:105828003980398E37D0D70E366E010E376E398EE5
:1058380031D036C432F037C433F0CD0E2E6E010E9F
:105848002F6EA40E346E690E356E318E23D0DF0EA6
:10585800366E010E376E000E3B6E070E3A6EC10EA5
:10586800396E18D032C4CDF0398E14D013D012D07E
:1058780004013151000AD8B4CBD7010AD8B4D3D720
:10588800210AD8B4D6D7010AD8B4E1D7030AD8B4C4
:10589800E9D700D01200000E0001786F000E776F74
:1058A800000E0001766F030E0001766501D001D06D
:1058B80002D04AD049D071C0D9FF72C0DAFFDF5098
:1058C800D8B401D001D040D0000176510001D8B43D
:1058D80001D001D010D077C060F078C061F0000E20
:1058E8000001636F0A0E626F55EC37F060C077F005
:1058F80061C078F000D071C0D9FF72C0DAFFDF5004
:105908000001736F00017351000177250001746F66
:10591800000E000178210001756FD00E000174257A
:105928000001776FFF0E000175210001786F0001FB
:10593800714B722B01D008D00001762B030E0001A9
:10594800766501D001D0B7D777C071F078C072F012
:10595800120000016A6F00016351BEEC38F00001CB
:105968006251080DF350040F85EC38F0000E000169
:105978006B6F070E00016B6501D001D002D046D0D5
:1059880045D000016B51010D000E0001646FFF0E40
:105998000001656F00016A510001666F676B0001C5
:1059A800D890663767370001D890663767370001A7
:1059B800D8906637673700016451000166270001F7
:1059C800655100016723F8C168F0F9C169F0000169
:1059D8006651000168270001675100016923F350EF
:1059E80000016827F4500001692368C0F6FF69C008
:1059F800F7FF0800F550D8EC38F000016B2B070EC4
:105A080000016B6501D001D0BCD700D0120046D090
:105A180060C0D9FF61C0DAFFDF50D8B401D001D02F
:105A280014D060C0D9FF61C0DAFFDF500001666F93
:105A380062C0F6FF63C0F7FF0800F5500001661961
:105A4800D8B401D001D023D000D062C0F6FF63C023
:105A5800F7FF0800F5500001666F676B0001661FCD
:105A6800671F664B672B60C0D9FF61C0DAFFDF5044
:105A78000001686F00016851000166250001606F30
:105A8800000E000167210001616F1CD01BD00001CE
:105A9800604B612B0001624B632B00D0000164074F
:105AA800D8A065070001642905E100016529D8A48B
:105AB80001D001D0ADD700D0000E0001616F000EFB
:105AC800606F00D01200B1EC38F03D0E0001716F2C
:105AD8007F0E0001726F000E0001736F000E00014F
