:0400000084EF00F099
:100008005F82FACF2FF0FBCF30F0E9CF31F0EACFA3
:1000180032F0E1CF33F0E2CF34F0D9CF35F0DACF98
:1000280036F0F3CF37F0F4CF38F0F6CF39F0F7CF1A
:100038003AF0F8CF3BF0F5CF3CF05FC03DF060C040
:100048003EF061C03FF062C040F09DB09EA004D079
:10005800F2EC2DF034EC2EF0A0B2A1A203D0FDEC0E
:100068002CF013D09DBA9EAA05D023EC2EF0DDEC1F
:100078002BF00BD09DB89EA803D0C5EC2BF005D073
:10008800A0BCA1AC02D04AEC2EF0F2BAF2A405D082
:1000980042EC2EF07BEC13F00DD0F2B6F2A008D0B3
:1000A800F290000E81BE010E416E64EC29F002D080
:1000B800B4EC14F040C062F03FC061F03EC060F0A4
:1000C8003DC05FF03CC0F5FF3BC0F8FF3AC0F7FF0A
:1000D80039C0F6FF38C0F4FF37C0F3FF36C0DAFF87
:1000E80035C0D9FF34C0E2FF33C0E1FF32C0EAFFB8
:1000F80031C0E9FF30C0FBFF2FC0FAFF5F9211004B
:100108004CEF22F00001B56F000E0001B06FAE5148
:10011800D8B4DCEF07F0FA51D8B4DCEF07F0FD51A2
:10012800EF5DD8A0C4D0E4EC22F0000E01013F6FCF
:10013800000E3E6F000E0001DB6F000EDA6F00F05C
:1001480080EC25F0000E0001B16F17EC29F06EC0AD
:1001580072F06FC073F041EC25F072C03EF173C0CD
:100168003FF1ECEC2DF060C072F061C073F0060E48
:100178000001746F010E756FA1EC26F0ECEC2DF008
:1001880060C072F061C073F0040E0001746F0AEC75
:1001980028F00001B16F11EC2AF063C072F064C05E
:1001A80073F041EC25F072C0DAF073C0DBF00001A7
:1001B800DA51A1EC18F00001AF6FAF51DA6FDB6BC9
:1001C8002BEC2EF0050F0001666FDA5199EC1FF049
:1001D800000E0001EF6F1AEC2DF0310E0001726F66
:1001E8007C0E736F000E746F000E756FA1EC26F015
:1001F800340E0001726F7E0E736F000E746F010E65
:10020800756FA1EC26F0720E0001726F7D0E736F90
:10021800000E746F020E756FA1EC26F0ECEC2DF059
:1002280060C072F061C073F0030E0001746F020EBB
:10023800756FA1EC26F00B0E0001776F020E786F38
:10024800DA51AAEC21F0FEEC2DF00001F16FF1512A
:10025800D8A402D0050E05D0DF0EF16503D0F15108
:10026800CE0FF16F0A0E776F010E786FF15172ECB5
:1002780023F0000E0001666FF15199EC1FF0200E7B
:100288000101B36F00F02D0E0001616F7D0E626FEA
:10029800B00E636F010E646F0C0E656F22EC1EF0DA
:1002A800070E0001F06F080EF36FDCEF07F0FB514B
:1002B800D8B407D0EF2B0F0EF36F010EAC6FDCEF45
:1002C80007F0000EEF6FDCEF07F0FFD70001B55124
:1002D800D8A403D0AC51D8B412001AEC2DF0210EDA
:1002E8000001726F7B0E736F000E746F000E756FD6
:1002F800A1EC26F0870E0001726F7B0E736F000E63
:10030800746F010E756FA1EC26F0830E0001726FF9
:100318007C0E736F000E746F030E756FA1EC26F0E0
:10032800060E0001F36F1200B551D8B427D01AECAD
:100338002DF0100E0001726F7B0E736F000E746F3C
:10034800000E756FA1EC26F0FF0E0001726F7A0E99
:10035800736F000E746F010E756FA1EC26F0830E9B
:100368000001726F7C0E736F000E746F030E756F51
:10037800A1EC26F00A0E0001F36F1200AC51D8B4BC
:100388001200000EEF6F1AEC2DF0DC0E0001726FF8
:100398007B0E736F000E746F000E756FA1EC26F064
:1003A800650E0001726F7D0E736F000E746F010E83
:1003B800756FA1EC26F0A90E0001726F7A0E736FAB
:1003C800000E746F030E756FA1EC26F0E4EC22F0BA
:1003D800FEEC2DF00001F16FF151D8A402D0050E0A
:1003E80005D0DF0EF16503D0F151CE0FF16F0C0E81
:1003F800776F010E786FF15172EC23F0000E000157
:10040800666FF15199EC1FF0200E0101B36F000ED9
:100418003F6F000E3E6F000E0001DB6F000EDA6FBB
:1004280000F080EC25F0010E0001616FF40E606FA2
:1004380033EC2BF0000E0001B26F17EC29F06EC000
:1004480072F06FC073F041EC25F072C03EF173C0DA
:100458003FF117EC29F06EC072F06FC073F0040E14
:100468000001746F0AEC28F00001B26F00F000F090
:1004780011EC2AF063C072F064C073F041EC25F00F
:1004880072C0DAF073C0DBF00001DA51A1EC18F0A9
:100498000001AF6FAF51DA6FDB6B2BEC2EF0050F5D
:1004A8000001666FDA5199EC1FF000F0070E0001A9
:1004B800F36F1200B551D8B40CD02D0E616F7D0EBC
:1004C800626FB00E636F010E646F0C0E656F22ECE5
:1004D8001EF00001AC51D8B40CD0640E616F7E0ED2
:1004E800626FB00E636F010E646F0C0E656F22ECC5
:1004F8001EF00001B551D8A403D0AC51D8B41200F5
:100508001AEC2DF04C0E0001726F7E0E736F000E08
:10051800746F000E756FA1EC26F0400E0001726F2B
:100528007E0E736F000E746F010E756FA1EC26F0CE
:100538000C0E0001776F010E786FF15172EC23F009
:10054800720E0001726F7D0E736F000E746F020ED3
:10055800756FA1EC26F0ECEC2DF060C072F061C074
:1005680073F0030E0001746F020E756FA1EC26F094
:100578000B0E0001776F020E786FDA51AAEC21F0AA
:10058800899C080E0001F36F1200AD51D8B403D155
:10059800500E606F010E616FF70E626F7F0E636F12
:1005A8003EEC29F0000160516111D8A403D0898C78
:1005B800080EF36F500E606F010E616FAA0E626F26
:1005C8007F0E636F000E656F060E646FB7EC23F045
:1005D800000160516111D8A478D0070EB46FB451EE
:1005E800010D500EF324D96E010EF420DA6EDF509F
:1005F8000101E36F0001B42BB451010D500EF32437
:10060800D96E010EF420DA6EDF500101E46F0001AB
:10061800B42B200E0101E419D8B415D00001B4514F
:10062800010D500EF324D96E010EF420DA6EDF505E
:100638000101E56F0001B42B200E0101E519D8B4C2
:1006480002D00001B42B000E0001B36F3F0EB3655A
:1006580001D023D0B451010D500EF324D96E010EF0
:10066800F420DA6EB351010D900EF324E16E010E01
:10067800F420E26EDFCFE7FFB351010D900EF324B3
:10068800D96E010EF420DA6EDF50D8B402D0B42B44
:1006980002D0400EB36FB32BD9D7898E899C540EE4
:1006A800726F7B0E736F000E746F020E756FA1EC84
:1006B80026F0CC0E0001726F7A0E736F000E746F05
:1006C800030E756FA1EC26F05DD0500E0001606F2F
:1006D800010E616FB10E626F7F0E636F000E656F62
:1006E800060E646FB7EC23F0000160516111D8A4C5
:1006F8000CD0899CBA0E726F7B0E736F000E746FEC
:10070800030E756FA1EC26F03DD0500E0001606F0E
:10071800010E616FA30E626F7F0E636F000E656F2F
:10072800060E646FB7EC23F0000160516111D8A484
:100738000BD0960E726F7A0E736F000E746F030EE5
:10074800756FA1EC26F01ED0500E0001606F010EEF
:10075800616F9C0E626F7F0E636F000E656F060EF1
:10076800646FB7EC23F0000160516111D8A40AD07E
:10077800B30E726F7C0E736F000E746F030E756F7D
:10078800A1EC26F0FA0E0001AF6F580EE82EFED746
:10079800AF2FFCD700F00001B551D8A403D0AC515D
:1007A800D8B412001AEC2DF0210E0001726F7B0EE6
:1007B800736F000E746F000E756FA1EC26F0870E34
:1007C8000001726F7B0E736F000E746F010E756FF0
:1007D800A1EC26F0830E0001726F7C0E736F000E81
:1007E800746F030E756FA1EC26F0060E0001F36F0F
:1007F8001200B551D8B427D01AEC2DF0630E0001C1
:10080800726F7C0E736F000E746F000E756FA1EC23
:1008180026F0530E0001726F7C0E736F000E746F1A
:10082800010E756FA1EC26F0830E0001726F7C0E2D
:10083800736F000E746F030E756FA1EC26F0010E36
:100848000001F36F1200AC51D8B412001AEC2DF06D
:10085800899E420E0001726F7C0E736F000E746FDA
:10086800000E756FA1EC26F0CA0E0001726F7E0EA5
:10087800736F000E746F010E756FA1EC26F0E30E16
:100888000001726F010E736F090E746F010E756FA0
:10089800A1EC26F0510E0001726F7E0E736F000EF0
:1008A800746F020E756FA1EC26F0900E0001726F46
:1008B800010E736F060E746F020E756FA1EC26F0B1
:1008C8009A0E0001726F010E736F000E746F030EA3
:1008D800756FA1EC26F00B0E0001F36F1200B551F5
:1008E800D8A403D0AC51D8B412001AEC2DF0100ED5
:1008F8000001726F7B0E736F000E746F000E756FC0
:10090800A1EC26F0FF0E0001726F7A0E736F000ED5
:10091800746F010E756FA1EC26F0830E0001726FE3
:100928007C0E736F000E746F030E756FA1EC26F0CA
:100938000A0E0001F36F1200B551D8B436D01AEC84
:100948002DF0200E0001726F7C0E736F000E746F15
:10095800000E756FA1EC26F00001FB51D8B40BD046
:10096800D30E726F7C0E736F000E746F020E756F6C
:10097800A1EC26F00BD0E20E0001726F7C0E736FB3
:10098800000E746F020E756FA1EC26F0730E000155
:10099800726F7C0E736F000E746F030E756FA1EC8F
:1009A80026F00C0E0001F36F1200AC51D8B41200FF
:1009B8001AEC2DF0630E0001726F7C0E736F000E3F
:1009C800746F000E756FA1EC26F0800E0001726F37
:1009D8007F0E736F000E746F010E756FA1EC26F019
:1009E800790E0001726F7F0E736F000E746F020E26
:1009F800756FA1EC26F0FA0E0001726F7F0E736F0F
:100A08000A0E746F020E756FA1EC26F080EC25F0CB
:100A1800020E0001F36F1200B551D8B49BD01AEC46
:100A28002DF0760E0001726F7B0E736F000E746FDF
:100A3800000E756FA1EC26F0650E0001726F7B0E3B
:100A4800736F000E746F010E756FA1EC26F0870EA0
:100A58000001726F7F0E736F000E746F020E756F58
:100A6800A1EC26F0C20E0001726F7F0E736F0C0EA0
:100A7800746F020E756FA1EC26F048D0CB0E000102
:100A8800726F7D0E736F070E746F020E756FA1EC97
:100A980026F051D0E00E0001726F7F0E736F070EC3
:100AA800746F020E756FA1EC26F045D0EC0E0001B4
:100AB800726F7F0E736F070E746F020E756FA1EC65
:100AC80026F039D0E40E0001726F7F0E736F070EA7
:100AD800746F020E756FA1EC26F02DD0E80E0001A0
:100AE800726F7F0E736F070E746F020E756FA1EC35
:100AF80026F021D0EF0E0001726F7F0E736F070E84
:100B0800746F020E756FA1EC26F015D00001FE512E
:100B1800000AD8B4B3D7010AD8B4BCD7030AD8B4EA
:100B2800C5D7010AD8B4CED7070AD8B4D7D7010A8F
:100B3800D8B4E0D7A3D7730E0001726F7C0E736F21
:100B4800000E746F030E756FA1EC26F00D0E0001F8
:100B5800F36F1200AC51D8B41200FB51D8B40DD0C9
:100B6800000EFB6FE20E726F7C0E736F000E746FD7
:100B7800020E756FA1EC26F01200010E0001FB6F4A
:100B8800D30E726F7C0E736F000E746F020E756F4A
:100B9800A1EC26F012000001B551D8A403D0AC5145
:100BA800D8B412001AEC2DF0630E0001726F7C0E9F
:100BB800736F000E746F000E756FA1EC26F0530E64
:100BC8000001726F7C0E736F000E746F010E756FEB
:100BD800A1EC26F0830E0001726F7C0E736F000E7D
:100BE800746F030E756FA1EC26F0010E0001F36F10
:100BF8001200B551D8B492D01AEC2DF0ED0E0001C8
:100C0800726F7B0E736F000E746F000E756FA1EC20
:100C180026F0580E0001726F7E0E736F000E746F0F
:100C2800020E756FA1EC26F0730E0001726F7C0E38
:100C3800736F000E746F030E756FA1EC26F0030E30
:100C48000001F36F53D0C70E726F7F0E736F0A0ED9
:100C5800746F020E756FA1EC26F060D0CB0E000108
:100C6800726F7F0E736F0A0E746F020E756FA1ECB0
:100C780026F054D0CF0E0001726F7F0E736F0A0EEC
:100C8800746F020E756FA1EC26F048D0D30E0001E8
:100C9800726F7F0E736F0A0E746F020E756FA1EC80
:100CA80026F03CD0D70E0001726F7F0E736F0A0ECC
:100CB800746F020E756FA1EC26F030D0DB0E0001C8
:100CC800726F7F0E736F0A0E746F020E756FA1EC50
:100CD80026F024D0F30E0001726F7F0E736F0A0E98
:100CE800746F020E756FA1EC26F018D00001FC514C
:100CF800000AD8B4A8D7010AD8B4B0D7030AD8B420
:100D0800B9D7010AD8B4C2D7070AD8B4CBD7010AD1
:100D1800D8B4D4D7030AD8B4DDD795D70001AC51DD
:100D2800D8B41200050EFE6102D0FE2B54D0000E7E
:100D3800FE6F51D0090EFD6FDB0E726F7F0E736F61
:100D4800070E746F020E756FA1EC26F01200120EDA
:100D58000001FD6FDF0E726F7F0E736F070E746FE9
:100D6800020E756FA1EC26F012001B0E0001FD6F3C
:100D7800EB0E726F7F0E736F070E746F020E756F36
:100D8800A1EC26F01200360E0001FD6FE30E726F23
:100D98007F0E736F070E746F020E756FA1EC26F04D
:100DA80012006C0E0001FD6FE70E726F7F0E736FFD
:100DB800070E746F020E756FA1EC26F01200FD6924
:100DC800EF0E726F7F0E736F070E746F020E756FE2
:100DD800A1EC26F012000001FE51000AD8B4AAD7EF
:100DE800010AD8B4B4D7030AD8B4BFD7010AD8B413
:100DF800CAD7070AD8B4D5D7010AD8B4E0D79AD742
:100E0800B551D8B41ED0FC517CEC11F01AEC2DF081
:100E1800CB0E0001726F7B0E736F000E746F000EA5
:100E2800756FA1EC26F0930E0001726F7C0E736F44
:100E3800000E746F030E756FA1EC26F00F0E000103
:100E4800F36FAC51D8B41200060EFC610AD0EE055F
:100E5800D8A405D0030EFC6502D0060E03D0FC2BE7
:100E680056D0000EFC6F53D0C70E726F7F0E736F93
:100E78000A0E746F020E756FA1EC26F01200CB0EED
:100E88000001726F7F0E736F0A0E746F020E756F1A
:100E9800A1EC26F01200CF0E0001726F7F0E736F67
:100EA8000A0E746F020E756FA1EC26F01200D30EB5
:100EB8000001726F7F0E736F0A0E746F020E756FEA
:100EC800A1EC26F01200D70E0001726F7F0E736F2F
:100ED8000A0E746F020E756FA1EC26F01200DB0E7D
:100EE8000001726F7F0E736F0A0E746F020E756FBA
:100EF800A1EC26F01200F30E0001726F7F0E736FE3
:100F08000A0E746F020E756FA1EC26F01200000134
:100F1800FC51000AD8B4A8D7010AD8B4B0D7030A3C
:100F2800D8B4B9D7010AD8B4C2D7070AD8B4CBD72E
:100F3800010AD8B4D4D7030AD8B4DDD795D7AC51B1
:100F4800D8B40CD0BCEC1BF00009D8B404D0010E06
:100F58000001B56F03D0090E0001F06FB551D8B488
:100F680012001AEC2DF0210E0001726F7B0E736FC8
:100F7800000E746F000E756FA1EC26F0870E00014D
:100F8800726F7B0E736F000E746F010E756FA1EC9C
:100F980026F0830E0001726F7C0E736F000E746F63
:100FA800030E756FA1EC26F0060E0001F36F120018
:100FB800F351000AD8B46AEF01F0010AD8B4BCD4DE
:100FC800030AD8B4E8D5010AD8B41AD7050AD8B4A0
:100FD80098EF01F0010AD8B45EEF02F00F0AD8B416
:100FE800C9EF02F0020AD8B404D4010AD8B477D4FD
:100FF800070AD8B411D5010AD8B4FBD5020AD8B467
:101008009ED769EF01F000017C6F000E00017B6F35
:1010180066D2FFD7FC0E0001616F7E0E626F7DEC19
:101028002BF03AD17851D8B402D00A0EF46F7C5123
:10103800D8B479D2500E606F010E616FB80E626F2E
:101048007F0E636F000E656F040E646FB7EC23F0BC
:10105800000160516111D8A429D0000EEE6F1AEC7E
:101068002DF0430E0001726F7B0E736F000E746FCC
:10107800000E756FA1EC26F0980E0001726F7B0EC2
:10108800736F000E746F020E756FA1EC26F0EE0EF2
:101098000001726F7A0E736F000E746F030E756F16
:1010A800A1EC26F03BD00001F46F3DD2500E606FEA
:1010B800010E616FBD0E626F7F0E636F000E656F6C
:1010C800040E646FB7EC23F0000160516111D8A4DD
:1010D80027D0010EEE6F1AEC2DF0430E0001726F4F
:1010E8007B0E736F000E746F000E756FA1EC26F007
:1010F800980E0001726F7B0E736F000E746F020EF4
:10110800756FA1EC26F0EE0E0001726F7A0E736F08
:10111800000E746F030E756FA1EC26F0020EC3D794
:10112800FC0E616F7E0E626F7DEC2BF0000E0001ED
:10113800616F190E606F33EC2BF0000EB4D7775146
:10114800D8B419D0BB0E726F7A0E736F000E746F1D
:10115800030E756FA1EC26F0010E0001616FF40E0D
:10116800606F33EC2BF0E70E0001616F7D0E626F4C
:101178007DEC2BF05ED07851D8B4D5D1DD0E726FEE
:101188007A0E736F000E746F030E756FA1EC26F064
:10119800010E0001616FF40E606F33EC2BF03B0E13
:1011A8000001616F7D0E626F7DEC2BF02FD17C51B9
:1011B800D8B4B9D1500E606F010E616FF70E626F2F
:1011C8007F0E636F3EEC29F0000160516111D8A4D5
:1011D80002D0040E69D7500E606F010E616F570E72
:1011E800626F7D0E636F3EEC29F000016051611162
:1011F800D8A419D01AEC2DF0B40E0001726F7E0E2F
:10120800736F000E746F000E756FA1EC26F0190E47
:101218000001726F7F0E736F000E746F010E756F91
:10122800A1EC26F076D0E70E616F7D0E626F7DEC43
:101238002BF0030E38D77C51D8B475D1500E606F9F
:10124800010E616F220E626F7F0E636F3EEC29F014
:10125800000160516111D8A419D01AEC2DF0D40EF8
:101268000001726F7E0E736F000E746F000E756F43
:10127800A1EC26F09E0E0001726F7E0E736F000EB9
:10128800746F010E756FA1EC26F090D0F20E616FAD
:101298007E0E626F7DEC2BF0010E05D77C51D8B421
:1012A80042D1500E606F010E616FF70E626F7F0EB4
:1012B800636F3EEC29F0000160516111D8A402D09F
:1012C800060EF2D6500E606F010E616F570E626FF8
:1012D8007D0E636F3EEC29F0000160516111D8A4C6
:1012E8001AD01AEC2DF0B40E0001726F7E0E736FD7
:1012F800000E746F000E756FA1EC26F0190E000138
:10130800726F7F0E736F000E746F010E756FA1EC14
:1013180026F0090EC8D6500E606F010E616F490E97
:10132800626F7D0E636F3EEC29F000016051611120
:10133800D8A407D03B0E616F7D0E626F7DEC2BF059
:1013480065D0500E606F010E616F930E626F7E0E56
:10135800636F3EEC29F066D07C51D8B4E4D0500ECF
:10136800606F010E616F220E626F7F0E636F3EEC3D
:1013780029F0000160516111D8A41AD01AEC2DF09F
:10138800880E0001726F7E0E736F000E746F000E70
:10139800756FA1EC26F09E0E0001726F7E0E736FC2
:1013A800000E746F010E756FA1EC26F0070E7BD648
:1013B800500E606F010E616F950E626F7F0E636F46
:1013C8003EEC29F0000160516111D8A421D01AEC3B
:1013D8002DF0E80E0001726F7E0E736F010E746FB0
:1013E800000E756FA1EC26F08E0E0001726F7F0E55
:1013F800736F020E746F010E756FA1EC26F03B0E31
:101408000001616F7D0E626F7DEC2BF0050E4BD6EF
:10141800500E606F010E616F930E626F7E0E636FE8
:101428003EEC29F0000160516111D8A47CD0000E77
:101438003BD6A90E616F7E0E626F7DEC2BF018D043
:101448007C51D8B470D0500E606F010E616F490E98
:10145800626F7D0E636F3EEC29F0000160516111EF
:10146800D8A408D0A90E616F7E0E626F7DEC2BF0B8
:10147800080E19D601015051D00F00017A6F7AC0B9
:10148800FCF0010E7B6F4FD07851D8B44CD00A0EC7
:101498000BD6000E606F000E6FEC2AF081B202D0FE
:1014A80081A0FCD7FA0E0001796F580EE82EFED7FE
:1014B800792FFCD700F0FA0E0001796F580EE82E4C
:1014C800FED7792FFCD700F0FA0E0001796F580E7D
:1014D800E82EFED7792FFCD700F0FF0024D00001BA
:1014E800F451000AD8B496D5010AD8B49BD5030A9A
:1014F800D8B425D6010AD8B45AD6070AD8B49BD688
:10150800010AD8B4CBD6030AD8B426D7010AD8B46E
:1015180090D70F0AD8B494D7010AD8B4B5D7030A1C
:10152800D8B4B7D776D500017B51120000017751A6
:10153800800B806F77517725866F76BF86818651BD
:10154800D8B40DD08629D8A408D0000E746F000E28
:10155800756F000E766F000E776F768F08D0000ECD
:10156800746F000E756F000E766F000E776F7B51EB
:10157800800B801B7B517B25856F7ABF85818551C8
:10158800D8B40DD08529D8A408D0000E786F000EE5
:10159800796F000E7A6F000E7B6F7A8F08D0000E7D
:1015A800786F000E796F000E7A6F000E7B6F855191
:1015B800D8B403D08651D8A409D0000E746F000E99
:1015C800756F000E766F000E776F12007A517403F4
:1015D800F3CF8BF0F4CF8CF08B51816F826B836BE0
:1015E800846B8C51876F886B896B8A6B7951750313
:1015F800F3CF8BF0F4CF8CF08B518127000E822330
:10160800832384238C518727000E882389238A23E8
:1016180078517603F3CF8BF0F4CF8CF08B51812780
:10162800000E8223832384238C518727000E88236E
:1016380089238A2383C084F082C083F081C082F02A
:10164800816B78517503F3CF8BF0F4CF8CF08B510D
:1016580081278C518223000E8323000E8423795125
:101668007403F3CF8BF0F4CF8CF08B5181278C511E
:101678008223000E8323000E842383C084F082C05B
:1016880083F081C082F0816B78517403F3CF8BF0C3
:10169800F4CF8CF08B5181278C518223000E832349
:1016A800000E84237A517503F3CF8BF0F4CF8CF0BE
:1016B8008B5187278C518823000E8923000E8A239B
:1016C80079517603F3CF8BF0F4CF8CF08B518727C9
:1016D8008C518823000E8923000E8A237A517603C1
:1016E800F3CF8BF0F4CF8CF08B517C6F8C517D6FE6
:1016F8007E6B7F6B7EC07FF07DC07EF07CC07DF00E
:101708007C6B7C5187277D5188237E5189237F51AB
:101718008A2381C07CF082C07DF083C07EF084C0C3
:101728007FF0190E05D0D8907F337E337D337C331C
:10173800E82EF9D77C5187277D5188237E5189234C
:101748007F518A2383C084F082C083F081C082F0F5
:10175800816B855186C07CF07D6B7C27000E7D23D4
:10176800820E7C258B6FFF0E7D218C6F0FD0D89059
:101778008737883789378A3784BF8781D8908137F8
:101788008237833784378B07D8A08C0789AFEFD788
:10179800000E856F84AF16D0FF0E81157C6FFF0E8B
:1017A80082157D6FFF0E83157E6F7F0E84157F6F08
:1017B8007C517D117E117F11D8A402D087A102D05F
:1017C800010E856F8551D8B41FD0010E8727000EF2
:1017D800882389238A238AA117D087C07CF088C0F0
:1017E8007DF089C07EF08AC07FF07F357F337E33FD
:1017F8007D337C337CC087F07DC088F07EC089F063
:101808007FC08AF08B4B8C2B8CBF0DD08C5103E1A1
:101818008B29D8A008D0000E876F000E886F800E25
:10182800896F7F0E20D08CBF05D08C510EE18B05BF
:10183800D8B00BD0000E876F000E886F000E896F2E
:10184800000E8A6F000E806F0FD08BC086F0FF0EDF
:101858008717FF0E88177F0E8917000E8A1786B123
:10186800898FD89086318A6F80518A1387C074F027
:1018780088C075F089C076F08AC077F01200000140
:101888006351800B706F63516325726F62BF728101
:101898007251D8B40DD07229D8A408D0000E606F48
:1018A800000E616F000E626F000E636F628F06D0CC
:1018B800000E606F000E616F000E626F000E636FA6
:1018C8006751800B716F70517119D8A4708D675171
:1018D8006725716F66BF71817151D8B40DD07129B8
:1018E800D8A408D0000E646F000E656F000E666FF6
:1018F800000E676F668F06D0000E646F000E656F6E
:10190800000E666F000E676F7251715DD8B022D0FD
:1019180070AD02D0800E701B72C073F071C072F08F
:1019280073C071F060C073F064C060F073C064F09D
:1019380061C073F065C061F073C065F062C073F098
:1019480066C062F073C066F063C073F067C063F08E
:1019580073C067F0000E736F7251686F696B681F10
:10196800691F684B692B71516A6F6B6B68516A27E5
:1019780069516B236BBF2CD06B5104E11A0E6A5D61
:10198800D8A026D06051611162116311D8B402D079
:10199800010E01D0000E736F000E606F000E616FB4
:1019A800000E626F000E636F71C072F015D073A1E4
:1019B80005D0D89073310109736F02D0D890733372
:1019C80060B1738F63356333623361336033722B75
:1019D8007151725DD8A0EBD770BD29D07251D8A4CF
:1019E80009D0000E606F000E616F000E626F000E6E
:1019F800636F120064516027655161236651622349
:101A08006751632363A183D073A106D0D890733341
:101A180073510109736F02D0D890733360B1738F1B
:101A280063356333623361336033722B70D0645132
:101A3800605D65516159665162596351800A686FEA
:101A48006751800A6859D8B036D060C068F061C064
:101A580069F062C06AF063C06BF0681F691F6A1F93
:101A68006B1F682B000E69236A236B23645168255A
:101A78006C6F655169216D6F66516A216E6F675190
:101A88006B216F6FFF0E6C25606FFF0E6D21616F0C
:101A9800FF0E6E21626FFF0E6F21636F800E701B49
:101AA800736D7351D8A40FD0010E6027000E612307
:101AB8006223632308D06451605F6551615B66519E
:101AC800625B6751635B6051611162116311D8A455
:101AD8001CD07351D8A419D0000E606F000E616F2E
:101AE800000E626F000E636F1200D8906037613786
:101AF8006237633773BF608173A102D0D88001D089
:101B0800D89073377251D8A4720762AFEED7000E1F
:101B1800716F73AF0AD073C068F07F0E6817D8A4CE
:101B280002D060A102D0010E716F7151D8B420D0DB
:101B3800010E6027000E61236223632363A118D07E
:101B480060C068F061C069F062C06AF063C06BF0A1
:101B58006B356B336A336933683368C060F069C0CA
:101B680061F06AC062F06BC063F07229D8A4722B6E
:101B78007229D8B403D07251D8A40DD0000E606F6A
:101B8800000E616F000E626F000E636F7251D8A471
:101B980002D0000E706F72A102D0628F01D0629FD6
:101BA800D8907231636F70BF638F60C060F061C09E
:101BB80061F062C062F063C063F0120000019051EE
:101BC800800B996F90519025A46F8FBFA481A45169
:101BD800D8B40DD0A429D8A408D0000E8D6F000E5B
:101BE8008E6F000E8F6F000E906F8F8F06D0000ED5
:101BF8008D6F000E8E6F000E8F6F000E906F9451D8
:101C0800800B991B94519425A56F93BFA581A5516D
:101C1800D8B40DD0A529D8A408D0000E916F000E15
:101C2800926F000E936F000E946F938F06D0000E84
:101C3800916F000E926F000E936F000E946F91518A
:101C4800921193119411D8A415D0000E8D6F000E27
:101C58008E6F000E8F6F000E906F800E8F137F0EA9
:101C680090138DC08DF08EC08EF08FC08FF090C015
:101C780090F01200A451D8A411D0000E8D6F000E60
:101C88008E6F000E8F6F000E906F8DC08DF08EC01E
:101C98008EF08FC08FF090C090F01200A551956F14
:101CA800966B951F961F954B962BA451976F986B23
:101CB80095519727965198237F0E97259E6F000E72
:101CC80098219F6F8DC09AF08EC09BF08FC09CF0BA
:101CD80090C09DF0000E8D6F000E8E6F000E8F6FFE
:101CE800000E906F000EA06F000EA16F000EA26F85
:101CF800000EA36F000EA56F28D0A551D8B411D03F
:101D0800D8909A379B379C379D37D8908D378E3728
:101D18008F379037A3BF8D81D890A037A137A237CE
:101D2800A33791519A5D92519B5993519C59945163
:101D38009D59D8A009D0A38D91519A5F92519B5B70
:101D480093519C5B94519D5BA52B190EA565D5D726
:101D58009A519B119C119D11D8B411D0A0810FD01C
:101D6800D8908D378E378F379037A3BF8D81D89015
:101D7800A037A137A237A3379E07D8A09F078FAFF8
:101D8800EFD7000EA56FA3AF16D0FF0EA015956F65
:101D9800FF0EA115966FFF0EA215976F7F0EA31564
:101DA800986F9551961197119811D8A402D08DA1CA
:101DB80002D0010EA56FA551D8B41FD0010E8D27F2
:101DC800000E8E238F23902390A117D08DC095F0FD
:101DD8008EC096F08FC097F090C098F098359833E1
:101DE80097339633953395C08DF096C08EF097C093
:101DF8008FF098C090F09E4B9F2B9FBF10D09F51A3
:101E080003E19E29D8A00BD0000E9F6F9E69000E9B
:101E18008D6F000E8E6F000E8F6F000E906F9FBF3C
:101E280005D09F5111E19E05D8B00ED0000E9F6FCE
:101E3800000E9E6F000E8D6F000E8E6F000E8F6F5E
:101E4800000E906F000E996F9EC0A4F0A4A102D05E
:101E58008F8F01D08F9FD890A431906F9951901394
:101E68008DC08DF08EC08EF08FC08FF090C090F036
:101E7800120004013205D8A410D030511F0B0009FC
:101E8800D8A40BD00001C78F030E04013119D8A4C0
:101E980002D0010E01D0000E546E3251D8A41200A7
:101EA80030511F0B020AD8A4120034510F0B00093D
:101EB800D8B4120034510F0B166E030E16601200C0
:101EC800200E0001EC19D8A41200C78F040134BFFA
:101ED80019D034510F0B166E1650020D200EF32434
:101EE800D96E010EF420DA6EDECF1AF0DDCF1BF0CA
:101EF80034510F0B166E1650010DD00EF324D96E07
:101F0800000E18D034510F0B166E1650020DCA0E63
:101F1800F324D96E000EF420DA6EDECF1AF0DDCF8E
:101F28001BF034510F0B166E1650010DD30EF3240F
:101F3800D96E000EF420DA6EDF50196E19B002D097
:101F48001A9401D01A8434BF0AD034510F0B166E7C
:101F58001650020D200EF324D96E010E09D034510B
:101F68000F0B166E1650020DCA0EF324D96E000E12
:101F7800F420DA6E1AC0DEFF1BC0DDFF030E311934
:101F8800D8A42DD01AC0D9FF1BC0DAFFDFAE1AD0F3
:101F980034BF0AD034510F0B166E1650010DD00EF7
:101FA800F324D96E000E0AD0040134510F0B166EBB
:101FB8001650010DD30EF324D96E000EF420DA6EFC
:101FC8000001DF821AC0D9FF1BC0DAFF000EDB84D4
:101FD8001AC0D9FF1BC0DAFF000EDB8E1200040EF8
:101FE8001A1A1AC0D9FF1BC0DAFFDFAE1BD01AC0FD
:101FF800D9FF1BC0DAFF7F0EDF161AC0D9FF1BC03E
:10200800DAFF000EDB8C000E0F6E050E0E6E1AC086
:1020180010F01BC011F0000E136E020E126E39EC98
:1020280028F006D01AC0D9FF1BC0DAFF000EDB8CDF
:10203800040E1A1A19B206D01AC0D9FF1BC0DAFF4B
:10204800DFAE30D0040134BF0AD034510F0B166E06
:102058001650010DD00EF324D96E000E0AD00401DB
:1020680034510F0B166E1650010DD30EF324D96E92
:10207800000EF420DA6E0001DF921AC0D9FF1BC0EF
:10208800DAFF3B0EDF16000E0F6E050E0E6E1AC03D
:1020980010F01BC011F0000E136E020E126E39EC18
:1020A80028F006D01AC0D9FF1BC0DAFF3B0EDF1696
:1020B800040134510F0B166E1650010D6A0EF324ED
:1020C800176E0F0EF420186E17C0D9FF18C0DAFF6C
:1020D800FE0EDF161200000E0001B76F000EB86F7B
:1020E800000EB96F000EBB6F030EBA6F80A009D047
:1020F8002EEC2EF00009D8A407D0040E0001FF6FC3
:1021080003D0000E03EC2EF00001F8A108D01BEC60
:102118002EF09FEC17F00001F851BEEC2CF06AECA1
:1021280026F00001BA6FBA05D8A405D0000EF06FEA
:10213800010EB86F08D0020EBA19D8A404D0000E48
:10214800F06F010EB96F74EC27F00009D8B402D013
:10215800010E01D0000E0001BB6F020EF319D8A4C6
:1021680041D001013D5104E1640E3C5DD8A03AD054
:1021780000F0C70E0001726F7A0E736F060E746F4F
:10218800010E756FA1EC26F017EC29F06EC072F005
:102198006FC073F0060E0001746F010E756FA1EC2D
:1021A80026F011EC2AF063C072F064C073F041ECC1
:1021B80025F072C0DAF073C0DBF00001DA51A1EC4F
:1021C80018F00001B66FB651DA6FDB6B060E776F49
:1021D800020E786FDA51AAEC21F0000E01013D6F72
:1021E800000E3C6F0001F051D8B471D0090EF065B3
:1021F8006ED0FB51D8B46BD0010EB76F000EF06FE4
:1022080066D0FFD71AEC2DF0DE0E0001726F7E0E3D
:10221800736F010E746F000E756FA1EC26F0340E0B
:102228000001726F7F0E736F020E746F010E756F6F
:10223800A1EC26F0A90E0001726F7B0E736F000EE1
:10224800746F030E756FA1EC26F0000E0001F46F99
:10225800020E31D0B8C077F0B9C078F0BB5107ECA6
:1022680008F00009D8B441D01AEC2DF0FE0E000198
:10227800726F7B0E736F000E746F000E756FA1EC9A
:1022880026F00F0E0001726F7C0E736F000E746FD4
:10229800020E756FA1EC26F0320E0001726F7B0EF4
:1022A800736F000E746F030E756FA1EC26F0000EAD
:1022B8000001F36F030EFF6F18D0B9C0ACF0BBC0BC
:1022C800ADF0B7C0AEF0B85186EC00F00ED000010A
:1022D800FF51010AD8B496D7030AD8B4BBD7010A6C
:1022E800D8B4EBD7070AD8A48CD70001FF51120045
:1022F8000001646F080E00016419D8B46AD0A30EF7
:10230800616F7C0E626F7DEC2BF0FA0E0001636F3B
:10231800580EE82EFED7632FFCD700F0FA0E000106
:10232800636F580EE82EFED7632FFCD700F0FA0E25
:102338000001636F580EE82EFED7632FFCD700F01C
:1023480048D07F0E0001616F7D0E626F7DEC2BF02F
:102358005DD08C0E0001616F7D0E626F7DEC2BF0FD
:1023680055D0990E0001616F7D0E626F7DEC2BF0E8
:102378004DD0A60E0001616F7D0E626F7DEC2BF0D3
:1023880045D0B30E0001616F7D0E626F7DEC2BF0BE
:102398003DD0C00E0001616F7D0E626F7DEC2BF0A9
:1023A80035D0CD0E0001616F7D0E626F7DEC2BF094
:1023B8002DD0DA0E0001616F7D0E626F7DEC2BF07F
:1023C80025D0F10E0001616F7C0E626F7DEC2BF061
:1023D8001DD000016451000AD8B4B3D7010AD8B49B
:1023E800B8D7030AD8B4BDD7010AD8B4C2D7070AE8
:1023F800D8B4C7D7010AD8B4CCD7030AD8B4D1D730
:10240800010AD8B4D6D70F0AD8B4DBD7FA0E000120
:10241800636F580EE82EFED7632FFCD700F0FA0E34
:102428000001636F580EE82EFED7632FFCD700F02B
:10243800FA0E0001636F580EE82EFED7632FFCD703
:1024480000F02B0E0001616F7F0E626F7DEC2BF0A8
:1024580012000001686F00016851D8A463AF1AD058
:1024680060C064F061C065F062C066F063C067F088
:10247800641F651F661F671F642B000E6523662394
:10248800672364C06AF065C06BF066C06CF067C013
:102498006DF008D060C06AF061C06BF062C06CF08B
:1024A80063C06DF06051611162116311D8A409D045
:1024B800000E606F000E616F000E626F000E636F9A
:1024C8001200960E696F06D0692BD8906D336C3365
:1024D8006B336A33000E6A15646F000E6B15656FF7
:1024E800000E6C15666FFE0E6D15676F64516511F1
:1024F80066116711D8B40DD0E7D7692B010E6A278A
:10250800000E6B236C236D23D8906D336C336B33C3
:102518006A33000E6A15646F000E6B15656F000E46
:102528006C15666FFF0E6D15676F64516511661146
:102538006711D8B407D0E1D76907D8906A376B37E5
:102548006C376D376CBF03D0020E6961F5D769B17E
:1025580008D0FF0E6A17FF0E6B177F0E6C17FF0E61
:102568006D17D890693369C064F0656B666B676BEB
:1025780064C067F0666B656B646B64516A13655180
:102588006B1366516C1367516D136851D8A463AF10
:1025980001D06D8F6AC060F06BC061F06CC062F0F2
:1025A8006DC063F01200A394010134513511D8B401
:1025B80010D034C1D9FF35C1DAFFDFAE04D0000135
:1025C800676B672B02D00001676B6751686F696B97
:1025D80005D0000E0001696F000E686F685169111F
:1025E800D8B402D0A3841200030EEB19D8A402D0E9
:1025F800000EEB6FEB51D8A402D0A3841200020E98
:10260800EB19D8A413D0010E606F000E616F000E95
:10261800626F000E636F020E81EC1EF060C034F131
:1026280061C035F1030E0001EB6F5FD0EB05D8A454
:102638005CD0400EDC6503D0400E6B6F02D0DCC06E
:102648006BF06B510008DC25DC6F000E01012E6F6A
:10265800050E2F6F6BC06AF04151D8B412D027D045
:1026680031C1D9FF32C1DAFF2EC1E1FF2FC1E2FF2C
:10267800DFCFE7FF01012E4B2F2B314B322B00010F
:102688006A0700016A51D8B416D0EAD731C1D9FF18
:1026980032C1DAFF2EC1E1FF2FC1E2FFDFCFE7FF32
:1026A80001012E4B2F2B314B322B00016A07000101
:1026B8006A51D8A4EBD7DC51D8A408D0400E6B19C6
:1026C800D8A402D0020E01D0030EEB6F010E606F8A
:1026D800000E616F050E626F6BC063F0020E81EC35
:1026E8001EF060C034F161C035F1A38412008DD0B2
:1026F800150E5718D8A418D046EC2EF034EC2DF04F
:102708005850010D000EF324D96E030EF420DA6E32
:10271800000EDF6E000E126E030E136E58C014F01A
:102728004EEC20F0000E586E160E57607CD0572ADB
:102738006E0E12EC2EF077D080BE03D02C6A2C2AB5
:1027480001D02C6A2C322C3280502C187F0B2C187C
:10275800806E5CC02CF0010E2D6E2C2A02D0D89011
:102768002D362C2EFCD72D502E6E81AE06D02E5035
:102778000001E3130101432B04D02E50FF0A00018E
:10278800E3175C2A080E5C18D8A402D0030E596E11
:102798006E0E12EC2EF047D080BE03D02C6A2C2A85
:1027A80001D02C6A2C322C3280502C187F0B2C181C
:1027B800806E8150030E596E6E0E12EC2EF033D0DF
:1027C80080BE03D02C6A2C2A01D02C6A2C322C32E1
:1027D80080502C187F0B2C18806E5850010D000E5D
:1027E800F324D96E030EF420DA6EE3C0DFFF582A13
:1027F800000E596E6E0E12EC2EF015D0000E586EAB
:10280800000E596E160E576E0ED05950000AD8B4E5
:102818006FD7010AD8B490D7030AD8B4BDD7010A34
:10282800D8B4CED7EBD737EC2EF0120020EE01F05B
:102838004450D9264550DA22DF50136E1350000158
:10284800C05D000EC159D8A0C0C013F01350C05FBE
:10285800000EC15B000E126E11D01250010D380E21
:10286800F324D96E040EF420DA6EBCC0E1FFBDC0BB
:10287800E2FFDFCFE7FFBC4BBD2B122A1350125CDF
:10288800D8A0EBD7C051C111D8B432D020EE01F096
:102898004250D9264350DA22080EDF6E20EE02F0AD
:1028A8004250D9264350DA22380EDE6E040EDD6E11
:1028B80044C0D9FF45C0DAFFDFBC0DD042C0D9FF04
:1028C80043C0DAFF480EDF6E42C0D9FF43C0DAFFCB
:1028D800000EDB8E120042C0D9FF43C0DAFF080E9B
:1028E800DF6E42C0D9FF43C0DAFF000EDB8E120054
:1028F80020EE01F04250D9264350DA22080EDF6E4E
:1029080020EE02F04250D9264350DA22300EDE6E15
:10291800040EDD6E42C0D9FF43C0DAFF040EDF6E3D
:1029280042C0D9FF43C0DAFF000EDB8EC251C3118B
:10293800D8B40ED020EEC2F001D80AD00500FA6E45
:10294800DE50FD6EDE50FE6EF850FF6EFA5012003B
:102958000001BF9F5050D8A41200C0EC1DF0120017
:102968000001EC05D8B460BA06D0000E656E64802C
:102978006488020EEC6F65B464A403D06594ADEC72
:102988002BF060A202D0A494120065B064A007D016
:10299800E5EC15F0A384040E0001EC6F659065B8B2
:1029A80064A803D037EC2CF0659865AC18D064ACFB
:1029B8000ED0000E0F6E730E0E6E000E106E000E0F
:1029C800116E000E136E010E126E39EC28F0659C24
:1029D8005150D8A451065150D8B4C0EC1DF065BA76
:1029E80064AA02D0F0EC29F065B264A20FD07F0E81
:1029F8000F6E0E68000E106E000E116E000E136E34
:102A0800010E126E39EC28F0000E676E040E0001FC
:102A1800EC6102D0A494120064A639D0000E1F6E97
:102A2800030E1F6401D033D065A631D061CF5AF0B0
:102A38005A30E832E8320F0B536E65965AB407D015
:102A48005350010DD00EF324D96E000E06D053500A
:102A5800010DD30EF324D96E000EF420DA6E0001B6
:102A6800DF705350D8A403D090EC1CF00ED0000EA9
:102A78000F6E720E0E6E5A0E106E000E116E000E54
:102A8800136E000E126E39EC28F01F2AC9D7A494D1
:102A98001200A394000E676E000E656E000E6A6E3B
:102AA8006B0E0001606F0F0E616F000E636F000EFA
:102AB800626F000E656F020E646F95EC2BF0160EB8
:102AC800626E9F0E666E7B0E646E000E0001686F6C
:102AD8000B0E686501D00ED06851040D000EF3246A
:102AE800D96E040EF420DA6EDE6ADE6ADE6ADD6A0A
:102AF800682BEED7608C000E636E6098609C09D0DE
:102B08006596000EC76F000EBF6F000EC16F000EF6
:102B1800C06F65B6F5D7010E4F6E010E4E6E000EF2
:102B28004D6E000E4C6E000E0101426F000E00014A
:102B3800686F020E686501D02ED06851020DCA0E6A
:102B4800F324D96E000EF420DA6E000EDE6E000E4D
:102B5800DD6E6851020D200EF324D96E010EF420AB
:102B6800DA6E000EDE6E000EDD6E6851010DD30EBA
:102B7800F324D96E000EF420DA6E000EDF6E685171
:102B8800010DD00EF324D96E000EF420DA6E000E7B
:102B9800DF6E682BCED7080ECA6F040ECB6F160EE9
:102BA8006A6E040E0401036F300E026F080E016F87
:102BB800040E006F008F000E5B6E000E0001EC6FBC
:102BC8001200A394000E676E000E656E000E6A6E0A
:102BD8006B0E016E0F0E026E000E046E000E036E79
:102BE800000E066E020E056E0CEC2CF0160E626ED0
:102BF8009F0E666E7B0E646E000E096E0B0E0964E6
:102C080001D00ED00950040D000EF324D96E040E25
:102C1800F420DA6EDE6ADE6ADE6ADD6A092AEED739
:102C2800608C000E636E6098609C0AD06596000EFA
:102C38000001C76F000EBF6F000EC16F000EC06F9E
:102C480065B6F4D7010E4F6E010E4E6E000E4D6E36
:102C5800000E4C6E000E0101426F000E096E020E4E
:102C6800096401D02ED00950020DCA0EF324D96E82
:102C7800000EF420DA6E000EDE6E000EDD6E0950D6
:102C8800020D200EF324D96E010EF420DA6E000E28
:102C9800DE6E000EDD6E0950010DD30EF324D96EE1
:102CA800000EF420DA6E000EDF6E0950010DD00E12
:102CB800F324D96E000EF420DA6E000EDF6E092AB6
:102CC800CED7080E0001CA6F040ECB6F160E6A6EBF
:102CD800040E0401036F300E026F080E016F040E1C
:102CE800006F008F000E5B6E000E0001EC6F12008B
:102CF800800E04013019D8A41200C00E0001C76F5D
:102D080082D0A20E0001C46F790EC56F000EC96F84
:102D1800120EC86F120004013251D8A440D03251AB
:102D2800020DF50EF324F66E750EF420F76E090009
:102D3800F5CFC4F00A00F5CFC5F0020E0001C42596
:102D4800016E000EC521026E01C0F6FF02C0F7FF3A
:102D5800F86A070EF76403D00800F55005D0F6CFDF
:102D6800E9FFF7CFEAFFEF500001C86F030EC42553
:102D7800016E000EC521026E01C0F6FF02C0F7FF0A
:102D8800F86A070EF76403D00800F55005D0F6CFAF
:102D9800E9FFF7CFEAFFEF500001C96F1200000EFC
:102DA8000001C76F1200030E0401326124D03251B2
:102DB800020DEF0EF324F66E750EF420F76E09007F
:102DC800F5CFC4F00A00F5CFC5F0C4C0F6FFC5C002
:102DD800F7FFF86A070EF76403D00800F55005D02E
:102DE800F6CFE9FFF7CFEAFFEF50016E015000017F
:102DF800C86FC96B1200000E0001C76F1200000EE9
:102E08000001C76F120004013351010AD8B479D701
:102E1800030AD8B480D7010AD8B4C5D7F0D722ECB2
:102E28002CF065EC2BF04DEC15F000EC2BF08A8AB9
:102E3800000E0001616F320E606F33EC2BF08A9A3E
:102E4800010E0001616FF40E606F33EC2BF0F28C11
:102E5800F28EFBEC23F0000E0001616F140E606F20
:102E680033EC2BF0D5EC2DF0000E0001616F140E41
:102E7800606F33EC2BF0000E62EC2DF00001F66F62
:102E8800550EF619D8B408D0F8EC25F0550E000107
:102E9800606F000E6FEC2AF0000E0001F76F000E55
:102EA80008EC2EF01AEC2DF01E0E0001726F7D0E4C
:102EB800736F000E746F000E756FA1EC26F0000E94
:102EC8000001726F7D0E736F000E746F010E756FC7
:102ED800A1EC26F00F0E0001726F7D0E736F000ECD
:102EE800746F030E756FA1EC26F0030E0001616F7D
:102EF800E80E606F33EC2BF015D0FFD7F4EC1FF021
:102F0800010E0001F76F010E0DEC2EF00BD06FECE7
:102F180010F0040AD8A406D0000E0001F76F000EC6
:102F280008EC2EF00001F751000AD8B4E7D7010ADF
:102F3800D8B4EDD7E2D70001D84BD92BD8C060F070
:102F4800D9C061F0000E636F0A0E626FADEC29F014
:102F5800000160516111D8A41200F883D8C060F054
:102F6800D9C061F0000E636F640E626FADEC29F09A
:102F7800000160516111D8A41200F885D8C060F032
:102F8800D9C061F0030E636FE80E626FADEC29F0F3
:102F9800000160516111D8A41200F887D8C060F010
:102FA800D9C061F0626B636B600E646FEA0E656F87
:102FB800000E666F000E676FFFEC20F00001605195
:102FC800611162116311D8A4120001013A4B3B2B25
:102FD8000001F8893AC160F03BC161F0000E636FEF
:102FE8003C0E626FADEC29F0000160516111D8A46C
:102FF8001200F88B3AC160F03BC161F0020E636FBA
:10300800D00E626FADEC29F0000160516111D8A4B7
:103018001200F88D3AC160F03BC161F0050E636F94
:10302800A00E626FADEC29F0000160516111D8A4C7
:103038001200F88F000ED96F000ED86F000E010134
:103048003B6F000E3A6F120060980001C7BF38D07E
:10305800BFAF0BD0020E556E4C50D8B4FDEC21F02A
:10306800000E4E6E000E4F6E120020EE01F0425020
:10307800D9264350DA22080EDF6E20EE02F04250C5
:10308800D9264350DA22300EDE6E040EDD6E42C0C1
:10309800D9FF43C0DAFF0C0EDF6E42C0D9FF43C030
:1030A800DAFF000EDB8ECAC0D9FFCBC0DAFF040EF0
:1030B800DF6ECAC0D9FFCBC0DAFF000EDB8E12006C
:1030C800040130AF10D0010E556E4D50D8B4FDEC50
:1030D80021F0000E4E6E000E4F6E5050D8A4120014
:1030E800C0EC1DF01200020E556E20EE01F04250A9
:1030F800D9264350DA22080EDF6E20EE02F0425045
:10310800D9264350DA22300EDE6E040EDD6E42C040
:10311800D9FF43C0DAFF040EDF6E42C0D9FF43C0B7
:10312800DAFF000EDB8E000E4E6E000E4F6E505012
:10313800D8A41200C0EC1DF012000001A66FCD0E3D
:103148000001786FCC0E796F4C0E7A6F400E7B6F52
:10315800A651606F616B626B636B000E2DEC12F011
:1031680060C074F061C075F062C076F063C077F03B
:103178009AEC0AF074C08DF075C08EF076C08FF0AE
:1031880077C090F0000E0001916F000E926F800ED4
:10319800936F440E946FE2EC0DF08DC0A8F08EC0D2
:1031A800A9F08FC0AAF090C0ABF0000E0001646FC8
:1031B800000E656F000E666FBF0E676FA8C060F0E7
:1031C800A9C061F0AAC062F0ABC063F043EC0CF098
:1031D80060C074F061C075F062C076F063C077F0CB
:1031E800000E0001786F000E796FC80E7A6F420EDC
:1031F8007B6F9AEC0AF074C0A8F075C0A9F076C08D
:10320800AAF077C0ABF0A8C060F0A9C061F0AAC06E
:1032180062F0ABC063F04DEC1BF000016051A76F8A
:10322800A75112000001646FFA0E0001636F580E77
:10323800E82EFED7632FFCD700F0FA0E0001636F6B
:10324800580EE82EFED7632FFCD700F0FA0E0001C7
:10325800636F580EE82EFED7632FFCD700F00001ED
:103268006451D8B429D0220E616F7A0E626F7DEC5A
:103278002BF0FA0E0001636F580EE82EFED7632F6D
:10328800FCD700F0FA0E0001636F580EE82EFED747
:10329800632FFCD700F0FA0E0001636F580EE82E7A
:1032A800FED7632FFCD700F03C0E0001616F7A0E49
:1032B800626F7DEC2BF01200EE0E0001616F790E4B
:1032C800626F7DEC2BF0FA0E0001636F580EE82E4A
:1032D800FED7632FFCD700F0FA0E0001636F580E7B
:1032E800E82EFED7632FFCD700F0FA0E0001636FBB
:1032F800580EE82EFED7632FFCD700F0080E000109
:10330800616F7A0E626F7DEC2BF012000401303988
:10331800E832030B0009D8A4120047D00001C78F78
:10332800080EEC6F12007CEC16F01200FBEC19F0A2
:1033380012005B0E0001C46F000EC56FC781010E3D
:10334800C86FC78F120056EC21F012003DEC0FF049
:10335800120004013451010DE60EF3240001C46F7C
:10336800010EF420C56FC781010EC86FC78F120008
:103378000001C78F04013451010DE60EF324D96E04
:10338800010EF420DA6E32C4DFFF1200000E0F6E59
:10339800020E0E6E000E106E000E116E000E136EF1
:1033A800000E126E39EC28F0120004013151000AA7
:1033B800D8B4C9D7010AD8B4C9D7020AD8B4C6D76D
:1033C800060AD8B4ABD7030AD8B4ADD7010AD8B423
:1033D800DDD70F0AD8B4ADD7010AD8B4A7D7030AE6
:1033E800D8B4B7D7010AD8B4C3D7070A1200000166
:1033F800C78F6B0E016E0F0E026E000E046E000E6C
:10340800036E000E066E020E056E0CEC2CF0000E1C
:10341800016E040E026E000E046E000E036E000EA6
:10342800066E300E056E0CEC2CF0608C000E166EDD
:10343800020E166401D016D01650010DD30EF324D7
:10344800D96E000EF420DA6E000EDF6E1650010DF4
:10345800D00EF324D96E000EF420DA6E000EDF6E63
:10346800162AE6D7E60E016E010E026E000E046EF5
:10347800000E036E000E066E020E056E0CEC2CF0AC
:10348800609C080E0001CA6F040ECB6F000E446EDC
:10349800040E456E44C042F045C043F032C45BF0B0
:1034A8005B50D8A403D0100EEC6F1200000E0F6E04
:1034B800010E0E6E5B0E106E000E116E000E136E76
:1034C800010E126E39EC28F0200E0001EC6F12008C
:1034D800CAC0D9FFCBC0DAFF0001000EDFBC010E65
:1034E800126E040ECA1B080EEC19D8A40CD00401E5
:1034F80032517F0B636E6350D8B402D0100E01D0E6
:10350800040E0001EC6F5504D8A43AD020EE02F066
:10351800CA51D926CB51DA22380EDE6E040EDD6E82
:1035280026EC1CF0020E5618D8A40DD0CAC0D9FF3C
:10353800CBC0DAFF040EDF6ECAC0D9FFCBC0DAFFFA
:10354800000EDB8E12001250D8A40DD0CAC0D9FFCD
:10355800CBC0DAFF480EDF6ECAC0D9FFCBC0DAFF96
:10356800000EDB8E1200CAC0D9FFCBC0DAFF080EEE
:10357800DF6ECAC0D9FFCBC0DAFF000EDB8E1200A7
:10358800BFAF14D0C251C311D8B40ED020EEC2F0D0
:1035980001D80AD00500FA6EDE50FD6EDE50FE6ED0
:1035A800F850FF6EFA5012000001BF9F000E556ED2
:1035B80012001F0E0001EC65120060B21200E75104
:1035C800D8A411D0A00E676F020E686F400E696F05
:1035D8003DEC1FF00001E66FE651D8B404D0010EAF
:1035E800E76F000EE56FE751D8A4ACA213D0E55100
:1035F800010DA00EF324D96E020EF420DA6EDF500E
:1036080050EC2AF00001E52BE651E519D8A402D0C8
:10361800000EE76FF551D8B425D031EC2EF0000933
:10362800D8B420D03F0E0001E8611CD000F0ABEC0C
:103638002AF000016D6FE851010DA00EF324D96E38
:10364800020EF420DA6E6DC0DFFFE82BE851010DA1
:10365800A00EF324D96E020EF420DA6E000EDF6E8F
:10366800000EE96F0001EB51D8A410D0E851D8B48E
:103678000DD0A00E606F020E616FE8C062F09AEC88
:103688002CF01FEC2EF0000E0001E86FD7EC12F0C2
:103698001200000162356335696F6951D8A409D0F9
:1036A800000E606F000E616F000E626F000E636F98
:1036B800120060C064F061C065F062C066F063C06B
:1036C80067F0200E05D0D8906733663365336433CE
:1036D800E82EF9D76451686F628FFF0E6017FF0EEE
:1036E8006117FF0E6217000E6317960E695F69AFC8
:1036F80016D06951800A970FD8B009D0000E606FB4
:10370800000E616F000E626F000E636F1200D8909A
:103718006333623361336033693FF9D715D01F0EC5
:1037280069650FD0000E606F000E616F000E626F4A
:10373800000E636F1200D8906037613762376337C5
:1037480069076951D8A4F7D76851D8B408D0631F5E
:10375800621F611F606D000E61236223632360C0D6
:1037680060F061C061F062C062F063C063F0120093
:10377800000E00016E6F81A0FED774EC2CF0010ED4
:1037880017EC2EF0C290F29EF29EF29C8D94A092BD
:103798000F015B81A08CF086F2888784000E81B2CD
:1037A800010E00016E6F000E81B0010E6E6F000EEB
:1037B80082B4010E6E6FFA51D8A4D180F292F090C3
:1037C800A19C00F0030000F0D190CFEC29F0F09616
:1037D800F2988794A09CF28EEDEC28F0F2A2F0B05B
:1037E80002D0A1AC11D0F292F090010E00016E6FE0
:1037F800000E17EC2EF065EC2BF08D84FB0EB36EEB
:10380800500EB26EA08207D00A0E0001F06F000EB3
:103818006E6F8D94A0920F015B91FBEC23F0000E6C
:103828000001616F280E606F33EC2BF0FBEC23F086
:10383800000E0001616F280E606F33EC2BF0000161
:103848006E511200080E016E0001C95110E1080EF8
:10385800C85DD8B00CD0C8C001F05650D8A402D06A
:10386800010E04D05604D8A402D0020E566E0150A0
:10387800C85F000EC95B20EE01F0CA51D926CB51B2
:10388800DA2201C0DFFF380E0101366F040E376FF0
:103898000001C7A11DD03CD0C4C0F6FFC5C0F7FFCA
:1038A800F86A36C1D9FF37C1DAFF070EF76403D0CB
:1038B8000800F55005D0F6CFE9FFF7CFEAFFEF5043
:1038C800DF6E0001C44BC52B0101364B372B0106B7
:1038D8000150D8B41200E0D7C4C0F6FFC5C0F7FF46
:1038E800F86A36C1D9FF37C1DAFF070EF76403D08B
:1038F8000800F55005D0F6CFE9FFF7CFEAFFEF5003
:10390800DF6E0001C44BC52B0101364B372B010676
:103918000150D8B41200E0D72D0E516E5AC01CF0D9
:10392800FD0E1C16D8A457D05AC01CF0D8901C32D3
:103938003F0E1C161C50040D000EF324446E040E9A
:10394800F420456E44C042F045C043F0040E421ACC
:1039580044C0D9FF45C0DAFFDF30E8320F0B0D0A4B
:10396800D8A436D0000E1E6E070E1E6401D023D0D8
:1039780020EE02F04450D9264550DA22DECF1CF062
:10398800DDCF1DF01CC0D9FF1DC0DAFF1E50010D90
:10399800300EF324E16E040EF420E26EDFCFE7FF71
:1039A80020EE02F04450D9264550DA22DE2A000ED5
:1039B800DD221E2AD9D720EE02F04450D9264550E0
:1039C800DA22300EDE6E040EDD6E3DEC24F01200BD
:1039D80067EC28F012005A50FD0B040AD8A4120014
:1039E8006CEC1AF01200010E0001796FF40E786F7A
:1039F800000E7A6F1AEC2DF0F40E0001726F7D0E36
:103A0800736F000E746F000E756FA1EC26F081A223
:103A180002D081B00CD07C0E0001726F7E0E736FE5
:103A2800000E746F030E756FA1EC26F038D01B0ED4
:103A38000001726F7E0E736F000E746F010E756F4A
:103A4800A1EC26F02CD081B20ED0010E726F7E0E42
:103A5800736F000E746F020E756FA1EC26F00001F3
:103A68007A51080F7A6F81B00ED00E0E726F7E0EEB
:103A7800736F000E746F030E756FA1EC26F00001D2
:103A88007A51800F7A6F880E7A19D8B412009C0E7A
:103A98000001776FD70EE82EFED7772FFCD70001ED
:103AA8007807D8A079077829CEE17929D8B4120007
:103AB800CAD780EC25F01AEC2DF0580E0001726F71
:103AC8007F0E736F000E746F000E756FA1EC26F0F9
:103AD800710E0001726F7F0E736F000E746F010E0E
:103AE800756FA1EC26F0690E0001726F7F0E736F7F
:103AF800000E746F020E756FA1EC26F00E0E000119
:103B0800626F020E636F430E7FEC24F011EC2AF013
:103B180063C072F064C073F041EC25F072C0DAF053
:103B280073C0DBF00001DA51A1EC18F00001AC6FB2
:103B3800AC51DA6FDB6B0A0E776F020E786FDA51D1
:103B4800AAEC21F000F0C70E0001726F7A0E736FB5
:103B58000A0E746F010E756FA1EC26F017EC29F0B0
:103B68006EC072F06FC073F00A0E0001746F010E20
:103B7800756FA1EC26F012004F50D8A41200010E68
:103B88004F6E4E50D8A41200010E4E6E020E5518FC
:103B9800D8A416D0000120EE01F0CA51D926CB5185
:103BA800DA22000EDF6ECAC0D9FFCBC0DAFF480E9A
:103BB800DF6ECAC0D9FFCBC0DAFF000EDB8E120061
:103BC8005504D8A41200000E526E20EE01F04450A5
:103BD800D9264550DA22080EDF6E20EE02F0445056
:103BE800D9264550DA22300EDE6E040EDD6E44C052
:103BF800D9FF45C0DAFF040EDF6E44C0D9FF45C0C7
:103C0800DAFF000EDB8E010E526E20EE01F04250FC
:103C1800D9264350DA22080EDF6E20EE02F0425019
:103C2800D9264350DA22300EDE6E040EDD6E42C015
:103C3800D9FF43C0DAFF800EDF6E12000BD061C0DF
:103C4800F6FF62C0F7FF0800F55050EC2AF00001BB
:103C5800614B622B61C0F6FF62C0F7FF0800F550A8
:103C68000009D8A4ECD7000E0001676F020E676543
:103C780001D00ED06751010DF3506325D96EF45071
:103C88006421DA6EDF5050EC2AF00001672BEED782
:103C980020EE03F06351D9266451DA22DF5050EC4C
:103CA8002AF0040E0001686F21D06851010DF3500D
:103CB8006325D96EF4506421DA6EDF50666F663979
:103CC8000F0BF5EC2BF050EC2AF000016851010DB8
:103CD800F3506325D96EF4506421DA6EDF500F0B70
:103CE800F5EC2BF050EC2AF00001682B6551685D6B
:103CF800D8A0DBD7E5EC2DF012000001646F0001BD
:103D08006051D8B407D06451020DCA0EF324D96E9D
:103D1800000E06D06451020D200EF324D96E010E58
:103D2800F420DA6EDECF65F0DDCF66F065516611FE
:103D3800D8A405D0000E606F000E616F120020EE4F
:103D480002F06551D9266651DA2261C0DEFF62C0F1
:103D5800DDFF20EE01F06551D9266651DA2263C0F5
:103D6800DFFF65C0D9FF66C0DAFF400EDF1665C009
:103D7800D9FF66C0DAFF000EDB8665C0D9FF66C0D2
:103D8800DAFF000EDB8E6051D8B407D06451020D03
:103D9800CA0EF324D96E000E06D06451020D200E0F
:103DA800F324D96E010EF420DA6E040EDF1A65C012
:103DB80060F066C061F01200056E0150D8B407D0FB
:103DC8000550020DCA0EF324D96E000E06D0055018
:103DD800020D200EF324D96E010EF420DA6EDECF28
:103DE80006F0DDCF07F006500710D8A405D0000E66
:103DF800016E000E026E120020EE02F00650D92667
:103E08000750DA2202C0DEFF03C0DDFF20EE01F01A
:103E18000650D9260750DA2204C0DFFF06C0D9FFB2
:103E280007C0DAFF400EDF1606C0D9FF07C0DAFF69
:103E3800000EDB8606C0D9FF07C0DAFF000EDB8E56
:103E48000150D8B407D00550020DCA0EF324D96E1C
:103E5800000E06D00550020D200EF324D96E010E77
:103E6800F420DA6E040EDF1A06C001F007C002F073
:103E78001200000E0001DD6FD651D711D8B40FD053
:103E8800D6C0D9FFD7C0DAFFDFAE03D06A6B6A2B82
:103E980002D000016A6B6A516B6F6C6B04D0000E24
:103EA8006C6F000E6B6F6B516C11D8A43BD020EE79
:103EB80001F0D651D926D751DA226951DE5CD8B043
:103EC80008D020EE01F0D651D926D751DA22DF509A
:103ED800696F000EDD6F13D0DD51010D400EF32424
:103EE800D96E050EF420DA6EDD51010DF350672509
:103EF800E16EF4506821E26EDFCFE7FFDD2B6951F8
:103F0800DD5DD8A0E9D7000E606F400E616F050E29
:103F1800626F400E636F020E81EC1EF060C0D6F037
:103F280061C0D7F00001DD5112000001696F000186
:103F38006651676F686B020E6727000E6823B00E24
:103F48006725D96E010E6821DA6E69C060F0616B71
:103F5800000E636F0A0E626F31EC26F000016051AB
:103F6800300FDF6E0A0E606F695131EC2AF00001E4
:103F7800696F6651676F686B010E6727000E6823CB
:103F8800B00E6725D96E010E6821DA6E69C060F03F
:103F9800616B000E636F0A0E626F31EC26F0000150
:103FA8006051300FDF6E0A0E606F695131EC2AF0F4
:103FB8000001696F6651010DB00EF324D96E010E30
:103FC800F420DA6E69C060F0616B000E636F0A0E50
:103FD800626F31EC26F000016051300FDF6E120085
:103FE8003ED0FFD71AEC2DF0100E0001726F7F0E35
:103FF800736F010E746F000E756FA1EC26F0610EE1
:104008000001726F7F0E736F020E746F010E756F71
:10401800A1EC26F0280E0001726F7E0E736F000E61
:10402800746F020E756FA1EC26F0010E000105D029
:10403800200EEC6101D01FD0020EEA6F1CD0DDEC1F
:104048001AF0030E0001776F6AEC26F00001776F13
:10405800030E7719D8B40FD0020EF96F0CD00001F7
:10406800EA51000AD8B4BED7010AD8B4E1D7030A86
:10407800D8B4E5D7B6D780A004D00001F951D8B498
:10408800EED700F0020E0001F919D8B41200000EA4
:10409800F96F120034EC2DF0000E2A6E030E2A641C
:1040A80001D01200000E2B6E0F0E2B6401D03FD0F2
:1040B8001450156E166A2A50100D2B50176E186A78
:1040C800F3501726F45018221550175C1850800A20
:1040D800196E1650800A1958D8B01DD02B50010DF2
:1040E80012C015F013C016F0F3501526F45016221E
:1040F8002A50100DF3501524D96EF4501620DA6E9C
:104108002B50010D1A0EF324E16E000EF420E26E1E
:10411800DFCFE7FF0AD02B50010D1A0EF324D96E1A
:10412800000EF420DA6E000EDF6E2B2ABDD71A0EB1
:104138000D6E000E0E6E000E0F6E2AC010F0A7EC6A
:1041480027F02A2AABD7040130511F0BE806D8A460
:1041580012003039E832030BE806D8A412003451B3
:10416800D8B437D03405D8A4120033D0CA0E000111
:10417800C46F010EC56F000EC96F080EC86FC781E6
:10418800C78F1200CA0E0001C46F010EC56FC78F1A
:10419800120036C4C0F037C4C1F0C00E0001BC6FB5
:1041A800010EBD6F2A0EC26F510EC36FBF8F120072
:1041B800D20E0001C46F010EC56F000EC96F070E45
:1041C800C86FC10EC76F120032C440F10001C78F1B
:1041D800120004013151000AD8B4C8D7010AD8B472
:1041E800D1D7210AD8B4D5D7010AD8B4E1D7030A60
:1041F800D8A41200E9D7000E0001696F63AF0AD096
:10420800631F621F611F606D000E612362236323B9
:10421800010E696F67AF08D0671F661F651F646D61
:10422800000E6523662367236451651166116711C3
:10423800D8B424D0010E686F06D0D890643765379B
:1042480066376737682B67AFF8D76451605D65518B
:1042580061596651625967516359D8A008D06451B1
:10426800605F6551615B6651625B6751635BD890C3
:104278006733663365336433682FE7D76951D8B439
:1042880008D0631F621F611F606D000E61236223E7
:10429800632360C060F061C061F062C062F063C017
:1042A80063F01200000E0401386F000E396F38D029
:1042B8000001C78F5404D8A43ED0040138833BD0F2
:1042C8000001C78F38D00001C78F040134BF0AD05E
:1042D80034510F0B016E0150020D200EF324D96EDC
:1042E800010E09D034510F0B016E0150020DCA0E98
:1042F800F324D96E000EF420DA6EDECF02F0DDCFA3
:1043080003F002C0D9FF03C0DAFFDFAE14D002C049
:10431800D9FF03C0DAFFDFA40ED0010E386F0BD02F
:1043280030511F0B000AD8B4C3D7010AD8B4C8D774
:10433800030AD8B4C8D70001C7AF1200380EC46F3B
:10434800040EC56FC781020EC86F12000001806F8E
:10435800000E0001796F80AF02D0010E796F805195
:104368007F0B806F80C060F0616B000E636F0A0E78
:10437800626F31EC26F000016051300F7C6F0A0E3D
:10438800606F805131EC2AF00001806F80C060F0CE
:10439800616B000E636F0A0E626F31EC26F000014C
:1043A8006051300F7B6F0A0E606F805131EC2AF03C
:1043B8000001806F80C060F0616B000E636F0A0EB1
:1043C800626F31EC26F000016051300F7A6F79513D
:1043D800D8B402D02D0E7A6F000E7D6F7A0E726FF0
:1043E800000E736F77C074F078C075F0A1EC26F0FA
:1043F8001200000E4D6E000E4C6E020E5518D8A419
:104408001FD020EE01F04250D9264350DA22080E80
:10441800DF6E20EE02F04250D9264350DA22380EE1
:10442800DE6E040EDD6E42C0D9FF43C0DAFF480ECF
:10443800DF6E42C0D9FF43C0DAFF000EDB8E1200E8
:104448000001C8510401365D0001C9510401375902
:10445800D8B004D036C4C8F037C4C9F026EC1CF074
:10446800000120EE02F0CA51D926CB51DA22380ECB
:10447800DE6E040EDD6ECAC0D9FFCBC0DAFF480E6F
:10448800DF6ECAC0D9FFCBC0DAFF000EDB8E120088
:10449800980EF66E5C0EF76E000EF86E0900F5CFFA
:1044A800E8F10900F5CFE9F10900F5CFEAF14E0E80
:1044B800F66E5C0EF76E000EF86E00EEF9F010EE78
:1044C80007F00900F5CFEEFFE550E150FAE19B0E49
:1044D800F66E5C0EF76E000EF86E0900F5CF5EF012
:1044E80003EE00F0800EEE6AE806FDE102EE00F051
:1044F800E00EEE6AE806FDE101EE00F0E80EEE6A75
:10450800E806FDE100EEBCF03D0EEE6AE806FDE1CE
:104518005D6A00EE42F01B0EEE6AE806FDE15F9070
:104528005F92000EF86E000113EF17F0066E000E92
:10453800076E040E086E0150026E036AD8900236A8
:1045480003360650046E056AD89004360536D890AE
:10455800043605360250042603500522D890043646
:104568000536D8900436053604500726055008222B
:1045780007C0D9FF08C0DAFFDF9E0150D8A407D0D2
:104588000650020D200EF324D96E010E06D00650F7
:10459800020DCA0EF324D96E000EF420DA6E07C09D
:1045A800DEFF08C0DDFF07C0D9FF08C0DAFFDF9CC7
:1045B80020EE04F00750D9260850DA22DF8C1200CA
:1045C800000E0001606F020E606501D00CD06051D2
:1045D800010DE30EF324D96E010EF420DA6E000EFD
:1045E800DF6E602BF0D7000E616F210E616501D080
:1045F8000CD06151010D100EF324D96E010EF42078
:10460800DA6E000EDF6E612BF0D7000E626F1F0EA0
:10461800626501D00CD06251010D900EF324D96E61
:10462800010EF420DA6E000EDF6E622BF0D7000E5A
:10463800636F0F0E636501D012006351010DB00E58
:10464800F324D96E010EF420DA6E000EDF6E632BB0
:10465800F0D71AEC2DF03D0E0001726F7F0E736FCC
:10466800000E746F000E756FA1EC26F08A0E000123
:10467800726F7D0E736F000E746F060E756FA1EC6E
:1046880026F0970E0001726F7D0E736F000E746F27
:10469800080E756FA1EC26F0C30E0001726F7C0E38
:1046A800736F000E746F010E756FA1EC26F0700E1B
:1046B8000001726F7E0E736F000E746F020E756FBD
:1046C800A1EC26F0460E0001726F7F0E736F000E8C
:1046D800746F030E756FA1EC26F012000001796F5C
:1046E80079C060F00001616B000E636F0A0E626FA3
:1046F80031EC26F000016051300F7C6F0A0E606FBC
:10470800795131EC2AF00001796F79C060F0616B62
:10471800000E636F0A0E626F31EC26F000016051E3
:10472800300F7B6F0A0E606F795131EC2AF000016F
:10473800796F79C060F0616B000E636F0A0E626F6B
:1047480031EC26F000016051300F7A6F000E7D6F5A
:104758007A0E726F000E736F77C074F078C075F0C0
:10476800A1EC26F0120035D060C0D9FF61C0DAFF95
:10477800DF50D8B410D060C0D9FF61C0DAFFDF5075
:104788000001666F62C0F6FF63C0F7FF0800F550CE
:104798006619D8B41AD062C0F6FF63C0F7FF0800E4
:1047A800F5500001666F676B661F671F664B672BC6
:1047B80060C0D9FF61C0DAFFDF50686F68516625B5
:1047C800606F000E6721616F1200604B612B624BB6
:1047D800632B00016407D8A065076429C5E1652932
:1047E800D8A4C2D7000E616F000E606F1200000ED1
:1047F8000001676F000E666F000E656FAC9A8B9CA8
:10480800000E616F0A0E606F33EC2BF0AC8A000E5D
:104818000001616F050E606F33EC2BF0550EAD6E25
:10482800ACA2FED7FC0E0001616F7F0E626F7DECBB
:104838002BF0000E0001616F280E606F33EC2BF037
:1048480013D074EC27F00009D8B403D0010E00018E
:104858000AD00001654B662B890E655D130E6659FB
:10486800D8A002D0010E676F00016751D8B41200BA
:10487800E8D7000E566E000E506E000E4D6E000EFC
:104888004C6E000E526E000E556ECAC0D9FFCBC0DA
:10489800DAFF7F0EDF16040E0001CA1BCAC0D9FF5B
:1048A800CBC0DAFF7F0EDF16040ECA1B42C0D9FF49
:1048B80043C0DAFF7F0EDF16000EC76F000EC96F08
:1048C800000EC86F000EBF6F000EC16F000EC06FE4
:1048D8008AEC19F0000E0F6E030E0E6E000E106EAD
:1048E800000E116E000E136E000E126E39EC28F0D9
:1048F80028EC18F0120000016A6F000163518CEC7B
:104908002DF000016251080DF350040F0CEC2DF04E
:10491800000E00016B6F070E6B6501D012006B5122
:10492800010D000E646FFF0E656F6A51666F676B4D
:10493800D89066376737D89066376737D890663724
:1049480067376451662765516723E8C168F0E9C194
:1049580069F06651682767516923F3506827F45056
:10496800692368C0F6FF69C0F7FF0800F55041ECFD
:104978002DF000016B2BCFD7000E096E000E0A6ECA
:10498800000E0B6E000E0C6E055006100710081076
:10499800D8B42AD0010E0D6E06D0D890053606364A
:1049A800073608360D2A08AEF8D7D89009360A36E1
:1049B8000B360C360550015C065002580750035858
:1049C80008500458D8A009D00550015E0650025A74
:1049D8000750035A0850045A0980D8900832073201
:1049E800063205320D2EE1D709C001F00AC002F0E7
:1049F8000BC003F00CC004F01200E20E4CEC2DF0DA
:104A08008A84040E0001626F1C0EE82EFED7622F06
:104A1800FCD700F08A94200E0001626F290EE82E60
:104A2800FED7622FFCD700D08A84100E0001626F77
:104A3800940EE82EFED7622FFCD700F0A10E4CECA6
:104A48002DF0C00E4CEC2DF0A30E4CEC2DF0070E03
:104A5800C5EC2DF0050EBDEC2DF05E5082EC2DF06E
:104A6800000ECDEC2DF0F80E4CEC2DF0000E4CECB9
:104A78002DF0AF0E4CEC2DF01200000E0001786FF7
:104A8800000E776F000E796F030E796501D02FD075
:104A980072C0D9FF73C0DAFFDF50D8B428D079517B
:104AA800D8B40ED077C060F078C061F0000E636FA4
:104AB8000A0E626F4CEC2CF060C077F061C078F0A1
:104AC80072C0D9FF73C0DAFFDF500001746F7451F0
:104AD8007725756F000E7821766FD00E7525776F64
:104AE800FF0E7621786F724B732B792BCDD777C059
:104AF80072F078C073F01200000E0001666F000EAD
:104B0800656FD30E616F790E626F7DEC2BF009D063
:104B18000001654B662B510E655DC30E6659D8B012
:104B280005D074EC27F00009D8B4F2D7000E0001C4
:104B3800666F000E656FB80E616F790E626F7DEC5F
:104B48002BF009D00001654B662B510E655DC30E35
:104B58006659D8B005D074EC27F00009D8B4F2D75C
:104B6800000E0001616F640E606F33EC2BF01200D1
:104B78000B6E0450DDEC2DF00350080DF350040FBC
:104B88006DEC2DF0000E0C6E070E0C6401D01200B7
:104B98000C50010D000E056EFF0E066E0B50076ED1
:104BA800086AD89007360836D89007360836D8905D
:104BB800073608360550072606500822E8C109F0CE
:104BC800E9C10AF00750092608500A22F3500926BD
:104BD800F4500A2209C0F6FF0AC0F7FF0800F55092
:104BE800A0EC2DF00C2AD0D72DEC23F0000E0001FC
:104BF800616F140E606F33EC2BF0F7EC1CF01AECBD
:104C08002DF0000E0001616F140E606F33EC2BF075
:104C18000CEC27F0000E0001616F140E606F33EC8E
:104C28002BF0DAEC27F0000E0001616F140E606FB4
:104C380033EC2BF0CFEC29F0000E0001616F140E5D
:104C4800606F33EC2BF05DEC1DF00B0E0001616F13
:104C5800B80E606F33EC2BF01200000E0001656F88
:104C680061AF06D0606D611FD8B0612B010E656F12
:104C780063AF04D0626D631FD8B0632B62516311B8
:104C8800D8B418D0010E646F04D0D8906237633757
:104C9800642B63AFFAD76251605D63516159D8A044
:104CA80004D06251605F6351615BD89063336233B3
:104CB800642FF1D76551D8B404D0606D611FD8B0A6
:104CC800612B60C060F061C061F01200000E00014D
:104CD800606F81A202D081B01AD0010E01012A278B
:104CE800000E2B232C232D23370E2A192B112C11C0
:104CF8002D11D8A409D0000E0001E46F81B202D0B2
:104D0800010E18D0020E16D0000E000113D0140E9A
:104D1800E419D8A40DD0000E01012A6F000E2B6FE4
:104D2800000E2C6F000E2D6F000E0001E46F01D0F5
:104D3800E42B030E606F6051120074C076F00F0E02
:104D48000001766501D0120072C0F6FF73C0F7FF4C
:104D5800F86A070EF76403D00800F55005D0F6CFBF
:104D6800E9FFF7CFEAFFEF500009D8B4120076C088
:104D780062F075C063F072C0F6FF73C0F7FFF86A9F
:104D8800070EF76403D00800F55005D0F6CFE9FF09
:104D9800F7CFEAFFEF507FEC24F00001724B732B42
:104DA800762B0F0ECED7DE0E0001606F010E616FFD
:104DB800D90E626F010E636F000E656F050E646F8A
:104DC80089EC29F0DE0E0001606F010E616F6BC087
:104DD80062F06CC063F0000E656F050E646F89ECBD
:104DE80029F0000E00016D6F040E6D6501D00ED024
:104DF8006D51010DDE0EF324D96E010EF420DA6E2A
:104E0800DF50D8B46DC0EDF06D2BEED700F0120076
:104E1800BF0E0001726F7E0E736F000E746F000E6E
:104E2800756FA1EC26F0010E16EC19F0010E0001C9
:104E3800616FF40E606F1AEC2BF0000E16EC19F08F
:104E4800010E0001616FF40E606F1AEC2BF0010E79
:104E580016EC19F0010E0001616FF40E606F1AEC88
:104E68002BF0000E16EC19F0010E0001616FF40E24
:104E7800606F1AEC2BF01200000E0101D26F4B0E7E
:104E8800D36F000ED46F000ED56F000ED66F000ED4
:104E9800D76F080ED86F000E0001DD6F1A0E096E6D
:104EA800010E8DEC2AF01E0E096E020E8DEC2AF012
:104EB800000E016E400E026E050E036E400E046E6B
:104EC800020EE0EC1EF001C0D6F002C0D7F0000ED2
:104ED8000101346F000E356F000E0001EB6F1200F8
:104EE800000E0001616FF551D8B42BD0000E626F2F
:104EF800ABEC2AF00001626F0D0E6219D8A40FD036
:104F0800F251010D500EF324D96E010EF420DA6E21
:104F1800000EDF6E010E616F000EF26F12D062514B
:104F2800D8B40FD00A0E6219D8B40BD0F251010DC3
:104F3800500EF324D96E010EF420DA6E62C0DFFF42
:104F4800F22B615112000FC011F00F0E116401D045
:104F580012000DC0F6FF0EC0F7FFF86A070EF764DF
:104F680003D00800F55005D0F6CFE9FFF7CFEAFFE8
:104F7800EF500009D8B4120011C003F010C004F0BB
:104F88000DC0F6FF0EC0F7FFF86A070EF76403D0EE
:104F98000800F55005D0F6CFE9FFF7CFEAFFEF504C
:104FA800BCEC25F00D4A0E2A112ACFD7060E0001B7
:104FB800726F7F0E736F000E746F010E756FA1EC28
:104FC80026F0898C898E010E0001616FF40E606FE6
:104FD8001AEC2BF0899C899E010E0001616FF40E7A
:104FE800606F1AEC2BF0898C898E010E0001616FBD
:104FF800F40E606F1AEC2BF0899C899E010E00015B
:10500800616FF40E606F1AEC2BF01200000E0001B5
:10501800756F050E756501D026D072C0D9FF73C0B3
:10502800DAFFDF50D8B412D072C0D9FF73C0DAFFEC
:105038007451010DB00EF324E16E010EF420E26EFE
:10504800DFCFE7FF724B732B742B0BD07451010D1C
:10505800B00EF324D96E010EF420DA6E200EDF6E46
:1050680002D0752BD6D77551120006D0C2EC28F0A5
:105078001200A7EC20F012000EC014F00FC015F0BB
:105088001550000AD8B404D07F0AD8A4120018D04A
:105098001450010AD8B4EAD7030AD8B41200010A96
:1050A800D8B4E7D7060AD8B41200770AD8B41200E1
:1050B800010AD8B41200070AD8B41200010A120073
:1050C8001450FF0A1200020E5518D8A403D01AEC87
:1050D80014F01200000E556E5250D8A41FD020EEC6
:1050E80001F04250D9264350DA22080EDF6E20EE36
:1050F80002F04250D9264350DA22300EDE6E040EFA
:10510800DD6E42C0D9FF43C0DAFF0C0EDF6E42C02D
:10511800D9FF43C0DAFF000EDB8E1200000E526E7C
:105128001200C0C1D2F1C1C1D3F1C2C1D4F1C3C10F
:10513800D5F1000E016E1B0E026EB70E036E000E47
:10514800046ED2C105F0D3C106F0D4C107F0D5C1B1
:1051580008F0C0EC24F0FF0E01240E6EFF0E0220B2
:105168000F6EFF0E0320106EFF0E0420116E0EC08E
:10517800AFFF0FC0B0FFE4EC2AF0120040EC27F0BC
:10518800000E0101D66F080ED86F000ED76F000E03
:10519800D26F4B0ED36F000ED46F000ED56FE4ECB8
:1051A8002AF0000E0D6E3F0E0D6401D00CD00D508C
:1051B800010DA00EF324D96E020EF420DA6E000E53
:1051C800DF6E0D2AF0D7000E0001E86F000EE66FC3
:1051D800120092809282928492868D949694929AEA
:1051E800929C929EF19E868EF28693829380938EF5
:1051F800939493969398939A949094929484949C6D
:10520800948E000E956E9694899A899C899E8A94AC
:105218008B948B9C8D840F015B915B835B855B8793
:105228005D9F5D9D1200000E0001716F000E706F92
:105238006C0E616F7A0E626F7DEC2BF009D0000165
:10524800704B712B510E705DC30E7159D8B005D0DB
:1052580074EC27F00009D8B4F2D7500E00016B6F38
:10526800010E6C6FD7EC26F0500E00016E6F010E28
:105278006F6F120005D00001604B612B624B632BEE
:1052880060C0D9FF61C0DAFFDF500001646F62C0FF
:10529800F6FF63C0F7FF0800F55000086425656F46
:1052A8006551D8A407D060C0D9FF61C0DAFFDF50CC
:1052B800D8A4E1D76551606F616B60BF61071200C8
:1052C8005950D8B481BE1ED048EC2EF080BE03D011
:1052D800026A022A01D0026A02320232805002189F
:1052E8007F0B0218806E220E12EC2EF0000E576E05
:1052F800000E5C6E000E0101436F000E0001E36FAB
:10530800010E596EF8EC2DF0120062C068F063C00F
:1053180069F060C066F061C067F011D068C0D9FF5D
:1053280069C0DAFFDF5000016A6F684B692B66C0FD
:10533800D9FF67C0DAFF6AC0DFFF664B672B000141
:105348006407D8A065076429E9E16529D8B4120083
:10535800E5D7000162516311D8B418D0010E646F0B
:1053680004D0D89062376337642B63AFFAD76251A1
:10537800605D63516159D8A004D06251605F635188
:10538800615BD89063336233642FF1D760C060F0FB
:1053980061C061F01200000E0001606F3F0E606591
:1053A80001D00CD06051010D000EF324D96E020E0D
:1053B800F420DA6E000EDF6E602BF0D7000EDF6F80
:1053C800000EDE6F000EF56F9D98000EE26F000E66
:1053D800E16F400EE06F12006AA01DD044C0D9FFF3
:1053E80045C0DAFF800EDE18D8A414D0CAC0D9FF91
:1053F800CBC0DAFF840EDE18D8A40CD044C0D9FF85
:1054080045C0DAFF0C0EDF6E44C0D9FF45C0DAFF95
:10541800000EDB8E6A90659A1200000E0001666F1E
:10542800000E656F560E616F7A0E626F7DEC2BF081
:1054380009D00001654B662B510E655DC30E665998
:10544800D8B005D074EC27F00009D8B4F2D7500EC4
:105458000001636F010E646F12000001616F000E9E
:105468000001636F6051D8B415D0010E626F03D08C
:10547800D8906037622B60AFFBD7D8906337605104
:10548800615DD8A003D06051615F6381D8906033BB
:10549800622FF3D7635112000001606F0001E051E1
:1054A800D8B4FCD79DB803D060C0ADFF12D09D988A
:1054B800E251010D400EF324D96E020EF420DA6E8B
:1054C80060C0DFFFE22B3F0EE26502D0000EE26F04
:1054D800E0079D8812000001616F000EF2BE010E08
:1054E8000001626F61C0A9FF60C0A8FFA69EA69CCC
:1054F800A684F29E550EA76EAA0EA76EA682A6B225
:10550800FED7A694000162B102D0F29E01D0F28EBD
:1055180012000C6E09A405D0000E016E0C509AEC16
:1055280022F009A205D0010E016E0C509AEC22F06F
:105538000C50010D6A0EF3240A6E0F0EF4200B6E48
:105548000AC0D9FF0BC0DAFF09C0DFFF1200000E46
:105558000001606F01D0898EF551D8B4FCD79D9AAF
:10556800DE51010D000EF324D96E020EF420DA6E1E
:10557800DF50606FDE2B3F0EDE6502D0000EDE6F5F
:10558800F5079D8A605112009D9A9D98480EB86E45
:10559800900EAB6E260EAC6ED00EAF6E000EB06ED7
:1055A800000E0001E26F000EE16F400EE06F000E8A
:1055B800DF6F000EDE6F000EF56F9D8AAB8812005C
:1055C8009D9A9D98480EB86E900EAB6E260EAC6EE6
:1055D800D00EAF6E000EB06E000E0001E26F000E2E
:1055E800E16F400EE06F000EDF6F000EDE6F000E01
:1055F800F56F9D8AAB8812000001EC51D8A4120007
:10560800000E606E000E646E160E626E9F0E666E61
:105618007B0E646ED08EA584A384F28E01D0608642
:1056280060A6FDD7010E0001EC6F1200000E00010C
:10563800646F000E636F0CD0100E0001626F940E41
:10564800E82EFED7622FFCD700F00001634B642BD5
:105658006051635D61516459D8B01200EDD7000EF6
:105668000001646F000E636F0CD0100E0001626FB2
:10567800940EE82EFED7622FFCD700F00001634B92
:10568800642B6051635D61516459D8B01200EDD745
:10569800000ECD6E000ECC6ED00ECF6E200ECE6EEC
:1056A800CE50CFCF60F00001616B60C061F0606BDD
:1056B8006011486E6151496E9E909D803EEC2EF0BF
:1056C800120096948D8493949396939894909492C0
:1056D8008A868A9801EC25F0010E60EC2CF0F70E12
:1056E8000001606F750E616F78EC2DF01AEC2DF0EB
:1056F80012000BD061C0F6FF62C0F7FF0800F5503A
:1057080050EC2AF00001614B622B61C0F6FF62C0C9
:10571800F7FF0800F5500009D8A4ECD7E5EC2DF008
:10572800120060C066F061C067F009D066C0D9FF9A
:1057380067C0DAFF62C0DFFF0001664B672B00011C
:105748006407D8A065076429F1E16529D8B4120077
:10575800EDD7000E0101426F000E0F6E740E0E6E33
:10576800000E106E000E116E000E136E000E126EFB
:1057780039EC28F06092649401D0659465A4120015
:10578800FCD7400E0001E06112D0E151010D400E3E
:10579800F324D96E020EF420DA6EDF50AD6EE12BE1
:1057A8003F0EE16502D0000EE16FE02B12009D98DC
:1057B8001200ABA203D0AB98AB8812000001DF51F6
:1057C800010D000EF324D96E020EF420DA6EAECF6E
:1057D800DFFFDF2B3F0EDF6502D0000EDF6FF52BFA
:1057E80012000001606F000160510F0B606F0A0E1C
:1057F800606103D06051300F1200090E606506D059
:10580800100E606103D06051370F1200000E1200B5
:1058180001C007F002C008F008D007C0D9FF08C0CF
:10582800DAFF03C0DFFF074A082A0506D8A00606E4
:105838000528F3E10628D8B41200EFD757EC2DF06D
:10584800EDEC28F04CEC2BF096EC2DF0ADEC2CF0B8
:10585800C8EC2AF0CEEC2CF027EC2DF0B4EC2DF0AF
:10586800EEEC2CF01200648465986082010E010150
:10587800426F000E0F6E750E0E6E000E106E000E4B
:10588800116E000E136E000E126E39EC28F0120025
:10589800000160516203F3CF64F0F4CF65F060510A
:1058A8006303F350652761516203F350652764C0B1
:1058B80060F065C061F012000001616F0001615184
:1058C800D8A407D0A00E4CEC2DF0C80E4CEC2DF04F
:1058D8001200A10E4CEC2DF0C00E4CEC2DF0120075
:1058E800820E0001616F7A0E626F7DEC2BF09DB81D
:1058F800FED7FA0E0001636F580EE82EFED7632F0D
:10590800FCD700F0120000016C6F000E00016D6FF3
:105918000F0E6D6501D012006DC062F06CC063F0AF
:10592800200E7FEC24F000016D2BF2D7A394000128
:10593800EB51D8A40CD060C031F161C032F162C023
:10594800DCF0010E0101416F010E0001EB6FA38431
:105958001200040EB16E000EB46ED50EB36ED00EEA
:10596800B26EB2CF46F0B3CF47F0A192A0823AEC24
:105978002EF012000001606F000160A303D0010146
:105988003C4B3D2B000160B7F02B60A912000101D0
:10599800482B1200D59AD598D596D594D582D5900E
:1059A800000E0101396F6E0E386FF294F28A40ECE6
:1059B8002EF012000D6E000E0E6E0F0E0E6401D04A
:1059C80012000EC003F00DC004F0200EBCEC25F050
:1059D8000E2AF3D7000E596E000E5C6E000E000101
:1059E800E36F000E0101436F000E586E000E576EF4
:1059F8001200A1928DA406D08D94D50EB36ED00E50
:105A0800B26E12008D84FB0EB36E500EB26E120091
:105A18000001616F000161390F0B10094CEC2DF08A
:105A2800000161510F0B4CEC2DF01200000E87ECB9
:105A38002CF0010E87EC2CF0020E87EC2CF0030EF4
:105A480087EC2CF01200A00E7D6E010EC26E080EBF
:105A5800C16E8E0EC06E000EC36E000EC46E1200B4
:105A6800000EDEEC2CF0010EDEEC2CF0020EDEEC6B
:105A78002CF0030EDEEC2CF012000001606F8A9807
:105A88008B8060C08CFF8B9200F08B828A8812001A
:105A98000001606F8A988B9060C08CFF8B9200F039
:105AA8008B828A881200800E9B6E700ED36E100E49
:105AB800D26ED2AEFED7900EB56E12000001606FA6
:105AC80060C0A9FFA69CA69EA68000F000F0A85082
:105AD8001200026E02380F0B1009AAEC2DF00250CA
