:040000007FEF00F09E
:100008005E82FACF20F0FBCF21F0E9CF22F0EACFD1
:1000180023F0E1CF24F0E2CF25F0D9CF26F0DACFD4
:1000280027F0F3CF28F0F4CF29F0F6CF2AF0F7CF56
:100038002BF0F8CF2CF0F5CF2DF05EC02EF05FC07E
:100048002FF060C030F061C031F09DB09EA004D0A8
:100058002BEC31F06AEC31F0A0B2A1A203D061EC34
:1000680030F013D09DBA9EAA05D05CEC31F03AEC82
:100078002FF00BD09DB89EA803D022EC2FF005D00E
:10008800A0BCA1AC02D07FEC31F0F2BAF2A405D04A
:1000980077EC31F01CEC22F008D0F2B6F2A003D0D5
:1000A80082EC2CF002D0E2EC17F031C061F030C0E5
:1000B80060F02FC05FF02EC05EF02DC0F5FF2CC0A1
:1000C800F8FF2BC0F7FF2AC0F6FF29C0F4FF28C0AD
:1000D800F3FF27C0DAFF26C0D9FF25C0E2FF24C0FE
:1000E800E1FF23C0EAFF22C0E9FF21C0FBFF20C0D7
:1000F800FAFF5E9211004BEF25F00001B56F000E7C
:100108000001B06FAE51D8B499EF09F0FA51D8B4E4
:1001180099EF09F0FD51EE5DD8A0DDD080EC26F016
:10012800000E01015B6F000E5A6F000E0001DB6FBD
:10013800000EDA6F00F0D8EC28F0000E0001B16F65
:1001480034EC2CF06EC072F06FC073F099EC28F0AC
:1001580072C05AF173C05BF125EC31F0000160C048
:1001680072F061C073F072517311D8A4200E746FCD
:10017800060E756F010E766F14EC29F025EC31F040
:1001880060C072F061C073F0040E0001746FFEEC81
:100198002AF00001B16F31EC2DF063C072F064C039
:1001A80073F099EC28F072C0DAF073C0DBF000014C
:1001B800DA513BEC1CF00001AF6FAF51DA6FDB6B2B
:1001C8006DEC31F0050F0001666FDA5195EC23F004
:1001D800000E0001EE6F7EEC30F0320E0001726FFF
:1001E8007C0E736F72517311D8A4000E746F000ED9
:1001F800756F000E766F14EC29F0350E0001726FE2
:100208007E0E736F72517311D8A4000E746F000EB6
:10021800756F010E766F14EC29F0730E0001726F82
:100228007D0E736F72517311D8A4000E746F000E97
:10023800756F020E766F14EC29F025EC31F0000191
:1002480060C072F061C073F072517311D8A4200EAF
:10025800746F030E756F020E766F14EC29F00B0E97
:100268000001786F020E796FDA51F0EC23F037EC69
:1002780031F00001F06FF051D8A402D0050E05D07E
:10028800DF0EF06503D0F051CE0FF06F0A0E786FD5
:10029800010E796FF051ECEC25F0000E0001666F4D
:1002A800F05195EC23F0200E0101CA6F00F02E0EDC
:1002B8000001616F7D0E626FC70E636F010E646F80
:1002C8000C0E656FBBEC21F0070E0001EF6F080EF6
:1002D800F36F99EF09F0FB51D8B407D0EE2B0F0E4E
:1002E800F36F010EAC6F99EF09F0000EEE6F99EF06
:1002F80009F0FFD70001B551D8A403D0AC51D8B448
:1003080012007EEC30F0220E0001726F7B0E736FCC
:1003180072517311D8A4000E746F000E756F000E21
:10032800766F14EC29F0880E0001726F7B0E736FE4
:1003380072517311D8A4000E746F000E756F010E00
:10034800766F14EC29F0840E0001726F7C0E736FC7
:1003580072517311D8A4000E746F000E756F030EDE
:10036800766F14EC29F0060E0001F36F1200B551F8
:10037800D8B436D07EEC30F0110E0001726F7B0ECF
:10038800736F72517311D8A4000E746F000E756FDD
:10039800000E766F14EC29F0000E0001726F7B0ED0
:1003A800736F72517311D8A4000E746F000E756FBD
:1003B800010E766F14EC29F0840E0001726F7C0E2A
:1003C800736F72517311D8A4000E746F000E756F9D
:1003D800030E766F14EC29F00A0E0001F36F120079
:1003E800AC51D8B41200000EEE6F7EEC30F0DD0E8A
:1003F8000001726F7B0E736F72517311D8A4000ED7
:10040800746F000E756F000E766F14EC29F0660E8F
:100418000001726F7D0E736F72517311D8A4000EB4
:10042800746F000E756F010E766F14EC29F0AA0E2A
:100438000001726F7A0E736F72517311D8A4000E97
:10044800746F000E756F030E766F14EC29F080EC54
:1004580026F037EC31F00001F06FF051D8A402D04B
:10046800050E05D0DF0EF06503D0F051CE0FF06F0A
:100478000C0E786F010E796FF051ECEC25F0000E40
:100488000001666FF05195EC23F0200E0101CA6F50
:10049800000E5B6F000E5A6F000E0001DB6F000E3E
:1004A800DA6F00F0D8EC28F0010E0001616FF40E4D
:1004B800606FA8EC2EF0000E0001B26F34EC2CF047
:1004C8006EC072F06FC073F099EC28F072C05AF1E8
:1004D80073C05BF134EC2CF06EC072F06FC073F037
:1004E800040E0001746FFEEC2AF00001B26F00F0F8
:1004F80000F031EC2DF063C072F064C073F099EC39
:1005080028F072C0DAF073C0DBF00001DA513BEC7E
:100518001CF00001AF6FAF51DA6FDB6B6DEC31F09F
:10052800050F0001666FDA5195EC23F000F0070E15
:100538000001F36F1200B551D8B40CD02E0E616FC4
:100548007D0E626FC70E636F010E646F0C0E656FD0
:10055800BBEC21F00001AC51D8B40CD0650E616F32
:100568007E0E626FC70E636F010E646F0C0E656FAF
:10057800BBEC21F00001B551D8A403D0AC51D8B4DC
:1005880012007EEC30F04D0E0001726F7E0E736F1C
:1005980072517311D8A4000E746F000E756F000E9F
:1005A800766F14EC29F0410E0001726F7E0E736FA6
:1005B80072517311D8A4000E746F000E756F010E7E
:1005C800766F14EC29F00C0E0001786F010E796F2C
:1005D800F051ECEC25F0730E0001726F7D0E736F15
:1005E80072517311D8A4000E746F000E756F020E4D
:1005F800766F14EC29F025EC31F0000160C072F040
:1006080061C073F072517311D8A4200E746F030E79
:10061800756F020E766F14EC29F00B0E0001786FDF
:10062800020E796FDA51F0EC23F0899C080E000174
:10063800F36F1200AD51D8B41CD1670E606F010E74
:10064800616FF80E626F7F0E636F5BEC2CF0000138
:1006580060516111D8A403D0898C080EF36F670E1E
:10066800606F010E616FAB0E626F7F0E636F000EDD
:10067800656F060E646FC9EC26F0000160516111C8
:10068800D8A482D0070EB46FB451010D670EF324BD
:10069800D96E010EF420DA6EDF500101FA6F000105
:1006A800B42BB451010D670EF324D96E010EF4205A
:1006B800DA6EDF500101FB6F0001B42B200E01013F
:1006C800FB19D8B415D00001B451010D670EF324FD
:1006D800D96E010EF420DA6EDF500101FC6F0001C3
:1006E800B42B200E0101FC19D8B402D00001B42BA0
:1006F800000E0001B36F3F0EB36501D023D0B45193
:10070800010D670EF324D96E010EF420DA6EB35191
:10071800010DA70EF324E16E010EF420E26EDFCF87
:10072800E7FFB351010DA70EF324D96E010EF42093
:10073800DA6EDF50D8B402D0B42B02D0400EB36FBB
:10074800B32BD9D7898E899C550E726F7B0E736F28
:1007580072517311D8A4000E746F000E756F020EDB
:10076800766F14EC29F0CD0E0001726F7A0E736F5C
:1007780072517311D8A4000E746F000E756F030EBA
:10078800766F14EC29F06CD0670E0001606F010ED3
:10079800616FB20E626F7F0E636F000E656F060E9B
:1007A800646FC9EC26F0000160516111D8A411D022
:1007B800899CBB0E726F7B0E736F72517311D8A434
:1007C800000E746F000E756F030E766F14EC29F02F
:1007D80047D0670E0001606F010E616FA40E626F53
:1007E8007F0E636F000E656F060E646FC9EC26F00E
:1007F800000160516111D8A410D0970E726F7A0E63
:10080800736F72517311D8A4000E746F000E756F58
:10081800030E766F14EC29F023D0670E0001606F89
:10082800010E616F9D0E626F7F0E636F000E656F24
:10083800060E646FC9EC26F0000160516111D8A45E
:100848000FD0B40E726F7C0E736F72517311D8A4EF
:10085800000E746F000E756F030E766F14EC29F09E
:10086800FA0E0001AF6F580EE82EFED7AF2FFCD757
:1008780000F00001B551D8A403D0AC51D8B412008F
:100888007EEC30F0220E0001726F7B0E736F725196
:100898007311D8A4000E746F000E756F000E766F7A
:1008A80014EC29F0880E0001726F7B0E736F725181
:1008B8007311D8A4000E746F000E756F010E766F59
:1008C80014EC29F0840E0001726F7C0E736F725164
:1008D8007311D8A4000E746F000E756F030E766F37
:1008E80014EC29F0060E0001F36F1200B551D8B4CC
:1008F80036D07EEC30F0640E0001726F7C0E736FA0
:1009080072517311D8A4000E746F000E756F000E2B
:10091800766F14EC29F0540E0001726F7C0E736F21
:1009280072517311D8A4000E746F000E756F010E0A
:10093800766F14EC29F0840E0001726F7C0E736FD1
:1009480072517311D8A4000E746F000E756F030EE8
:10095800766F14EC29F0010E0001F36F1200AC5110
:10096800D8B412007EEC30F0899E430E0001726FFD
:100978007C0E736F72517311D8A4000E746F000E41
:10098800756F000E766F14EC29F0CB0E0001726FB4
:100998007E0E736F72517311D8A4000E746F000E1F
:1009A800756F010E766F14EC29F0FA0E0001726F64
:1009B800010E736F72517311D8A4200E746F090E53
:1009C800756F010E766F14EC29F0520E0001726FEC
:1009D8007E0E736F72517311D8A4000E746F000EDF
:1009E800756F020E766F14EC29F0A70E0001726F76
:1009F800010E736F72517311D8A4200E746F060E16
:100A0800756F020E766F14EC29F0B10E0001726F4B
:100A1800010E736F72517311D8A4200E746F000EFB
:100A2800756F030E766F14EC29F00B0E0001F36F4F
:100A38001200B551D8A403D0AC51D8B412007EEC42
:100A480030F0110E0001726F7B0E736F72517311CB
:100A5800D8A4000E746F000E756F000E766F14EC3C
:100A680029F0000E0001726F7B0E736F72517311C3
:100A7800D8A4000E746F000E756F010E766F14EC1B
:100A880029F0840E0001726F7C0E736F725173111E
:100A9800D8A4000E746F000E756F030E766F14ECF9
:100AA80029F00A0E0001F36F1200B551D8B44AD0EC
:100AB8007EEC30F0210E0001726F7C0E736F725164
:100AC8007311D8A4000E746F000E756F000E766F48
:100AD80014EC29F00001FB51D8B410D0D40E726F79
:100AE8007C0E736F72517311D8A4000E746F000ED0
:100AF800756F020E766F14EC29F010D0E30E00012A
:100B0800726F7C0E736F72517311D8A4000E746FDC
:100B1800000E756F020E766F14EC29F0740E00014A
:100B2800726F7C0E736F72517311D8A4000E746FBC
:100B3800000E756F030E766F14EC29F00C0E000191
:100B4800F36F1200AC51D8B412007EEC30F0640E92
:100B58000001726F7C0E736F72517311D8A4000E6E
:100B6800746F000E756F000E766F14EC29F0810E0D
:100B78000001726F7F0E736F72517311D8A4000E4B
:100B8800746F000E756F010E766F14EC29F07A0EF3
:100B98000001726F7F0E736F72517311D8A4000E2B
:100BA800746F000E756F020E766F14EC29F0FB0E51
:100BB8000001726F7F0E736F72517311D8A4000E0B
:100BC800746F0A0E756F020E766F14EC29F0D8EC6C
:100BD80028F0020E0001F36F1200B551D8B4D2D03C
:100BE8007EEC30F0770E0001726F7B0E736F7251DE
:100BF8007311D8A4000E746F000E756F000E766F17
:100C080014EC29F0660E0001726F7B0E736F72513F
:100C18007311D8A4000E746F000E756F010E766FF5
:100C280014EC29F0880E0001726F7F0E736F7251F9
:100C38007311D8A4000E746F000E756F020E766FD4
:100C480014EC29F0C30E0001726F7F0E736F72519E
:100C58007311D8A4000E746F0C0E756F020E766FA8
:100C680014EC29F066D0CC0E0001726F7D0E736F04
:100C780072517311D8A4000E746F070E756F020EAF
:100C8800766F14EC29F06AD0E10E0001726F7F0EC6
:100C9800736F72517311D8A4000E746F070E756FBD
:100CA800020E766F14EC29F059D0ED0E0001726F28
:100CB8007F0E736F72517311D8A4000E746F070EF4
:100CC800756F020E766F14EC29F048D0E50E00011E
:100CD800726F7F0E736F72517311D8A4000E746F08
:100CE800070E756F020E766F14EC29F037D0E90EF7
:100CF8000001726F7F0E736F72517311D8A4000ECA
:100D0800746F070E756F020E766F14EC29F026D0FB
:100D1800F00E0001726F7F0E736F72517311D8A4B9
:100D2800000E746F070E756F020E766F14EC29F0C3
:100D380015D00001FE51000AD8B495D7010AD8B4DD
:100D4800A3D7030AD8B4B1D7010AD8B4BFD7070AC2
:100D5800D8B4CDD7010AD8B4DBD785D7740E000133
:100D6800726F7C0E736F72517311D8A4000E746F7A
:100D7800000E756F030E766F14EC29F00D0E00014E
:100D8800F36F1200AC51D8B41200FB51D8B412D092
:100D9800000EFB6FE30E726F7C0E736F725173114E
:100DA800D8A4000E746F000E756F020E766F14ECE7
:100DB80029F01200010E0001FB6FD40E726F7C0E39
:100DC800736F72517311D8A4000E746F000E756F93
:100DD800020E766F14EC29F012000001B551D8A468
:100DE80003D0AC51D8B412007EEC30F0640E000190
:100DF800726F7C0E736F72517311D8A4000E746FEA
:100E0800000E756F000E766F14EC29F0540E000179
:100E1800726F7C0E736F72517311D8A4000E746FC9
:100E2800000E756F010E766F14EC29F0840E000128
:100E3800726F7C0E736F72517311D8A4000E746FA9
:100E4800000E756F030E766F14EC29F0010E000189
:100E5800F36F1200B551D8B4C4D07EEC30F0EE0E6A
:100E68000001726F7B0E736F72517311D8A4000E5C
:100E7800746F000E756F000E766F14EC29F0590E22
:100E88000001726F7E0E736F72517311D8A4000E39
:100E9800746F000E756F020E766F14EC29F0740EE5
:100EA8000001726F7C0E736F72517311D8A4000E1B
:100EB800746F000E756F030E766F14EC29F0030E35
:100EC8000001F36F76D0C80E726F7F0E736F725188
:100ED8007311D8A4000E746F0A0E756F020E766F28
:100EE80014EC29F07ED0CC0E0001726F7F0E736F68
:100EF80072517311D8A4000E746F0A0E756F020E2A
:100F0800766F14EC29F06DD0D00E0001726F7F0E51
:100F1800736F72517311D8A4000E746F0A0E756F37
:100F2800020E766F14EC29F05CD0D40E0001726FBB
:100F38007F0E736F72517311D8A4000E746F0A0E6E
:100F4800756F020E766F14EC29F04BD0D80E0001A5
:100F5800726F7F0E736F72517311D8A4000E746F85
:100F68000A0E756F020E766F14EC29F03AD0DC0E7B
:100F78000001726F7F0E736F72517311D8A4000E47
:100F8800746F0A0E756F020E766F14EC29F029D073
:100F9800F40E0001726F7F0E736F72517311D8A433
:100FA800000E746F0A0E756F020E766F14EC29F03E
:100FB80018D00001FC51000AD8B485D7010AD8B46A
:100FC80092D7030AD8B4A0D7010AD8B4AED7070A73
:100FD800D8B4BCD7010AD8B4CAD7030AD8B4D8D76A
:100FE80072D70001AC51D8B41200050EFE6102D0D0
:100FF800FE2B72D0000EFE6F6FD0090EFD6FDC0E57
:10100800726F7F0E736F72517311D8A4000E746FD4
:10101800070E756F020E766F14EC29F01200120E8F
:101028000001FD6FE00E726F7F0E736F72517311C6
:10103800D8A4000E746F070E756F020E766F14EC4D
:1010480029F012001B0E0001FD6FEC0E726F7F0E6F
:10105800736F72517311D8A4000E746F070E756FF9
:10106800020E766F14EC29F01200360E0001FD6FA7
:10107800E40E726F7F0E736F72517311D8A4000E55
:10108800746F070E756F020E766F14EC29F012005C
:101098006C0E0001FD6FE80E726F7F0E736F725158
:1010A8007311D8A4000E746F070E756F020E766F59
:1010B80014EC29F01200FD69F00E726F7F0E736F49
:1010C80072517311D8A4000E746F070E756F020E5B
:1010D800766F14EC29F012000001FE51000AD8B412
:1010E8008CD7010AD8B49BD7030AD8B4ABD7010A66
:1010F800D8B4BBD7070AD8B4CBD7010AD8B4DBD742
:101108007CD7B551D8B428D0FC51ACEC14F07EECA7
:1011180030F0CC0E0001726F7B0E736F7251731139
:10112800D8A4000E746F000E756F000E766F14EC65
:1011380029F0940E0001726F7C0E736F7251731157
:10114800D8A4000E746F000E756F030E766F14EC42
:1011580029F00F0E0001F36FAC51D8B41200060E3F
:10116800FC610AD0ED05D8A405D0030EFC6502D0B9
:10117800060E03D0FC2B79D0000EFC6F76D0C80E7B
:10118800726F7F0E736F72517311D8A4000E746F53
:101198000A0E756F020E766F14EC29F01200CC0E51
:1011A8000001726F7F0E736F72517311D8A4000E15
:1011B800746F0A0E756F020E766F14EC29F0120028
:1011C800D00E0001726F7F0E736F72517311D8A425
:1011D800000E746F0A0E756F020E766F14EC29F00C
:1011E8001200D40E0001726F7F0E736F725173116B
:1011F800D8A4000E746F0A0E756F020E766F14EC89
:1012080029F01200D80E0001726F7F0E736F7251B1
:101218007311D8A4000E746F0A0E756F020E766FE4
:1012280014EC29F01200DC0E0001726F7F0E736F50
:1012380072517311D8A4000E746F0A0E756F020EE6
:10124800766F14EC29F01200F40E0001726F7F0E15
:10125800736F72517311D8A4000E746F0A0E756FF4
:10126800020E766F14EC29F012000001FC51000AFE
:10127800D8B485D7010AD8B492D7030AD8B4A0D76E
:10128800010AD8B4AED7070AD8B4BCD7010AD8B473
:10129800CAD7030AD8B4D8D772D7AC51D8B40CD0AF
:1012A80053EC1FF00009D8B404D0010E0001B56F4B
:1012B80003D0090E0001EF6FB551D8B412007EECCF
:1012C80030F0220E0001726F7B0E736F7251731132
:1012D800D8A4000E746F000E756F000E766F14ECB4
:1012E80029F0880E0001726F7B0E736F72517311B3
:1012F800D8A4000E746F000E756F010E766F14EC93
:1013080029F0840E0001726F7C0E736F7251731195
:10131800D8A4000E746F000E756F030E766F14EC70
:1013280029F0060E0001F36F1200F351000AD8B439
:101338007EEF01F0010AD8B459EF05F0030AD8B4DA
:101348004CD5010AD8B4DDD6050AD8B4BBEF01F0F4
:10135800010AD8B49FEF02F00F0AD8B41EEF03F0C9
:10136800020AD8B47AEF04F0010AD8B41DEF05F0E8
:10137800070AD8B432D4010AD8B46CD5020AD8B452
:101388008CD77DEF01F000017D6F000E00017C6FAE
:10139800C0D2FFD7FD0E0001616F7E0E626F5BEC5D
:1013A8002EF076D17951D8B402D00A0EF46F7D515F
:1013B800D8B4D3D2670E606F010E616FB90E626F39
:1013C8007F0E636F000E656F040E646FC9EC26F024
:1013D800000160516111D8A438D0000EED6F7EEC89
:1013E80030F0440E0001726F7B0E736F72517311EF
:1013F800D8A4000E746F000E756F000E766F14EC93
:1014080029F0990E0001726F7B0E736F7251731180
:10141800D8A4000E746F000E756F020E766F14EC70
:1014280029F0EF0E0001726F7A0E736F725173110B
:10143800D8A4000E746F000E756F030E766F14EC4F
:1014480029F04AD00001F46F88D2670E606F010E50
:10145800616FBE0E626F7F0E636F000E656F040EC4
:10146800646FC9EC26F0000160516111D8A436D030
:10147800010EED6F7EEC30F0440E0001726F7B0EB2
:10148800736F72517311D8A4000E746F000E756FCC
:10149800000E766F14EC29F0990E0001726F7B0E26
:1014A800736F72517311D8A4000E746F000E756FAC
:1014B800020E766F14EC29F0EF0E0001726F7A0EAF
:1014C800736F72517311D8A4000E746F000E756F8C
:1014D800030E766F14EC29F0020EB4D7FD0E616F7F
:1014E8007E0E626F5BEC2EF0000E0001616F190E2C
:1014F800606FA8EC2EF0000EA5D77851D8B41ED096
:10150800BC0E726F7A0E736F72517311D8A4000EED
:10151800746F000E756F030E766F14EC29F0010ED0
:101528000001616FF40E606FA8EC2EF0E80E000168
:10153800616F7D0E626F5BEC2EF06DD07951D8B47F
:101548000CD2DE0E726F7A0E736F72517311D8A4BB
:10155800000E746F000E756F030E766F14EC29F091
:10156800010E0001616FF40E606FA8EC2EF03C0EC6
:101578000001616F7D0E626F5BEC2EF061D17D51D1
:10158800D8B4EBD1670E606F010E616FF80E626F11
:101598007F0E636F5BEC2CF0000160516111D8A4E1
:1015A80002D0040E50D7670E606F010E616F580E9F
:1015B800626F7D0E636F5BEC2CF00001605161116E
:1015C800D8A423D07EEC30F0B50E0001726F7E0EE9
:1015D800736F72517311D8A4000E746F000E756F7B
:1015E800000E766F14EC29F01A0E0001726F7F0E50
:1015F800736F72517311D8A4000E746F000E756F5B
:10160800010E766F14EC29F08AD0E80E616F7D0E1A
:10161800626F5BEC2EF0030E15D77D51D8B49DD1C7
:10162800670E606F010E616F230E626F7F0E636F2E
:101638005BEC2CF0000160516111D8A423D07EEC42
:1016480030F0D50E0001726F7E0E736F72517311F8
:10165800D8A4000E746F000E756F000E766F14EC30
:1016680029F09F0E0001726F7E0E736F7251731115
:10167800D8A4000E746F000E756F010E766F14EC0F
:1016880029F0A4D0F30E616F7E0E626F5BEC2EF032
:10169800010ED8D67D51D8B460D1670E606F010EA7
:1016A800616FF80E626F7F0E636F5BEC2CF00001C8
:1016B80060516111D8A402D0060EC5D6670E606FBE
:1016C800010E616F580E626F7D0E636F5BEC2CF03C
:1016D800000160516111D8A424D07EEC30F0B50E21
:1016E8000001726F7E0E736F72517311D8A4000ED1
:1016F800746F000E756F000E766F14EC29F01A0ED9
:101708000001726F7F0E736F72517311D8A4000EAF
:10171800746F000E756F010E766F14EC29F0090EC8
:1017280091D6670E606F010E616F4A0E626F7D0E73
:10173800636F5BEC2CF0000160516111D8A407D0F5
:101748003C0E616F7D0E626F5BEC2EF079D0670EF8
:10175800606F010E616F940E626F7E0E636F5BECBB
:101768002CF07AD07D51D8B4F8D0670E606F010E96
:10177800616F230E626F7F0E636F5BEC2CF00001CC
:1017880060516111D8A424D07EEC30F0890E00019C
:10179800726F7E0E736F72517311D8A4000E746F3E
:1017A800000E756F000E766F14EC29F09F0E000185
:1017B800726F7E0E736F72517311D8A4000E746F1E
:1017C800000E756F010E766F14EC29F0070E3AD6ED
:1017D800670E606F010E616F960E626F7F0E636F0A
:1017E8005BEC2CF0000160516111D8A42BD07EEC89
:1017F80030F0E90E0001726F7E0E736F7251731133
:10180800D8A4000E746F010E756F000E766F14EC7D
:1018180029F08F0E0001726F7F0E736F7251731172
:10182800D8A4000E746F020E756F010E766F14EC5B
:1018380029F03C0E0001616F7D0E626F5BEC2EF0AB
:10184800050E00D6670E606F010E616F940E626F11
:101858007E0E636F5BEC2CF0000160516111D8A41F
:101868007CD0000EF0D5AA0E616F7E0E626F5BEC25
:101878002EF018D07D51D8B470D0670E606F010E6D
:10188800616F4A0E626F7D0E636F5BEC2CF0000196
:1018980060516111D8A408D0AA0E616F7E0E626FE4
:1018A8005BEC2EF0080ECED501016751D00F000178
:1018B8007B6F7BC0FCF0010E7C6F4FD07951D8B4A0
:1018C8004CD00A0EC0D5000E606F000EAEEC2DF0A5
:1018D80081B202D081A0FCD7FA0E00017A6F580EAF
:1018E800E82EFED77A2FFCD700F0FA0E00017A6FA7
:1018F800580EE82EFED77A2FFCD700F0FA0E00011A
:101908007A6F580EE82EFED77A2FFCD700F0FF002A
:1019180024D00001F451000AD8B43CD5010AD8B447
:1019280041D5030AD8B4E9D5010AD8B428D6070A9C
:10193800D8B473D6010AD8B4ADD6030AD8B412D72E
:10194800010AD8B490D70F0AD8B494D7010AD8B4EA
:10195800B5D7030AD8B4B7D71CD500017C511200FB
:1019680000017751800B806F77517725866F76BF9E
:1019780086818651D8B40DD08629D8A408D0000E07
:10198800746F000E756F000E766F000E776F768F8E
:1019980008D0000E746F000E756F000E766F000E83
:1019A800776F7B51800B801B7B517B25856F7ABFBE
:1019B80085818551D8B40DD08529D8A408D0000ECA
:1019C800786F000E796F000E7A6F000E7B6F7A8F3A
:1019D80008D0000E786F000E796F000E7A6F000E37
:1019E8007B6F8551D8B403D08651D8A409D0000E96
:1019F800746F000E756F000E766F000E776F120011
:101A08007A517403F3CF8BF0F4CF8CF08B51816F44
:101A1800826B836B846B8C51876F886B896B8A6B45
:101A280079517503F3CF8BF0F4CF8CF08B5181276C
:101A3800000E8223832384238C518727000E88235A
:101A480089238A2378517603F3CF8BF0F4CF8CF077
:101A58008B518127000E8223832384238C5187276F
:101A6800000E882389238A2383C084F082C083F0F0
:101A780081C082F0816B78517503F3CF8BF0F4CF7E
:101A88008CF08B5181278C518223000E8323000E0A
:101A9800842379517403F3CF8BF0F4CF8CF08B51FE
:101AA80081278C518223000E8323000E842383C058
:101AB80084F082C083F081C082F0816B7851740316
:101AC800F3CF8BF0F4CF8CF08B5181278C5182238C
:101AD800000E8323000E84237A517503F3CF8BF015
:101AE800F4CF8CF08B5187278C518823000E8923E3
:101AF800000E8A2379517603F3CF8BF0F4CF8CF064
:101B08008B5187278C518823000E8923000E8A2346
:101B18007A517603F3CF8BF0F4CF8CF08B517C6F36
:101B28008C517D6F7E6B7F6B7EC07FF07DC07EF0B9
:101B38007CC07DF07C6B7C5187277D5188237E514A
:101B480089237F518A2381C07CF082C07DF083C0C5
:101B58007EF084C07FF0190E05D0D8907F337E3395
:101B68007D337C33E82EF9D77C5187277D51882334
:101B78007E5189237F518A2383C084F082C083F0F9
:101B880081C082F0816B855186C07CF07D6B7C279B
:101B9800000E7D23820E7C258B6FFF0E7D218C6FBE
:101BA8000FD0D8908737883789378A3784BF87819D
:101BB800D89081378237833784378B07D8A08C0732
:101BC80089AFEFD7000E856F84AF16D0FF0E811551
:101BD8007C6FFF0E82157D6FFF0E83157E6F7F0E63
:101BE80084157F6F7C517D117E117F11D8A402D09E
:101BF80087A102D0010E856F8551D8B41FD0010E80
:101C08008727000E882389238A238AA117D087C0B3
:101C18007CF088C07DF089C07EF08AC07FF07F3577
:101C28007F337E337D337C337CC087F07DC088F082
:101C38007EC089F07FC08AF08B4B8C2B8CBF0DD077
:101C48008C5103E18B29D8A008D0000E876F000EB5
:101C5800886F800E896F7F0E20D08CBF05D08C5185
:101C68000EE18B05D8B00BD0000E876F000E886F81
:101C7800000E896F000E8A6F000E806F0FD08BC028
:101C880086F0FF0E8717FF0E88177F0E8917000E44
:101C98008A1786B1898FD89086318A6F80518A13C6
:101CA80087C074F088C075F089C076F08AC077F074
:101CB800120000016351800B706F63516325726FCE
:101CC80062BF72817251D8B40DD07229D8A408D0DD
:101CD800000E606F000E616F000E626F000E636F82
:101CE800628F06D0000E606F000E616F000E626F8B
:101CF800000E636F6751800B716F70517119D8A412
:101D0800708D67516725716F66BF71817151D8B445
:101D18000DD07129D8A408D0000E646F000E656F2D
:101D2800000E666F000E676F668F06D0000E646F38
:101D3800000E656F000E666F000E676F7251715D61
:101D4800D8B022D070AD02D0800E701B72C073F074
:101D580071C072F073C071F060C073F064C060F05D
:101D680073C064F061C073F065C061F073C065F062
:101D780062C073F066C062F073C066F063C073F04F
:101D880067C063F073C067F0000E736F7251686FBD
:101D9800696B681F691F684B692B71516A6F6B6BA0
:101DA80068516A2769516B236BBF2CD06B5104E1D2
:101DB8001A0E6A5DD8A026D06051611162116311B4
:101DC800D8B402D0010E01D0000E736F000E606F00
:101DD800000E616F000E626F000E636F71C072F0CB
:101DE80015D073A105D0D89073310109736F02D053
:101DF800D890733360B1738F633563336233613363
:101E08006033722B7151725DD8A0EBD770BD29D0A9
:101E18007251D8A409D0000E606F000E616F000ED9
:101E2800626F000E636F1200645160276551612371
:101E3800665162236751632363A183D073A106D0DF
:101E4800D890733373510109736F02D0D8907333EC
:101E580060B1738F63356333623361336033722BE0
:101E680070D06451605D6551615966516259635122
:101E7800800A686F6751800A6859D8B036D060C048
:101E880068F061C069F062C06AF063C06BF0681FF7
:101E9800691F6A1F6B1F682B000E69236A236B2357
:101EA800645168256C6F655169216D6F66516A21AF
:101EB8006E6F67516B216F6FFF0E6C25606FFF0EA1
:101EC8006D21616FFF0E6E21626FFF0E6F21636FD0
:101ED800800E701B736D7351D8A40FD0010E60274C
:101EE800000E61236223632308D06451605F65514B
:101EF800615B6651625B6751635B6051611162119E
:101F08006311D8A41CD07351D8A419D0000E606FE7
:101F1800000E616F000E626F000E636F1200D890A2
:101F2800603761376237633773BF608173A102D04E
:101F3800D88001D0D89073377251D8A4720762AF95
:101F4800EED7000E716F73AF0AD073C068F07F0EC2
:101F58006817D8A402D060A102D0010E716F715128
:101F6800D8B420D0010E6027000E612362236323BA
:101F780063A118D060C068F061C069F062C06AF0FF
:101F880063C06BF06B356B336A336933683368C091
:101F980060F069C061F06AC062F06BC063F07229DA
:101FA800D8A4722B7229D8B403D07251D8A40DD0FA
:101FB800000E606F000E616F000E626F000E636F9F
:101FC8007251D8A402D0000E706F72A102D0628F35
:101FD80001D0629FD8907231636F70BF638F60C009
:101FE80060F061C061F062C062F063C063F012002B
:101FF80000019051800B996F90519025A46F8FBF6D
:10200800A481A451D8B40DD0A429D8A408D0000E16
:102018008D6F000E8E6F000E8F6F000E906F8F8F7A
:1020280006D0000E8D6F000E8E6F000E8F6F000EA3
:10203800906F9451800B991B94519425A56F93BF71
:10204800A581A551D8B40DD0A529D8A408D0000ED3
:10205800916F000E926F000E936F000E946F938F26
:1020680006D0000E916F000E926F000E936F000E57
:10207800946F9151921193119411D8A415D0000E18
:102088008D6F000E8E6F000E8F6F000E906F800E9A
:102098008F137F0E90138DC08DF08EC08EF08FC081
:1020A8008FF090C090F01200A451D8A411D0000E67
:1020B8008D6F000E8E6F000E8F6F000E906F8DC0AB
:1020C8008DF08EC08EF08FC08FF090C090F012000F
:1020D800A551956F966B951F961F954B962BA451FE
:1020E800976F986B95519727965198237F0E972550
:1020F8009E6F000E98219F6F8DC09AF08EC09BF046
:102108008FC09CF090C09DF0000E8D6F000E8E6FFA
:10211800000E8F6F000E906F000EA06F000EA16F63
:10212800000EA26F000EA36F000EA56F28D0A55158
:10213800D8B411D0D8909A379B379C379D37D89010
:102148008D378E378F379037A3BF8D81D890A037C2
:10215800A137A237A33791519A5D92519B59935158
:102168009C5994519D59D8A009D0A38D91519A5F3B
:1021780092519B5B93519C5B94519D5BA52B190ECF
:10218800A565D5D79A519B119C119D11D8B411D032
:10219800A0810FD0D8908D378E378F379037A3BF57
:1021A8008D81D890A037A137A237A3379E07D8A032
:1021B8009F078FAFEFD7000EA56FA3AF16D0FF0E06
:1021C800A015956FFF0EA115966FFF0EA215976FBC
:1021D8007F0EA315986F9551961197119811D8A451
:1021E80002D08DA102D0010EA56FA551D8B41FD081
:1021F800010E8D27000E8E238F23902390A117D0D8
:102208008DC095F08EC096F08FC097F090C098F072
:102218009835983397339633953395C08DF096C09B
:102228008EF097C08FF098C090F09E4B9F2B9FBF69
:1022380010D09F5103E19E29D8A00BD0000E9F6FAC
:102248009E69000E8D6F000E8E6F000E8F6F000E50
:10225800906F9FBF05D09F5111E19E05D8B00ED059
:10226800000E9F6F000E9E6F000E8D6F000E8E6F1A
:10227800000E8F6F000E906F000E996F9EC0A4F035
:10228800A4A102D08F8F01D08F9FD890A431906FD6
:10229800995190138DC08DF08EC08EF08FC08FF045
:1022A80090C090F01200000E0001B76F000EB86FDA
:1022B800000EB96F000EBB6F030EBA6FC0EC13F0BF
:1022C80080A009D064EC31F00009D8A407D0040E2E
:1022D8000001FF6F03D0000E3CEC31F00001F8A1C3
:1022E80008D054EC31F041EC1AF00001F85141ECFF
:1022F80030F063EC2AF00001BA6FBA05D8A405D013
:10230800000EEF6F010EB86F08D0020EBA19D8A4EC
:1023180004D0000EEF6F010EB96F98EC2AF0000997
:10232800D8B402D0010E01D0000E0001BB6F020E1E
:10233800F319D8A44BD00101595104E1640E585D3A
:10234800D8A044D000F0C80E0001726F7A0E736FE7
:1023580072517311D8A4000E746F060E756F010EBA
:10236800766F14EC29F034EC2CF000016EC072F09A
:102378006FC073F072517311D8A4200E746F060EDB
:10238800756F010E766F14EC29F031EC2DF063C0F7
:1023980072F064C073F099EC28F072C0DAF073C080
:1023A800DBF00001DA513BEC1CF00001B66FB651CE
:1023B800DA6FDB6B060E786F020E796FDA51F0EC8C
:1023C80023F0000E0101596F000E586F0001EF5104
:1023D800D8B48FD0090EEF658CD0FB51D8B489D012
:1023E800010EB76F000EEF6F84D0FFD77EEC30F090
:1023F800DF0E0001726F7E0E736F72517311D8A4D5
:10240800000E746F010E756F000E766F14EC29F0D4
:10241800350E0001726F7F0E736F72517311D8A45D
:10242800000E746F020E756F010E766F14EC29F0B2
:10243800AA0E0001726F7B0E736F72517311D8A4CC
:10244800000E746F000E756F030E766F14EC29F092
:10245800000E0001F46F020E40D0B8C078F0B9C089
:1024680079F0BB51C7EC09F00009D8B450D07EEC24
:1024780030F0FF0E0001726F7B0E736F7251731193
:10248800D8A4000E746F000E756F000E766F14ECF2
:1024980029F0100E0001726F7C0E736F7251731168
:1024A800D8A4000E746F000E756F020E766F14ECD0
:1024B80029F0330E0001726F7B0E736F7251731126
:1024C800D8A4000E746F000E756F030E766F14ECAF
:1024D80029F0000E0001F36F030EFF6F18D0B9C08A
:1024E800ACF0BBC0ADF0B7C0AEF0B85181EC00F0B5
:1024F8000ED00001FF51010AD8B478D7030AD8B426
:10250800ACD7010AD8B4EBD7070AD8A46ED7000114
:10251800FF51120004013205D8A410D030511F0B0E
:102528000009D8A40BD00001C78F030E040131198C
:10253800D8A402D0010E01D0000E496E3251D8A4A1
:10254800120030511F0B020AD8A4120034510F0B8D
:102558000009D8B4120034510F0B166E030E166022
:102568001200200E0001EB19D8A41200C78F040135
:1025780034BF19D034510F0B166E1650020D400E91
:10258800F324D96E010EF420DA6EDECF1AF0DDCF17
:102598001BF034510F0B166E1650010DD00EF3249C
:1025A800D96E000E18D034510F0B166E1650020D4E
:1025B800CA0EF324D96E000EF420DA6EDECF1AF0BC
:1025C800DDCF1BF034510F0B166E1650010DD30ED4
:1025D800F324D96E000EF420DA6EDF50196E19B0AC
:1025E80002D01A9401D01A8434BF0AD034510F0B88
:1025F800166E1650020D400EF324D96E010E09D046
:1026080034510F0B166E1650020DCA0EF324D96EF4
:10261800000EF420DA6E1AC0DEFF1BC0DDFF030EC9
:102628003119D8A42DD01AC0D9FF1BC0DAFFDFAEEC
:102638001AD034BF0AD034510F0B166E1650010D44
:10264800D00EF324D96E000E0AD0040134510F0BBA
:10265800166E1650010DD30EF324D96E000EF42019
:10266800DA6E0001DF821AC0D9FF1BC0DAFF000E44
:10267800DB841AC0D9FF1BC0DAFF000EDB8E120004
:10268800040E1A1A1AC0D9FF1BC0DAFFDFAE1BD01E
:102698001AC0D9FF1BC0DAFF7F0EDF161AC0D9FF98
:1026A8001BC0DAFF000EDB8C000E0F6E050E0E6EDF
:1026B8001AC010F01BC011F0000E136E020E126E3D
:1026C8002DEC2BF006D01AC0D9FF1BC0DAFF000E84
:1026D800DB8C040E1A1A19B206D01AC0D9FF1BC017
:1026E800DAFFDFAE30D0040134BF0AD034510F0B0B
:1026F800166E1650010DD00EF324D96E000E0AD0B6
:10270800040134510F0B166E1650010DD30EF3242D
:10271800D96E000EF420DA6E0001DF921AC0D9FFDC
:102728001BC0DAFF3B0EDF16000E0F6E050E0E6E95
:102738001AC010F01BC011F0000E136E020E126EBC
:102748002DEC2BF006D01AC0D9FF1BC0DAFF3B0EC8
:10275800DF16040134510F0B166E1650010D6A0E68
:10276800F324176E0F0EF420186E17C0D9FF18C087
:10277800DAFFFE0EDF161200DED007EC2EF00001A5
:10278800866F240E8619D8A404D0000EEC6F010EB3
:10279800F26FECEC30F0E806D8A4EFD70001F205B0
:1027A800D8A4120021D007EC2EF00001866FEC515E
:1027B800010DF10EF324F66E750EF420F76EF86A2B
:1027C800000EF8220800F5508619D8A40AD0EC2B80
:1027D800050EEC19D8A408D0000EEC6F020EF26FAB
:1027E80003D0000EF26F1200ECEC30F0E806D8B41B
:1027F8001200D9D707EC2EF00001866F0D0E86194E
:10280800D8A40DD0EC51010D000EF324D96E030E9F
:10281800F420DA6E000EDF6E030EF26F0BD0EC516F
:10282800010D000EF324D96E030EF420DA6E86C073
:10283800DFFFEC2BECEC30F0E806D8A4DBD7030E76
:102848000001F219D8A41200000E876F000E856FE0
:10285800470E851B500E851B470E851B4C0E851B8E
:102868004C0E851BEC51875DD8B04BD08751010DBC
:10287800000EF324D96E030EF420DA6E2A0EDE1849
:10288800D8A433D08751826F836B010E8227000E44
:102898008323000E8225D96E030E8321DA6EDF5062
:1028A80069EC2FF0100DF3CF84F000018751826F8F
:1028B800836B020E8227000E8323000E8225D96EB9
:1028C800030E8321DA6EDF5069EC2FF000018427B4
:1028D80087C0ECF08751010D000EF324D96E030E6A
:1028E800F420DA6E000EDF6E0CD08751010D000E59
:1028F800F324D96E030EF420DA6EDF50851B872B84
:10290800B1D77EEC30F0000184518519D8A407D0E6
:10291800000E6C6F030E6D6F0BEC2CF008D0000EE0
:102928000001786F000E796F8451F0EC23F0000EEF
:102938000001F26F12000001F251000AD8B429D741
:10294800010AD8B451D7030AD8B474D7010A7AD780
:102958000001646F080E00016419D8B46AD0A40E8F
:10296800616F7C0E626F5BEC2EF0FA0E0001636FF4
:10297800580EE82EFED7632FFCD700F0FA0E0001A0
:10298800636F580EE82EFED7632FFCD700F0FA0EBF
:102998000001636F580EE82EFED7632FFCD700F0B6
:1029A80048D0800E0001616F7D0E626F5BEC2EF0E7
:1029B8005DD08D0E0001616F7D0E626F5BEC2EF0B5
:1029C80055D09A0E0001616F7D0E626F5BEC2EF0A0
:1029D8004DD0A70E0001616F7D0E626F5BEC2EF08B
:1029E80045D0B40E0001616F7D0E626F5BEC2EF076
:1029F8003DD0C10E0001616F7D0E626F5BEC2EF061
:102A080035D0CE0E0001616F7D0E626F5BEC2EF04B
:102A18002DD0DB0E0001616F7D0E626F5BEC2EF036
:102A280025D0F20E0001616F7C0E626F5BEC2EF018
:102A38001DD000016451000AD8B4B3D7010AD8B434
:102A4800B8D7030AD8B4BDD7010AD8B4C2D7070A81
:102A5800D8B4C7D7010AD8B4CCD7030AD8B4D1D7C9
:102A6800010AD8B4D6D70F0AD8B4DBD7FA0E0001BA
:102A7800636F580EE82EFED7632FFCD700F0FA0ECE
:102A88000001636F580EE82EFED7632FFCD700F0C5
:102A9800FA0E0001636F580EE82EFED7632FFCD79D
:102AA80000F02C0E0001616F7F0E626F5BEC2EF060
:102AB80012000001686F00016851D8A463AF1AD0F2
:102AC80060C064F061C065F062C066F063C067F022
:102AD800641F651F661F671F642B000E652366232E
:102AE800672364C06AF065C06BF066C06CF067C0AD
:102AF8006DF008D060C06AF061C06BF062C06CF025
:102B080063C06DF06051611162116311D8A409D0DE
:102B1800000E606F000E616F000E626F000E636F33
:102B28001200960E696F06D0692BD8906D336C33FE
:102B38006B336A33000E6A15646F000E6B15656F90
:102B4800000E6C15666FFE0E6D15676F645165118A
:102B580066116711D8B40DD0E7D7692B010E6A2723
:102B6800000E6B236C236D23D8906D336C336B335D
:102B78006A33000E6A15646F000E6B15656F000EE0
:102B88006C15666FFF0E6D15676F645165116611E0
:102B98006711D8B407D0E1D76907D8906A376B377F
:102BA8006C376D376CBF03D0020E6961F5D769B118
:102BB80008D0FF0E6A17FF0E6B177F0E6C17FF0EFB
:102BC8006D17D890693369C064F0656B666B676B85
:102BD80064C067F0666B656B646B64516A1365511A
:102BE8006B1366516C1367516D136851D8A463AFAA
:102BF80001D06D8F6AC060F06BC061F06CC062F08C
:102C08006DC063F01200A39432503310D8B410D0C2
:102C180032C0D9FF33C0DAFFDFAE04D00001676BE2
:102C2800672B02D00001676B6751686F696B05D02D
:102C3800000E0001696F000E686F68516911D8B401
:102C480002D0A3841200030EEA19D8A402D0000E01
:102C5800EA6FEA51D8A402D0A3841200020EEA193E
:102C6800D8A413D0010E606F000E616F000E626F62
:102C7800000E636F020E7DEC22F060C032F061C07E
:102C880033F0030E0001EA6F5FD0EA05D8A45CD0E8
:102C9800400EDC6503D0400E6B6F02D0DCC06BF0D9
:102CA8006B510008DC25DC6F000E01014E6F050E2C
:102CB8004F6F6BC06AF04050D8B412D027D051C1C2
:102CC800D9FF52C1DAFF4EC1E1FF4FC1E2FFDFCFAA
:102CD800E7FF01014E4B4F2B514B522B00016A0766
:102CE80000016A51D8B416D0EAD751C1D9FF52C1F0
:102CF800DAFF4EC1E1FF4FC1E2FFDFCFE7FF01017D
:102D08004E4B4F2B514B522B00016A0700016A5161
:102D1800D8A4EBD7DC51D8A408D0400E6B19D8A49E
:102D280002D0020E01D0030EEA6F010E606F000E92
:102D3800616F050E626F6BC063F0020E7DEC22F0CE
:102D480060C032F061C033F0A3841200800E040129
:102D58003019D8A41200C00E0001C76F88D0A30E86
:102D68000001C46F790EC56F000EC96F120EC86FCF
:102D7800120004013251D8A443D03251020DF60E8C
:102D8800F324F66E750EF420F76EF86A000EF8223A
:102D98000900F5CFC4F00A00F5CFC5F0020E000116
:102DA800C425016E000EC521026E01C0F6FF02C0E7
:102DB800F7FFF86A070EF76403D00800F55005D04E
:102DC800F6CFE9FFF7CFEAFFEF500001C86F030E17
:102DD800C425016E000EC521026E01C0F6FF02C0B7
:102DE800F7FFF86A070EF76403D00800F55005D01E
:102DF800F6CFE9FFF7CFEAFFEF500001C96F1200E5
:102E0800000E0001C76F1200030E0401326127D0C3
:102E18003251020DEB0EF324F66E750EF420F76EA8
:102E2800F86A000EF8220900F5CFC4F00A00F5CFC1
:102E3800C5F0C4C0F6FFC5C0F7FFF86A070EF7640F
:102E480003D00800F55005D0F6CFE9FFF7CFEAFF29
:102E5800EF50016E01500001C86FC96B1200000EDF
:102E68000001C76F1200000E0001C76F12000401B5
:102E78003351010AD8B473D7030AD8B47AD7010AF0
:102E8800D8B4C2D7F0D796EC2FF0DAEC2EF07BEC62
:102E980018F075EC2EF08A8A000E0001616F320E70
:102EA800606FA8EC2EF08A9A010E0001616FF40E93
:102EB800606FA8EC2EF0F28CF28E52EC27F0000E28
:102EC8000001616F140E606FA8EC2EF016EC31F063
:102ED800000E0001616F140E606FA8EC2EF0000E5A
:102EE800B9EC30F00001F66F550EF619D8B408D0D9
:102EF8004EEC29F0550E0001606F000EAEEC2DF07F
:102F0800000E0001F76F000E41EC31F07EEC30F05E
:102F18001F0E0001726F7D0E736F72517311D8A46A
:102F2800000E746F000E756F000E766F14EC29F0AA
:102F3800010E0001726F7D0E736F72517311D8A468
:102F4800000E746F000E756F010E766F14EC29F089
:102F5800100E0001726F7D0E736F72517311D8A439
:102F6800000E746F000E756F030E766F14EC29F067
:102F7800030E0001616FE80E606FA8EC2EF015D00B
:102F8800FFD727EC20F0010E0001F76F010E46EC89
:102F980031F00BD057EC11F0040AD8A406D0000E7B
:102FA8000001F76F000E41EC31F00001F751000A03
:102FB800D8B4E7D7010AD8B4EDD7E2D70001EB05BA
:102FC800D8B460BA06D0000E656E64806488020EBC
:102FD800EB6F65B464A403D065940AEC2FF060A28B
:102FE80002D0A494120065B064A007D013EC19F0C5
:102FF800A384040E0001EB6F659065B864A803D044
:10300800ABEC2FF0659865AC18D064AC0ED0000E10
:103018000F6E730E0E6E000E106E000E116E000E07
:10302800136E010E126E2DEC2BF0659C4650D8A441
:1030380046064650D8B459EC21F065BA64AA02D0C5
:1030480010EC2DF065B264A20FD07F0E0F6E0E68E3
:10305800000E106E000E116E000E136E010E126E31
:103068002DEC2BF0000E676E040E0001EB6102D010
:10307800A494120064A639D0000E1F6E030E1F64BC
:1030880001D033D065A631D061CF59F05930E8323C
:10309800E8320F0B486E659659B407D04850010DB9
:1030A800D00EF324D96E000E06D04850010DD30E71
:1030B800F324D96E000EF420DA6E0001DF70485058
:1030C800D8A403D08FEC20F00ED0000E0F6E720E35
:1030D8000E6E590E106E000E116E000E136E000E5D
:1030E800126E2DEC2BF01F2AC9D7A4941200A394BA
:1030F800000E676E000E656E000E6A6E6B0E0001A4
:10310800606F0F0E616F000E636F000E626F000E2E
:10311800656F020E646FF2EC2EF0160E626E9F0E53
:10312800666E7B0E646E000E0001686F0B0E68659C
:1031380001D00ED06851040D000EF324D96E040E90
:10314800F420DA6EDE6ADE6ADE6ADD6A682BEED7A4
:10315800608C000E636E6098609C09D06596000EC6
:10316800C76F000EBF6F000EC16F000EC06F65B64F
:10317800F5D7010E446E010E436E000E426E000E2E
:10318800416E000E01015D6F000E0001686F020EB6
:10319800686501D02ED06851020DCA0EF324D96E8D
:1031A800000EF420DA6E000EDE6E000EDD6E685141
:1031B800020D400EF324D96E010EF420DA6E000ED3
:1031C800DE6E000EDD6E6851010DD30EF324D96E4C
:1031D800000EF420DA6E000EDF6E6851010DD00E7D
:1031E800F324D96E000EF420DA6E000EDF6E682B21
:1031F800CED7080ECA6F040ECB6F160E6A6E040E79
:103208000401036F300E026F080E016F040E006F89
:10321800008F000E5A6E000E0001EB6F1200A3948F
:10322800000E676E000E656E000E6A6E6B0E016E04
:103238000F0E026E000E046E000E036E000E066E78
:10324800020E056E80EC2FF0160E626E9F0E666EF3
:103258007B0E646E000E096E0B0E096401D00ED051
:103268000950040D000EF324D96E040EF420DA6E12
:10327800DE6ADE6ADE6ADD6A092AEED7608C000E35
:10328800636E6098609C0AD06596000E0001C76F57
:10329800000EBF6F000EC16F000EC06F65B6F4D789
:1032A800010E446E010E436E000E426E000E416E1A
:1032B800000E01015D6F000E096E020E096401D057
:1032C8002ED00950020DCA0EF324D96E000EF42038
:1032D800DA6E000EDE6E000EDD6E0950020D400E35
:1032E800F324D96E010EF420DA6E000EDE6E000EA5
:1032F800DD6E0950010DD30EF324D96E000EF420B3
:10330800DA6E000EDF6E0950010DD00EF324D96E6F
:10331800000EF420DA6E000EDF6E092ACED7080EF2
:103328000001CA6F040ECB6F160E6A6E040E0401FC
:10333800036F300E026F080E016F040E006F008FCE
:10334800000E5A6E000E0001EB6F120020EE01F025
:103358003650D9263750DA22DF50136E1350000149
:10336800C05D000EC159D8A0C0C013F01350C05F93
:10337800000EC15B000E126E11D01250010D380EF6
:10338800F324D96E040EF420DA6EBCC0E1FFBDC090
:10339800E2FFDFCFE7FFBC4BBD2B122A1350125CB4
:1033A800D8A0EBD7C051C111D8B432D020EE01F06B
:1033B8003450D9263550DA22080EDF6E20EE02F09E
:1033C8003450D9263550DA22380EDE6E040EDD6E02
:1033D80036C0D9FF37C0DAFFDFBC0DD034C0D9FF03
:1033E80035C0DAFF480EDF6E34C0D9FF35C0DAFFCA
:1033F800000EDB8E120034C0D9FF35C0DAFF080E8C
:10340800DF6E34C0D9FF35C0DAFF000EDB8E120044
:1034180020EE01F03450D9263550DA22080EDF6E3E
:1034280020EE02F03450D9263550DA22300EDE6E06
:10343800040EDD6E34C0D9FF35C0DAFF040EDF6E2E
:1034480034C0D9FF35C0DAFF000EDB8EC251C3117C
:10345800D8B40BD001D809D00500FA6EC251FD6E60
:10346800C351FE6EFF6AFA5012000001BF9F45501B
:10347800D8A4120059EC21F012000001D84BD92B26
:10348800D8C060F0D9C061F0000E636F0A0E626F99
:10349800CDEC2CF0000160516111D8A41200F88322
:1034A800D8C060F0D9C061F0000E636F640E626F1F
:1034B800CDEC2CF0000160516111D8A41200F88500
:1034C800D8C060F0D9C061F0030E636FE80E626F78
:1034D800CDEC2CF0000160516111D8A41200F887DE
:1034E800D8C060F0D9C061F0626B636B600E646F26
:1034F800EA0E656F000E666F000E676FA0EC24F091
:1035080000016051611162116311D8A412003C4A94
:103518003D2AF8893CC060F03DC061F0000E636F41
:103528003C0E626FCDEC2CF0000160516111D8A403
:103538001200F88B3CC060F03DC061F0020E636F72
:10354800D00E626FCDEC2CF0000160516111D8A44F
:103558001200F88D3CC060F03DC061F0050E636F4D
:10356800A00E626FCDEC2CF0000160516111D8A45F
:103578001200F88F000ED96F000ED86F000E3D6E46
:10358800000E3C6E1200010E00017A6FF40E796F86
:10359800000E7B6F7EEC30F0F50E0001726F7D0E31
:1035A800736F72517311D8A4000E746F000E756F8B
:1035B800000E766F14EC29F081A202D081B011D0F0
:1035C8007D0E0001726F7E0E736F72517311D8A455
:1035D800000E746F000E756F030E766F14EC29F0F1
:1035E80047D01C0E0001726F7E0E736F72517311FB
:1035F800D8A4000E746F000E756F010E766F14EC70
:1036080029F036D081B213D0020E726F7E0E736F1E
:1036180072517311D8A4000E746F000E756F020EEC
:10362800766F14EC29F000017B51080F7B6F81B095
:1036380013D00F0E726F7E0E736F72517311D8A470
:10364800000E746F000E756F030E766F14EC29F080
:1036580000017B51800F7B6F880E7B19D8B4120054
:103668009C0E0001786FD70EE82EFED7782FFCD776
:1036780000017907D8A07A077929C4E17A29D8B452
:103688001200C0D7D8EC28F07EEC30F0590E0001BB
:10369800726F7F0E736F72517311D8A4000E746F1E
:1036A800000E756F000E766F14EC29F0720E000193
:1036B800726F7F0E736F72517311D8A4000E746FFE
:1036C800000E756F010E766F14EC29F06A0E00017A
:1036D800726F7F0E736F72517311D8A4000E746FDE
:1036E800000E756F020E766F14EC29F00E0E0001B5
:1036F800626F020E636F430E94EC27F031EC2DF0ED
:1037080063C072F064C073F099EC28F072C0DAF00C
:1037180073C0DBF00001DA513BEC1CF00001AC6F28
:10372800AC51DA6FDB6B0A0E786F020E796FDA51E3
:10373800F0EC23F000F0C80E0001726F7A0E736F80
:1037480072517311D8A4000E746F0A0E756F010EB2
:10375800766F14EC29F034EC2CF000016EC072F096
:103768006FC073F072517311D8A4200E746F0A0ED3
:10377800756F010E766F14EC29F012006098000145
:10378800C7BF38D0BFAF0BD0020E4A6E4150D8B475
:103798009DEC25F0000E436E000E446E120020EEE4
:1037A80001F03450D9263550DA22080EDF6E20EEAB
:1037B80002F03450D9263550DA22300EDE6E040E6F
:1037C800DD6E34C0D9FF35C0DAFF0C0EDF6E34C0B1
:1037D800D9FF35C0DAFF000EDB8ECAC0D9FFCBC0D7
:1037E800DAFF040EDF6ECAC0D9FFCBC0DAFF000EC5
:1037F800DB8E1200040130AF10D0010E4A6E425029
:10380800D8B49DEC25F0000E436E000E446E455072
:10381800D8A4120059EC21F01200020E4A6E20EED4
:1038280001F03450D9263550DA22080EDF6E20EE2A
:1038380002F03450D9263550DA22300EDE6E040EEE
:10384800DD6E34C0D9FF35C0DAFF040EDF6E34C038
:10385800D9FF35C0DAFF000EDB8E000E436E000E76
:10386800446E4550D8A4120059EC21F01200000112
:10387800A66FCD0E0001786FCC0E796F4C0E7A6F63
:10388800400E7B6FA651606F616B626B636B000EBD
:103898005DEC15F060C074F061C075F062C076F040
:1038A80063C077F0B4EC0CF074C08DF075C08EF086
:1038B80076C08FF077C090F0000E0001916F000E77
:1038C800926F800E936F440E946FFCEC0FF08DC0D6
:1038D800A8F08EC0A9F08FC0AAF090C0ABF0000E7F
:1038E8000001646F000E656F000E666FBF0E676F94
:1038F800A8C060F0A9C061F0AAC062F0ABC063F0D4
:103908005DEC0EF060C074F061C075F062C076F0D6
:1039180063C077F0000E0001786F000E796FC80E53
:103928007A6F420E7B6FB4EC0CF074C0A8F075C0CF
:10393800A9F076C0AAF077C0ABF0A8C060F0A9C023
:1039480061F0AAC062F0ABC063F076EC1EF0000133
:103958006051A76FA75112000001646FFA0E0001B1
:10396800636F580EE82EFED7632FFCD700F0FA0ECF
:103978000001636F580EE82EFED7632FFCD700F0C6
:10398800FA0E0001636F580EE82EFED7632FFCD79E
:1039980000F000016451D8B429D0230E616F7A0E6B
:1039A800626F5BEC2EF0FA0E0001636F580EE82E82
:1039B800FED7632FFCD700F0FA0E0001636F580E94
:1039C800E82EFED7632FFCD700F0FA0E0001636FD4
:1039D800580EE82EFED7632FFCD700F03D0E0001ED
:1039E800616F7A0E626F5BEC2EF01200EF0E000131
:1039F800616F790E626F5BEC2EF0FA0E0001636F57
:103A0800580EE82EFED7632FFCD700F0FA0E0001FF
:103A1800636F580EE82EFED7632FFCD700F0FA0E1E
:103A28000001636F580EE82EFED7632FFCD700F015
:103A3800090E0001616F7A0E626F5BEC2EF01200C6
:103A480004013039E832030B0009D8A4120047D02A
:103A58000001C78F080EEB6F1200AAEC16F01200D7
:103A680095EC1DF012005A0E0001C46F000EC56FD0
:103A7800C781010EC86FC78F1200F7EC24F012003F
:103A88008EEC12F0120004013451010D570EF3248C
:103A98000001C46F000EF420C56FC781010EC86F06
:103AA800C78F12000001C78F04013451010D570E52
:103AB800F324D96E000EF420DA6E32C4DFFF120050
:103AC800000E0F6E020E0E6E000E106E000E116EBE
:103AD800000E136E000E126E2DEC2BF01200040176
:103AE8003151000AD8B4C9D7010AD8B4C9D7020AD3
:103AF800D8B4C6D7060AD8B4ABD7030AD8B4ADD75A
:103B0800010AD8B4DDD70F0AD8B4ADD7010AD8B4A2
:103B1800A7D7030AD8B4B7D7010AD8B4C3D7070AB6
:103B280012000001C78F6B0E016E0F0E026E000EA1
:103B3800046E000E036E000E066E020E056E80EC1B
:103B48002FF0000E016E040E026E000E046E000EC1
:103B5800036E000E066E300E056E80EC2FF0608C42
:103B6800000E166E020E166401D016D01650010D06
:103B7800D30EF324D96E000EF420DA6E000EDF6E39
:103B88001650010DD00EF324D96E000EF420DA6E13
:103B9800000EDF6E162AE6D7570E016E000E026E73
:103BA800000E046E000E036E000E066E020E056E09
:103BB80080EC2FF0609C080E0001CA6F040ECB6FDA
:103BC800000E366E040E376E36C034F037C035F04E
:103BD80032C45AF05A50D8A403D0100EEB6F12001A
:103BE800000E0F6E010E0E6E5A0E106E000E116E44
:103BF800000E136E010E126E2DEC2BF0200E00013C
:103C0800EB6F12001F0E0001EB65120060B212008C
:103C1800E751D8A411D0800E676F020E686F400E6E
:103C2800696F39EC23F00001E66FE651D8B404D08F
:103C3800010EE76F000EE56FE751D8A4ACA213D0D0
:103C4800E551010D800EF324D96E020EF420DA6ED0
:103C5800DF5070EC2DF00001E52BE651E519D8A4F2
:103C680002D0000EE76FF551D8B425D067EC31F0DB
:103C78000009D8B420D03F0E0001E8611CD000F044
:103C8800EAEC2DF000016D6FE851010D800EF32470
:103C9800D96E020EF420DA6E6DC0DFFFE82BE85112
:103CA800010D800EF324D96E020EF420DA6E000E98
:103CB800DF6E000EE96F0001EA51D8A410D0E85178
:103CC800D8B40DD0800E606F020E616FE8C062F04C
:103CD8000EEC30F058EC31F0000E0001E86F07EC04
:103CE80016F01200000162356335696F6951D8A476
:103CF80009D0000E606F000E616F000E626F000E3B
:103D0800636F120060C064F061C065F062C066F065
:103D180063C067F0200E05D0D890673366336533EB
:103D28006433E82EF9D76451686F628FFF0E60170D
:103D3800FF0E6117FF0E6217000E6317960E695F7C
:103D480069AF16D06951800A970FD8B009D0000E14
:103D5800606F000E616F000E626F000E636F1200DD
:103D6800D8906333623361336033693FF9D715D034
:103D78001F0E69650FD0000E606F000E616F000E98
:103D8800626F000E636F1200D89060376137623738
:103D9800633769076951D8A4F7D76851D8B408D0F0
:103DA800631F621F611F606D000E6123622363231E
:103DB80060C060F061C061F062C062F063C063F02F
:103DC8001200CAC0D9FFCBC0DAFF0001000EDFBC69
:103DD800010E126E040ECA1B080EEB19D8A40CD0E3
:103DE800040132517F0B636E6350D8B402D0100EB9
:103DF80001D0040E0001EB6F4A04D8A43AD020EE9B
:103E080002F0CA51D926CB51DA22380EDE6E040EE2
:103E1800DD6EBDEC1FF0020E4B18D8A40DD0CAC041
:103E2800D9FFCBC0DAFF040EDF6ECAC0D9FFCBC002
:103E3800DAFF000EDB8E12001250D8A40DD0CAC0D3
:103E4800D9FFCBC0DAFF480EDF6ECAC0D9FFCBC09E
:103E5800DAFF000EDB8E1200CAC0D9FFCBC0DAFF32
:103E6800080EDF6ECAC0D9FFCBC0DAFF000EDB8EAA
:103E78001200BFAF11D0C251C311D8B40BD001D8B2
:103E880009D00500FA6EC251FD6EC351FE6EFF6A7D
:103E9800FA5012000001BF9F000E4A6E1200000E79
:103EA80000016E6F81A0FED7E8EC2FF0010E50ECF8
:103EB80031F0C290F29EF29EF29C8D94A0920F0176
:103EC8005B81A08CF086F2888784000E81B2010E97
:103ED80000016E6F000E81B0010E6E6F000E82B48D
:103EE800010E6E6FFA51D8A4D180F292F090A19C85
:103EF80000F0030000F0D190EFEC2CF0F096F2986F
:103F08008794A09CF28EE1EC2BF0F2A2F0B002D0E4
:103F1800A1AC11D0F292F090010E00016E6F000E6C
:103F280050EC31F0DAEC2EF08D84FB0EB36E500EAF
:103F3800B26EA08207D00A0E0001EF6F000E6E6FFE
:103F48008D94A0920F015B9152EC27F0000E0001B6
:103F5800616F280E606FA8EC2EF052EC27F0000E6F
:103F68000001616F280E606FA8EC2EF000016E5101
:103F78001200080E016E0001C95110E1080EC85D5B
:103F8800D8B00CD0C8C001F04B50D8A402D0010E54
:103F980004D04B04D8A402D0020E4B6E0150C85F67
:103FA800000EC95B20EE01F0CA51D926CB51DA22A6
:103FB80001C0DFFF380E0101546F040E556F000178
:103FC800C7A11DD03CD0C4C0F6FFC5C0F7FFF86A32
:103FD80054C1D9FF55C1DAFF070EF76403D00800B2
:103FE800F55005D0F6CFE9FFF7CFEAFFEF50DF6EC7
:103FF8000001C44BC52B0101544B552B0106015040
:10400800D8B41200E0D7C4C0F6FFC5C0F7FFF86AFD
:1040180054C1D9FF55C1DAFF070EF76403D0080071
:10402800F55005D0F6CFE9FFF7CFEAFFEF50DF6E86
:104038000001C44BC52B0101544B552B01060150FF
:10404800D8B41200E0D74DD0FFD77EEC30F0110E77
:104058000001726F7F0E736F72517311D8A4000E36
:10406800746F010E756F000E766F14EC29F0620EF6
:104078000001726F7F0E736F72517311D8A4000E16
:10408800746F020E756F010E766F14EC29F0290E0D
:104098000001726F7E0E736F72517311D8A4000EF7
:1040A800746F000E756F020E766F14EC29F0010E16
:1040B80006D0200E0001EB6101D01ED0020E516E19
:1040C8001BD006EC1EF0030E0001786F63EC2AF09B
:1040D8000001786F030E7819D8B40ED0020EF96F6C
:1040E8000BD05150000AD8B4B0D7010AD8B4E1D7E0
:1040F800030AD8B4E6D7A8D780A004D00001F951A4
:10410800D8B4EFD700F0020E0001F919D8B41200A4
:10411800000EF96F12002D0E466E59C01CF0FD0EF0
:104128001C16D8A457D059C01CF0D8901C323F0E8A
:104138001C161C50040D000EF324366E040EF420D9
:10414800376E36C034F037C035F0040E341A36C036
:10415800D9FF37C0DAFFDF30E8320F0B0D0AD8A4D9
:1041680036D0000E1E6E070E1E6401D023D020EE3E
:1041780002F03650D9263750DA22DECF1CF0DDCFD8
:104188001DF01CC0D9FF1DC0DAFF1E50010D300EF6
:10419800F324E16E040EF420E26EDFCFE7FF20EE99
:1041A80002F03650D9263750DA22DE2A000EDD22F8
:1041B8001E2AD9D720EE02F03650D9263750DA22F7
:1041C800300EDE6E040EDD6ED6EC27F012005BECCE
:1041D8002BF012005950FD0B040AD8A41200E5EC8C
:1041E8001EF012007EEC30F03E0E0001726F7F0E62
:1041F800736F72517311D8A4000E746F000E756F2F
:10420800000E766F14EC29F08B0E0001726F7D0E94
:10421800736F72517311D8A4000E746F000E756F0E
:10422800060E766F14EC29F0980E0001726F7D0E61
:10423800736F72517311D8A4000E746F000E756FEE
:10424800080E766F14EC29F0C40E0001726F7C0E14
:10425800736F72517311D8A4000E746F000E756FCE
:10426800010E766F14EC29F0710E0001726F7E0E4C
:10427800736F72517311D8A4000E746F000E756FAE
:10428800020E766F14EC29F0470E0001726F7F0E54
:10429800736F72517311D8A4000E746F000E756F8E
:1042A800030E766F14EC29F012004450D8A41200C3
:1042B800010E446E4350D8A41200010E436E020E44
:1042C8004A18D8A416D0000120EE01F0CA51D92608
:1042D800CB51DA22000EDF6ECAC0D9FFCBC0DAFF9D
:1042E800480EDF6ECAC0D9FFCBC0DAFF000EDB8EE6
:1042F80012004A04D8A41200000E476E20EE01F006
:104308003650D9263750DA22080EDF6E20EE02F03A
:104318003650D9263750DA22300EDE6E040EDD6EA6
:1043280036C0D9FF37C0DAFF040EDF6E36C0D9FFBA
:1043380037C0DAFF000EDB8E010E476E20EE01F06B
:104348003450D9263550DA22080EDF6E20EE02F0FE
:104358003450D9263550DA22300EDE6E040EDD6E6A
:1043680034C0D9FF35C0DAFF800EDF6E12000CD0E2
:1043780061C0F6FF62C0F7FFF86A0800F55070ECFC
:104388002DF00001614B622B61C0F6FF62C0F7FFA0
:10439800F86A0800F5500009D8A4EAD7000E000111
:1043A800676F020E676501D00ED06751010DF3509B
:1043B8006325D96EF4506421DA6EDF5070EC2DF06D
:1043C8000001672BEED720EE03F06351D926645124
:1043D800DA22DF5070EC2DF0040E0001686F21D056
:1043E8006851010DF3506325D96EF4506421DA6EDB
:1043F800DF50666F66390F0B52EC2FF070EC2DF022
:1044080000016851010DF3506325D96EF450642101
:10441800DA6EDF500F0B52EC2FF070EC2DF000012C
:10442800682B6551685DD8A0DBD71EEC31F012000F
:104438006E0E4BEC31F080BE03D0026A022A01D026
:10444800026A02320232805002187F0B0218806E14
:104458003FD0150E4D18D8A404D079EC31F083EC78
:1044680031F0160E4D6042D04D2A40D05BC002F0AC
:10447800010E036E022A02D0D8900336022EFCD712
:104488000350056E81AE05D005504E1201015E2B1A
:1044980003D00550FF0A4E165B2A080E5B18D8A4F5
:1044A80025D001D08150030E4F6E20D04E508FEC96
:1044B8002DF0000E4F6E000E4BEC31F081CF04F062
:1044C800F290F28613D0000E4F6E160E4D6E0ED07F
:1044D8004F50000AD8B4BDD7010AD8B4C7D7030AC9
:1044E800D8B4E0D7010AD8B4E1D7EDD77DEC31F0E4
:1044F80012000001646F00016051D8B407D0645104
:10450800020DCA0EF324D96E000E06D06451020DB6
:10451800400EF324D96E010EF420DA6EDECF65F07A
:10452800DDCF66F065516611D8A405D0000E606F26
:10453800000E616F120020EE02F06551D926665117
:10454800DA2261C0DEFF62C0DDFF20EE01F06551B6
:10455800D9266651DA2263C0DFFF65C0D9FF66C07D
:10456800DAFF400EDF1665C0D9FF66C0DAFF000E1D
:10457800DB8665C0D9FF66C0DAFF000EDB8E6051AE
:10458800D8B407D06451020DCA0EF324D96E000EB8
:1045980006D06451020D400EF324D96E010EF420AA
:1045A800DA6E040EDF1A65C060F066C061F01200B2
:1045B800056E0150D8B407D00550020DCA0EF32479
:1045C800D96E000E06D00550020D400EF324D96EA8
:1045D800010EF420DA6EDECF06F0DDCF07F00650CC
:1045E8000710D8A405D0000E016E000E026E12004E
:1045F80020EE02F00650D9260750DA2202C0DEFF6C
:1046080003C0DDFF20EE01F00650D9260750DA225C
:1046180004C0DFFF06C0D9FF07C0DAFF400EDF166F
:1046280006C0D9FF07C0DAFF000EDB8606C0D9FF37
:1046380007C0DAFF000EDB8E0150D8B407D0055052
:10464800020DCA0EF324D96E000E06D00550020DD5
:10465800400EF324D96E010EF420DA6E040EDF1A30
:1046680006C001F007C002F01200000E0001DD6F65
:10467800D651D711D8B40FD0D6C0D9FFD7C0DAFFDA
:10468800DFAE03D06A6B6A2B02D000016A6B6A51F5
:104698006B6F6C6B04D0000E6C6F000E6B6F6B5100
:1046A8006C11D8A43BD020EE01F0D651D926D751B1
:1046B800DA226951DE5CD8B008D020EE01F0D6517C
:1046C800D926D751DA22DF50696F000EDD6F13D07B
:1046D800DD51010D400EF324D96E050EF420DA6E7B
:1046E800DD51010DF3506725E16EF4506821E26E4B
:1046F800DFCFE7FFDD2B6951DD5DD8A0E9D7000EDC
:10470800606F400E616F050E626F400E636F020EA0
:104718007DEC22F060C0D6F061C0D7F00001DD5119
:1047280012000001696F00016651676F686B020E25
:104738006727000E6823C70E6725D96E010E68210A
:10474800DA6E69C060F0616B000E636F0A0E626F0B
:10475800C0EC29F000016051300FDF6E0A0E606F67
:10476800695151EC2DF00001696F6651676F686BF4
:10477800010E6727000E6823C70E6725D96E010E44
:104788006821DA6E69C060F0616B000E636F0A0E13
:10479800626FC0EC29F000016051300FDF6E0A0E25
:1047A800606F695151EC2DF00001696F6651010D80
:1047B800C70EF324D96E010EF420DA6E69C060F0DA
:1047C800616B000E636F0A0E626FC0EC29F0000186
:1047D8006051300FDF6E12000001816F000E000182
:1047E8007A6F81AF02D0010E7A6F81517F0B816F92
:1047F80081C060F0616B000E636F0A0E626FC0ECDF
:1048080029F000016051300F7D6F0A0E606F8151F1
:1048180051EC2DF00001816F81C060F0616B000EDA
:10482800636F0A0E626FC0EC29F000016051300F0F
:104838007C6F0A0E606F815151EC2DF00001816F81
:1048480081C060F0616B000E636F0A0E626FC0EC8E
:1048580029F000016051300F7B6F7A51D8B402D033
:104868002D0E7B6F000E7E6F7B0E726F000E736FC6
:1048780072517311D8A4200E746F78C075F079C086
:1048880076F014EC29F01200040130511F0BE806F1
:10489800D8A412003039E832030BE806D8A4120075
:1048A8003451D8B437D03405D8A4120033D0E10E2F
:1048B8000001C46F010EC56F000EC96F080EC86FE6
:1048C800C781C78F1200E10E0001C46F010EC56FCA
:1048D800C78F120036C4C0F037C4C1F0D70E00012C
:1048E800BC6F010EBD6F120EC26F570EC36FBF8F24
:1048F8001200E90E0001C46F010EC56F000EC96FEA
:10490800070EC86FC10EC76F120032C45CF10001F8
:10491800C78F120004013151000AD8B4C8D7010A60
:10492800D8B4D1D7210AD8B4D5D7010AD8B4E1D799
:10493800030AD8A41200E9D7000E0001696F63AF1B
:104948000AD0631F621F611F606D000E612362231E
:104958006323010E696F67AF08D0671F661F651F65
:10496800646D000E65236623672364516511661123
:104978006711D8B424D0010E686F06D0D890643778
:10498800653766376737682B67AFF8D76451605D5E
:10499800655161596651625967516359D8A008D069
:1049A8006451605F6551615B6651625B6751635B2F
:1049B800D8906733663365336433682FE7D7695116
:1049C800D8B408D0631F621F611F606D000E612399
:1049D8006223632360C060F061C061F062C062F06E
:1049E80063C063F01200000E0401386F000E396FC7
:1049F80038D00001C78F4904D8A43ED004013883B9
:104A08003BD00001C78F38D00001C78F040134BFE5
:104A18000AD034510F0B016E0150020D400EF324E1
:104A2800D96E010E09D034510F0B016E0150020DE1
:104A3800CA0EF324D96E000EF420DA6EDECF02F02F
:104A4800DDCF03F002C0D9FF03C0DAFFDFAE14D018
:104A580002C0D9FF03C0DAFFDFA40ED0010E386F01
:104A68000BD030511F0B000AD8B4C3D7010AD8B4F1
:104A7800C8D7030AD8B4C8D70001C7AF1200380E88
:104A8800C46F040EC56FC781020EC86F1200020EF4
:104A9800F66E630EF76E000EF86E0900F5CFFDF1A5
:104AA8000900F5CFFEF10900F5CFFFF1C00EF66E53
:104AB800620EF76E000EF86E00EEF9F010EE07F0D9
:104AC8000900F5CFEEFFE550E150FAE1080EF66E69
:104AD800630EF76E000EF86E0900F5CF5DF006EE76
:104AE80000F0C80EEE6AE806FDE103EE00F0C80E1D
:104AF800EE6AE806FDE102EE00F0C00EEE6AE80696
:104B0800FDE101EE00F0FD0EEE6AE806FDE100EEC3
:104B1800BCF03D0EEE6AE806FDE15C6A00EE32F09C
:104B28002A0EEE6AE806FDE15E905E92000147EF0C
:104B380017F0000E426E000E416E020E4A18D8A4FD
:104B48001FD020EE01F03450D9263550DA22080E55
:104B5800DF6E20EE02F03450D9263550DA22380EB6
:104B6800DE6E040EDD6E34C0D9FF35C0DAFF480EA4
:104B7800DF6E34C0D9FF35C0DAFF000EDB8E1200BD
:104B88000001C8510401365D0001C95104013759BB
:104B9800D8B004D036C4C8F037C4C9F0BDEC1FF093
:104BA800000120EE02F0CA51D926CB51DA22380E84
:104BB800DE6E040EDD6ECAC0D9FFCBC0DAFF480E28
:104BC800DF6ECAC0D9FFCBC0DAFF000EDB8E120041
:104BD80000017A6F7AC060F00001616B000E636FAC
:104BE8000A0E626FC0EC29F000016051300F7D6F32
:104BF8000A0E606F7A5151EC2DF000017A6F7AC07D
:104C080060F0616B000E636F0A0E626FC0EC29F0F2
:104C180000016051300F7C6F0A0E606F7A5151ECC1
:104C28002DF000017A6F7AC060F0616B000E636F3F
:104C38000A0E626FC0EC29F000016051300F7B6FE3
:104C4800000E7E6F7B0E726F000E736F72517311C0
:104C5800D8A4200E746F78C075F079C076F014EC83
:104C680029F01200066E000E076E040E086E015041
:104C7800026E036AD890023603360650046E056A3F
:104C8800D89004360536D8900436053602500426E6
:104C980003500522D89004360536D89004360536D8
:104CA800045007260550082207C0D9FF08C0DAFFBC
:104CB800DF9E0150D8A407D00650020D400EF32401
:104CC800D96E010E06D00650020DCA0EF324D96E15
:104CD800000EF420DA6E07C0DEFF08C0DDFF07C053
:104CE800D9FF08C0DAFFDF9C20EE04F00750D92670
:104CF8000850DA22DF8C1200000E0001606F020EED
:104D0800606501D00CD06051010DFA0EF324D96E04
:104D1800010EF420DA6E000EDF6E602BF0D7000E65
:104D2800616F210E616501D00CD06151010D300E0B
:104D3800F324D96E010EF420DA6E000EDF6E612BBB
:104D4800F0D7000E626F1F0E626501D00CD0625161
:104D5800010DA70EF324D96E010EF420DA6E000EB1
:104D6800DF6E622BF0D7000E636F0F0E636501D004
:104D780012006351010DC70EF324D96E010EF42001
:104D8800DA6E000EDF6E632BF0D737D060C0D9FF24
:104D980061C0DAFFDF50D8B411D060C0D9FF61C05C
:104DA800DAFFDF500001666F62C0F6FF63C0F7FFED
:104DB800F86A0800F5506619D8B41BD062C0F6FF2F
:104DC80063C0F7FFF86A0800F5500001666F676B6B
:104DD800661F671F664B672B60C0D9FF61C0DAFF8B
:104DE800DF50686F68516625606F000E6721616F3C
:104DF8001200604B612B624B632B00016407D8A043
:104E080065076429C3E16529D8A4C0D7000E616F7E
:104E1800000E606F1200000E0001656F63AF06D0D0
:104E2800626D631FD8B0632B010E656F61AF06D04A
:104E3800606D611FD8B0612B010E651B000E676F96
:104E4800000E666F62516311D8B41CD0010E646FF6
:104E580004D0D89062376337642B63AFFAD7D89001
:104E6800663767376251605D63516159D8A005D0D4
:104E78006251605F6351615B6681D89063336233CE
:104E8800642FEDD76551D8B404D0666D671FD8B0CC
:104E9800672B66C060F067C061F01200000E000169
:104EA800676F000E666F000E656FAC9A8B9C000EE4
:104EB800616F0A0E606FA8EC2EF0AC8A000E00013C
:104EC800616F050E606FA8EC2EF0550EAD6EACA2AA
:104ED800FED7FD0E0001616F7F0E626F5BEC2EF056
:104EE800000E0001616F280E606FA8EC2EF013D041
:104EF80098EC2AF00009D8B403D0010E00010AD0BA
:104F08000001654B662B890E655D130E6659D8A0A6
:104F180002D0010E676F00016751D8B41200E8D7BC
:104F280000016A6F00016351D8EC30F00001625152
:104F3800080DF350040F70EC30F0000E00016B6F99
:104F4800070E6B6501D012006B51010D000E646FE6
:104F5800FF0E656F6A51666F676BD8906637673763
:104F6800D89066376737D8906637673764516627B1
:104F780065516723FDC168F0FEC169F06651682775
:104F880067516923F3506827F450692368C0F6FF16
:104F980069C0F7FFF86A0800F55098EC30F0000196
:104FA8006B2BCED7000E4B6E000E456E000E426E78
:104FB800000E416E000E476E000E4A6ECAC0D9FF41
:104FC800CBC0DAFF7F0EDF16040E0001CA1BCAC071
:104FD800D9FFCBC0DAFF7F0EDF16040ECA1B34C020
:104FE800D9FF35C0DAFF7F0EDF16000EC76F000E3F
:104FF800C96F000EC86F000EBF6F000EC16F000EA4
:10500800C06F24EC1DF0000E0F6E030E0E6E000E26
:10501800106E000E116E000E136E000E126E2DEC47
:105028002BF0C2EC1BF01200000E096E000E0A6E87
:10503800000E0B6E000E0C6E0550061007100810BF
:10504800D8B42AD0010E0D6E06D0D8900536063693
:10505800073608360D2A08AEF8D7D89009360A362A
:105068000B360C360550015C0650025807500358A1
:1050780008500458D8A009D00550015E0650025ABD
:105088000750035A0850045A0980D890083207324A
:10509800063205320D2EE1D709C001F00AC002F030
:1050A8000BC003F00CC004F01200E20EA3EC30F0C9
:1050B8008A84040E0001626F1C0EE82EFED7622F50
:1050C800FCD700F08A94200E0001626F290EE82EAA
:1050D800FED7622FFCD700D08A84100E0001626FC1
:1050E800940EE82EFED7622FFCD700F0A10EA3EC99
:1050F80030F0C00EA3EC30F0A30EA3EC30F0070E96
:1051080006EC31F0050EFEEC30F05D50CEEC30F0E0
:10511800000E0EEC31F0F80EA3EC30F0000EA3EC0C
:1051280030F0AF0EA3EC30F01200000E0001786FE3
:10513800000E776F000E796F030E796501D02FD0BE
:1051480072C0D9FF73C0DAFFDF50D8B428D07951C4
:10515800D8B40ED077C060F078C061F0000E636FED
:105168000A0E626FC0EC2FF060C077F061C078F073
:1051780072C0D9FF73C0DAFFDF500001746F745139
:105188007725756F000E7821766FD00E7525776FAD
:10519800FF0E7621786F724B732B792BCDD777C0A2
:1051A80072F078C073F01200000E0001666F000EF6
:1051B800656FD40E616F790E626F5BEC2EF009D0CB
:1051C8000001654B662B510E655DC30E6659D8B05C
:1051D80005D098EC2AF00009D8B4F2D7000E0001E7
:1051E800666F000E656FB90E616F790E626F5BECCA
:1051F8002EF009D00001654B662B510E655DC30E7C
:105208006659D8B005D098EC2AF00009D8B4F2D77E
:10521800000E0001616F640E606FA8EC2EF01200A2
:1052280075C077F00F0E0001776501D0120072C0CB
:10523800F6FF73C0F7FF74C0F8FFF8BA03D0080090
:10524800F55005D0F6CFE9FFF7CFEAFFEF50000998
:10525800D8B4120077C062F076C063F072C0F6FF6F
:1052680073C0F7FF74C0F8FFF8BA03D00800F55010
:1052780005D0F6CFE9FFF7CFEAFFEF5094EC27F01F
:105288000001010E7227000E7323000E7423772B82
:105298000F0ECAD7F6EC20F0000E0001616F140E55
:1052A800606FA8EC2EF0C7EC1AF07EEC30F0000E20
:1052B8000001616F140E606FA8EC2EF087EC29F0E6
:1052C800000E0001616F140E606FA8EC2EF0F9EC6F
:1052D80029F0000E0001616F140E606FA8EC2EF02B
:1052E800EFEC2CF0000E0001616F140E606FA8EC5B
:1052F8002EF046EC1BF00B0E0001616FB80E606FCC
:10530800A8EC2EF01200C00E0001726F7E0E736FB3
:1053180072517311D8A4000E746F000E756F000ED1
:10532800766F14EC29F0010EB0EC1CF0010E0001B0
:10533800616FF40E606F8FEC2EF0000EB0EC1CF075
:10534800010E0001616FF40E606F8FEC2EF0010EFC
:10535800B0EC1CF0010E0001616FF40E606F8FEC71
:105368002EF0000EB0EC1CF0010E0001616FF40E7F
:10537800606F8FEC2EF01200000E0001656F61AFB8
:1053880006D0606D611FD8B0612B010E656F63AFE9
:1053980004D0626D631FD8B0632B62516311D8B417
:1053A80018D0010E646F04D0D89062376337642B2D
:1053B80063AFFAD76251605D63516159D8A004D0D8
:1053C8006251605F6351615BD89063336233642FCD
:1053D800F1D76551D8B404D0606D611FD8B0612B86
:1053E80060C060F061C061F01200070E0001726FCA
:1053F8007F0E736F72517311D8A4000E746F000E74
:10540800756F010E766F14EC29F0898C898E010E68
:105418000001616FF40E606F8FEC2EF0899C899EFD
:10542800010E0001616FF40E606F8FEC2EF0898C15
:10543800898E010E0001616FF40E606F8FEC2EF003
:10544800899C899E010E0001616FF40E606F8FECDC
:105458002EF01200F50E0001606F010E616FF00E64
:10546800626F010E636F000E656F050E646FA9EC25
:105478002CF0F50E0001606F010E616F6BC062F0D9
:105488006CC063F0000E656F050E646FA9EC2CF01C
:10549800000E00016D6F040E6D6501D00ED06D51C8
:1054A800010DF50EF324D96E010EF420DA6EDF50EB
:1054B800D8B46DC052F06D2BEED700F01200000E7C
:1054C8000001606F81A202D081B018D0010E0101E5
:1054D8004A27000E4B234C234D23370E4A194B11F4
:1054E8004C114D11D8A408D0000E506E81B202D0D4
:1054F800010E16D0020E14D0000E12D0140E501841
:10550800D8A40CD0000E01014A6F000E4B6F000E9C
:105518004C6F000E4D6F000E506E01D0502A030ED6
:105528000001606F60511200000E0001616FF551BB
:10553800D8B42BD0000E626FEAEC2DF00001626F38
:105548000D0E6219D8A40FD0F151010D670EF32486
:10555800D96E010EF420DA6E000EDF6E010E616F57
:10556800000EF16F12D06251D8B40FD00A0E621932
:10557800D8B40BD0F151010D670EF324D96E010E8A
:10558800F420DA6E62C0DFFFF12B61511200000EC9
:105598000101E96F4B0EEA6F000EEB6F000EEC6F26
:1055A800000EED6F000EEE6F080EEF6F000E00019B
:1055B800DD6F1A0E096E010ECCEC2DF01E0E096E71
:1055C800020ECCEC2DF0000E016E400E026E050EA0
:1055D800036E400E046E020EDCEC22F001C0D6F021
:1055E80002C0D7F0000E326E000E336E000E0001BE
:1055F800EA6F1200000E0001756F050E756501D087
:1056080026D072C0D9FF73C0DAFFDF50D8B412D0E9
:1056180072C0D9FF73C0DAFF7451010DC70EF324AD
:10562800E16E010EF420E26EDFCFE7FF724B732BC1
:10563800742B0BD07451010DC70EF324D96E010ED3
:10564800F420DA6E200EDF6E02D0752BD6D7755196
:10565800120006D0B6EC2BF0120048EC24F0120031
:105668000EC014F00FC015F01550000AD8B404D0BD
:105678007F0AD8A4120018D01450010AD8B4EAD767
:10568800030AD8B41200010AD8B4E7D7060AD8B476
:105698001200770AD8B41200010AD8B41200070A17
:1056A800D8B41200010A12001450FF0A1200020EA8
:1056B8004A18D8A403D0AAEC19F01200000E4A6EBA
:1056C8004750D8A41FD020EE01F03450D9263550C9
:1056D800DA22080EDF6E20EE02F03450D92635505B
:1056E800DA22300EDE6E040EDD6E34C0D9FF35C00E
:1056F800DAFF0C0EDF6E34C0D9FF35C0DAFF000EBA
:10570800DB8E1200000E476E1200D7C1E9F1D8C136
:10571800EAF1D9C1EBF1DAC1ECF1000E016E1B0E12
:10572800026EB70E036E000E046EE9C105F0EAC101
:1057380006F0EBC107F0ECC108F018EC28F0FF0EFA
:1057480001240E6EFF0E02200F6EFF0E0320106E56
:10575800FF0E0420116E0EC0AFFF0FC0B0FF3FEC6C
:105768002EF01200CBEC2AF0000E0101ED6F080EAE
:10577800EF6F000EEE6F000EE96F4B0EEA6F000E32
:10578800EB6F000EEC6F3FEC2EF0000E0D6E3F0E2F
:105798000D6401D00CD00D50010D800EF324D96E8C
:1057A800020EF420DA6E000EDF6E0D2AF0D7000E1E
:1057B8000001E86F000EE66F1200928092829284D8
:1057C80092868D949694929A929C929EF19E868E41
:1057D800F28693829380938E939493969398939A58
:1057E800949094929484949C948E000E956E9694C2
:1057F800899A899C899E8A948B948B9C8D840F01AD
:105808005B915B835B855B875D9F5D9D1200000EEE
:105818000001706F6CC0D9FF6DC0DAFFDF50D8B4DB
:10582800120070C060F0616B000E636F100E626F43
:105838000FEC27F0000160516F6F70510F0B6E6F06
:105848006EC062F06FC063F06CC0D9FF6DC0DAFF44
:10585800DF5094EC27F000016C4B6D2B702BDAD7DE
:10586800000E0001716F000E706F6D0E616F7A0E81
:10587800626F5BEC2EF009D00001704B712B510E5A
:10588800705DC30E7159D8B005D098EC2AF00009A4
:10589800D8B4F2D7670E00016B6F010E6C6F2EEC57
:1058A8002AF0670E00016E6F010E6F6F120005D0AF
:1058B8000001604B612B624B632B60C0D9FF61C054
:1058C800DAFFDF500001646F62C0F6FF63C0F7FFC4
:1058D800F86A0800F55000086425656F6551D8A47A
:1058E80007D060C0D9FF61C0DAFFDF50D8A4E0D785
:1058F8006551606F616B60BF610712004F50D8B48B
:1059080081BE20D080BE03D0026A022A01D0026A7A
:1059180002320232805002187F0B0218806EF29613
:105928007DEC31F05F0E4BEC31F07BEC31F0000E8A
:105938004D6E000E5B6E000E01015E6F000E4E6E26
:10594800010E4F6E31EC31F0120062C068F063C096
:1059580069F060C066F061C067F011D068C0D9FF17
:1059680069C0DAFFDF5000016A6F684B692B66C0B7
:10597800D9FF67C0DAFF6AC0DFFF664B672B0001FB
:105988006407D8A065076429E9E16529D8B412003D
:10599800E5D7000162516311D8B418D0010E646FC5
:1059A80004D0D89062376337642B63AFFAD762515B
:1059B800605D63516159D8A004D06251605F635142
:1059C800615BD89063336233642FF1D760C060F0B5
:1059D80061C061F01200000E0001606F3F0E60654B
:1059E80001D00CD06051010D000EF324D96E020EC7
:1059F800F420DA6E000EDF6E602BF0D7000EDF6F3A
:105A0800000EDE6F000EF56F9D98000EE26F000E1F
:105A1800E16F400EE06F12006AA01DD036C0D9FFBA
:105A280037C0DAFF800EDE18D8A414D0CAC0D9FF58
:105A3800CBC0DAFF840EDE18D8A40CD036C0D9FF4C
:105A480037C0DAFF0C0EDF6E36C0D9FF37C0DAFF79
:105A5800000EDB8E6A90659A1200000E0001666FD8
:105A6800000E656F570E616F7A0E626F5BEC2EF059
:105A780009D00001654B662B510E655DC30E665952
:105A8800D8B005D098EC2AF00009D8B4F2D7670E40
:105A98000001636F010E646F12000001616F000E58
:105AA8000001636F6051D8B415D0010E626F03D046
:105AB800D8906037622B60AFFBD7D89063376051BE
:105AC800615DD8A003D06051615F6381D890603375
:105AD800622FF3D7635112000001606F0001E0519B
