:040000007FEF00F09E
:100008005F82FACF22F0FBCF23F0E9CF24F0EACFCA
:1000180025F0E1CF26F0E2CF27F0D9CF28F0DACFCC
:1000280029F0F3CF2AF0F4CF2BF0F6CF2CF0F7CF4E
:100038002DF0F8CF2EF0F5CF2FF05FC030F060C074
:1000480031F061C032F062C033F09DB09EA004D0A0
:10005800D4EC30F015EC31F0A0B2A1A203D0C5EC7D
:100068002FF013D09DBA9EAA05D001EC31F09FEC79
:100078002EF00BD09DB89EA803D087EC2EF005D0AB
:10008800A0BCA1AC02D02BEC31F0F2BAF2A405D09E
:1000980023EC31F04DEC1BF008D0F2B6F2A003D0FF
:1000A800CEEC2EF002D0F4EC16F033C062F032C081
:1000B80061F031C060F030C05FF02FC0F5FF2EC096
:1000C800F8FF2DC0F7FF2CC0F6FF2BC0F4FF2AC0A5
:1000D800F3FF29C0DAFF28C0D9FF27C0E2FF26C0F6
:1000E800E1FF25C0EAFF24C0E9FF23C0FBFF22C0CF
:1000F800FAFF5F921100C5EF24F00001B56F000E02
:100108000001B06FAE51D8B499EF09F0FA51D8B4E4
:1001180099EF09F0FD51EF5DD8A0DDD0A5EC25F0F1
:10012800000E01015B6F000E5A6F000E0001DB6FBD
:10013800000EDA6F00F03AEC28F0000E0001B16F03
:10014800DEEC2BF06EC072F06FC073F0BEEC27F0DF
:1001580072C05AF173C05BF1CEEC30F0000160C0A0
:1001680072F061C073F072517311D8A4200E746FCD
:10017800060E756F010E766F76EC28F0CEEC30F037
:1001880060C072F061C073F0040E0001746FD1ECAE
:100198002AF00001B16FB4EC2CF063C072F064C0B7
:1001A80073F0BEEC27F072C0DAF073C0DBF0000128
:1001B800DA51C6EC1BF00001AF6FAF51DA6FDB6BA1
:1001C80009EC31F0050F0001666FDA51C0EC22F03E
:1001D800000E0001EF6FF0EC2FF0310E0001726F8E
:1001E8007C0E736F72517311D8A4000E746F000ED9
:1001F800756F000E766F76EC28F0340E0001726F82
:100208007E0E736F72517311D8A4000E746F000EB6
:10021800756F010E766F76EC28F0720E0001726F22
:100228007D0E736F72517311D8A4000E746F000E97
:10023800756F020E766F76EC28F0CEEC30F0000188
:1002480060C072F061C073F072517311D8A4200EAF
:10025800746F030E756F020E766F76EC28F00B0E36
:100268000001786F020E796FDA511BEC23F0E0EC95
:1002780030F00001F16FF151D8A402D0050E05D07D
:10028800DF0EF16503D0F151CE0FF16F0A0E786FD2
:10029800010E796FF15111EC25F0000E0001666F27
:1002A800F151C0EC22F0200E0101C86F00F02D0EB4
:1002B8000001616F7D0E626FC50E636F010E646F82
:1002C8000C0E656F47EC21F0070E0001F06F080E69
:1002D800F36F99EF09F0FB51D8B407D0EF2B0F0E4D
:1002E800F36F010EAC6F99EF09F0000EEF6F99EF05
:1002F80009F0FFD70001B551D8A403D0AC51D8B448
:100308001200F0EC2FF0210E0001726F7B0E736F5C
:1003180072517311D8A4000E746F000E756F000E21
:10032800766F76EC28F0870E0001726F7B0E736F84
:1003380072517311D8A4000E746F000E756F010E00
:10034800766F76EC28F0830E0001726F7C0E736F67
:1003580072517311D8A4000E746F000E756F030EDE
:10036800766F76EC28F0060E0001F36F1200B55197
:10037800D8B436D0F0EC2FF0100E0001726F7B0E5F
:10038800736F72517311D8A4000E746F000E756FDD
:10039800000E766F76EC28F0FF0E0001726F7A0E71
:1003A800736F72517311D8A4000E746F000E756FBD
:1003B800010E766F76EC28F0830E0001726F7C0ECA
:1003C800736F72517311D8A4000E746F000E756F9D
:1003D800030E766F76EC28F00A0E0001F36F120018
:1003E800AC51D8B41200000EEF6FF0EC2FF0DC0E19
:1003F8000001726F7B0E736F72517311D8A4000ED7
:10040800746F000E756F000E766F76EC28F0650E2F
:100418000001726F7D0E736F72517311D8A4000EB4
:10042800746F000E756F010E766F76EC28F0A90ECA
:100438000001726F7A0E736F72517311D8A4000E97
:10044800746F000E756F030E766F76EC28F0A5ECCE
:1004580025F0E0EC30F00001F16FF151D8A402D0A2
:10046800050E05D0DF0EF16503D0F151CE0FF16F07
:100478000C0E786F010E796FF15111EC25F0000E1A
:100488000001666FF151C0EC22F0200E0101C86F27
:10049800000E5B6F000E5A6F000E0001DB6F000E3E
:1004A800DA6F00F03AEC28F0010E0001616FF40EEB
:1004B800606F0DEC2EF0000E0001B26FDEEC2BF039
:1004C8006EC072F06FC073F0BEEC27F072C05AF1C4
:1004D80073C05BF1DEEC2BF06EC072F06FC073F08E
:1004E800040E0001746FD1EC2AF00001B26F00F025
:1004F80000F0B4EC2CF063C072F064C073F0BEEC92
:1005080027F072C0DAF073C0DBF00001DA51C6ECF4
:100518001BF00001AF6FAF51DA6FDB6B09EC31F004
:10052800050F0001666FDA51C0EC22F000F0070EEB
:100538000001F36F1200B551D8B40CD02D0E616FC5
:100548007D0E626FC50E636F010E646F0C0E656FD2
:1005580047EC21F00001AC51D8B40CD0640E616FA7
:100568007E0E626FC50E636F010E646F0C0E656FB1
:1005780047EC21F00001B551D8A403D0AC51D8B450
:100588001200F0EC2FF04C0E0001726F7E0E736FAC
:1005980072517311D8A4000E746F000E756F000E9F
:1005A800766F76EC28F0400E0001726F7E0E736F46
:1005B80072517311D8A4000E746F000E756F010E7E
:1005C800766F76EC28F00C0E0001786F010E796FCB
:1005D800F15111EC25F0720E0001726F7D0E736FF0
:1005E80072517311D8A4000E746F000E756F020E4D
:1005F800766F76EC28F0CEEC30F0000160C072F037
:1006080061C073F072517311D8A4200E746F030E79
:10061800756F020E766F76EC28F00B0E0001786F7E
:10062800020E796FDA511BEC23F0899C080E000149
:10063800F36F1200AD51D8B41CD1650E606F010E76
:10064800616FF70E626F7F0E636F05EC2CF000018F
:1006580060516111D8A403D0898C080EF36F650E20
:10066800606F010E616FAA0E626F7F0E636F000EDE
:10067800656F060E646FEEEC25F0000160516111A4
:10068800D8A482D0070EB46FB451010D650EF324BF
:10069800D96E010EF420DA6EDF500101F86F000107
:1006A800B42BB451010D650EF324D96E010EF4205C
:1006B800DA6EDF500101F96F0001B42B200E010141
:1006C800F919D8B415D00001B451010D650EF32401
:1006D800D96E010EF420DA6EDF500101FA6F0001C5
:1006E800B42B200E0101FA19D8B402D00001B42BA2
:1006F800000E0001B36F3F0EB36501D023D0B45193
:10070800010D650EF324D96E010EF420DA6EB35193
:10071800010DA50EF324E16E010EF420E26EDFCF89
:10072800E7FFB351010DA50EF324D96E010EF42095
:10073800DA6EDF50D8B402D0B42B02D0400EB36FBB
:10074800B32BD9D7898E899C540E726F7B0E736F29
:1007580072517311D8A4000E746F000E756F020EDB
:10076800766F76EC28F0CC0E0001726F7A0E736FFC
:1007780072517311D8A4000E746F000E756F030EBA
:10078800766F76EC28F06CD0650E0001606F010E74
:10079800616FB10E626F7F0E636F000E656F060E9C
:1007A800646FEEEC25F0000160516111D8A411D0FE
:1007B800899CBA0E726F7B0E736F72517311D8A435
:1007C800000E746F000E756F030E766F76EC28F0CE
:1007D80047D0650E0001606F010E616FA30E626F56
:1007E8007F0E636F000E656F060E646FEEEC25F0EA
:1007F800000160516111D8A410D0960E726F7A0E64
:10080800736F72517311D8A4000E746F000E756F58
:10081800030E766F76EC28F023D0650E0001606F2A
:10082800010E616F9C0E626F7F0E636F000E656F25
:10083800060E646FEEEC25F0000160516111D8A43A
:100848000FD0B30E726F7C0E736F72517311D8A4F0
:10085800000E746F000E756F030E766F76EC28F03D
:10086800FA0E0001AF6F580EE82EFED7AF2FFCD757
:1008780000F00001B551D8A403D0AC51D8B412008F
:10088800F0EC2FF0210E0001726F7B0E736F725126
:100898007311D8A4000E746F000E756F000E766F7A
:1008A80076EC28F0870E0001726F7B0E736F725121
:1008B8007311D8A4000E746F000E756F010E766F59
:1008C80076EC28F0830E0001726F7C0E736F725104
:1008D8007311D8A4000E746F000E756F030E766F37
:1008E80076EC28F0060E0001F36F1200B551D8B46B
:1008F80036D0F0EC2FF0630E0001726F7C0E736F30
:1009080072517311D8A4000E746F000E756F000E2B
:10091800766F76EC28F0530E0001726F7C0E736FC1
:1009280072517311D8A4000E746F000E756F010E0A
:10093800766F76EC28F0830E0001726F7C0E736F71
:1009480072517311D8A4000E746F000E756F030EE8
:10095800766F76EC28F0010E0001F36F1200AC51AF
:10096800D8B41200F0EC2FF0899E420E0001726F8D
:100978007C0E736F72517311D8A4000E746F000E41
:10098800756F000E766F76EC28F0CA0E0001726F54
:100998007E0E736F72517311D8A4000E746F000E1F
:1009A800756F010E766F76EC28F0F80E0001726F05
:1009B800010E736F72517311D8A4200E746F090E53
:1009C800756F010E766F76EC28F0510E0001726F8C
:1009D8007E0E736F72517311D8A4000E746F000EDF
:1009E800756F020E766F76EC28F0A50E0001726F17
:1009F800010E736F72517311D8A4200E746F060E16
:100A0800756F020E766F76EC28F0AF0E0001726FEC
:100A1800010E736F72517311D8A4200E746F000EFB
:100A2800756F030E766F76EC28F00B0E0001F36FEE
:100A38001200B551D8A403D0AC51D8B41200F0ECD0
:100A48002FF0100E0001726F7B0E736F72517311CD
:100A5800D8A4000E746F000E756F000E766F76ECDA
:100A680028F0FF0E0001726F7A0E736F72517311C6
:100A7800D8A4000E746F000E756F010E766F76ECB9
:100A880028F0830E0001726F7C0E736F7251731120
:100A9800D8A4000E746F000E756F030E766F76EC97
:100AA80028F00A0E0001F36F1200B551D8B44AD0ED
:100AB800F0EC2FF0200E0001726F7C0E736F7251F4
:100AC8007311D8A4000E746F000E756F000E766F48
:100AD80076EC28F00001FB51D8B410D0D30E726F19
:100AE8007C0E736F72517311D8A4000E746F000ED0
:100AF800756F020E766F76EC28F010D0E20E0001CA
:100B0800726F7C0E736F72517311D8A4000E746FDC
:100B1800000E756F020E766F76EC28F0730E0001EA
:100B2800726F7C0E736F72517311D8A4000E746FBC
:100B3800000E756F030E766F76EC28F00C0E000130
:100B4800F36F1200AC51D8B41200F0EC2FF0630E22
:100B58000001726F7C0E736F72517311D8A4000E6E
:100B6800746F000E756F000E766F76EC28F0800EAD
:100B78000001726F7F0E736F72517311D8A4000E4B
:100B8800746F000E756F010E766F76EC28F0790E93
:100B98000001726F7F0E736F72517311D8A4000E2B
:100BA800746F000E756F020E766F76EC28F0FA0EF1
:100BB8000001726F7F0E736F72517311D8A4000E0B
:100BC800746F0A0E756F020E766F76EC28F03AECA9
:100BD80028F0020E0001F36F1200B551D8B4D2D03C
:100BE800F0EC2FF0760E0001726F7B0E736F72516E
:100BF8007311D8A4000E746F000E756F000E766F17
:100C080076EC28F0650E0001726F7B0E736F7251DF
:100C18007311D8A4000E746F000E756F010E766FF5
:100C280076EC28F0870E0001726F7F0E736F725199
:100C38007311D8A4000E746F000E756F020E766FD4
:100C480076EC28F0C20E0001726F7F0E736F72513E
:100C58007311D8A4000E746F0C0E756F020E766FA8
:100C680076EC28F066D0CB0E0001726F7D0E736FA4
:100C780072517311D8A4000E746F070E756F020EAF
:100C8800766F76EC28F06AD0E00E0001726F7F0E66
:100C9800736F72517311D8A4000E746F070E756FBD
:100CA800020E766F76EC28F059D0EC0E0001726FC8
:100CB8007F0E736F72517311D8A4000E746F070EF4
:100CC800756F020E766F76EC28F048D0E40E0001BE
:100CD800726F7F0E736F72517311D8A4000E746F08
:100CE800070E756F020E766F76EC28F037D0E80E97
:100CF8000001726F7F0E736F72517311D8A4000ECA
:100D0800746F070E756F020E766F76EC28F026D09A
:100D1800EF0E0001726F7F0E736F72517311D8A4BA
:100D2800000E746F070E756F020E766F76EC28F062
:100D380015D00001FE51000AD8B495D7010AD8B4DD
:100D4800A3D7030AD8B4B1D7010AD8B4BFD7070AC2
:100D5800D8B4CDD7010AD8B4DBD785D7730E000134
:100D6800726F7C0E736F72517311D8A4000E746F7A
:100D7800000E756F030E766F76EC28F00D0E0001ED
:100D8800F36F1200AC51D8B41200FB51D8B412D092
:100D9800000EFB6FE20E726F7C0E736F725173114F
:100DA800D8A4000E746F000E756F020E766F76EC85
:100DB80028F01200010E0001FB6FD30E726F7C0E3B
:100DC800736F72517311D8A4000E746F000E756F93
:100DD800020E766F76EC28F012000001B551D8A407
:100DE80003D0AC51D8B41200F0EC2FF0630E000120
:100DF800726F7C0E736F72517311D8A4000E746FEA
:100E0800000E756F000E766F76EC28F0530E000119
:100E1800726F7C0E736F72517311D8A4000E746FC9
:100E2800000E756F010E766F76EC28F0830E0001C8
:100E3800726F7C0E736F72517311D8A4000E746FA9
:100E4800000E756F030E766F76EC28F0010E000128
:100E5800F36F1200B551D8B4C4D0F0EC2FF0ED0EFA
:100E68000001726F7B0E736F72517311D8A4000E5C
:100E7800746F000E756F000E766F76EC28F0580EC2
:100E88000001726F7E0E736F72517311D8A4000E39
:100E9800746F000E756F020E766F76EC28F0730E85
:100EA8000001726F7C0E736F72517311D8A4000E1B
:100EB800746F000E756F030E766F76EC28F0030ED4
:100EC8000001F36F76D0C70E726F7F0E736F725189
:100ED8007311D8A4000E746F0A0E756F020E766F28
:100EE80076EC28F07ED0CB0E0001726F7F0E736F08
:100EF80072517311D8A4000E746F0A0E756F020E2A
:100F0800766F76EC28F06DD0CF0E0001726F7F0EF1
:100F1800736F72517311D8A4000E746F0A0E756F37
:100F2800020E766F76EC28F05CD0D30E0001726F5B
:100F38007F0E736F72517311D8A4000E746F0A0E6E
:100F4800756F020E766F76EC28F04BD0D70E000145
:100F5800726F7F0E736F72517311D8A4000E746F85
:100F68000A0E756F020E766F76EC28F03AD0DB0E1B
:100F78000001726F7F0E736F72517311D8A4000E47
:100F8800746F0A0E756F020E766F76EC28F029D012
:100F9800F30E0001726F7F0E736F72517311D8A434
:100FA800000E746F0A0E756F020E766F76EC28F0DD
:100FB80018D00001FC51000AD8B485D7010AD8B46A
:100FC80092D7030AD8B4A0D7010AD8B4AED7070A73
:100FD800D8B4BCD7010AD8B4CAD7030AD8B4D8D76A
:100FE80072D70001AC51D8B41200050EFE6102D0D0
:100FF800FE2B72D0000EFE6F6FD0090EFD6FDB0E58
:10100800726F7F0E736F72517311D8A4000E746FD4
:10101800070E756F020E766F76EC28F01200120E2E
:101028000001FD6FDF0E726F7F0E736F72517311C7
:10103800D8A4000E746F070E756F020E766F76ECEB
:1010480028F012001B0E0001FD6FEB0E726F7F0E71
:10105800736F72517311D8A4000E746F070E756FF9
:10106800020E766F76EC28F01200360E0001FD6F46
:10107800E30E726F7F0E736F72517311D8A4000E56
:10108800746F070E756F020E766F76EC28F01200FB
:101098006C0E0001FD6FE70E726F7F0E736F725159
:1010A8007311D8A4000E746F070E756F020E766F59
:1010B80076EC28F01200FD69EF0E726F7F0E736FE9
:1010C80072517311D8A4000E746F070E756F020E5B
:1010D800766F76EC28F012000001FE51000AD8B4B1
:1010E8008CD7010AD8B49BD7030AD8B4ABD7010A66
:1010F800D8B4BBD7070AD8B4CBD7010AD8B4DBD742
:101108007CD7B551D8B428D0FC51BEEC13F0F0EC24
:101118002FF0CB0E0001726F7B0E736F725173113B
:10112800D8A4000E746F000E756F000E766F76EC03
:1011380028F0930E0001726F7C0E736F7251731159
:10114800D8A4000E746F000E756F030E766F76ECE0
:1011580028F00F0E0001F36FAC51D8B41200060E40
:10116800FC610AD0EE05D8A405D0030EFC6502D0B8
:10117800060E03D0FC2B79D0000EFC6F76D0C70E7C
:10118800726F7F0E736F72517311D8A4000E746F53
:101198000A0E756F020E766F76EC28F01200CB0EF1
:1011A8000001726F7F0E736F72517311D8A4000E15
:1011B800746F0A0E756F020E766F76EC28F01200C7
:1011C800CF0E0001726F7F0E736F72517311D8A426
:1011D800000E746F0A0E756F020E766F76EC28F0AB
:1011E8001200D30E0001726F7F0E736F725173116C
:1011F800D8A4000E746F0A0E756F020E766F76EC27
:1012080028F01200D70E0001726F7F0E736F7251B3
:101218007311D8A4000E746F0A0E756F020E766FE4
:1012280076EC28F01200DB0E0001726F7F0E736FF0
:1012380072517311D8A4000E746F0A0E756F020EE6
:10124800766F76EC28F01200F30E0001726F7F0EB5
:10125800736F72517311D8A4000E746F0A0E756FF4
:10126800020E766F76EC28F012000001FC51000A9D
:10127800D8B485D7010AD8B492D7030AD8B4A0D76E
:10128800010AD8B4AED7070AD8B4BCD7010AD8B473
:10129800CAD7030AD8B4D8D772D7AC51D8B40CD0AF
:1012A800DEEC1EF00009D8B404D0010E0001B56FC1
:1012B80003D0090E0001F06FB551D8B41200F0EC5C
:1012C8002FF0210E0001726F7B0E736F7251731134
:1012D800D8A4000E746F000E756F000E766F76EC52
:1012E80028F0870E0001726F7B0E736F72517311B5
:1012F800D8A4000E746F000E756F010E766F76EC31
:1013080028F0830E0001726F7C0E736F7251731197
:10131800D8A4000E746F000E756F030E766F76EC0E
:1013280028F0060E0001F36F1200F351000AD8B43A
:101338007EEF01F0010AD8B459EF05F0030AD8B4DA
:101348004CD5010AD8B4DDD6050AD8B4BBEF01F0F4
:10135800010AD8B49FEF02F00F0AD8B41EEF03F0C9
:10136800020AD8B47AEF04F0010AD8B41DEF05F0E8
:10137800070AD8B432D4010AD8B46CD5020AD8B452
:101388008CD77DEF01F000017D6F000E00017C6FAE
:10139800C0D2FFD7FC0E0001616F7E0E626FC0ECF9
:1013A8002DF076D17951D8B402D00A0EF46F7D5160
:1013B800D8B4D3D2650E606F010E616FB80E626F3C
:1013C8007F0E636F000E656F040E646FEEEC25F000
:1013D800000160516111D8A438D0000EEE6FF0EC16
:1013E8002FF0430E0001726F7B0E736F72517311F1
:1013F800D8A4000E746F000E756F000E766F76EC31
:1014080028F0980E0001726F7B0E736F7251731182
:10141800D8A4000E746F000E756F020E766F76EC0E
:1014280028F0EE0E0001726F7A0E736F725173110D
:10143800D8A4000E746F000E756F030E766F76ECED
:1014480028F04AD00001F46F88D2650E606F010E53
:10145800616FBD0E626F7F0E636F000E656F040EC5
:10146800646FEEEC25F0000160516111D8A436D00C
:10147800010EEE6FF0EC2FF0430E0001726F7B0E41
:10148800736F72517311D8A4000E746F000E756FCC
:10149800000E766F76EC28F0980E0001726F7B0EC6
:1014A800736F72517311D8A4000E746F000E756FAC
:1014B800020E766F76EC28F0EE0E0001726F7A0E4F
:1014C800736F72517311D8A4000E746F000E756F8C
:1014D800030E766F76EC28F0020EB4D7FC0E616F1F
:1014E8007E0E626FC0EC2DF0000E0001616F190EC8
:1014F800606F0DEC2EF0000EA5D77851D8B41ED031
:10150800BB0E726F7A0E736F72517311D8A4000EEE
:10151800746F000E756F030E766F76EC28F0010E6F
:101528000001616FF40E606F0DEC2EF0E70E000104
:10153800616F7D0E626FC0EC2DF06DD07951D8B41B
:101548000CD2DD0E726F7A0E736F72517311D8A4BC
:10155800000E746F000E756F030E766F76EC28F030
:10156800010E0001616FF40E606F0DEC2EF03B0E62
:101578000001616F7D0E626FC0EC2DF061D17D516D
:10158800D8B4EBD1650E606F010E616FF70E626F14
:101598007F0E636F05EC2CF0000160516111D8A437
:1015A80002D0040E50D7650E606F010E616F570EA2
:1015B800626F7D0E636F05EC2CF0000160516111C4
:1015C800D8A423D0F0EC2FF0B40E0001726F7E0E79
:1015D800736F72517311D8A4000E746F000E756F7B
:1015E800000E766F76EC28F0190E0001726F7F0EF0
:1015F800736F72517311D8A4000E746F000E756F5B
:10160800010E766F76EC28F08AD0E70E616F7D0EBA
:10161800626FC0EC2DF0030E15D77D51D8B49DD163
:10162800650E606F010E616F220E626F7F0E636F31
:1016380005EC2CF0000160516111D8A423D0F0EC26
:101648002FF0D40E0001726F7E0E736F72517311FA
:10165800D8A4000E746F000E756F000E766F76ECCE
:1016680028F09E0E0001726F7E0E736F7251731117
:10167800D8A4000E746F000E756F010E766F76ECAD
:1016880028F0A4D0F20E616F7E0E626FC0EC2DF0D0
:10169800010ED8D67D51D8B460D1650E606F010EA9
:1016A800616FF70E626F7F0E636F05EC2CF000011F
:1016B80060516111D8A402D0060EC5D6650E606FC0
:1016C800010E616F570E626F7D0E636F05EC2CF093
:1016D800000160516111D8A424D0F0EC2FF0B40EB1
:1016E8000001726F7E0E736F72517311D8A4000ED1
:1016F800746F000E756F000E766F76EC28F0190E79
:101708000001726F7F0E736F72517311D8A4000EAF
:10171800746F000E756F010E766F76EC28F0090E67
:1017280091D6650E606F010E616F490E626F7D0E76
:10173800636F05EC2CF0000160516111D8A407D04B
:101748003B0E616F7D0E626FC0EC2DF079D0650E97
:10175800606F010E616F930E626F7E0E636F05EC12
:101768002CF07AD07D51D8B4F8D0650E606F010E98
:10177800616F220E626F7F0E636F05EC2CF0000123
:1017880060516111D8A424D0F0EC2FF0880E00012C
:10179800726F7E0E736F72517311D8A4000E746F3E
:1017A800000E756F000E766F76EC28F09E0E000125
:1017B800726F7E0E736F72517311D8A4000E746F1E
:1017C800000E756F010E766F76EC28F0070E3AD68C
:1017D800650E606F010E616F950E626F7F0E636F0D
:1017E80005EC2CF0000160516111D8A42BD0F0EC6D
:1017F8002FF0E80E0001726F7E0E736F7251731135
:10180800D8A4000E746F010E756F000E766F76EC1B
:1018180028F08E0E0001726F7F0E736F7251731174
:10182800D8A4000E746F020E756F010E766F76ECF9
:1018380028F03B0E0001616F7D0E626FC0EC2DF049
:10184800050E00D6650E606F010E616F930E626F14
:101858007E0E636F05EC2CF0000160516111D8A475
:101868007CD0000EF0D5A90E616F7E0E626FC0ECC1
:101878002DF018D07D51D8B470D0650E606F010E70
:10188800616F490E626F7D0E636F05EC2CF00001ED
:1018980060516111D8A408D0A90E616F7E0E626FE5
:1018A800C0EC2DF0080ECED501016551D00F000116
:1018B8007B6F7BC0FCF0010E7C6F4FD07951D8B4A0
:1018C8004CD00A0EC0D5000E606F000E12EC2DF041
:1018D80081B202D081A0FCD7FA0E00017A6F580EAF
:1018E800E82EFED77A2FFCD700F0FA0E00017A6FA7
:1018F800580EE82EFED77A2FFCD700F0FA0E00011A
:101908007A6F580EE82EFED77A2FFCD700F0FF002A
:1019180024D00001F451000AD8B43CD5010AD8B447
:1019280041D5030AD8B4E9D5010AD8B428D6070A9C
:10193800D8B473D6010AD8B4ADD6030AD8B412D72E
:10194800010AD8B490D70F0AD8B494D7010AD8B4EA
:10195800B5D7030AD8B4B7D71CD500017C511200FB
:1019680000017751800B806F77517725866F76BF9E
:1019780086818651D8B40DD08629D8A408D0000E07
:10198800746F000E756F000E766F000E776F768F8E
:1019980008D0000E746F000E756F000E766F000E83
:1019A800776F7B51800B801B7B517B25856F7ABFBE
:1019B80085818551D8B40DD08529D8A408D0000ECA
:1019C800786F000E796F000E7A6F000E7B6F7A8F3A
:1019D80008D0000E786F000E796F000E7A6F000E37
:1019E8007B6F8551D8B403D08651D8A409D0000E96
:1019F800746F000E756F000E766F000E776F120011
:101A08007A517403F3CF8BF0F4CF8CF08B51816F44
:101A1800826B836B846B8C51876F886B896B8A6B45
:101A280079517503F3CF8BF0F4CF8CF08B5181276C
:101A3800000E8223832384238C518727000E88235A
:101A480089238A2378517603F3CF8BF0F4CF8CF077
:101A58008B518127000E8223832384238C5187276F
:101A6800000E882389238A2383C084F082C083F0F0
:101A780081C082F0816B78517503F3CF8BF0F4CF7E
:101A88008CF08B5181278C518223000E8323000E0A
:101A9800842379517403F3CF8BF0F4CF8CF08B51FE
:101AA80081278C518223000E8323000E842383C058
:101AB80084F082C083F081C082F0816B7851740316
:101AC800F3CF8BF0F4CF8CF08B5181278C5182238C
:101AD800000E8323000E84237A517503F3CF8BF015
:101AE800F4CF8CF08B5187278C518823000E8923E3
:101AF800000E8A2379517603F3CF8BF0F4CF8CF064
:101B08008B5187278C518823000E8923000E8A2346
:101B18007A517603F3CF8BF0F4CF8CF08B517C6F36
:101B28008C517D6F7E6B7F6B7EC07FF07DC07EF0B9
:101B38007CC07DF07C6B7C5187277D5188237E514A
:101B480089237F518A2381C07CF082C07DF083C0C5
:101B58007EF084C07FF0190E05D0D8907F337E3395
:101B68007D337C33E82EF9D77C5187277D51882334
:101B78007E5189237F518A2383C084F082C083F0F9
:101B880081C082F0816B855186C07CF07D6B7C279B
:101B9800000E7D23820E7C258B6FFF0E7D218C6FBE
:101BA8000FD0D8908737883789378A3784BF87819D
:101BB800D89081378237833784378B07D8A08C0732
:101BC80089AFEFD7000E856F84AF16D0FF0E811551
:101BD8007C6FFF0E82157D6FFF0E83157E6F7F0E63
:101BE80084157F6F7C517D117E117F11D8A402D09E
:101BF80087A102D0010E856F8551D8B41FD0010E80
:101C08008727000E882389238A238AA117D087C0B3
:101C18007CF088C07DF089C07EF08AC07FF07F3577
:101C28007F337E337D337C337CC087F07DC088F082
:101C38007EC089F07FC08AF08B4B8C2B8CBF0DD077
:101C48008C5103E18B29D8A008D0000E876F000EB5
:101C5800886F800E896F7F0E20D08CBF05D08C5185
:101C68000EE18B05D8B00BD0000E876F000E886F81
:101C7800000E896F000E8A6F000E806F0FD08BC028
:101C880086F0FF0E8717FF0E88177F0E8917000E44
:101C98008A1786B1898FD89086318A6F80518A13C6
:101CA80087C074F088C075F089C076F08AC077F074
:101CB800120000016351800B706F63516325726FCE
:101CC80062BF72817251D8B40DD07229D8A408D0DD
:101CD800000E606F000E616F000E626F000E636F82
:101CE800628F06D0000E606F000E616F000E626F8B
:101CF800000E636F6751800B716F70517119D8A412
:101D0800708D67516725716F66BF71817151D8B445
:101D18000DD07129D8A408D0000E646F000E656F2D
:101D2800000E666F000E676F668F06D0000E646F38
:101D3800000E656F000E666F000E676F7251715D61
:101D4800D8B022D070AD02D0800E701B72C073F074
:101D580071C072F073C071F060C073F064C060F05D
:101D680073C064F061C073F065C061F073C065F062
:101D780062C073F066C062F073C066F063C073F04F
:101D880067C063F073C067F0000E736F7251686FBD
:101D9800696B681F691F684B692B71516A6F6B6BA0
:101DA80068516A2769516B236BBF2CD06B5104E1D2
:101DB8001A0E6A5DD8A026D06051611162116311B4
:101DC800D8B402D0010E01D0000E736F000E606F00
:101DD800000E616F000E626F000E636F71C072F0CB
:101DE80015D073A105D0D89073310109736F02D053
:101DF800D890733360B1738F633563336233613363
:101E08006033722B7151725DD8A0EBD770BD29D0A9
:101E18007251D8A409D0000E606F000E616F000ED9
:101E2800626F000E636F1200645160276551612371
:101E3800665162236751632363A183D073A106D0DF
:101E4800D890733373510109736F02D0D8907333EC
:101E580060B1738F63356333623361336033722BE0
:101E680070D06451605D6551615966516259635122
:101E7800800A686F6751800A6859D8B036D060C048
:101E880068F061C069F062C06AF063C06BF0681FF7
:101E9800691F6A1F6B1F682B000E69236A236B2357
:101EA800645168256C6F655169216D6F66516A21AF
:101EB8006E6F67516B216F6FFF0E6C25606FFF0EA1
:101EC8006D21616FFF0E6E21626FFF0E6F21636FD0
:101ED800800E701B736D7351D8A40FD0010E60274C
:101EE800000E61236223632308D06451605F65514B
:101EF800615B6651625B6751635B6051611162119E
:101F08006311D8A41CD07351D8A419D0000E606FE7
:101F1800000E616F000E626F000E636F1200D890A2
:101F2800603761376237633773BF608173A102D04E
:101F3800D88001D0D89073377251D8A4720762AF95
:101F4800EED7000E716F73AF0AD073C068F07F0EC2
:101F58006817D8A402D060A102D0010E716F715128
:101F6800D8B420D0010E6027000E612362236323BA
:101F780063A118D060C068F061C069F062C06AF0FF
:101F880063C06BF06B356B336A336933683368C091
:101F980060F069C061F06AC062F06BC063F07229DA
:101FA800D8A4722B7229D8B403D07251D8A40DD0FA
:101FB800000E606F000E616F000E626F000E636F9F
:101FC8007251D8A402D0000E706F72A102D0628F35
:101FD80001D0629FD8907231636F70BF638F60C009
:101FE80060F061C061F062C062F063C063F012002B
:101FF80000019051800B996F90519025A46F8FBF6D
:10200800A481A451D8B40DD0A429D8A408D0000E16
:102018008D6F000E8E6F000E8F6F000E906F8F8F7A
:1020280006D0000E8D6F000E8E6F000E8F6F000EA3
:10203800906F9451800B991B94519425A56F93BF71
:10204800A581A551D8B40DD0A529D8A408D0000ED3
:10205800916F000E926F000E936F000E946F938F26
:1020680006D0000E916F000E926F000E936F000E57
:10207800946F9151921193119411D8A415D0000E18
:102088008D6F000E8E6F000E8F6F000E906F800E9A
:102098008F137F0E90138DC08DF08EC08EF08FC081
:1020A8008FF090C090F01200A451D8A411D0000E67
:1020B8008D6F000E8E6F000E8F6F000E906F8DC0AB
:1020C8008DF08EC08EF08FC08FF090C090F012000F
:1020D800A551956F966B951F961F954B962BA451FE
:1020E800976F986B95519727965198237F0E972550
:1020F8009E6F000E98219F6F8DC09AF08EC09BF046
:102108008FC09CF090C09DF0000E8D6F000E8E6FFA
:10211800000E8F6F000E906F000EA06F000EA16F63
:10212800000EA26F000EA36F000EA56F28D0A55158
:10213800D8B411D0D8909A379B379C379D37D89010
:102148008D378E378F379037A3BF8D81D890A037C2
:10215800A137A237A33791519A5D92519B59935158
:102168009C5994519D59D8A009D0A38D91519A5F3B
:1021780092519B5B93519C5B94519D5BA52B190ECF
:10218800A565D5D79A519B119C119D11D8B411D032
:10219800A0810FD0D8908D378E378F379037A3BF57
:1021A8008D81D890A037A137A237A3379E07D8A032
:1021B8009F078FAFEFD7000EA56FA3AF16D0FF0E06
:1021C800A015956FFF0EA115966FFF0EA215976FBC
:1021D8007F0EA315986F9551961197119811D8A451
:1021E80002D08DA102D0010EA56FA551D8B41FD081
:1021F800010E8D27000E8E238F23902390A117D0D8
:102208008DC095F08EC096F08FC097F090C098F072
:102218009835983397339633953395C08DF096C09B
:102228008EF097C08FF098C090F09E4B9F2B9FBF69
:1022380010D09F5103E19E29D8A00BD0000E9F6FAC
:102248009E69000E8D6F000E8E6F000E8F6F000E50
:10225800906F9FBF05D09F5111E19E05D8B00ED059
:10226800000E9F6F000E9E6F000E8D6F000E8E6F1A
:10227800000E8F6F000E906F000E996F9EC0A4F035
:10228800A4A102D08F8F01D08F9FD890A431906FD6
:10229800995190138DC08DF08EC08EF08FC08FF045
:1022A80090C090F01200000E0001B76F000EB86FDA
:1022B800000EB96F000EBB6F030EBA6F80A009D075
:1022C8000CEC31F00009D8A407D0040E0001FF6F10
:1022D80003D0000EE5EC30F00001F8A108D0FDECC9
:1022E80030F053EC19F00001F85195EC2FF093EC15
:1022F80029F00001BA6FBA05D8A405D0000EF06F16
:10230800010EB86F08D0020EBA19D8A404D0000E76
:10231800F06F010EB96F6BEC2AF00009D8B402D047
:10232800010E01D0000E0001BB6F020EF319D8A4F4
:102338004BD00101595104E1640E585DD8A044D036
:1023480000F0C70E0001726F7A0E736F725173112D
:10235800D8A4000E746F060E756F010E766F76ECBA
:1023680028F0DEEC2BF000016EC072F06FC073F045
:1023780072517311D8A4200E746F060E756F010E7A
:10238800766F76EC28F0B4EC2CF063C072F064C081
:1023980073F0BEEC27F072C0DAF073C0DBF0000116
:1023A800DA51C6EC1BF00001B66FB651DA6FDB6B81
:1023B800060E786F020E796FDA511BEC23F0000ECF
:1023C8000101596F000E586F0001F051D8B48FD039
:1023D800090EF0658CD0FB51D8B489D0010EB76FC7
:1023E800000EF06F84D0FFD7F0EC2FF0DE0E000166
:1023F800726F7E0E736F72517311D8A4000E746FD2
:10240800010E756F000E766F76EC28F0340E000121
:10241800726F7F0E736F72517311D8A4000E746FB0
:10242800020E756F010E766F76EC28F0A90E00018A
:10243800726F7B0E736F72517311D8A4000E746F94
:10244800000E756F030E766F76EC28F0000E000113
:10245800F46F020E40D0B8C078F0B9C079F0BB5123
:10246800C7EC09F00009D8B450D0F0EC2FF0FE0EFC
:102478000001726F7B0E736F72517311D8A4000E36
:10248800746F000E756F000E766F76EC28F00F0EE5
:102498000001726F7C0E736F72517311D8A4000E15
:1024A800746F000E756F020E766F76EC28F0320EA0
:1024B8000001726F7B0E736F72517311D8A4000EF6
:1024C800746F000E756F030E766F76EC28F0000EB1
:1024D8000001F36F030EFF6F18D0B9C0ACF0BBC09A
:1024E800ADF0B7C0AEF0B85181EC00F00ED00001ED
:1024F800FF51010AD8B478D7030AD8B4ACD7010A77
:10250800D8B4EBD7070AD8A46ED70001FF51120040
:1025180004013205D8A410D030511F0B0009D8A4EB
:102528000BD00001C78F030E04013119D8A402D0C3
:10253800010E01D0000E4B6E3251D8A4120030515A
:102548001F0B020AD8A4120034510F0B0009D8B48B
:10255800120034510F0B166E030E16601200200E77
:102568000001EC19D8A41200C78F040134BF19D098
:1025780034510F0B166E1650020D400EF324D96E0F
:10258800010EF420DA6EDECF1AF0DDCF1BF03451E5
:102598000F0B166E1650010DD00EF324D96E000ED7
:1025A80018D034510F0B166E1650020DCA0EF324B4
:1025B800D96E000EF420DA6EDECF1AF0DDCF1BF0F4
:1025C80034510F0B166E1650010DD30EF324D96E2D
:1025D800000EF420DA6EDF50196E19B002D01A948A
:1025E80001D01A8434BF0AD034510F0B166E16501E
:1025F800020D400EF324D96E010E09D034510F0B91
:10260800166E1650020DCA0EF324D96E000EF42071
:10261800DA6E1AC0DEFF1BC0DDFF030E3119D8A425
:102628002DD01AC0D9FF1BC0DAFFDFAE1AD034BFD5
:102638000AD034510F0B166E1650010DD00EF3242C
:10264800D96E000E0AD0040134510F0B166E1650C5
:10265800010DD30EF324D96E000EF420DA6E0001BA
:10266800DF821AC0D9FF1BC0DAFF000EDB841AC054
:10267800D9FF1BC0DAFF000EDB8E1200040E1A1AF7
:102688001AC0D9FF1BC0DAFFDFAE1BD01AC0D9FFB2
:102698001BC0DAFF7F0EDF161AC0D9FF1BC0DAFF96
:1026A800000EDB8C000E0F6E050E0E6E1AC010F0B9
:1026B8001BC011F0000E136E020E126E00EC2BF010
:1026C80006D01AC0D9FF1BC0DAFF000EDB8C040E3F
:1026D8001A1A19B206D01AC0D9FF1BC0DAFFDFAE2A
:1026E80030D0040134BF0AD034510F0B166E165087
:1026F800010DD00EF324D96E000E0AD00401345116
:102708000F0B166E1650010DD30EF324D96E000E62
:10271800F420DA6E0001DF921AC0D9FF1BC0DAFF7D
:102728003B0EDF16000E0F6E050E0E6E1AC010F06F
:102738001BC011F0000E136E020E126E00EC2BF08F
:1027480006D01AC0D9FF1BC0DAFF3B0EDF16040102
:1027580034510F0B166E1650010D6A0EF324176EC6
:102768000F0EF420186E17C0D9FF18C0DAFFFE0E3E
:10277800DF1612000001646F080E00016419D8B456
:102788006AD0A30E616F7C0E626FC0EC2DF0FA0E5A
:102798000001636F580EE82EFED7632FFCD700F0B8
:1027A800FA0E0001636F580EE82EFED7632FFCD790
:1027B80000F0FA0E0001636F580EE82EFED7632F63
:1027C800FCD700F048D07F0E0001616F7D0E626F6C
:1027D800C0EC2DF05DD08C0E0001616F7D0E626F34
:1027E800C0EC2DF055D0990E0001616F7D0E626F1F
:1027F800C0EC2DF04DD0A60E0001616F7D0E626F0A
:10280800C0EC2DF045D0B30E0001616F7D0E626FF4
:10281800C0EC2DF03DD0C00E0001616F7D0E626FDF
:10282800C0EC2DF035D0CD0E0001616F7D0E626FCA
:10283800C0EC2DF02DD0DA0E0001616F7D0E626FB5
:10284800C0EC2DF025D0F10E0001616F7C0E626F97
:10285800C0EC2DF01DD000016451000AD8B4B3D7E4
:10286800010AD8B4B8D7030AD8B4BDD7010AD8B476
:10287800C2D7070AD8B4C7D7010AD8B4CCD7030A35
:10288800D8B4D1D7010AD8B4D6D70F0AD8B4DBD771
:10289800FA0E0001636F580EE82EFED7632FFCD79F
:1028A80000F0FA0E0001636F580EE82EFED7632F72
:1028B800FCD700F0FA0E0001636F580EE82EFED721
:1028C800632FFCD700F02B0E0001616F7F0E626F43
:1028D800C0EC2DF012000001686F00016851D8A407
:1028E80063AF1AD060C064F061C065F062C066F082
:1028F80063C067F0641F651F661F671F642B000EA7
:1029080065236623672364C06AF065C06BF066C000
:102918006CF067C06DF008D060C06AF061C06BF001
:1029280062C06CF063C06DF0605161116211631197
:10293800D8A409D0000E606F000E616F000E626FA0
:10294800000E636F1200960E696F06D0692BD8903F
:102958006D336C336B336A33000E6A15646F000E87
:102968006B15656F000E6C15666FFE0E6D15676F43
:102978006451651166116711D8B40DD0E7D7692B7A
:10298800010E6A27000E6B236C236D23D8906D33DC
:102998006C336B336A33000E6A15646F000E6B1567
:1029A800656F000E6C15666FFF0E6D15676F6451CD
:1029B800651166116711D8B407D0E1D76907D890B7
:1029C8006A376B376C376D376CBF03D0020E69619D
:1029D800F5D769B108D0FF0E6A17FF0E6B177F0E87
:1029E8006C17FF0E6D17D890693369C064F0656B7A
:1029F800666B676B64C067F0666B656B646B64518C
:102A08006A1365516B1366516C1367516D136851E6
:102A1800D8A463AF01D06D8F6AC060F06BC061F05D
:102A28006CC062F06DC063F01200A394345035108E
:102A3800D8B410D034C0D9FF35C0DAFFDFAE04D027
:102A48000001676B672B02D00001676B6751686FE5
:102A5800696B05D0000E0001696F000E686F685140
:102A68006911D8B402D0A3841200030EEB19D8A4BC
:102A780002D0000EEB6FEB51D8A402D0A384120051
:102A8800020EEB19D8A413D0010E606F000E616F0F
:102A9800000E626F000E636F020EA8EC21F060C09A
:102AA80034F061C035F0030E0001EB6F5FD0EB0529
:102AB800D8A45CD0400EDC6503D0400E6B6F02D00A
:102AC800DCC06BF06B510008DC25DC6F000E0101E7
:102AD8004E6F050E4F6F6BC06AF04250D8B412D0DB
:102AE80027D051C1D9FF52C1DAFF4EC1E1FF4FC112
:102AF800E2FFDFCFE7FF01014E4B4F2B514B522B2B
:102B080000016A0700016A51D8B416D0EAD751C14A
:102B1800D9FF52C1DAFF4EC1E1FF4FC1E2FFDFCF5B
:102B2800E7FF01014E4B4F2B514B522B00016A0717
:102B380000016A51D8A4EBD7DC51D8A408D0400EC4
:102B48006B19D8A402D0020E01D0030EEB6F010E50
:102B5800606F000E616F050E626F6BC063F0020E4E
:102B6800A8EC21F060C034F061C035F0A3841200F5
:102B7800800E04013019D8A41200C00E0001C76FDE
:102B880088D0A20E0001C46F790EC56F000EC96F00
:102B9800120EC86F120004013251D8A443D032512A
:102BA800020DF50EF324F66E750EF420F76EF86A32
:102BB800000EF8220900F5CFC4F00A00F5CFC5F0E1
:102BC800020E0001C425016E000EC521026E01C06F
:102BD800F6FF02C0F7FFF86A070EF76403D0080093
:102BE800F55005D0F6CFE9FFF7CFEAFFEF50000127
:102BF800C86F030EC425016E000EC521026E01C008
:102C0800F6FF02C0F7FFF86A070EF76403D0080062
:102C1800F55005D0F6CFE9FFF7CFEAFFEF500001F6
:102C2800C96F1200000E0001C76F1200030E0401E5
:102C3800326127D03251020DEF0EF324F66E750E75
:102C4800F420F76EF86A000EF8220900F5CFC4F0F8
:102C58000A00F5CFC5F0C4C0F6FFC5C0F7FFF86A93
:102C6800070EF76403D00800F55005D0F6CFE9FF4A
:102C7800F7CFEAFFEF50016E01500001C86FC96B32
:102C88001200000E0001C76F1200000E0001C76F8E
:102C9800120004013351010AD8B473D7030AD8B417
:102CA8007AD7010AD8B4C2D7F0D7FBEC2EF03FECA4
:102CB8002EF08DEC17F0DAEC2DF08A8A000E000168
:102CC800616F320E606F0DEC2EF08A9A010E0001D2
:102CD800616FF40E606F0DEC2EF0F28CF28E77ECD3
:102CE80026F0000E0001616F140E606F0DEC2EF0DF
:102CF800B7EC30F0000E0001616F140E606F0DEC40
:102D08002EF0000E44EC30F00001F66F550EF61967
:102D1800D8B408D0B0EC28F0550E0001606F000E52
:102D280012EC2DF0000E0001F76F000EEAEC30F007
:102D3800F0EC2FF01E0E0001726F7D0E736F725152
:102D48007311D8A4000E746F000E756F000E766FA5
:102D580076EC28F0000E0001726F7D0E736F7251D1
:102D68007311D8A4000E746F000E756F010E766F84
:102D780076EC28F00F0E0001726F7D0E736F7251A2
:102D88007311D8A4000E746F000E756F030E766F62
:102D980076EC28F0030E0001616FE80E606F0DEC11
:102DA8002EF015D0FFD7B2EC1FF0010E0001F76F1F
:102DB800010EEFEC30F00BD057EC11F0040AD8A458
:102DC80006D0000E0001F76F000EEAEC30F00001AB
:102DD800F751000AD8B4E7D7010AD8B4EDD7E2D73B
:102DE8000001EC05D8B460BA06D0000E656E6480A8
:102DF8006488020EEC6F65B464A403D065946FEC2C
:102E08002EF060A202D0A494120065B064A007D08E
:102E180025EC18F0A384040E0001EC6F659065B8EA
:102E280064A803D010EC2FF0659865AC18D064AC9A
:102E38000ED0000E0F6E730E0E6E000E106E000E8A
:102E4800116E000E136E010E126E00EC2BF0659CD5
:102E58004850D8A448064850D8B4E5EC20F065BAE4
:102E680064AA02D093EC2CF065B264A20FD07F0E56
:102E78000F6E0E68000E106E000E116E000E136EAF
:102E8800010E126E00EC2BF0000E676E040E0001AE
:102E9800EC6102D0A494120064A639D0000E1F6E13
:102EA800030E1F6401D033D065A631D061CF5AF02C
:102EB8005A30E832E8320F0B4A6E65965AB407D09A
:102EC8004A50010DD00EF324D96E000E06D04A5098
:102ED800010DD30EF324D96E000EF420DA6E000132
:102EE800DF704A50D8A403D01BEC20F00ED0000E9F
:102EF8000F6E720E0E6E5A0E106E000E116E000ED0
:102F0800136E000E126E00EC2BF01F2AC9D7A49482
:102F18001200A394000E676E000E656E000E6A6EB6
:102F28006B0E0001606F0F0E616F000E636F000E75
:102F3800626F000E656F020E646F57EC2EF0160E6E
:102F4800626E9F0E666E7B0E646E000E0001686FE7
:102F58000B0E686501D00ED06851040D000EF324E5
:102F6800D96E040EF420DA6EDE6ADE6ADE6ADD6A85
:102F7800682BEED7608C000E636E6098609C09D059
:102F88006596000EC76F000EBF6F000EC16F000E72
:102F9800C06F65B6F5D7010E466E010E456E000E80
:102FA800446E000E436E000E01015D6F000E0001BD
:102FB800686F020E686501D02ED06851020DCA0EE6
:102FC800F324D96E000EF420DA6E000EDE6E000EC9
:102FD800DD6E6851020D400EF324D96E010EF42007
:102FE800DA6E000EDE6E000EDD6E6851010DD30E36
:102FF800F324D96E000EF420DA6E000EDF6E6851ED
:10300800010DD00EF324D96E000EF420DA6E000EF6
:10301800DF6E682BCED7080ECA6F040ECB6F160E64
:103028006A6E040E0401036F300E026F080E016F02
:10303800040E006F008F000E5B6E000E0001EC6F37
:103048001200A394000E676E000E656E000E6A6E85
:103058006B0E016E0F0E026E000E046E000E036EF4
:10306800000E066E020E056EE5EC2EF0160E626E70
:103078009F0E666E7B0E646E000E096E0B0E096461
:1030880001D00ED00950040D000EF324D96E040EA1
:10309800F420DA6EDE6ADE6ADE6ADD6A092AEED7B5
:1030A800608C000E636E6098609C0AD06596000E76
:1030B8000001C76F000EBF6F000EC16F000EC06F1A
:1030C80065B6F4D7010E466E010E456E000E446ECD
:1030D800000E436E000E01015D6F000E096E020EB8
:1030E800096401D02ED00950020DCA0EF324D96EFE
:1030F800000EF420DA6E000EDE6E000EDD6E095052
:10310800020D400EF324D96E010EF420DA6E000E83
:10311800DE6E000EDD6E0950010DD30EF324D96E5C
:10312800000EF420DA6E000EDF6E0950010DD00E8D
:10313800F324D96E000EF420DA6E000EDF6E092A31
:10314800CED7080E0001CA6F040ECB6F160E6A6E3A
:10315800040E0401036F300E026F080E016F040E97
:10316800006F008F000E5B6E000E0001EC6F120006
:1031780020EE01F03850D9263950DA22DF50136E8C
:1031880013500001C05D000EC159D8A0C0C013F093
:103198001350C05F000EC15B000E126E11D01250AA
:1031A800010D380EF324D96E040EF420DA6EBCC07B
:1031B800E1FFBDC0E2FFDFCFE7FFBC4BBD2B122A0A
:1031C8001350125CD8A0EBD7C051C111D8B432D07B
:1031D80020EE01F03650D9263750DA22080EDF6E7D
:1031E80020EE02F03650D9263750DA22380EDE6E3D
:1031F800040EDD6E38C0D9FF39C0DAFFDFBC0DD050
:1032080036C0D9FF37C0DAFF480EDF6E36C0D9FFA7
:1032180037C0DAFF000EDB8E120036C0D9FF37C088
:10322800DAFF080EDF6E36C0D9FF37C0DAFF000EAE
:10323800DB8E120020EE01F03650D9263750DA2204
:10324800080EDF6E20EE02F03650D9263750DA220B
:10325800300EDE6E040EDD6E36C0D9FF37C0DAFFE1
:10326800040EDF6E36C0D9FF37C0DAFF000EDB8EE2
:10327800C251C311D8B40BD001D809D00500FA6ED9
:10328800C251FD6EC351FE6EFF6AFA501200000172
:10329800BF9F4750D8A41200E5EC20F012000001AF
:1032A800D84BD92BD8C060F0D9C061F0000E636F3D
:1032B8000A0E626F50EC2CF0000160516111D8A425
:1032C8001200F883D8C060F0D9C061F0000E636FB7
:1032D800640E626F50EC2CF0000160516111D8A4AB
:1032E8001200F885D8C060F0D9C061F0030E636F92
:1032F800E80E626F50EC2CF0000160516111D8A407
:103308001200F887D8C060F0D9C061F0626B636BB7
:10331800600E646FEA0E656F000E666F000E676FD1
:10332800CBEC23F000016051611162116311D8A444
:1033380012003E4A3F2AF8893EC060F03FC061F063
:10334800000E636F3C0E626F50EC2CF00001605170
:103358006111D8A41200F88B3EC060F03FC061F044
:10336800020E636FD00E626F50EC2CF000016051BA
:103378006111D8A41200F88D3EC060F03FC061F022
:10338800050E636FA00E626F50EC2CF000016051C7
:103398006111D8A41200F88F000ED96F000ED86FF3
:1033A800000E3F6E000E3E6E1200010E00017A6F95
:1033B800F40E796F000E7B6FF0EC2FF0F40E000125
:1033C800726F7D0E736F72517311D8A4000E746FF3
:1033D800000E756F000E766F76EC28F081A202D091
:1033E80081B011D07C0E0001726F7E0E736F725126
:1033F8007311D8A4000E746F000E756F030E766FEC
:1034080076EC28F047D01B0E0001726F7E0E736FAA
:1034180072517311D8A4000E746F000E756F010EEF
:10342800766F76EC28F036D081B213D0010E726F29
:103438007E0E736F72517311D8A4000E746F000E54
:10344800756F020E766F76EC28F000017B51080F3D
:103458007B6F81B013D00E0E726F7E0E736F725138
:103468007311D8A4000E746F000E756F030E766F7B
:1034780076EC28F000017B51800F7B6F880E7B195A
:10348800D8B412009C0E0001786FD70EE82EFED734
:10349800782FFCD700017907D8A07A077929C4E1E9
:1034A8007A29D8B41200C0D73AEC28F0F0EC2FF003
:1034B800580E0001726F7F0E736F72517311D8A48A
:1034C800000E746F000E756F000E766F76EC28F0A4
:1034D800710E0001726F7F0E736F72517311D8A451
:1034E800000E746F000E756F010E766F76EC28F083
:1034F800690E0001726F7F0E736F72517311D8A439
:10350800000E746F000E756F020E766F76EC28F061
:103518000E0E0001626F020E636F430EB9EC26F0C7
:10352800B4EC2CF063C072F064C073F0BEEC27F00A
:1035380072C0DAF073C0DBF00001DA51C6EC1BF0A0
:103548000001AC6FAC51DA6FDB6B0A0E786F020EBC
:10355800796FDA511BEC23F000F0C70E0001726F8F
:103568007A0E736F72517311D8A4000E746F0A0E1D
:10357800756F010E766F76EC28F0DEEC2BF000010B
:103588006EC072F06FC073F072517311D8A4200E20
:10359800746F0A0E756F010E766F76EC28F01200C4
:1035A80060980001C7BF38D0BFAF0BD0020E4C6E79
:1035B8004350D8B476EC24F0000E456E000E466EEB
:1035C800120020EE01F03650D9263750DA22080EC4
:1035D800DF6E20EE02F03650D9263750DA22300E50
:1035E800DE6E040EDD6E36C0D9FF37C0DAFF0C0E72
:1035F800DF6E36C0D9FF37C0DAFF000EDB8ECAC0D7
:10360800D9FFCBC0DAFF040EDF6ECAC0D9FFCBC02A
:10361800DAFF000EDB8E1200040130AF10D0010E6D
:103628004C6E4450D8B476EC24F0000E456E000E73
:10363800466E4750D8A41200E5EC20F01200020EA6
:103648004C6E20EE01F03650D9263750DA22080E9B
:10365800DF6E20EE02F03650D9263750DA22300ECF
:10366800DE6E040EDD6E36C0D9FF37C0DAFF040EF9
:10367800DF6E36C0D9FF37C0DAFF000EDB8E000ED2
:10368800456E000E466E4750D8A41200E5EC20F0B7
:10369800120080BE03D01F6A1F2A01D01F6A1F3282
:1036A8001F3280501F187F0B1F18806E5AD0150EBE
:1036B8004E18D8A40ED027EC31F00AEC30F0000EEA
:1036C8001C6E030E1D6E4FC01EF017EC30F0000E7E
:1036D8004F6E160E4E6053D04E2A6E0EF4EC30F03C
:1036E8004ED05CC01FF0010E206E1F2A02D0D89069
:1036F80020361F2EFCD72050216E81AE05D02150D8
:10370800501201015E2B03D02150FF0A50165C2A8B
:10371800080E5C18D8A402D0020E516E6E0EF4EC9E
:1037280030F02DD08150030E516E6E0EF4EC30F057
:1037380026D04F50010D000EF324D96E030EF4204D
:10374800DA6E50C0DFFF4F2A000E516E6E0EF4EC99
:1037580030F015D0000E4F6E000E516E160E4E6EE4
:103768000ED05150000AD8B4A2D7010AD8B4B9D79C
:10377800030AD8B4D7D7010AD8B4DBD7EBD718ECEB
:1037880031F012000001A66FCD0E0001786FCC0E4B
:10379800796F4C0E7A6F400E7B6FA651606F616B2C
:1037A800626B636B000E6FEC14F060C074F061C064
:1037B80075F062C076F063C077F0B4EC0CF074C0BA
:1037C8008DF075C08EF076C08FF077C090F0000E47
:1037D8000001916F000E926F800E936F440E946FEC
:1037E800FCEC0FF08DC0A8F08EC0A9F08FC0AAF035
:1037F80090C0ABF0000E0001646F000E656F000E04
:10380800666FBF0E676FA8C060F0A9C061F0AAC05C
:1038180062F0ABC063F05DEC0EF060C074F061C0A4
:1038280075F062C076F063C077F0000E0001786F23
:10383800000E796FC80E7A6F420E7B6FB4EC0CF0F5
:1038480074C0A8F075C0A9F076C0AAF077C0ABF034
:10385800A8C060F0A9C061F0AAC062F0ABC063F074
:1038680001EC1EF000016051A76FA7511200000182
:10387800646FFA0E0001636F580EE82EFED7632FAF
:10388800FCD700F0FA0E0001636F580EE82EFED741
:10389800632FFCD700F0FA0E0001636F580EE82E74
:1038A800FED7632FFCD700F000016451D8B429D0AB
:1038B800220E616F7A0E626FC0EC2DF0FA0E0001D5
:1038C800636F580EE82EFED7632FFCD700F0FA0E70
:1038D8000001636F580EE82EFED7632FFCD700F067
:1038E800FA0E0001636F580EE82EFED7632FFCD73F
:1038F80000F03C0E0001616F7A0E626FC0EC2DF093
:103908001200EE0E0001616F790E626FC0EC2DF0AF
:10391800FA0E0001636F580EE82EFED7632FFCD70E
:1039280000F0FA0E0001636F580EE82EFED7632FE1
:10393800FCD700F0FA0E0001636F580EE82EFED790
:10394800632FFCD700F0080E0001616F7A0E626FDA
:10395800C0EC2DF0120004013039E832030B0009E5
:10396800D8A4120047D00001C78F080EEC6F1200D0
:10397800BCEC15F0120020EC1DF012005B0E0001EB
:10398800C46F000EC56FC781010EC86FC78F1200C4
:1039980022EC24F012008CEC12F0120004013451D5
:1039A800010D580EF3240001C46F000EF420C56FFA
:1039B800C781010EC86FC78F12000001C78F0401AD
:1039C8003451010D580EF324D96E000EF420DA6E2E
:1039D80032C4DFFF1200000E0F6E020E0E6E000ED4
:1039E800106E000E116E000E136E000E126E00ECBB
:1039F8002BF0120004013151000AD8B4C9D7010ACA
:103A0800D8B4C9D7020AD8B4C6D7060AD8B4ABD72F
:103A1800030AD8B4ADD7010AD8B4DDD70F0AD8B491
:103A2800ADD7010AD8B4A7D7030AD8B4B7D7010AC3
:103A3800D8B4C3D7070A12000001C78F6B0E016EF6
:103A48000F0E026E000E046E000E036E000E066E60
:103A5800020E056EE5EC2EF0000E016E040E026EED
:103A6800000E046E000E036E000E066E300E056E1C
:103A7800E5EC2EF0608C000E166E020E166401D076
:103A880016D01650010DD30EF324D96E000EF42073
:103A9800DA6E000EDF6E1650010DD00EF324D96ECB
:103AA800000EF420DA6E000EDF6E162AE6D7580EE6
:103AB800016E000E026E000E046E000E036E000E04
:103AC800066E020E056EE5EC2EF0609C080E0001F5
:103AD800CA6F040ECB6F000E386E040E396E38C0F4
:103AE80036F039C037F032C45BF05B50D8A403D04D
:103AF800100EEC6F1200000E0F6E010E0E6E5B0EB4
:103B0800106E000E116E000E136E010E126E00EC98
:103B18002BF0200E0001EC6F12001F0E0001EC6567
:103B2800120060B21200E751D8A411D0800E676F5E
:103B3800020E686F400E696F64EC22F00001E66FB8
:103B4800E651D8B404D0010EE76F000EE56FE751D7
:103B5800D8A4ACA213D0E551010D800EF324D96E80
:103B6800020EF420DA6EDF50F3EC2CF00001E52BA6
:103B7800E651E519D8A402D0000EE76FF551D8B484
:103B880025D00FEC31F00009D8B420D03F0E000149
:103B9800E8611CD000F04EEC2DF000016D6FE8518B
:103BA800010D800EF324D96E020EF420DA6E6DC07A
:103BB800DFFFE82BE851010D800EF324D96E020EC9
:103BC800F420DA6E000EDF6E000EE96F0001EB5193
:103BD800D8A410D0E851D8B40DD0800E606F020E72
:103BE800616FE8C062F073EC2FF012EC31F0000E58
:103BF8000001E86F19EC15F0120000016235633519
:103C0800696F6951D8A409D0000E606F000E616F0A
:103C1800000E626F000E636F120060C064F061C036
:103C280065F062C066F063C067F0200E05D0D890DA
:103C38006733663365336433E82EF9D76451686FA8
:103C4800628FFF0E6017FF0E6117FF0E6217000EDE
:103C58006317960E695F69AF16D06951800A970F8E
:103C6800D8B009D0000E606F000E616F000E626F51
:103C7800000E636F1200D890633362336133603390
:103C8800693FF9D715D01F0E69650FD0000E606F18
:103C9800000E616F000E626F000E636F1200D89005
:103CA800603761376237633769076951D8A4F7D736
:103CB8006851D8B408D0631F621F611F606D000E81
:103CC80061236223632360C060F061C061F062C059
:103CD80062F063C063F01200CAC0D9FFCBC0DAFF3C
:103CE8000001000EDFBC010E126E040ECA1B080E86
:103CF800EC19D8A40CD0040132517F0B636E6350C9
:103D0800D8B402D0100E01D0040E0001EC6F4C04A0
:103D1800D8A43AD020EE02F0CA51D926CB51DA22E3
:103D2800380EDE6E040EDD6E48EC1FF0020E4D18E4
:103D3800D8A40DD0CAC0D9FFCBC0DAFF040EDF6EFD
:103D4800CAC0D9FFCBC0DAFF000EDB8E12001250BA
:103D5800D8A40DD0CAC0D9FFCBC0DAFF480EDF6E99
:103D6800CAC0D9FFCBC0DAFF000EDB8E1200CAC072
:103D7800D9FFCBC0DAFF080EDF6ECAC0D9FFCBC0AF
:103D8800DAFF000EDB8E1200BFAF11D0C251C31193
:103D9800D8B40BD001D809D00500FA6EC251FD6E17
:103DA800C351FE6EFF6AFA5012000001BF9F000E59
:103DB8004C6E1200000E00016E6F81A0FED74DEC14
:103DC8002FF0010EF9EC30F0C290F29EF29EF29CB8
:103DD8008D94A0920F015B81A08CF086F288878475
:103DE800000E81B2010E00016E6F000E81B0010E4F
:103DF8006E6F000E82B4010E6E6FFA51D8A4D18096
:103E0800F292F090A19C00F0030000F0D19072ECC7
:103E18002CF0F096F2988794A09CF28EB4EC2BF0DC
:103E2800F2A2F0B002D0A1AC11D0F292F090010E43
:103E380000016E6F000EF9EC30F03FEC2EF08D842F
:103E4800FB0EB36E500EB26EA08207D00A0E0001B0
:103E5800F06F000E6E6F8D94A0920F015B9177EC5E
:103E680026F0000E0001616F280E606F0DEC2EF039
:103E780077EC26F0000E0001616F280E606F0DECE4
:103E88002EF000016E511200080E016E0001C9519A
:103E980010E1080EC85DD8B00CD0C8C001F04D5074
:103EA800D8A402D0010E04D04D04D8A402D0020E2A
:103EB8004D6E0150C85F000EC95B20EE01F0CA517B
:103EC800D926CB51DA2201C0DFFF380E0101546F29
:103ED800040E556F0001C7A11DD03CD0C4C0F6FF29
:103EE800C5C0F7FFF86A54C1D9FF55C1DAFF070EFC
:103EF800F76403D00800F55005D0F6CFE9FFF7CFF7
:103F0800EAFFEF50DF6E0001C44BC52B0101544B93
:103F1800552B01060150D8B41200E0D7C4C0F6FFF3
:103F2800C5C0F7FFF86A54C1D9FF55C1DAFF070EBB
:103F3800F76403D00800F55005D0F6CFE9FFF7CFB6
:103F4800EAFFEF50DF6E0001C44BC52B0101544B53
:103F5800552B01060150D8B41200E0D74DD0FFD739
:103F6800F0EC2FF0100E0001726F7F0E736F72511C
:103F78007311D8A4000E746F010E756F000E766F62
:103F880076EC28F0610E0001726F7F0E736F72512C
:103F98007311D8A4000E746F020E756F010E766F40
:103FA80076EC28F0280E0001726F7E0E736F725146
:103FB8007311D8A4000E746F000E756F020E766F21
:103FC80076EC28F0010E000105D0200EEC6101D03E
:103FD8001FD0020EEA6F1CD091EC1DF0030E0001F9
:103FE800786F93EC29F00001786F030E7819D8B434
:103FF8000FD0020EF96F0CD00001EA51000AD8B4B4
:10400800AFD7010AD8B4E1D7030AD8B4E5D7A7D700
:1040180080A004D00001F951D8B4EED700F0020E08
:104028000001F919D8B41200000EF96F12002D0E14
:10403800486E5AC01CF0FD0E1C16D8A457D05AC0A2
:104048001CF0D8901C323F0E1C161C50040D000E9C
:10405800F324386E040EF420396E38C036F039C0B7
:1040680037F0040E361A38C0D9FF39C0DAFFDF300E
:10407800E8320F0B0D0AD8A436D0000E1E6E070EBC
:104088001E6401D023D020EE02F03850D9263950D2
:10409800DA22DECF1CF0DDCF1DF01CC0D9FF1DC019
:1040A800DAFF1E50010D300EF324E16E040EF420E9
:1040B800E26EDFCFE7FF20EE02F03850D926395004
:1040C800DA22DE2A000EDD221E2AD9D720EE02F0DF
:1040D8003850D9263950DA22300EDE6E040EDD6EE5
:1040E800FBEC26F012002EEC2BF012005A50FD0BC0
:1040F800040AD8A4120070EC1EF01200F0EC2FF0A5
:104108003D0E0001726F7F0E736F72517311D8A448
:10411800000E746F000E756F000E766F76EC28F047
:104128008A0E0001726F7D0E736F72517311D8A4DD
:10413800000E746F000E756F060E766F76EC28F021
:10414800970E0001726F7D0E736F72517311D8A4B0
:10415800000E746F000E756F080E766F76EC28F0FF
:10416800C30E0001726F7C0E736F72517311D8A465
:10417800000E746F000E756F010E766F76EC28F0E6
:10418800700E0001726F7E0E736F72517311D8A496
:10419800000E746F000E756F020E766F76EC28F0C5
:1041A800460E0001726F7F0E736F72517311D8A49F
:1041B800000E746F000E756F030E766F76EC28F0A4
:1041C80012004650D8A41200010E466E4550D8A4DD
:1041D8001200010E456E020E4C18D8A416D000012C
:1041E80020EE01F0CA51D926CB51DA22000EDF6E3B
:1041F800CAC0D9FFCBC0DAFF480EDF6ECAC0D9FFEC
:10420800CBC0DAFF000EDB8E12004C04D8A41200DB
:10421800000E496E20EE01F03850D9263950DA22C6
:10422800080EDF6E20EE02F03850D9263950DA2217
:10423800300EDE6E040EDD6E38C0D9FF39C0DAFFED
:10424800040EDF6E38C0D9FF39C0DAFF000EDB8EEE
:10425800010E496E20EE01F03650D9263750DA2289
:10426800080EDF6E20EE02F03650D9263750DA22DB
:10427800300EDE6E040EDD6E36C0D9FF37C0DAFFB1
:10428800800EDF6E12000CD061C0F6FF62C0F7FF2F
:10429800F86A0800F550F3EC2CF00001614B622B32
:1042A80061C0F6FF62C0F7FFF86A0800F550000920
:1042B800D8A4EAD7000E0001676F020E676501D027
:1042C8000ED06751010DF3506325D96EF450642167
:1042D800DA6EDF50F3EC2CF00001672BEED720EEFE
:1042E80003F06351D9266451DA22DF50F3EC2CF045
:1042F800040E0001686F21D06851010DF350632549
:10430800D96EF4506421DA6EDF50666F66390F0B90
:10431800B7EC2EF0F3EC2CF000016851010DF350CE
:104328006325D96EF4506421DA6EDF500F0BB7ECB9
:104338002EF0F3EC2CF00001682B6551685DD8A0D5
:10434800DBD7C7EC30F012000001646F0001605148
:10435800D8B407D06451020DCA0EF324D96E000EEA
:1043680006D06451020D400EF324D96E010EF420DC
:10437800DA6EDECF65F0DDCF66F065516611D8A440
:1043880005D0000E606F000E616F120020EE02F083
:104398006551D9266651DA2261C0DEFF62C0DDFFB1
:1043A80020EE01F06551D9266651DA2263C0DFFF9D
:1043B80065C0D9FF66C0DAFF400EDF1665C0D9FFB9
:1043C80066C0DAFF000EDB8665C0D9FF66C0DAFF7B
:1043D800000EDB8E6051D8B407D06451020DCA0EAE
:1043E800F324D96E000E06D06451020D400EF3245A
:1043F800D96E010EF420DA6E040EDF1A65C060F083
:1044080066C061F01200056E0150D8B407D005509F
:10441800020DCA0EF324D96E000E06D00550020D07
:10442800400EF324D96E010EF420DA6EDECF06F0CA
:10443800DDCF07F006500710D8A405D0000E016E96
:10444800000E026E120020EE02F00650D926075028
:10445800DA2202C0DEFF03C0DDFF20EE01F00650C5
:10446800D9260750DA2204C0DFFF06C0D9FF07C0EB
:10447800DAFF400EDF1606C0D9FF07C0DAFF000ECC
:10448800DB8606C0D9FF07C0DAFF000EDB8E0150BD
:10449800D8B407D00550020DCA0EF324D96E000E09
:1044A80006D00550020D400EF324D96E010EF420FB
:1044B800DA6E040EDF1A06C001F007C002F012001F
:1044C800000E0001DD6FD651D711D8B40FD0D6C079
:1044D800D9FFD7C0DAFFDFAE03D06A6B6A2B02D0F0
:1044E80000016A6B6A516B6F6C6B04D0000E6C6FC5
:1044F800000E6B6F6B516C11D8A43BD020EE01F00D
:10450800D651D926D751DA226951DE5CD8B008D005
:1045180020EE01F0D651D926D751DA22DF50696F43
:10452800000EDD6F13D0DD51010D400EF324D96E5E
:10453800050EF420DA6EDD51010DF3506725E16EAA
:10454800F4506821E26EDFCFE7FFDD2B6951DD5DB6
:10455800D8A0E9D7000E606F400E616F050E626F3C
:10456800400E636F020EA8EC21F060C0D6F061C067
:10457800D7F00001DD5112000001696F000166519A
:10458800676F686B020E6727000E6823C50E6725E4
:10459800D96E010E6821DA6E69C060F0616B000E99
:1045A800636F0A0E626F22EC29F000016051300F30
:1045B800DF6E0A0E606F6951D4EC2CF00001696F50
:1045C8006651676F686B010E6727000E6823C50E7A
:1045D8006725D96E010E6821DA6E69C060F0616BDB
:1045E800000E636F0A0E626F22EC29F00001605121
:1045F800300FDF6E0A0E606F6951D4EC2CF00001A9
:10460800696F6651010DC50EF324D96E010EF420B1
:10461800DA6E69C060F0616B000E636F0A0E626F3C
:1046280022EC29F000016051300FDF6E120000010A
:10463800816F000E00017A6F81AF02D0010E7A6F90
:1046480081517F0B816F81C060F0616B000E636FD9
:104658000A0E626F22EC29F000016051300F7D6F65
:104668000A0E606F8151D4EC2CF00001816F81C07B
:1046780060F0616B000E636F0A0E626F22EC29F026
:1046880000016051300F7C6F0A0E606F8151D4ECCD
:104698002CF00001816F81C060F0616B000E636FC8
:1046A8000A0E626F22EC29F000016051300F7B6F17
:1046B8007A51D8B402D02D0E7B6F000E7E6F7B0E20
:1046C800726F000E736F72517311D8A4200E746F3D
:1046D80078C075F079C076F076EC28F01200040105
:1046E80030511F0BE806D8A412003039E832030B0A
:1046F800E806D8A412003451D8B437D03405D8A469
:10470800120033D0DF0E0001C46F010EC56F000E1A
:10471800C96F080EC86FC781C78F1200DF0E00016E
:10472800C46F010EC56FC78F120036C4C0F037C4FE
:10473800C1F0D50E0001BC6F010EBD6FB80EC26F7F
:10474800560EC36FBF8F1200E70E0001C46F010E33
:10475800C56F000EC96F070EC86FC10EC76F120074
:1047680032C45CF10001C78F120004013151000A04
:10477800D8B4C8D7010AD8B4D1D7210AD8B4D5D764
:10478800010AD8B4E1D7030AD8A41200E9D7000E69
:104798000001696F63AF0AD0631F621F611F606DFC
:1047A800000E612362236323010E696F67AF08D08F
:1047B800671F661F651F646D000E652366236723E8
:1047C8006451651166116711D8B424D0010E686F61
:1047D80006D0D8906437653766376737682B67AF78
:1047E800F8D76451605D65516159665162596751E6
:1047F8006359D8A008D06451605F6551615B665108
:10480800625B6751635BD8906733663365336433A3
:10481800682FE7D76951D8B408D0631F621F611F9A
:10482800606D000E61236223632360C060F061C085
:1048380061F062C062F063C063F01200000E040110
:10484800386F000E396F38D00001C78F4B04D8A4D9
:104858003ED0040138833BD00001C78F38D0000117
:10486800C78F040134BF0AD034510F0B016E0150B9
:10487800020D400EF324D96E010E09D034510F0BEE
:10488800016E0150020DCA0EF324D96E000EF420F9
:10489800DA6EDECF02F0DDCF03F002C0D9FF03C02D
:1048A800DAFFDFAE14D002C0D9FF03C0DAFFDFA4FD
:1048B8000ED0010E386F0BD030511F0B000AD8B440
:1048C800C3D7010AD8B4C8D7030AD8B4C8D70001D7
:1048D800C7AF1200380EC46F040EC56FC781020E31
:1048E800C86F1200000E446E000E436E020E4C1884
:1048F800D8A41FD020EE01F03650D9263750DA223E
:10490800080EDF6E20EE02F03650D9263750DA2234
:10491800380EDE6E040EDD6E36C0D9FF37C0DAFF02
:10492800480EDF6E36C0D9FF37C0DAFF000EDB8EC7
:1049380012000001C8510401365D0001C95104018B
:104948003759D8B004D036C4C8F037C4C9F048ECD9
:104958001FF0000120EE02F0CA51D926CB51DA220D
:10496800380EDE6E040EDD6ECAC0D9FFCBC0DAFF8A
:10497800480EDF6ECAC0D9FFCBC0DAFF000EDB8E4F
:1049880012005A0EF66E620EF76E000EF86E0900EF
:10499800F5CFFBF10900F5CFFCF10900F5CFFDF1EA
:1049A8000A0EF66E620EF76E000EF86E00EEF9F063
:1049B80010EE07F00900F5CFEEFFE550E150FAE1FF
:1049C8005D0EF66E620EF76E000EF86E0900F5CFFA
:1049D8005EF003EE00F0800EEE6AE806FDE102EEFE
:1049E80000F0C00EEE6AE806FDE101EE00F0FB0EF5
:1049F800EE6AE806FDE100EEBCF03D0EEE6AE80660
:104A0800FDE15D6A00EE34F0290EEE6AE806FDE18C
:104A18005F905F92000159EF16F000017A6F7AC03B
:104A280060F00001616B000E636F0A0E626F22EC8A
:104A380029F000016051300F7D6F0A0E606F7A51C6
:104A4800D4EC2CF000017A6F7AC060F0616B000E34
:104A5800636F0A0E626F22EC29F000016051300F7B
:104A68007C6F0A0E606F7A51D4EC2CF000017A6FDB
:104A78007AC060F0616B000E636F0A0E626F22EC01
:104A880029F000016051300F7B6F000E7E6F7B0EA6
:104A9800726F000E736F72517311D8A4200E746F69
:104AA80078C075F079C076F076EC28F01200066EC2
:104AB800000E076E040E086E0150026E036AD8904D
:104AC800023603360650046E056AD8900436053659
:104AD800D890043605360250042603500522D89093
:104AE80004360536D8900436053604500726055096
:104AF800082207C0D9FF08C0DAFFDF9E0150D8A4FA
:104B080007D00650020D400EF324D96E010E06D0D0
:104B18000650020DCA0EF324D96E000EF420DA6E88
:104B280007C0DEFF08C0DDFF07C0D9FF08C0DAFFF5
:104B3800DF9C20EE04F00750D9260850DA22DF8CDB
:104B48001200000E0001606F020E606501D00CD0EB
:104B58006051010DF80EF324D96E010EF420DA6EBF
:104B6800000EDF6E602BF0D7000E616F210E6165BD
:104B780001D00CD06151010D300EF324D96E010E15
:104B8800F420DA6E000EDF6E612BF0D7000E626F34
:104B98001F0E626501D00CD06251010DA50EF324E1
:104BA800D96E010EF420DA6E000EDF6E622BF0D79C
:104BB800000E636F0F0E636501D012006351010D83
:104BC800C50EF324D96E010EF420DA6E000EDF6EE6
:104BD800632BF0D737D060C0D9FF61C0DAFFDF5050
:104BE800D8B411D060C0D9FF61C0DAFFDF5000012E
:104BF800666F62C0F6FF63C0F7FFF86A0800F550F9
:104C08006619D8B41BD062C0F6FF63C0F7FFF86A14
:104C18000800F5500001666F676B661F671F664BDB
:104C2800672B60C0D9FF61C0DAFFDF50686F685139
:104C38006625606F000E6721616F1200604B612B63
:104C4800624B632B00016407D8A065076429C3E1A0
:104C58006529D8A4C0D7000E616F000E606F1200DE
:104C68001B6E1BC001F0026A000E046E0A0E036E72
:104C78005BEC29F00150300F176E0A0E016E1B50C5
:104C88006BEC2DF01B6E1BC001F0026A000E046E67
:104C98000A0E036E5BEC29F00150300F166E0A0EF7
:104CA800016E1B506BEC2DF01B6E1BC001F0026AED
:104CB800000E046E0A0E036E5BEC29F00150300FF3
:104CC800156E000E186E150E0D6E000E0E6E0D5040
:104CD8000E10D8A4200E0F6E13C010F014C011F0DF
:104CE800CAEC29F01200000E0001676F000E666F13
:104CF800000E656FAC9A8B9C000E616F0A0E606F98
:104D08000DEC2EF0AC8A000E0001616F050E606F8D
:104D18000DEC2EF0550EAD6EACA2FED7FC0E0001C8
:104D2800616F7F0E626FC0EC2DF0000E0001616FA5
:104D3800280E606F0DEC2EF013D06BEC2AF00009F2
:104D4800D8B403D0010E00010AD00001654B662BD0
:104D5800890E655D130E6659D8A002D0010E676FE3
:104D680000016751D8B41200E8D700016A6F00014A
:104D780063516EEC30F000016251080DF350040FDE
:104D8800D4EC2FF0000E00016B6F070E6B6501D09D
:104D980012006B51010D000E646FFF0E656F6A51B2
:104DA800666F676BD89066376737D890663767370E
:104DB800D890663767376451662765516723FBC10A
:104DC80068F0FCC169F06651682767516923F350A0
:104DD8006827F450692368C0F6FF69C0F7FFF86ACE
:104DE8000800F55023EC30F000016B2BCED7000EF5
:104DF8004D6E000E476E000E446E000E436E000EA0
:104E0800496E000E4C6ECAC0D9FFCBC0DAFF7F0EC8
:104E1800DF16040E0001CA1BCAC0D9FFCBC0DAFFD7
:104E28007F0EDF16040ECA1B36C0D9FF37C0DAFF63
:104E38007F0EDF16000EC76F000EC96F000EC86F19
:104E4800000EBF6F000EC16F000EC06FAFEC1CF0FC
:104E5800000E0F6E030E0E6E000E106E000E116E19
:104E6800000E136E000E126E00EC2BF0D4EC1AF04C
:104E78001200000E096E000E0A6E000E0B6E000E78
:104E88000C6E0550061007100810D8B42AD0010E71
:104E98000D6E06D0D89005360636073608360D2A28
:104EA80008AEF8D7D89009360A360B360C360550B6
:104EB800015C065002580750035808500458D8A0FF
:104EC80009D00550015E0650025A0750035A08508F
:104ED800045A0980D89008320732063205320D2E5E
:104EE800E1D709C001F00AC002F00BC003F00CC002
:104EF80004F01200E20E2EEC30F08A84040E000159
:104F0800626F1C0EE82EFED7622FFCD700F08A9441
:104F1800200E0001626F290EE82EFED7622FFCD703
:104F280000D08A84100E0001626F940EE82EFED71E
:104F3800622FFCD700F0A10E2EEC30F0C00E2EEC44
:104F480030F0A30E2EEC30F0070EA7EC30F0050E73
:104F58009FEC30F05E5064EC30F0000EAFEC30F0B7
:104F6800F80E2EEC30F0000E2EEC30F0AF0E2EECDA
:104F780030F01200000E0001786F000E776F000EFF
:104F8800796F030E796501D02FD072C0D9FF73C035
:104F9800DAFFDF50D8B428D07951D8B40ED077C012
:104FA80060F078C061F0000E636F0A0E626F25EC46
:104FB8002FF060C077F061C078F072C0D9FF73C07D
:104FC800DAFFDF500001746F74517725756F000E9A
:104FD8007821766FD00E7525776FFF0E7621786F62
:104FE800724B732B792BCDD777C072F078C073F0E2
:104FF80012000B6E0450BFEC30F00350080DF35054
:10500800040F4FEC30F0000E0C6E070E0C6401D04C
:1050180012000C50010D000E056EFF0E066E0B50AF
:10502800076E086AD89007360836D89007360836CB
:10503800D890073608360550072606500822FBC1C7
:1050480009F0FCC10AF00750092608500A22F3505B
:105058000926F4500A2209C0F6FF0AC0F7FFF86AC9
:105068000800F55082EC30F00C2ACFD7000E000172
:10507800666F000E656FD30E616F790E626FC0ECBC
:105088002DF009D00001654B662B510E655DC30EEE
:105098006659D8B005D06BEC2AF00009D8B4F2D71D
:1050A800000E0001666F000E656FB80E616F790E15
:1050B800626FC0EC2DF009D00001654B662B510ED4
:1050C800655DC30E6659D8B005D06BEC2AF00009AF
:1050D800D8B4F2D7000E0001616F640E606F0DEC5A
:1050E8002EF0120075C077F00F0E0001776501D021
:1050F800120072C0F6FF73C0F7FF74C0F8FFF8BA69
:1051080003D00800F55005D0F6CFE9FFF7CFEAFF46
:10511800EF500009D8B4120077C062F076C063F08F
:1051280072C0F6FF73C0F7FF74C0F8FFF8BA03D077
:105138000800F55005D0F6CFE9FFF7CFEAFFEF50AA
:10514800B9EC26F00001010E7227000E7323000E41
:105158007423772B0F0ECAD782EC20F0000E0001C3
:10516800616F140E606F0DEC2EF0D9EC19F0F0ECB5
:105178002FF0000E0001616F140E606F0DEC2EF021
:10518800E9EC28F0000E0001616F140E606F0DEC61
:105198002EF001EC2AF0000E0001616F140E606F12
:1051A8000DEC2EF072EC2CF0000E0001616F140E65
:1051B800606F0DEC2EF058EC1AF00B0E0001616FC9
:1051C800B80E606F0DEC2EF01200BF0E0001726F6A
:1051D8007E0E736F72517311D8A4000E746F000E97
:1051E800756F000E766F76EC28F0010E3BEC1CF024
:1051F800010E0001616FF40E606FF4EC2DF0000EEB
:105208003BEC1CF0010E0001616FF40E606FF4ECD2
:105218002DF0010E3BEC1CF0010E0001616FF40E45
:10522800606FF4EC2DF0000E3BEC1CF0010E000159
:10523800616FF40E606FF4EC2DF01200000E0001A7
:10524800656F61AF06D0606D611FD8B0612B010E2C
:10525800656F63AF04D0626D631FD8B0632B625172
:105268006311D8B418D0010E646F04D0D890623797
:105278006337642B63AFFAD76251605D635161593C
:10528800D8A004D06251605F6351615BD8906333EA
:105298006233642FF1D76551D8B404D0606D611FB3
:1052A800D8B0612B60C060F061C061F01200000EE0
:1052B800066E02AE06D0016C021ED8B0022A010E9C
:1052C800066E04AE04D0036C041ED8B0042A035042
:1052D8000410D8B418D0010E056E04D0D890033647
:1052E8000436052A04AEFAD70350015C045002586C
:1052F800D8A004D00350015E0450025AD89004325A
:105308000332052EF1D70650D8B404D0016C021E22
:10531800D8B0022A01C001F002C002F01200000E4B
:105328000001606F81A202D081B01AD0010E010184
:105338004A27000E4B234C234D23370E4A194B1195
:105348004C114D11D8A409D0000E0001E46F81B2B0
:1053580002D0010E18D0020E16D0000E000113D094
:10536800140EE419D8A40DD0000E01014A6F000EE6
:105378004B6F000E4C6F000E4D6F000E0001E46F76
:1053880001D0E42B030E606F6051120010C012F0C0
:105398000F0E126401D012000DC0F6FF0EC0F7FF09
:1053A8000FC0F8FFF8BA03D00800F55005D0F6CFC3
:1053B800E9FFF7CFEAFFEF500009D8B4120012C096
:1053C80003F011C004F00DC0F6FF0EC0F7FF0FC0C8
:1053D800F8FFF8BA03D00800F55005D0F6CFE9FF7A
:1053E800F7CFEAFFEF50FDEC27F0010E0D26000E77
:1053F8000E22000E0F22122ACBD7060E0001726F62
:105408007F0E736F72517311D8A4000E746F000E63
:10541800756F010E766F76EC28F0898C898E010EF7
:105428000001616FF40E606FF4EC2DF0899C899E89
:10543800010E0001616FF40E606FF4EC2DF0898CA1
:10544800898E010E0001616FF40E606FF4EC2DF08F
:10545800899C899E010E0001616FF40E606FF4EC67
:105468002DF01200F30E0001606F010E616FEE0E59
:10547800626F010E636F000E656F050E646F2CEC92
:105488002CF0F30E0001606F010E616F6BC062F0CB
:105498006CC063F0000E656F050E646F2CEC2CF089
:1054A800000E00016D6F040E6D6501D00ED06D51B8
:1054B800010DF30EF324D96E010EF420DA6EDF50DD
:1054C800D8B46DC0EDF06D2BEED700F01200000ED1
:1054D8000001616FF551D8B42BD0000E626F4EEC0D
:1054E8002DF00001626F0D0E6219D8A40FD0F25191
:1054F800010D650EF324D96E010EF420DA6E000E4C
:10550800DF6E010E616F000EF26F12D06251D8B4D7
:105518000FD00A0E6219D8B40BD0F251010D650EE6
:10552800F324D96E010EF420DA6E62C0DFFFF22B8D
:1055380061511200000E0101E76F4B0EE86F000E7B
:10554800E96F000EEA6F000EEB6F000EEC6F080EAD
:10555800ED6F000E0001DD6F1A0E096E010E30ECC2
:105568002DF01E0E096E020E30EC2DF0000E016EAD
:10557800400E026E050E036E400E046E020E07EC1E
:1055880022F001C0D6F002C0D7F0000E346E000E33
:10559800356E000E0001EB6F1200000E0001756FF2
:1055A800050E756501D026D072C0D9FF73C0DAFF29
:1055B800DF50D8B412D072C0D9FF73C0DAFF74516B
:1055C800010DC50EF324E16E010EF420E26EDFCF6B
:1055D800E7FF724B732B742B0BD07451010DC50E62
:1055E800F324D96E010EF420DA6E200EDF6E02D09D
:1055F800752BD6D77551120006D089EC2BF0120006
:1056080073EC23F012000EC014F00FC015F0155003
:10561800000AD8B404D07F0AD8A4120018D01450B5
:10562800010AD8B4EAD7030AD8B41200010AD8B4D8
:10563800E7D7060AD8B41200770AD8B41200010ACC
:10564800D8B41200070AD8B41200010A1200145084
:10565800FF0A1200020E4C18D8A403D0BCEC18F0B4
:105668001200000E4C6E4950D8A41FD020EE01F055
:105678003650D9263750DA22080EDF6E20EE02F0B7
:105688003650D9263750DA22300EDE6E040EDD6E23
:1056980036C0D9FF37C0DAFF0C0EDF6E36C0D9FF2F
:1056A80037C0DAFF000EDB8E1200000E496E1200C2
:1056B800D5C1E7F1D6C1E8F1D7C1E9F1D8C1EAF11E
:1056C800000E016E1B0E026EB70E036E000E046E06
:1056D800E7C105F0E8C106F0E9C107F0EAC108F042
:1056E8003DEC27F0FF0E01240E6EFF0E02200F6E18
:1056F800FF0E0320106EFF0E0420116E0EC0AFFFC8
:105708000FC0B0FFA4EC2DF012009EEC2AF0000EA2
:105718000101EB6F080EED6F000EEC6F000EE76FE6
:105728004B0EE86F000EE96F000EEA6FA4EC2DF047
:10573800000E0D6E3F0E0D6401D00CD00D50010D02
:10574800800EF324D96E020EF420DA6E000EDF6E9E
:105758000D2AF0D7000E0001E86F000EE66F120068
:1057680092809282928492868D949694929A929C38
:10577800929EF19E868EF28693829380938E939466
:1057880093969398939A949094929484949C948EDC
:10579800000E956E9694899A899C899E8A948B941A
:1057A8008B9C8D840F015B915B835B855B875D9F21
:1057B8005D9D1200000E0001716F000E706F6C0E7F
:1057C800616F7A0E626FC0EC2DF009D00001704B4A
:1057D800712B510E705DC30E7159D8B005D06BECAA
:1057E8002AF00009D8B4F2D7650E00016B6F010EDC
:1057F8006C6F36EC2AF0650E00016E6F010E6F6F4C
:10580800120005D00001604B612B624B632B60C016
:10581800D9FF61C0DAFFDF500001646F62C0F6FF94
:1058280063C0F7FFF86A0800F55000086425656F43
:105838006551D8A407D060C0D9FF61C0DAFFDF5036
:10584800D8A4E0D76551606F616B60BF6107120033
:1058580062C068F063C069F060C066F061C067F05C
:1058680011D068C0D9FF69C0DAFFDF5000016A6F44
:10587800684B692B66C0D9FF67C0DAFF6AC0DFFFD3
:10588800664B672B00016407D8A065076429E9E126
:105898006529D8B41200E5D7000162516311D8B464
:1058A80018D0010E646F04D0D89062376337642B28
:1058B80063AFFAD76251605D63516159D8A004D0D3
:1058C8006251605F6351615BD89063336233642FC8
:1058D800F1D760C060F061C061F01200000E0001F5
:1058E800606F3F0E606501D00CD06051010D000E55
:1058F800F324D96E020EF420DA6E000EDF6E602BF0
:10590800F0D7000EDF6F000EDE6F000EF56F9D986A
:10591800000EE26F000EE16F400EE06F12006AA009
:105928001DD038C0D9FF39C0DAFF800EDE18D8A4E0
:1059380014D0CAC0D9FFCBC0DAFF840EDE18D8A4B1
:105948000CD038C0D9FF39C0DAFF0C0EDF6E38C072
:10595800D9FF39C0DAFF000EDB8E6A90659A120013
:10596800000E0001666F000E656F560E616F7A0EAD
:10597800626FC0EC2DF009D00001654B662B510E0B
:10598800655DC30E6659D8B005D06BEC2AF00009E6
:10599800D8B4F2D7650E0001636F010E646F120070
:1059A8000001616F000E0001636F6051D8B415D01B
:1059B800010E626F03D0D8906037622B60AFFBD7BF
:1059C800D89063376051615DD8A003D06051615FA2
:1059D8006381D8906033622FF3D7635112000001BE
:1059E800606F0001E051D8B4FCD79DB803D060C007
:1059F800ADFF12D09D98E251010D400EF324D96EEF
:105A0800020EF420DA6E60C0DFFFE22B3F0EE26583
:105A180002D0000EE26FE0079D8812000001616F5E
:105A2800000EF2BE010E0001626F61C0A9FF60C0E6
:105A3800A8FFA69EA69CA684F29E550EA76EAA0E47
:105A4800A76EA682A6B2FED7A694000162B102D0C4
:105A5800F29E01D0F28E12000C6E09A405D0000E41
:105A6800016E0C505BEC25F009A205D0010E016E09
:105A78000C505BEC25F00C50010D6A0EF3240A6EF5
:105A88000F0EF4200B6E0AC0D9FF0BC0DAFF09C055
:105A9800DFFF1200000E0001606F01D0898EF55102
:105AA800D8B4FCD79D9ADE51010D000EF324D96EAF
:105AB800020EF420DA6EDF50606FDE2B3F0EDE65DB
:105AC80002D0000EDE6FF5079D8A60511200026E4B
:105AD800000E046E0150D8B415D0010E036E03D029
