:040000008DEF00F090
:100008005E82FACF21F0FBCF22F0E9CF23F0EACFCE
:1000180024F0E1CF25F0E2CF26F0D9CF27F0DACFD0
:1000280028F0F3CF29F0F4CF2AF0F6CF2BF0F7CF52
:100038002CF0F8CF2DF0F5CF2EF05EC02FF05FC07A
:1000480030F060C031F061C032F09DB09EA004D0A5
:1000580051EC2CF08DEC2CF0A0B2A1A203D082ECD4
:100068002BF013D09DBA9EAA05D079EC2CF06DEC3C
:100078002AF00BD09DB89EA803D055EC2AF005D0E5
:10008800A0BCA1AC02D09AEC2CF0F2BAF2A403D036
:1000980057EC2CF018D0F2B6F2A013D0F29086AE3E
:1000A80012D09CEC2AF080BE03D0206A202A01D00E
:1000B800206A20322032805020187F0B2018806E52
:1000C80002D01CEC14F032C061F031C060F030C0D6
:1000D8005FF02FC05EF02EC0F5FF2DC0F8FF2CC0DA
:1000E800F7FF2BC0F6FF2AC0F4FF29C0F3FF28C092
:1000F800DAFF27C0D9FF26C0E2FF25C0E1FF24C0F0
:10010800EAFF23C0E9FF22C0FBFF21C0FAFF5E928D
:10011800110058EF21F00001B56F000E0001B06F1B
:10012800AE51D8B4E5EF07F0FA51D8B4E5EF07F0CF
:10013800FD51EF5DD8A0C4D0F0EC21F0000E010114
:10014800596F000E586F000E0001DB6F000EDA6F5A
:1001580000F08CEC24F0000E0001B16FB3EC27F036
:100168006EC072F06FC073F04DEC24F072C058F19D
:1001780073C059F14BEC2CF060C072F061C073F0A1
:10018800060E0001746F010E756F71EC25F04BECD3
:100198002CF060C072F061C073F0040E0001746F3F
:1001A800A6EC26F00001B16F88EC28F063C072F06D
:1001B80064C073F04DEC24F072C0DAF073C0DBF069
:1001C8000001DA5106EC18F00001AF6FAF51DA6F99
:1001D800DB6B81EC2CF0050F0001666FDA51FEEC49
:1001E8001EF0000E0001EF6FADEC2BF0310E000198
:1001F800726F7C0E736F000E746F000E756F71EC6A
:1002080025F0340E0001726F7E0E736F000E746F4E
:10021800010E756F71EC25F0720E0001726F7D0E84
:10022800736F000E746F020E756F71EC25F04BEC56
:100238002CF060C072F061C073F0030E0001746F9F
:10024800020E756F71EC25F00B0E0001776F020E30
:10025800786FDA51B6EC20F05DEC2CF00001F16F0C
:10026800F151D8A402D0050E05D0DF0EF16503D0F8
:10027800F151CE0FF16F0A0E776F010E786FF151C1
:100288007EEC22F0000E0001666FF151FEEC1EF0CC
:10029800200E0101C76F00F02D0E0001616F7D0E69
:1002A800626FC40E636F010E646F0C0E656F87EC8E
:1002B8001DF0070E0001F06F080EF36FE5EF07F071
:1002C800FB51D8B407D0EF2B0F0EF36F010EAC6FB4
:1002D800E5EF07F0000EEF6FE5EF07F0FFD700013D
:1002E800B551D8A403D0AC51D8B41200ADEC2BF062
:1002F800210E0001726F7B0E736F000E746F000E7B
:10030800756F71EC25F0870E0001726F7B0E736FAD
:10031800000E746F010E756F71EC25F0830E0001ED
:10032800726F7C0E736F000E746F030E756F71EC35
:1003380025F0060E0001F36F1200B551D8B427D08E
:10034800ADEC2BF0100E0001726F7B0E736F000E78
:10035800746F000E756F71EC25F0FF0E0001726F5F
:100368007A0E736F000E746F010E756F71EC25F0C5
:10037800830E0001726F7C0E736F000E746F030E94
:10038800756F71EC25F00A0E0001F36F1200AC5185
:10039800D8B41200000EEF6FADEC2BF0DC0E0001AC
:1003A800726F7B0E736F000E746F000E756F71ECB9
:1003B80025F0650E0001726F7D0E736F000E746F6D
:1003C800010E756F71EC25F0A90E0001726F7A0E9F
:1003D800736F000E746F030E756F71EC25F0F0ECFF
:1003E80021F05DEC2CF00001F16FF151D8A402D09E
:1003F800050E05D0DF0EF16503D0F151CE0FF16F78
:100408000C0E776F010E786FF1517EEC22F0000E22
:100418000001666FF151FEEC1EF0200E0101C76F5E
:10042800000E596F000E586F000E0001DB6F000EB2
:10043800DA6F00F08CEC24F0010E0001616FF40E0D
:10044800606FAAEC29F0000E0001B26FB3EC27F040
:100458006EC072F06FC073F04DEC24F072C058F1AA
:1004680073C059F1B3EC27F06EC072F06FC073F02F
:10047800040E0001746FA6EC26F00001B26F00F0C4
:1004880000F088EC28F063C072F064C073F04DECA3
:1004980024F072C0DAF073C0DBF00001DA5106EC28
:1004A80018F00001AF6FAF51DA6FDB6B81EC2CF005
:1004B800050F0001666FDA51FEEC1EF000F0070E22
:1004C8000001F36F1200B551D8B40CD02D0E616F36
:1004D8007D0E626FC40E636F010E646F0C0E656F44
:1004E80087EC1DF00001AC51D8B40CD0640E616FDC
:1004F8007E0E626FC40E636F010E646F0C0E656F23
:1005080087EC1DF00001B551D8A403D0AC51D8B484
:100518001200ADEC2BF04C0E0001726F7E0E736F63
:10052800000E746F000E756F71EC25F0400E00011F
:10053800726F7E0E736F000E746F010E756F71EC23
:1005480025F00C0E0001776F010E786FF1517EECEB
:1005580022F0720E0001726F7D0E736F000E746FC1
:10056800020E756F71EC25F04BEC2CF060C072F048
:1005780061C073F0030E0001746F020E756F71ECA9
:1005880025F00B0E0001776F020E786FDA51B6EC8A
:1005980020F0899C080E0001F36F1200AD51D8B409
:1005A80003D1640E606F010E616FF70E626F7F0EEC
:1005B800636FDAEC27F0000160516111D8A403D011
:1005C800898C080EF36F640E606F010E616FAA0EBE
:1005D800626F7F0E636F000E656F060E646FC3EC6B
:1005E80022F0000160516111D8A478D0070EB46FD1
:1005F800B451010D640EF324D96E010EF420DA6EA5
:10060800DF500101F76F0001B42BB451010D640EE6
:10061800F324D96E010EF420DA6EDF500101F86F71
:100628000001B42B200E0101F819D8B415D000012F
:10063800B451010D640EF324D96E010EF420DA6E64
:10064800DF500101F96F0001B42B200E0101F919E7
:10065800D8B402D00001B42B000E0001B36F3F0ED6
:10066800B36501D023D0B451010D640EF324D96EC3
:10067800010EF420DA6EB351010DA40EF324E16EDD
:10068800010EF420E26EDFCFE7FFB351010DA40E97
:10069800F324D96E010EF420DA6EDF50D8B402D0FC
:1006A800B42B02D0400EB36FB32BD9D7898E899C57
:1006B800540E726F7B0E736F000E746F020E756F9F
:1006C80071EC25F0CC0E0001726F7A0E736F000E7C
:1006D800746F030E756F71EC25F05DD0640E000128
:1006E800606F010E616FB10E626F7F0E636F000E57
:1006F800656F060E646FC3EC22F000016051611152
:10070800D8A40CD0899CBA0E726F7B0E736F000E42
:10071800746F030E756F71EC25F03DD0640E000107
:10072800606F010E616FA30E626F7F0E636F000E24
:10073800656F060E646FC3EC22F000016051611111
:10074800D8A40BD0960E726F7A0E736F000E746F6A
:10075800030E756F71EC25F01ED0640E0001606FFA
:10076800010E616F9C0E626F7F0E636F000E656FE6
:10077800060E646FC3EC22F0000160516111D8A429
:100788000AD0B30E726F7C0E736F000E746F030E77
:10079800756F71EC25F0FA0E0001AF6F580EE82E58
:1007A800FED7AF2FFCD700F00001B551D8A403D075
:1007B800AC51D8B41200ADEC2BF0210E0001726FD1
:1007C8007B0E736F000E746F000E756F71EC25F061
:1007D800870E0001726F7B0E736F000E746F010E2F
:1007E800756F71EC25F0830E0001726F7C0E736FCC
:1007F800000E746F030E756F71EC25F0060E000184
:10080800F36F1200B551D8B427D0ADEC2BF0630EBE
:100818000001726F7C0E736F000E746F000E756F9F
:1008280071EC25F0530E0001726F7C0E736F000E91
:10083800746F010E756F71EC25F0830E0001726FF5
:100848007C0E736F000E746F030E756F71EC25F0DC
:10085800010E0001F36F1200AC51D8B41200ADECD8
:100868002BF0899E420E0001726F7C0E736F000E92
:10087800746F000E756F71EC25F0CA0E0001726F6F
:100888007E0E736F000E746F010E756F71EC25F09C
:10089800F70E0001726F010E736F090E746F010E6F
:1008A800756F71EC25F0510E0001726F7E0E736F3B
:1008B800000E746F020E756F71EC25F0A40E000126
:1008C800726F010E736F060E746F020E756F71EC06
:1008D80025F0AE0E0001726F010E736F000E746F7B
:1008E800030E756F71EC25F00B0E0001F36F12000B
:1008F800B551D8A403D0AC51D8B41200ADEC2BF04C
:10090800100E0001726F7B0E736F000E746F000E75
:10091800756F71EC25F0FF0E0001726F7A0E736F20
:10092800000E746F010E756F71EC25F0830E0001D7
:10093800726F7C0E736F000E746F030E756F71EC1F
:1009480025F00A0E0001F36F1200B551D8B436D065
:10095800ADEC2BF0200E0001726F7C0E736F000E51
:10096800746F000E756F71EC25F00001FB51D8B45F
:100978000BD0D30E726F7C0E736F000E746F020E65
:10098800756F71EC25F00BD0E20E0001726F7C0ED2
:10099800736F000E746F020E756F71EC25F0730E95
:1009A8000001726F7C0E736F000E746F030E756F0B
:1009B80071EC25F00C0E0001F36F1200AC51D8B4A5
:1009C8001200ADEC2BF0630E0001726F7C0E736F9A
:1009D800000E746F000E756F71EC25F0800E00012B
:1009E800726F7F0E736F000E746F010E756F71EC6E
:1009F80025F0790E0001726F7F0E736F000E746F11
:100A0800020E756F71EC25F0FA0E0001726F7F0E01
:100A1800736F0A0E746F020E756F71EC25F08CEC13
:100A280024F0020E0001F36F1200B551D8B49BD028
:100A3800ADEC2BF0760E0001726F7B0E736F000E1B
:100A4800746F000E756F71EC25F0650E0001726F02
:100A58007B0E736F000E746F010E756F71EC25F0CD
:100A6800870E0001726F7F0E736F000E746F020E97
:100A7800756F71EC25F0C20E0001726F7F0E736FF7
:100A88000C0E746F020E756F71EC25F048D0CB0E0A
:100A98000001726F7D0E736F070E746F020E756F13
:100AA80071EC25F051D0E00E0001726F7F0E736F6C
:100AB800070E746F020E756F71EC25F045D0EC0EC1
:100AC8000001726F7F0E736F070E746F020E756FE1
:100AD80071EC25F039D0E40E0001726F7F0E736F50
:100AE800070E746F020E756F71EC25F02DD0E80EAD
:100AF8000001726F7F0E736F070E746F020E756FB1
:100B080071EC25F021D0EF0E0001726F7F0E736F2C
:100B1800070E746F020E756F71EC25F015D0000189
:100B2800FE51000AD8B4B3D7010AD8B4BCD7030A17
:100B3800D8B4C5D7010AD8B4CED7070AD8B4D7D7FE
:100B4800010AD8B4E0D7A3D7730E0001726F7C0EE8
:100B5800736F000E746F030E756F71EC25F00D0E38
:100B68000001F36F1200AC51D8B41200FB51D8B495
:100B78000DD0000EFB6FE20E726F7C0E736F000ECD
:100B8800746F020E756F71EC25F01200010E0001F2
:100B9800FB6FD30E726F7C0E736F000E746F020EB4
:100BA800756F71EC25F012000001B551D8A403D07F
:100BB800AC51D8B41200ADEC2BF0630E0001726F8B
:100BC8007C0E736F000E746F000E756F71EC25F05C
:100BD800530E0001726F7C0E736F000E746F010E5E
:100BE800756F71EC25F0830E0001726F7C0E736FC8
:100BF800000E746F030E756F71EC25F0010E000185
:100C0800F36F1200B551D8B492D0ADEC2BF0ED0EC5
:100C18000001726F7B0E736F000E746F000E756F9C
:100C280071EC25F0580E0001726F7E0E736F000E86
:100C3800746F020E756F71EC25F0730E0001726F00
:100C48007C0E736F000E746F030E756F71EC25F0D8
:100C5800030E0001F36F53D0C70E726F7F0E736FD0
:100C68000A0E746F020E756F71EC25F060D0CB0E12
:100C78000001726F7F0E736F0A0E746F020E756F2C
:100C880071EC25F054D0CF0E0001726F7F0E736F98
:100C98000A0E746F020E756F71EC25F048D0D30EF2
:100CA8000001726F7F0E736F0A0E746F020E756FFC
:100CB80071EC25F03CD0D70E0001726F7F0E736F78
:100CC8000A0E746F020E756F71EC25F030D0DB0ED2
:100CD8000001726F7F0E736F0A0E746F020E756FCC
:100CE80071EC25F024D0F30E0001726F7F0E736F44
:100CF8000A0E746F020E756F71EC25F018D00001A2
:100D0800FC51000AD8B4A8D7010AD8B4B0D7030A4E
:100D1800D8B4B9D7010AD8B4C2D7070AD8B4CBD740
:100D2800010AD8B4D4D7030AD8B4DDD795D70001BF
:100D3800AC51D8B41200050EFE6102D0FE2B54D07F
:100D4800000EFE6F51D0090EFD6FDB0E726F7F0E25
:100D5800736F070E746F020E756F71EC25F0120039
:100D6800120E0001FD6FDF0E726F7F0E736F070E9C
:100D7800746F020E756F71EC25F012001B0E0001E6
:100D8800FD6FEB0E726F7F0E736F070E746F020E9E
:100D9800756F71EC25F01200360E0001FD6FE30E41
:100DA800726F7F0E736F070E746F020E756F71ECA2
:100DB80025F012006C0E0001FD6FE70E726F7F0EBA
:100DC800736F070E746F020E756F71EC25F01200C9
:100DD800FD69EF0E726F7F0E736F070E746F020E50
:100DE800756F71EC25F012000001FE51000AD8B4AD
:100DF800AAD7010AD8B4B4D7030AD8B4BFD7010A0E
:100E0800D8B4CAD7070AD8B4D5D7010AD8B4E0D716
:100E18009AD7B551D8B41ED0FC5185EC11F0ADEC81
:100E28002BF0CB0E0001726F7B0E736F000E746F88
:100E3800000E756F71EC25F0930E0001726F7C0E39
:100E4800736F000E746F030E756F71EC25F00F0E43
:100E58000001F36FAC51D8B41200060EFC610AD041
:100E6800EE05D8A405D0030EFC6502D0060E03D00B
:100E7800FC2B56D0000EFC6F53D0C70E726F7F0E3E
:100E8800736F0A0E746F020E756F71EC25F0120005
:100E9800CB0E0001726F7F0E736F0A0E746F020E15
:100EA800756F71EC25F01200CF0E0001726F7F0E86
:100EB800736F0A0E746F020E756F71EC25F01200D5
:100EC800D30E0001726F7F0E736F0A0E746F020EDD
:100ED800756F71EC25F01200D70E0001726F7F0E4E
:100EE800736F0A0E746F020E756F71EC25F01200A5
:100EF800DB0E0001726F7F0E736F0A0E746F020EA5
:100F0800756F71EC25F01200F30E0001726F7F0E01
:100F1800736F0A0E746F020E756F71EC25F0120074
:100F28000001FC51000AD8B4A8D7010AD8B4B0D738
:100F3800030AD8B4B9D7010AD8B4C2D7070AD8B4B3
:100F4800CBD7010AD8B4D4D7030AD8B4DDD795D7FC
:100F5800AC51D8B40CD021EC1BF00009D8B404D0A3
:100F6800010E0001B56F03D0090E0001F06FB551F5
:100F7800D8B41200ADEC2BF0210E0001726F7B0E7D
:100F8800736F000E746F000E756F71EC25F0870E8D
:100F98000001726F7B0E736F000E746F010E756F18
:100FA80071EC25F0830E0001726F7C0E736F000EDA
:100FB800746F030E756F71EC25F0060E0001F36F68
:100FC8001200F351000AD8B473EF01F0010AD8B443
:100FD800BCD4030AD8B4E8D5010AD8B41AD7050A8C
:100FE800D8B4A1EF01F0010AD8B467EF02F00F0AF4
:100FF800D8B4D2EF02F0020AD8B404D4010AD8B4A3
:1010080077D4070AD8B411D5010AD8B4FBD5020A97
:10101800D8B49ED772EF01F000017C6F000E00017A
:101028007B6F66D2FFD7FC0E0001616F7E0E626F88
:101038000DEC2AF03AD17851D8B402D00A0EF46FE8
:101048007C51D8B479D2640E606F010E616FB80E0E
:10105800626F7F0E636F000E656F040E646FC3ECE2
:1010680022F0000160516111D8A429D0000EEE6F62
:10107800ADEC2BF0430E0001726F7B0E736F000E08
:10108800746F000E756F71EC25F0980E0001726F89
:101098007B0E736F000E746F020E756F71EC25F086
:1010A800EE0E0001726F7A0E736F000E746F030EEE
:1010B800756F71EC25F03BD00001F46F3DD2640EE2
:1010C800606F010E616FBD0E626F7F0E636F000E61
:1010D800656F040E646FC3EC22F00001605161116A
:1010E800D8A427D0010EEE6FADEC2BF0430E000113
:1010F800726F7B0E736F000E746F000E756F71EC5C
:1011080025F0980E0001726F7B0E736F000E746FDE
:10111800020E756F71EC25F0EE0E0001726F7A0EFB
:10112800736F000E746F030E756F71EC25F0020E6D
:10113800C3D7FC0E616F7E0E626F0DEC2AF0000EB5
:101148000001616F190E606FAAEC29F0000EB4D788
:101158007751D8B419D0BB0E726F7A0E736F000E28
:10116800746F030E756F71EC25F0010E0001616F4D
:10117800F40E606FAAEC29F0E70E0001616F7D0E96
:10118800626F0DEC2AF05ED07851D8B4D5D1DD0E5F
:10119800726F7A0E736F000E746F030E756F71ECB9
:1011A80025F0010E0001616FF40E606FAAEC29F0C2
:1011B8003B0E0001616F7D0E626F0DEC2AF02FD19E
:1011C8007C51D8B4B9D1640E606F010E616FF70E0F
:1011D800626F7F0E636FDAEC27F0000160516111D6
:1011E800D8A402D0040E69D7640E606F010E616F37
:1011F800570E626F7D0E636FDAEC27F000016051C5
:101208006111D8A419D0ADEC2BF0B40E0001726FA7
:101218007E0E736F000E746F000E756F71EC25F003
:10122800190E0001726F7F0E736F000E746F010E3E
:10123800756F71EC25F076D0E70E616F7D0E626FE9
:101248000DEC2AF0030E38D77C51D8B475D1640E52
:10125800606F010E616F220E626F7F0E636FDAECB2
:1012680027F0000160516111D8A419D0ADEC2BF022
:10127800D40E0001726F7E0E736F000E746F000E35
:10128800756F71EC25F09E0E0001726F7E0E736F04
:10129800000E746F010E756F71EC25F090D0F20E90
:1012A800616F7E0E626F0DEC2AF0010E05D77C513E
:1012B800D8B442D1640E606F010E616FF70E626F91
:1012C8007F0E636FDAEC27F0000160516111D8A43A
:1012D80002D0060EF2D6640E606F010E616F570ED3
:1012E800626F7D0E636FDAEC27F0000160516111C7
:1012F800D8A41AD0ADEC2BF0B40E0001726F7E0E9C
:10130800736F000E746F000E756F71EC25F0190E77
:101318000001726F7F0E736F000E746F010E756F90
:1013280071EC25F0090EC8D6640E606F010E616F6E
:10133800490E626F7D0E636FDAEC27F00001605191
:101348006111D8A407D03B0E616F7D0E626F0DEC62
:101358002AF065D0640E606F010E616F930E626FA4
:101368007E0E636FDAEC27F066D07C51D8B4E4D0F7
:10137800640E606F010E616F220E626F7F0E636FE5
:10138800DAEC27F0000160516111D8A41AD0ADEC55
:101398002BF0880E0001726F7E0E736F000E746F53
:1013A800000E756F71EC25F09E0E0001726F7E0EB7
:1013B800736F000E746F010E756F71EC25F0070ED8
:1013C8007BD6640E606F010E616F950E626F7F0EA3
:1013D800636FDAEC27F0000160516111D8A421D0C5
:1013E800ADEC2BF0E80E0001726F7E0E736F010EEC
:1013F800746F000E756F71EC25F08E0E0001726F20
:101408007F0E736F020E746F010E756F71EC25F00D
:101418003B0E0001616F7D0E626F0DEC2AF0050E28
:101428004BD6640E606F010E616F930E626F7E0E75
:10143800636FDAEC27F0000160516111D8A47CD009
:10144800000E3BD6A90E616F7E0E626F0DEC2AF07E
:1014580018D07C51D8B470D0640E606F010E616FE3
:10146800490E626F7D0E636FDAEC27F00001605160
:101478006111D8A408D0A90E616F7E0E626F0DECC1
:101488002AF0080E19D601016451D00F00017A6FB5
:101498007AC0FCF0010E7B6F4FD07851D8B44CD095
:1014A8000A0E0BD6000E606F000EE6EC28F081B233
:1014B80002D081A0FCD7FA0E0001796F580EE82EF1
:1014C800FED7792FFCD700F0FA0E0001796F580E7D
:1014D800E82EFED7792FFCD700F0FA0E0001796FBD
:1014E800580EE82EFED7792FFCD700F0FF0024D045
:1014F8000001F451000AD8B496D5010AD8B49BD596
:10150800030AD8B425D6010AD8B45AD6070AD8B4DB
:101518009BD6010AD8B4CBD6030AD8B426D7010A79
:10152800D8B490D70F0AD8B494D7010AD8B4B5D78D
:10153800030AD8B4B7D776D500017B511200000151
:101548007751800B806F77517725866F76BF8681BC
:101558008651D8B40DD08629D8A408D0000E746F4F
:10156800000E756F000E766F000E776F768F08D0BD
:10157800000E746F000E756F000E766F000E776F99
:101588007B51800B801B7B517B25856F7ABF8581C2
:101598008551D8B40DD08529D8A408D0000E786F0D
:1015A800000E796F000E7A6F000E7B6F7A8F08D06D
:1015B800000E786F000E796F000E7A6F000E7B6F49
:1015C8008551D8B403D08651D8A409D0000E746FC1
:1015D800000E756F000E766F000E776F12007A514D
:1015E8007403F3CF8BF0F4CF8CF08B51816F826B47
:1015F800836B846B8C51876F886B896B8A6B79518D
:101608007503F3CF8BF0F4CF8CF08B518127000E4C
:101618008223832384238C518727000E88238923E0
:101628008A2378517603F3CF8BF0F4CF8CF08B516B
:101638008127000E8223832384238C518727000E61
:10164800882389238A2383C084F082C083F081C0E1
:1016580082F0816B78517503F3CF8BF0F4CF8CF067
:101668008B5181278C518223000E8323000E842303
:1016780079517403F3CF8BF0F4CF8CF08B51812721
:101688008C518223000E8323000E842383C084F0B0
:1016980082C083F081C082F0816B78517403F3CFEC
:1016A8008BF0F4CF8CF08B5181278C518223000E64
:1016B8008323000E84237A517503F3CF8BF0F4CF84
:1016C8008CF08B5187278C518823000E8923000EBC
:1016D8008A2379517603F3CF8BF0F4CF8CF08B51BA
:1016E80087278C518823000E8923000E8A237A517C
:1016F8007603F3CF8BF0F4CF8CF08B517C6F8C5149
:101708007D6F7E6B7F6B7EC07FF07DC07EF07CC07E
:101718007DF07C6B7C5187277D5188237E518923FE
:101728007F518A2381C07CF082C07DF083C07EF027
:1017380084C07FF0190E05D0D8907F337E337D3377
:101748007C33E82EF9D77C5187277D5188237E5139
:1017580089237F518A2383C084F082C083F081C0AB
:1017680082F0816B855186C07CF07D6B7C27000EF2
:101778007D23820E7C258B6FFF0E7D218C6F0FD011
:10178800D8908737883789378A3784BF8781D89038
:1017980081378237833784378B07D8A08C0789AF86
:1017A800EFD7000E856F84AF16D0FF0E81157C6FC2
:1017B800FF0E82157D6FFF0E83157E6F7F0E8415D9
:1017C8007F6F7C517D117E117F11D8A402D087A133
:1017D80002D0010E856F8551D8B41FD0010E87271E
:1017E800000E882389238A238AA117D087C07CF01A
:1017F80088C07DF089C07EF08AC07FF07F357F3356
:101808007E337D337C337CC087F07DC088F07EC01A
:1018180089F07FC08AF08B4B8C2B8CBF0DD08C51FC
:1018280003E18B29D8A008D0000E876F000E886FBF
:10183800800E896F7F0E20D08CBF05D08C510EE1B1
:101848008B05D8B00BD0000E876F000E886F000E86
:10185800896F000E8A6F000E806F0FD08BC086F0E4
:10186800FF0E8717FF0E88177F0E8917000E8A173D
:1018780086B1898FD89086318A6F80518A1387C044
:1018880074F088C075F089C076F08AC077F01200CD
:1018980000016351800B706F63516325726F62BFE3
:1018A80072817251D8B40DD07229D8A408D0000E14
:1018B800606F000E616F000E626F000E636F628FC3
:1018C80006D0000E606F000E616F000E626F000E92
:1018D800636F6751800B716F70517119D8A4708D47
:1018E80067516725716F66BF71817151D8B40DD08A
:1018F8007129D8A408D0000E646F000E656F000E21
:10190800666F000E676F668F06D0000E646F000E5C
:10191800656F000E666F000E676F7251715DD8B00B
:1019280022D070AD02D0800E701B72C073F071C0EF
:1019380072F073C071F060C073F064C060F073C07F
:1019480064F061C073F065C061F073C065F062C097
:1019580073F066C062F073C066F063C073F067C06E
:1019680063F073C067F0000E736F7251686F696B34
:10197800681F691F684B692B71516A6F6B6B6851DF
:101988006A2769516B236BBF2CD06B5104E11A0E87
:101998006A5DD8A026D06051611162116311D8B474
:1019A80002D0010E01D0000E736F000E606F000EA2
:1019B800616F000E626F000E636F71C072F015D018
:1019C80073A105D0D89073310109736F02D0D890F4
:1019D800733360B1738F633563336233613360335C
:1019E800722B7151725DD8A0EBD770BD29D072519E
:1019F800D8A409D0000E606F000E616F000E626FF0
:101A0800000E636F120064516027655161236651AF
:101A180062236751632363A183D073A106D0D89052
:101A2800733373510109736F02D0D890733360B167
:101A3800738F63356333623361336033722B70D0D5
:101A48006451605D65516159665162596351800AFC
:101A5800686F6751800A6859D8B036D060C068F09E
:101A680061C069F062C06AF063C06BF0681F691FEB
:101A78006A1F6B1F682B000E69236A236B2364514E
:101A880068256C6F655169216D6F66516A216E6FAB
:101A980067516B216F6FFF0E6C25606FFF0E6D2114
:101AA800616FFF0E6E21626FFF0E6F21636F800EF4
:101AB800701B736D7351D8A40FD0010E6027000EF0
:101AC80061236223632308D06451605F6551615BC1
:101AD8006651625B6751635B60516111621163110A
:101AE800D8A41CD07351D8A419D0000E606F000E72
:101AF800616F000E626F000E636F1200D89060373E
:101B080061376237633773BF608173A102D0D880B1
:101B180001D0D89073377251D8A4720762AFEED74C
:101B2800000E716F73AF0AD073C068F07F0E68172C
:101B3800D8A402D060A102D0010E716F7151D8B43F
:101B480020D0010E6027000E61236223632363A166
:101B580018D060C068F061C069F062C06AF063C004
:101B68006BF06B356B336A336933683368C060F088
:101B780069C061F06AC062F06BC063F07229D8A4D2
:101B8800722B7229D8B403D07251D8A40DD0000E8C
:101B9800606F000E616F000E626F000E636F72510E
:101BA800D8A402D0000E706F72A102D0628F01D04B
:101BB800629FD8907231636F70BF638F60C060F0AE
:101BC80061C061F062C062F063C063F0120000019E
:101BD8009051800B996F90519025A46F8FBFA4816D
:101BE800A451D8B40DD0A429D8A408D0000E8D6F64
:101BF800000E8E6F000E8F6F000E906F8F8F06D0C5
:101C0800000E8D6F000E8E6F000E8F6F000E906F9E
:101C18009451800B991B94519425A56F93BFA5816E
:101C2800A551D8B40DD0A529D8A408D0000E916F1D
:101C3800000E926F000E936F000E946F938F06D074
:101C4800000E916F000E926F000E936F000E946F4E
:101C58009151921193119411D8A415D0000E8D6F43
:101C6800000E8E6F000E8F6F000E906F800E8F1318
:101C78007F0E90138DC08DF08EC08EF08FC08FF0C8
:101C880090C090F01200A451D8A411D0000E8D6F0E
:101C9800000E8E6F000E8F6F000E906F8DC08DF04E
:101CA8008EC08EF08FC08FF090C090F01200A551BA
:101CB800956F966B951F961F954B962BA451976F12
:101CC800986B95519727965198237F0E97259E6F6D
:101CD800000E98219F6F8DC09AF08EC09BF08FC028
:101CE8009CF090C09DF0000E8D6F000E8E6F000E60
:101CF8008F6F000E906F000EA06F000EA16F000E88
:101D0800A26F000EA36F000EA56F28D0A551D8B4FE
:101D180011D0D8909A379B379C379D37D8908D37FC
:101D28008E378F379037A3BF8D81D890A037A137D2
:101D3800A237A33791519A5D92519B5993519C595F
:101D480094519D59D8A009D0A38D91519A5F925171
:101D58009B5B93519C5B94519D5BA52B190EA565CC
:101D6800D5D79A519B119C119D11D8B411D0A0813F
:101D78000FD0D8908D378E378F379037A3BF8D818E
:101D8800D890A037A137A237A3379E07D8A09F07BE
:101D98008FAFEFD7000EA56FA3AF16D0FF0EA0151B
:101DA800956FFF0EA115966FFF0EA215976F7F0E08
:101DB800A315986F9551961197119811D8A402D030
:101DC8008DA102D0010EA56FA551D8B41FD0010E68
:101DD8008D27000E8E238F23902390A117D08DC0BE
:101DE80095F08EC096F08FC097F090C098F0983517
:101DF800983397339633953395C08DF096C08EF00F
:101E080097C08FF098C090F09E4B9F2B9FBF10D02B
:101E18009F5103E19E29D8A00BD0000E9F6F9E69A9
:101E2800000E8D6F000E8E6F000E8F6F000E906F7C
:101E38009FBF05D09F5111E19E05D8B00ED0000E6E
:101E48009F6F000E9E6F000E8D6F000E8E6F000E3E
:101E58008F6F000E906F000E996F9EC0A4F0A4A122
:101E680002D08F8F01D08F9FD890A431906F995155
:101E780090138DC08DF08EC08EF08FC08FF090C003
:101E880090F0120004013205D8A410D030511F0B75
:101E98000009D8A40BD00001C78F030E0401311923
:101EA800D8A402D0010E01D0000E4B6E3251D8A436
:101EB800120030511F0B020AD8A4120034510F0B24
:101EC8000009D8B4120034510F0B166E030E1660B9
:101ED8001200200E0001EC19D8A41200C78F0401CB
:101EE80034BF19D034510F0B166E1650020D400E28
:101EF800F324D96E010EF420DA6EDECF1AF0DDCFAE
:101F08001BF034510F0B166E1650010DD00EF32432
:101F1800D96E000E18D034510F0B166E1650020DE4
:101F2800CA0EF324D96E000EF420DA6EDECF1AF052
:101F3800DDCF1BF034510F0B166E1650010DD30E6A
:101F4800F324D96E000EF420DA6EDF50196E19B042
:101F580002D01A9401D01A8434BF0AD034510F0B1E
:101F6800166E1650020D400EF324D96E010E09D0DC
:101F780034510F0B166E1650020DCA0EF324D96E8B
:101F8800000EF420DA6E1AC0DEFF1BC0DDFF030E60
:101F98003119D8A42DD01AC0D9FF1BC0DAFFDFAE83
:101FA8001AD034BF0AD034510F0B166E1650010DDB
:101FB800D00EF324D96E000E0AD0040134510F0B51
:101FC800166E1650010DD30EF324D96E000EF420B0
:101FD800DA6E0001DF821AC0D9FF1BC0DAFF000EDB
:101FE800DB841AC0D9FF1BC0DAFF000EDB8E12009B
:101FF800040E1A1A1AC0D9FF1BC0DAFFDFAE1BD0B5
:102008001AC0D9FF1BC0DAFF7F0EDF161AC0D9FF2E
:102018001BC0DAFF000EDB8C000E0F6E050E0E6E75
:102028001AC010F01BC011F0000E136E020E126ED3
:10203800D5EC26F006D01AC0D9FF1BC0DAFF000E77
:10204800DB8C040E1A1A19B206D01AC0D9FF1BC0AD
:10205800DAFFDFAE30D0040134BF0AD034510F0BA1
:10206800166E1650010DD00EF324D96E000E0AD04C
:10207800040134510F0B166E1650010DD30EF324C4
:10208800D96E000EF420DA6E0001DF921AC0D9FF73
:102098001BC0DAFF3B0EDF16000E0F6E050E0E6E2C
:1020A8001AC010F01BC011F0000E136E020E126E53
:1020B800D5EC26F006D01AC0D9FF1BC0DAFF3B0EBC
:1020C800DF16040134510F0B166E1650010D6A0EFF
:1020D800F324176E0F0EF420186E17C0D9FF18C01E
:1020E800DAFFFE0EDF161200000E0001B76F000EB9
:1020F800B86F000EB96F000EBB6F030EBA6F80A0E9
:1021080009D084EC2CF00009D8A407D0040E0001F3
:10211800FF6F03D0000E62EC2CF00001F8A108D08C
:1021280075EC2CF007EC17F00001F85163EC2BF07C
:102138003AEC25F00001BA6FBA05D8A405D0000E14
:10214800F06F010EB86F08D0020EBA19D8A404D0E7
:10215800000EF06F010EB96F10EC26F00009D8B42C
:1021680002D0010E01D0000E0001BB6F020EF31960
:10217800D8A441D00101575104E1640E565DD8A09E
:102188003AD000F0C70E0001726F7A0E736F060E18
:10219800746F010E756F71EC25F0B3EC27F06EC00B
:1021A80072F06FC073F0060E0001746F010E756F48
:1021B80071EC25F088EC28F063C072F064C073F00D
:1021C8004DEC24F072C0DAF073C0DBF00001DA5194
:1021D80006EC18F00001B66FB651DA6FDB6B060E2D
:1021E800776F020E786FDA51B6EC20F0000E01011D
:1021F800576F000E566F0001F051D8B471D0090E18
:10220800F0656ED0FB51D8B46BD0010EB76F000EDD
:10221800F06F66D0FFD7ADEC2BF0DE0E0001726FC9
:102228007E0E736F010E746F000E756F71EC25F0E2
:10223800340E0001726F7F0E736F020E746F010E01
:10224800756F71EC25F0A90E0001726F7B0E736F2C
:10225800000E746F030E756F71EC25F0000E00010F
:10226800F46F020E31D0B8C077F0B9C078F0BB5126
:1022780010EC08F00009D8B441D0ADEC2BF0FE0EFC
:102288000001726F7B0E736F000E746F000E756F16
:1022980071EC25F00F0E0001726F7C0E736F000E4B
:1022A800746F020E756F71EC25F0320E0001726FBB
:1022B8007B0E736F000E746F030E756F71EC25F053
:1022C800000E0001F36F030EFF6F18D0B9C0ACF019
:1022D800BBC0ADF0B7C0AEF0B8518FEC00F00ED077
:1022E8000001FF51010AD8B496D7030AD8B4BBD766
:1022F800010AD8B4EBD7070AD8A48CD70001FF513C
:1023080012000001646F080E00016419D8B46AD085
:10231800A30E616F7C0E626F0DEC2AF0FA0E0001BD
:10232800636F580EE82EFED7632FFCD700F0FA0E25
:102338000001636F580EE82EFED7632FFCD700F01C
:10234800FA0E0001636F580EE82EFED7632FFCD7F4
:1023580000F048D07F0E0001616F7D0E626F0DECBA
:102368002AF05DD08C0E0001616F7D0E626F0DEC5E
:102378002AF055D0990E0001616F7D0E626F0DEC49
:102388002AF04DD0A60E0001616F7D0E626F0DEC34
:102398002AF045D0B30E0001616F7D0E626F0DEC1F
:1023A8002AF03DD0C00E0001616F7D0E626F0DEC0A
:1023B8002AF035D0CD0E0001616F7D0E626F0DECF5
:1023C8002AF02DD0DA0E0001616F7D0E626F0DECE0
:1023D8002AF025D0F10E0001616F7C0E626F0DECC2
:1023E8002AF01DD000016451000AD8B4B3D7010AFD
:1023F800D8B4B8D7030AD8B4BDD7010AD8B4C2D75D
:10240800070AD8B4C7D7010AD8B4CCD7030AD8B4B6
:10241800D1D7010AD8B4D6D70F0AD8B4DBD7FA0E69
:102428000001636F580EE82EFED7632FFCD700F02B
:10243800FA0E0001636F580EE82EFED7632FFCD703
:1024480000F0FA0E0001636F580EE82EFED7632FD6
:10245800FCD700F02B0E0001616F7F0E626F0DEC50
:102468002AF012000001686F00016851D8A463AF18
:102478001AD060C064F061C065F062C066F063C0E5
:1024880067F0641F651F661F671F642B000E6523B6
:102498006623672364C06AF065C06BF066C06CF0A1
:1024A80067C06DF008D060C06AF061C06BF062C0B0
:1024B8006CF063C06DF06051611162116311D8A4B2
:1024C80009D0000E606F000E616F000E626F000E83
:1024D800636F1200960E696F06D0692BD8906D3322
:1024E8006C336B336A33000E6A15646F000E6B151C
:1024F800656F000E6C15666FFE0E6D15676F645183
:10250800651166116711D8B40DD0E7D7692B010E94
:102518006A27000E6B236C236D23D8906D336C33C0
:102528006B336A33000E6A15646F000E6B15656FA6
:10253800000E6C15666FFF0E6D15676F645165119F
:1025480066116711D8B407D0E1D76907D8906A3700
:102558006B376C376D376CBF03D0020E6961F5D7E6
:1025680069B108D0FF0E6A17FF0E6B177F0E6C1744
:10257800FF0E6D17D890693369C064F0656B666BA0
:10258800676B64C067F0666B656B646B64516A1354
:1025980065516B1366516C1367516D136851D8A45C
:1025A80063AF01D06D8F6AC060F06BC061F06CC022
:1025B80062F06DC063F01200A39433503410D8B4A5
:1025C80010D033C0D9FF34C0DAFFDFAE04D0000129
:1025D800676B672B02D00001676B6751686F696B87
:1025E80005D0000E0001696F000E686F685169110F
:1025F800D8B402D0A3841200030EEB19D8A402D0D9
:10260800000EEB6FEB51D8A402D0A3841200020E87
:10261800EB19D8A413D0010E606F000E616F000E85
:10262800626F000E636F020EE6EC1DF060C033F0BF
:1026380061C034F0030E0001EB6F5ED0EB05D8A447
:102648005BD0400EDD6503D0400E6B6F02D0DDC05D
:102658006BF06B510008DD25DD6F000E01014E6F38
:10266800050E4F6F6BC06AF00001DC51D8B412D070
:1026780026D051C1D9FF52C1DAFF4EC1E1FF4FC187
:10268800E2FFDFCFE7FF01014E4B4F2B514B522B9F
:1026980000016A076A51D8B415D0EBD751C1D9FFE8
:1026A80052C1DAFF4EC1E1FF4FC1E2FFDFCFE7FFC2
:1026B80001014E4B4F2B514B522B00016A076A51B7
:1026C800D8A4ECD7DD51D8A408D0400E6B19D8A4F3
:1026D80002D0020E01D0030EEB6F010E606F000EE8
:1026E800616F050E626F6BC063F0020EE6EC1DF0C1
:1026F80060C033F061C034F0A384120020EE01F012
:102708003750D9263850DA22DF50136E13500001A3
:10271800C05D000EC159D8A0C0C013F01350C05FEF
:10272800000EC15B000E126E11D01250010D380E52
:10273800F324D96E040EF420DA6EBCC0E1FFBDC0EC
:10274800E2FFDFCFE7FFBC4BBD2B122A1350125C10
:10275800D8A0EBD7C051C111D8B432D020EE01F0C7
:102768003550D9263650DA22080EDF6E20EE02F0F8
:102778003550D9263650DA22380EDE6E040EDD6E5C
:1027880037C0D9FF38C0DAFFDFBC0DD035C0D9FF5C
:1027980036C0DAFF480EDF6E35C0D9FF36C0DAFF23
:1027A800000EDB8E120035C0D9FF36C0DAFF080EE6
:1027B800DF6E35C0D9FF36C0DAFF000EDB8E12009F
:1027C80020EE01F03550D9263650DA22080EDF6E99
:1027D80020EE02F03550D9263650DA22300EDE6E61
:1027E800040EDD6E35C0D9FF36C0DAFF040EDF6E89
:1027F80035C0D9FF36C0DAFF000EDB8EC251C311D7
:10280800D8B40ED020EEC2F001D80AD00500FA6E76
:10281800DE50FD6EDE50FE6EF850FF6EFA5012006C
:102828000001BF9F4750D8A4120025EC1DF01200EC
:102838000001EC05D8B460BA06D0000E656E64805D
:102848006488020EEC6F65B464A403D065943DEC13
:102858002AF060A202D0A494120065B064A007D048
:102868004DEC15F0A384040E0001EC6F659065B87B
:1028780064A803D0DEEC2AF0659865AC18D064AC87
:102888000ED0000E0F6E730E0E6E000E106E000E40
:10289800116E000E136E010E126ED5EC26F0659CBB
:1028A8004850D8A448064850D8B425EC1DF065BA5D
:1028B80064AA02D067EC28F065B264A20FD07F0E3C
:1028C8000F6E0E68000E106E000E116E000E136E65
:1028D800010E126ED5EC26F0000E676E040E000194
:1028E800EC6102D0A494120064A639D0000E1F6EC9
:1028F800030E1F6401D033D065A631D061CF59F0E3
:102908005930E832E8320F0B4A6E659659B407D051
:102918004A50010DD00EF324D96E000E06D04A504D
:10292800010DD30EF324D96E000EF420DA6E0001E7
:10293800DF704A50D8A403D0F5EC1BF00ED0000E7F
:102948000F6E720E0E6E590E106E000E116E000E86
:10295800136E000E126ED5EC26F01F2AC9D7A49468
:102968001200A394000E676E000E656E000E6A6E6C
:102978006B0E0001606F0F0E616F000E636F000E2B
:10298800626F000E656F020E646F25EC2AF0160E5A
:10299800626E9F0E666E7B0E646E000E0001686F9D
:1029A8000B0E686501D00ED06851040D000EF3249B
:1029B800D96E040EF420DA6EDE6ADE6ADE6ADD6A3B
:1029C800682BEED7608C000E636E6098609C09D00F
:1029D8006596000EC76F000EBF6F000EC16F000E28
:1029E800C06F65B6F5D7010E466E010E456E000E36
:1029F800446E000E436E000E01015B6F000E000175
:102A0800686F020E686501D02ED06851020DCA0E9B
:102A1800F324D96E000EF420DA6E000EDE6E000E7E
:102A2800DD6E6851020D400EF324D96E010EF420BC
:102A3800DA6E000EDE6E000EDD6E6851010DD30EEB
:102A4800F324D96E000EF420DA6E000EDF6E6851A2
:102A5800010DD00EF324D96E000EF420DA6E000EAC
:102A6800DF6E682BCED7080ECA6F040ECB6F160E1A
:102A78006A6E040E0401036F300E026F080E016FB8
:102A8800040E006F008F000E5A6E000E0001EC6FEE
:102A98001200A394000E676E000E656E000E6A6E3B
:102AA8006B0E016E0F0E026E000E046E000E036EAA
:102AB800000E066E020E056EB3EC2AF0160E626E5C
:102AC8009F0E666E7B0E646E000E096E0B0E096417
:102AD80001D00ED00950040D000EF324D96E040E57
:102AE800F420DA6EDE6ADE6ADE6ADD6A092AEED76B
:102AF800608C000E636E6098609C0AD06596000E2C
:102B08000001C76F000EBF6F000EC16F000EC06FCF
:102B180065B6F4D7010E466E010E456E000E446E82
:102B2800000E436E000E01015B6F000E096E020E6F
:102B3800096401D02ED00950020DCA0EF324D96EB3
:102B4800000EF420DA6E000EDE6E000EDD6E095007
:102B5800020D400EF324D96E010EF420DA6E000E39
:102B6800DE6E000EDD6E0950010DD30EF324D96E12
:102B7800000EF420DA6E000EDF6E0950010DD00E43
:102B8800F324D96E000EF420DA6E000EDF6E092AE7
:102B9800CED7080E0001CA6F040ECB6F160E6A6EF0
:102BA800040E0401036F300E026F080E016F040E4D
:102BB800006F008F000E5A6E000E0001EC6F1200BD
:102BC800800E04013019D8A41200C00E0001C76F8E
:102BD80082D0A20E0001C46F790EC56F000EC96FB6
:102BE800120EC86F120004013251D8A440D03251DD
:102BF800020DF50EF324F66E750EF420F76E09003B
:102C0800F5CFC4F00A00F5CFC5F0020E0001C425C7
:102C1800016E000EC521026E01C0F6FF02C0F7FF6B
:102C2800F86A070EF76403D00800F55005D0F6CF10
:102C3800E9FFF7CFEAFFEF500001C86F030EC42584
:102C4800016E000EC521026E01C0F6FF02C0F7FF3B
:102C5800F86A070EF76403D00800F55005D0F6CFE0
:102C6800E9FFF7CFEAFFEF500001C96F1200000E2D
:102C78000001C76F1200030E0401326124D03251E3
:102C8800020DEF0EF324F66E750EF420F76E0900B0
:102C9800F5CFC4F00A00F5CFC5F0C4C0F6FFC5C033
:102CA800F7FFF86A070EF76403D00800F55005D05F
:102CB800F6CFE9FFF7CFEAFFEF50016E01500001B0
:102CC800C86FC96B1200000E0001C76F1200000E1A
:102CD8000001C76F120004013351010AD8B479D733
:102CE800030AD8B480D7010AD8B4C5D7F0D7C9EC3D
:102CF8002AF0F5EC29F0B5EC14F077EC29F08A8A83
:102D0800000E0001616F320E606FAAEC29F08A9AFA
:102D1800010E0001616FF40E606FAAEC29F0F28CCD
:102D2800F28E07EC23F0000E0001616F140E606F45
:102D3800AAEC29F03CEC2CF0000E0001616F140E97
:102D4800606FAAEC29F0000EE8EC2BF00001F66F9A
:102D5800550EF619D8B408D0C8EC24F0550E000169
:102D6800606F000EE6EC28F0000E0001F76F000E11
:102D780067EC2CF0ADEC2BF01E0E0001726F7D0E8F
:102D8800736F000E746F000E756F71EC25F0000EF6
:102D98000001726F7D0E736F000E746F010E756FF8
:102DA80071EC25F00F0E0001726F7D0E736F000E2F
:102DB800746F030E756F71EC25F0030E0001616FDF
:102DC800E80E606FAAEC29F015D0FFD759EC1FF078
:102DD800010E0001F76F010E6CEC2CF00BD078ECB3
:102DE80010F0040AD8A406D0000E0001F76F000EF8
:102DF80067EC2CF00001F751000AD8B4E7D7010AB4
:102E0800D8B4EDD7E2D70001D84BD92BD8C060F0A1
:102E1800D9C061F0000E636F0A0E626F24EC28F0CF
:102E2800000160516111D8A41200F883D8C060F085
:102E3800D9C061F0000E636F640E626F24EC28F055
:102E4800000160516111D8A41200F885D8C060F063
:102E5800D9C061F0030E636FE80E626F24EC28F0AE
:102E6800000160516111D8A41200F887D8C060F041
:102E7800D9C061F0626B636B600E646FEA0E656FB8
:102E8800000E666F000E676F0BEC20F000016051BA
:102E9800611162116311D8A412003F4A402AF889CF
:102EA8003FC060F040C061F0000E636F3C0E626F7F
:102EB80024EC28F0000160516111D8A41200F88BAD
:102EC8003FC060F040C061F0020E636FD00E626FC9
:102ED80024EC28F0000160516111D8A41200F88D8B
:102EE8003FC060F040C061F0050E636FA00E626FD6
:102EF80024EC28F0000160516111D8A41200F88F69
:102F0800000ED96F000ED86F000E406E000E3F6E97
:102F1800120060980001C7BF38D0BFAF0BD0020EB7
:102F28004C6E4350D8B409EC21F0000E456E000EEB
:102F3800466E120020EE01F03550D9263650DA22BE
:102F4800080EDF6E20EE02F03550D9263650DA2210
:102F5800300EDE6E040EDD6E35C0D9FF36C0DAFFE6
:102F68000C0EDF6E35C0D9FF36C0DAFF000EDB8EDF
:102F7800CAC0D9FFCBC0DAFF040EDF6ECAC0D9FFC2
:102F8800CBC0DAFF000EDB8E1200040130AF10D088
:102F9800010E4C6E4450D8B409EC21F0000E456E79
:102FA800000E466E4750D8A4120025EC1DF0120002
:102FB800020E4C6E20EE01F03550D9263650DA223A
:102FC800080EDF6E20EE02F03550D9263650DA2290
:102FD800300EDE6E040EDD6E35C0D9FF36C0DAFF66
:102FE800040EDF6E35C0D9FF36C0DAFF000EDB8E67
:102FF800000E456E000E466E4750D8A4120025EC10
:103008001DF012000001A66FCD0E0001786FCC0EE6
:10301800796F4C0E7A6F400E7B6FA651606F616BB3
:10302800626B636B000E36EC12F060C074F061C026
:1030380075F062C076F063C077F0A3EC0AF074C054
:103048008DF075C08EF076C08FF077C090F0000ECE
:103058000001916F000E926F800E936F440E946F73
:10306800EBEC0DF08DC0A8F08EC0A9F08FC0AAF0CF
:1030780090C0ABF0000E0001646F000E656F000E8B
:10308800666FBF0E676FA8C060F0A9C061F0AAC0E4
:1030980062F0ABC063F04CEC0CF060C074F061C03F
:1030A80075F062C076F063C077F0000E0001786FAB
:1030B800000E796FC80E7A6F420E7B6FA3EC0AF090
:1030C80074C0A8F075C0A9F076C0AAF077C0ABF0BC
:1030D800A8C060F0A9C061F0AAC062F0ABC063F0FC
:1030E800B2EC1AF000016051A76FA751120000015D
:1030F800646FFA0E0001636F580EE82EFED7632F37
:10310800FCD700F0FA0E0001636F580EE82EFED7C8
:10311800632FFCD700F0FA0E0001636F580EE82EFB
:10312800FED7632FFCD700F000016451D8B429D032
:10313800220E616F7A0E626F0DEC2AF0FA0E000112
:10314800636F580EE82EFED7632FFCD700F0FA0EF7
:103158000001636F580EE82EFED7632FFCD700F0EE
:10316800FA0E0001636F580EE82EFED7632FFCD7C6
:1031780000F03C0E0001616F7A0E626F0DEC2AF0D0
:103188001200EE0E0001616F790E626F0DEC2AF0ED
:10319800FA0E0001636F580EE82EFED7632FFCD796
:1031A80000F0FA0E0001636F580EE82EFED7632F69
:1031B800FCD700F0FA0E0001636F580EE82EFED718
:1031C800632FFCD700F0080E0001616F7A0E626F62
:1031D8000DEC2AF0120004013039E832030B000923
:1031E800D8A4120047D00001C78F080EEC6F120058
:1031F800E4EC15F0120060EC19F012005A0E000110
:10320800C46F000EC56FC781010EC86FC78F12004B
:1032180062EC20F0120046EC0FF012000401345169
:10322800010D570EF3240001C46F000EF420C56F82
:10323800C781010EC86FC78F12000001C78F040134
:103248003451010D570EF324D96E000EF420DA6EB6
:1032580032C4DFFF1200000E0F6E020E0E6E000E5B
:10326800106E000E116E000E136E000E126ED5EC6D
:1032780026F0120004013151000AD8B4C9D7010A56
:10328800D8B4C9D7020AD8B4C6D7060AD8B4ABD7B7
:10329800030AD8B4ADD7010AD8B4DDD70F0AD8B419
:1032A800ADD7010AD8B4A7D7030AD8B4B7D7010A4B
:1032B800D8B4C3D7070A12000001C78F6B0E016E7E
:1032C8000F0E026E000E046E000E036E000E066EE8
:1032D800020E056EB3EC2AF0000E016E040E026EAB
:1032E800000E046E000E036E000E066E300E056EA4
:1032F800B3EC2AF0608C000E166E020E166401D034
:1033080016D01650010DD30EF324D96E000EF420FA
:10331800DA6E000EDF6E1650010DD00EF324D96E52
:10332800000EF420DA6E000EDF6E162AE6D7570E6E
:10333800016E000E026E000E046E000E036E000E8B
:10334800066E020E056EB3EC2AF0609C080E0001B2
:10335800CA6F040ECB6F000E376E040E386E37C07E
:1033680035F038C036F032C45AF05A50D8A403D0D9
:10337800100EEC6F1200000E0F6E010E0E6E5A0E3C
:10338800106E000E116E000E136E010E126ED5EC4B
:1033980026F0200E0001EC6F1200CAC0D9FFCBC086
:1033A800DAFF0001000EDFBC010E126E040ECA1B0C
:1033B800080EEC19D8A40CD0040132517F0B636EAF
:1033C8006350D8B402D0100E01D0040E0001EC6F87
:1033D8004C04D8A43AD020EE02F0CA51D926CB51D9
:1033E800DA22380EDE6E040EDD6E8BEC1BF0020E58
:1033F8004D18D8A40DD0CAC0D9FFCBC0DAFF040E2F
:10340800DF6ECAC0D9FFCBC0DAFF000EDB8E120018
:103418001250D8A40DD0CAC0D9FFCBC0DAFF480ECD
:10342800DF6ECAC0D9FFCBC0DAFF000EDB8E1200F8
:10343800CAC0D9FFCBC0DAFF080EDF6ECAC0D9FFF9
:10344800CBC0DAFF000EDB8E1200BFAF14D0C25122
:10345800C311D8B40ED020EEC2F001D80AD00500AE
:10346800FA6EDE50FD6EDE50FE6EF850FF6EFA50BA
:1034780012000001BF9F000E4C6E12001F0E0001CB
:10348800EC65120060B21200E751D8A411D0800E8A
:10349800676F020E686F400E696FA2EC1EF00001A4
:1034A800E66FE651D8B404D0010EE76F000EE56F61
:1034B800E751D8A4ACA213D0E551010D800EF32436
:1034C800D96E020EF420DA6EDF50C7EC28F0000146
:1034D800E52BE651E519D8A402D0000EE76FF551A7
:1034E800D8B425D087EC2CF00009D8B420D03F0EF2
:1034F8000001E8611CD000F022EC29F000016D6F9A
:10350800E851010D800EF324D96E020EF420DA6E14
:103518006DC0DFFFE82BE851010D800EF324D96E52
:10352800020EF420DA6E000EDF6E000EE96F000165
:10353800EB51D8A410D0E851D8B40DD0800E606FEC
:10354800020E616FE8C062F041EC2BF08AEC2CF0BF
:10355800000E0001E86FE0EC12F012000001623585
:103568006335696F6951D8A409D0000E606F000EE9
:10357800616F000E626F000E636F120060C064F02E
:1035880061C065F062C066F063C067F0200E05D0C8
:10359800D8906733663365336433E82EF9D76451BE
:1035A800686F628FFF0E6017FF0E6117FF0E6217BC
:1035B800000E6317960E695F69AF16D06951800ACD
:1035C800970FD8B009D0000E606F000E616F000E23
:1035D800626F000E636F1200D890633362336133F9
:1035E8006033693FF9D715D01F0E69650FD0000EFB
:1035F800606F000E616F000E626F000E636F120045
:10360800D890603761376237633769076951D8A442
:10361800F7D76851D8B408D0631F621F611F606D67
:10362800000E61236223632360C060F061C061F013
:1036380062C062F063C063F01200000E00016E6F9A
:1036480081A0FED71BEC2BF0010E71EC2CF0C29080
:10365800F29EF29EF29C8D94A0920F015B81A08C49
:10366800F086F2888784000E81B2010E00016E6F29
:10367800000E81B0010E6E6F000E82B4010E6E6FE7
:10368800FA51D8A4D180F292F090A19C00F00300E6
:1036980000F0D19046EC28F0F096F2988794A09C20
:1036A800F28E89EC27F0F2A2F0B002D0A1AC11D0D2
:1036B800F292F090010E00016E6F000E71EC2CF08A
:1036C800F5EC29F08D84FB0EB36E500EB26EA0821D
:1036D80007D00A0E0001F06F000E6E6F8D94A09255
:1036E8000F015B9107EC23F0000E0001616F280EBB
:1036F800606FAAEC29F007EC23F0000E0001616F5F
:10370800280E606FAAEC29F000016E511200080E15
:10371800016E0001C95110E1080EC85DD8B00CD087
:10372800C8C001F04D50D8A402D0010E04D04D04F9
:10373800D8A402D0020E4D6E0150C85F000EC95BBE
:1037480020EE01F0CA51D926CB51DA2201C0DFFFA1
:10375800380E0101546F040E556F0001C7A11DD02A
:103768003CD0C4C0F6FFC5C0F7FFF86A54C1D9FF02
:1037780055C1DAFF070EF76403D00800F55005D0ED
:10378800F6CFE9FFF7CFEAFFEF50DF6E0001C44B39
:10379800C52B0101544B552B01060150D8B412001A
:1037A800E0D7C4C0F6FFC5C0F7FFF86A54C1D9FF17
:1037B80055C1DAFF070EF76403D00800F55005D0AD
:1037C800F6CFE9FFF7CFEAFFEF50DF6E0001C44BF9
:1037D800C52B0101544B552B01060150D8B41200DA
:1037E800E0D72D0E486E59C01CF0FD0E1C16D8A44B
:1037F80057D059C01CF0D8901C323F0E1C161C50D4
:10380800040D000EF324376E040EF420386E37C012
:1038180035F038C036F0040E351A37C0D9FF38C035
:10382800DAFFDF30E8320F0B0D0AD8A436D0000ECD
:103838001E6E070E1E6401D023D020EE02F0375012
:10384800D9263850DA22DECF1CF0DDCF1DF01CC09F
:10385800D9FF1DC0DAFF1E50010D300EF324E16EB2
:10386800040EF420E26EDFCFE7FF20EE02F03750BF
:10387800D9263850DA22DE2A000EDD221E2AD9D7B0
:1038880020EE02F03750D9263850DA22300EDE6E9C
:10389800040EDD6E49EC23F0120003EC27F0120051
:1038A8005950FD0B040AD8A41200D1EC19F01200EB
:1038B800010E0001796FF40E786F000E7A6FADEC8F
:1038C8002BF0F40E0001726F7D0E736F000E746F93
:1038D800000E756F71EC25F081A202D081B00CD07A
:1038E8007C0E0001726F7E0E736F000E746F030EF4
:1038F800756F71EC25F038D01B0E0001726F7E0ECB
:10390800736F000E746F010E756F71EC25F02CD07B
:1039180081B20ED0010E726F7E0E736F000E746F3F
:10392800020E756F71EC25F000017A51080F7A6F5D
:1039380081B00ED00E0E726F7E0E736F000E746F14
:10394800030E756F71EC25F000017A51800F7A6FC4
:10395800880E7A19D8B412009C0E0001776FD70E22
:10396800E82EFED7772FFCD700017807D8A0790773
:103978007829CEE17929D8B41200CAD78CEC24F082
:10398800ADEC2BF0580E0001726F7F0E736F000EB6
:10399800746F000E756F71EC25F0710E0001726F77
:1039A8007F0E736F000E746F010E756F71EC25F04A
:1039B800690E0001726F7F0E736F000E746F020E36
:1039C800756F71EC25F00E0E0001626F020E636FC9
:1039D800430E8BEC23F088EC28F063C072F064C0CF
:1039E80073F04DEC24F072C0DAF073C0DBF0000124
:1039F800DA5106EC18F00001AC6FAC51DA6FDB6BF2
:103A08000A0E776F020E786FDA51B6EC20F000F0EC
:103A1800C70E0001726F7A0E736F0A0E746F010E73
:103A2800756F71EC25F0B3EC27F06EC072F06FC0C3
:103A380073F00A0E0001746F010E756F71EC25F0BA
:103A480012004650D8A41200010E466E4550D8A464
:103A58001200010E456E020E4C18D8A416D00001B3
:103A680020EE01F0CA51D926CB51DA22000EDF6EC2
:103A7800CAC0D9FFCBC0DAFF480EDF6ECAC0D9FF73
:103A8800CBC0DAFF000EDB8E12004C04D8A4120063
:103A9800000E496E20EE01F03750D9263850DA2250
:103AA800080EDF6E20EE02F03750D9263850DA22A1
:103AB800300EDE6E040EDD6E37C0D9FF38C0DAFF77
:103AC800040EDF6E37C0D9FF38C0DAFF000EDB8E78
:103AD800010E496E20EE01F03550D9263650DA2213
:103AE800080EDF6E20EE02F03550D9263650DA2265
:103AF800300EDE6E040EDD6E35C0D9FF36C0DAFF3B
:103B0800800EDF6E12000BD061C0F6FF62C0F7FFB7
:103B18000800F550C7EC28F00001614B622B61C02A
:103B2800F6FF62C0F7FF0800F5500009D8A4ECD7EB
:103B3800000E0001676F020E676501D00ED0675155
:103B4800010DF3506325D96EF4506421DA6EDF500D
:103B5800C7EC28F00001672BEED720EE03F0635185
:103B6800D9266451DA22DF50C7EC28F0040E000190
:103B7800686F21D06851010DF3506325D96EF45058
:103B88006421DA6EDF50666F66390F0B85EC2AF018
:103B9800C7EC28F000016851010DF3506325D96E78
:103BA800F4506421DA6EDF500F0B85EC2AF0C7EC75
:103BB80028F00001682B6551685DD8A0DBD744EC7C
:103BC8002CF012000001646F00016051D8B407D0D6
:103BD8006451020DCA0EF324D96E000E06D064514A
:103BE800020D400EF324D96E010EF420DA6EDECFFA
:103BF80065F0DDCF66F065516611D8A405D0000EDA
:103C0800606F000E616F120020EE02F06551D92638
:103C18006651DA2261C0DEFF62C0DDFF20EE01F0EE
:103C28006551D9266651DA2263C0DFFF65C0D9FF26
:103C380066C0DAFF400EDF1665C0D9FF66C0DAFF3E
:103C4800000EDB8665C0D9FF66C0DAFF000EDB8E8A
:103C58006051D8B407D06451020DCA0EF324D96E4E
:103C6800000E06D06451020D400EF324D96E010EE9
:103C7800F420DA6E040EDF1A65C060F066C061F0E9
:103C88001200056E0150D8B407D00550020DCA0EB7
:103C9800F324D96E000E06D00550020D400EF32411
:103CA800D96E010EF420DA6EDECF06F0DDCF07F014
:103CB80006500710D8A405D0000E016E000E026E43
:103CC800120020EE02F00650D9260750DA2202C070
:103CD800DEFF03C0DDFF20EE01F00650D9260750B5
:103CE800DA2204C0DFFF06C0D9FF07C0DAFF400EA2
:103CF800DF1606C0D9FF07C0DAFF000EDB8606C054
:103D0800D9FF07C0DAFF000EDB8E0150D8B407D008
:103D18000550020DCA0EF324D96E000E06D00550C8
:103D2800020D400EF324D96E010EF420DA6E040E53
:103D3800DF1A06C001F007C002F01200000E0001F1
:103D4800DE6FD651D711D8B40FD0D6C0D9FFD7C09F
:103D5800DAFFDFAE03D06A6B6A2B02D000016A6B10
:103D68006A516B6F6C6B04D0000E6C6F000E6B6F3A
:103D78006B516C11D8A43BD020EE01F0D651D92656
:103D8800D751DA226951DE5CD8B008D020EE01F0B4
:103D9800D651D926D751DA22DF50696F000EDE6F6F
:103DA80013D0DE51010D400EF324D96E050EF42018
:103DB800DA6EDE51010DF3506725E16EF45068218B
:103DC800E26EDFCFE7FFDE2B6951DE5DD8A0E9D7D1
:103DD800000E606F400E616F050E626F400E636FDC
:103DE800020EE6EC1DF060C0D6F061C0D7F000010D
:103DF800DE5112000001696F00016651676F686B40
:103E0800020E6727000E6823C40E6725D96E010EBF
:103E18006821DA6E69C060F0616B000E636F0A0E8C
:103E2800626F01EC25F000016051300FDF6E0A0E61
:103E3800606F6951A8EC28F00001696F6651676FDF
:103E4800686B010E6727000E6823C40E6725D96EBC
:103E5800010E6821DA6E69C060F0616B000E636F55
:103E68000A0E626F01EC25F000016051300FDF6E21
:103E78000A0E606F6951A8EC28F00001696F66515D
:103E8800010DC40EF324D96E010EF420DA6E69C058
:103E980060F0616B000E636F0A0E626F01EC25F033
:103EA80000016051300FDF6E12003ED0FFD7ADEC3D
:103EB8002BF0100E0001726F7F0E736F010E746F7E
:103EC800000E756F71EC25F0610E0001726F7F0EA8
:103ED800736F020E746F010E756F71EC25F0280E6A
:103EE8000001726F7E0E736F000E746F020E756F95
:103EF80071EC25F0010E000105D0200EEC6101D017
:103F08001FD0020EEA6F1CD042EC1AF0030E00011B
:103F1800776F3AEC25F00001776F030E7719D8B464
:103F28000FD0020EF96F0CD00001EA51000AD8B484
:103F3800BED7010AD8B4E1D7030AD8B4E5D7B6D7B3
:103F480080A004D00001F951D8B4EED700F0020ED9
:103F58000001F919D8B41200000EF96F120004011B
:103F680030511F0BE806D8A412003039E832030B91
:103F7800E806D8A412003451D8B437D03405D8A4F0
:103F8800120033D0DE0E0001C46F010EC56F000EA3
:103F9800C96F080EC86FC781C78F1200DE0E0001F7
:103FA800C46F010EC56FC78F120036C4C0F037C486
:103FB800C1F0D40E0001BC6F010EBD6F620EC26F5E
:103FC8004E0EC36FBF8F1200E60E0001C46F010EC4
:103FD800C56F000EC96F070EC86FC10EC76F1200FC
:103FE80032C45AF10001C78F120004013151000A8E
:103FF800D8B4C8D7010AD8B4D1D7210AD8B4D5D7EC
:10400800010AD8B4E1D7030AD8A41200E9D7000EF0
:104018000001696F63AF0AD0631F621F611F606D83
:10402800000E612362236323010E696F67AF08D016
:10403800671F661F651F646D000E6523662367236F
:104048006451651166116711D8B424D0010E686FE8
:1040580006D0D8906437653766376737682B67AFFF
:10406800F8D76451605D655161596651625967516D
:104078006359D8A008D06451605F6551615B66518F
:10408800625B6751635BD89067336633653364332B
:10409800682FE7D76951D8B408D0631F621F611F22
:1040A800606D000E61236223632360C060F061C00D
:1040B80061F062C062F063C063F01200000E040198
:1040C800386F000E396F38D00001C78F4B04D8A461
:1040D8003ED0040138833BD00001C78F38D000019F
:1040E800C78F040134BF0AD034510F0B016E015041
:1040F800020D400EF324D96E010E09D034510F0B76
:10410800016E0150020DCA0EF324D96E000EF42080
:10411800DA6EDECF02F0DDCF03F002C0D9FF03C0B4
:10412800DAFFDFAE14D002C0D9FF03C0DAFFDFA484
:104138000ED0010E386F0BD030511F0B000AD8B4C7
:10414800C3D7010AD8B4C8D7030AD8B4C8D700015E
:10415800C7AF1200380EC46F040EC56FC781020EB8
:10416800C86F12000001806F000E0001796F80AFE8
:1041780002D0010E796F80517F0B806F80C060F094
:10418800616B000E636F0A0E626F01EC25F000018F
:104198006051300F7C6F0A0E606F8051A8EC28F0D8
:1041A8000001806F80C060F0616B000E636F0A0EC3
:1041B800626F01EC25F000016051300F7B6F0A0E31
:1041C800606F8051A8EC28F00001806F80C060F01B
:1041D800616B000E636F0A0E626F01EC25F000013F
:1041E8006051300F7A6F7951D8B402D02D0E7A6FA2
:1041F800000E7D6F7A0E726F000E736F77C074F0C9
:1042080078C075F071EC25F01200000E446E000EB7
:10421800436E020E4C18D8A41FD020EE01F0355082
:10422800D9263650DA22080EDF6E20EE02F035501D
:10423800D9263650DA22380EDE6E040EDD6E35C011
:10424800D9FF36C0DAFF480EDF6E35C0D9FF36C059
:10425800DAFF000EDB8E12000001C8510401365D42
:104268000001C95104013759D8B004D036C4C8F088
:1042780037C4C9F08BEC1BF0000120EE02F0CA51E4
:10428800D926CB51DA22380EDE6E040EDD6ECAC096
:10429800D9FFCBC0DAFF480EDF6ECAC0D9FFCBC04A
:1042A800DAFF000EDB8E1200380EF66E590EF76E2E
:1042B800000EF86E0900F5CFFAF10900F5CFFBF111
:1042C8000900F5CFFCF1FA0EF66E580EF76E000EE7
:1042D800F86E00EEF9F010EE07F00900F5CFEEFFEA
:1042E800E550E150FAE13B0EF66E590EF76E000EFE
:1042F800F86E0900F5CF5DF003EE00F0800EEE6A6F
:10430800E806FDE102EE00F0C00EEE6AE806FDE107
:1043180001EE00F0FA0EEE6AE806FDE100EEBCF0F0
:104328003D0EEE6AE806FDE15C6A00EE33F0290E08
:10433800EE6AE806FDE15E905E92000EF86E0001FE
:104348007BEF16F0066E000E076E040E086E015025
:10435800026E036AD890023603360650046E056A68
:10436800D89004360536D89004360536025004260F
:1043780003500522D89004360536D8900436053601
:10438800045007260550082207C0D9FF08C0DAFFE5
:10439800DF9E0150D8A407D00650020D400EF3242A
:1043A800D96E010E06D00650020DCA0EF324D96E3E
:1043B800000EF420DA6E07C0DEFF08C0DDFF07C07C
:1043C800D9FF08C0DAFFDF9C20EE04F00750D92699
:1043D8000850DA22DF8C1200000E0001606F020E16
:1043E800606501D00CD06051010DF70EF324D96E31
:1043F800010EF420DA6E000EDF6E602BF0D7000E8F
:10440800616F210E616501D00CD06151010D300E34
:10441800F324D96E010EF420DA6E000EDF6E612BE4
:10442800F0D7000E626F1F0E626501D00CD062518A
:10443800010DA40EF324D96E010EF420DA6E000EDD
:10444800DF6E622BF0D7000E636F0F0E636501D02D
:1044580012006351010DC40EF324D96E010EF4202D
:10446800DA6E000EDF6E632BF0D7ADEC2BF03D0E4D
:104478000001726F7F0E736F000E746F000E756F00
:1044880071EC25F08A0E0001726F7D0E736F000EBD
:10449800746F060E756F71EC25F0970E0001726F40
:1044A8007D0E736F000E746F080E756F71EC25F03A
:1044B800C30E0001726F7C0E736F000E746F010ED5
:1044C800756F71EC25F0700E0001726F7E0E736FC0
:1044D800000E746F020E756F71EC25F0460E000128
:1044E800726F7F0E736F000E746F030E756F71EC31
:1044F80025F012000001796F79C060F00001616B4E
:10450800000E636F0A0E626F01EC25F00001605126
:10451800300F7C6F0A0E606F7951A8EC28F000010B
:10452800796F79C060F0616B000E636F0A0E626F7D
:1045380001EC25F000016051300F7B6F0A0E606FAF
:104548007951A8EC28F00001796F79C060F0616BAF
:10455800000E636F0A0E626F01EC25F000016051D6
:10456800300F7A6F000E7D6F7A0E726F000E736FC8
:1045780077C074F078C075F071EC25F0120035D072
:1045880060C0D9FF61C0DAFFDF50D8B410D060C076
:10459800D9FF61C0DAFFDF500001666F62C0F6FF25
:1045A80063C0F7FF0800F5506619D8B41AD062C086
:1045B800F6FF63C0F7FF0800F5500001666F676BF0
:1045C800661F671F664B672B60C0D9FF61C0DAFFA3
:1045D800DF50686F68516625606F000E6721616F54
:1045E8001200604B612B624B632B00016407D8A05B
:1045F80065076429C5E16529D8A4C2D7000E616F93
:10460800000E606F1200000E0001676F000E666FEB
:10461800000E656FAC9A8B9C000E616F0A0E606F7E
:10462800AAEC29F0AC8A000E0001616F050E606FDC
:10463800AAEC29F0550EAD6EACA2FED7FC0E000117
:10464800616F7F0E626F0DEC2AF0000E0001616F42
:10465800280E606FAAEC29F013D010EC26F00009A0
:10466800D8B403D0010E00010AD00001654B662BB7
:10467800890E655D130E6659D8A002D0010E676FCA
:1046880000016751D8B41200E8D7000E4D6E000E35
:10469800476E000E446E000E436E000E496E000E0B
:1046A8004C6ECAC0D9FFCBC0DAFF7F0EDF16040EEE
:1046B8000001CA1BCAC0D9FFCBC0DAFF7F0EDF16C4
:1046C800040ECA1B35C0D9FF36C0DAFF7F0EDF16CD
:1046D800000EC76F000EC96F000EC86F000EBF6FC7
:1046E800000EC16F000EC06FEFEC18F0000E0F6ED9
:1046F800030E0E6E000E106E000E116E000E136E7D
:10470800000E126ED5EC26F08DEC17F012000001A9
:104718006A6F0001635107EC2CF000016251080D2B
:10472800F350040F91EC2BF0000E00016B6F070E95
:104738006B6501D012006B51010D000E646FFF0E06
:10474800656F6A51666F676BD89066376737D89020
:1047580066376737D890663767376451662765517B
:104768006723FAC168F0FBC169F066516827675191
:104778006923F3506827F450692368C0F6FF69C0BD
:10478800F7FF0800F550C7EC2BF000016B2BCFD7D3
:10479800000E096E000E0A6E000E0B6E000E0C6EF7
:1047A8000550061007100810D8B42AD0010E0D6E57
:1047B80006D0D89005360636073608360D2A08AED4
:1047C800F8D7D89009360A360B360C360550015CF6
:1047D800065002580750035808500458D8A009D06A
:1047E8000550015E0650025A0750035A0850045AF1
:1047F8000980D89008320732063205320D2EE1D7EB
:1048080009C001F00AC002F00BC003F00CC004F0AC
:104818001200E20ED2EC2BF08A84040E0001626FC3
:104828001C0EE82EFED7622FFCD700F08A94200ECB
:104838000001626F290EE82EFED7622FFCD700D048
:104848008A84100E0001626F940EE82EFED7622F44
:10485800FCD700F0A10ED2EC2BF0C00ED2EC2BF05E
:10486800A30ED2EC2BF0070E2CEC2CF0050E24EC4A
:104878002CF05D50FDEC2BF0000E34EC2CF0F80E13
:10488800D2EC2BF0000ED2EC2BF0AF0ED2EC2BF0CA
:104898001200000E0001786F000E776F000E796F1E
:1048A800030E796501D02FD072C0D9FF73C0DAFF2B
:1048B800DF50D8B428D07951D8B40ED077C060F082
:1048C80078C061F0000E636F0A0E626FF3EC2AF095
:1048D80060C077F061C078F072C0D9FF73C0DAFFAA
:1048E800DF500001746F74517725756F000E7821C1
:1048F800766FD00E7525776FFF0E7621786F724B25
:10490800732B792BCDD777C072F078C073F0120073
:10491800000E0001666F000E656FD30E616F790E91
:10492800626F0DEC2AF009D00001654B662B510E21
:10493800655DC30E6659D8B005D010EC26F00009A5
:10494800D8B4F2D7000E0001666F000E656FB80E7E
:10495800616F790E626F0DEC2AF009D00001654B8A
:10496800662B510E655DC30E6659D8B005D010ECA4
:1049780026F00009D8B4F2D7000E0001616F640E6A
:10498800606FAAEC29F0120039EC22F0000E000149
:10499800616F140E606FAAEC29F05CEC1CF0ADECB2
:1049A8002BF0000E0001616F140E606FAAEC29F065
:1049B800DCEC25F0000E0001616F140E606FAAECAC
:1049C80029F076EC26F0000E0001616F140E606F7E
:1049D800AAEC29F046EC28F0000E0001616F140ED5
:1049E800606FAAEC29F0C2EC1CF00B0E0001616F9D
:1049F800B80E606FAAEC29F01200000E0001656F76
:104A080061AF06D0606D611FD8B0612B010E656F74
:104A180063AF04D0626D631FD8B0632B625163111A
:104A2800D8B418D0010E646F04D0D89062376337B9
:104A3800642B63AFFAD76251605D63516159D8A0A6
:104A480004D06251605F6351615BD8906333623315
:104A5800642FF1D76551D8B404D0606D611FD8B008
:104A6800612B60C060F061C061F01200000E0001AF
:104A7800606F81A202D081B01AD0010E01014A27CD
:104A8800000E4B234C234D23370E4A194B114C1162
:104A98004D11D8A409D0000E0001E46F81B202D0F4
:104AA800010E18D0020E16D0000E000113D0140EFD
:104AB800E419D8A40DD0000E01014A6F000E4B6F07
:104AC800000E4C6F000E4D6F000E0001E46F01D018
:104AD800E42B030E606F6051120074C076F00F0E65
:104AE8000001766501D0120072C0F6FF73C0F7FFAF
:104AF800F86A070EF76403D00800F55005D0F6CF22
:104B0800E9FFF7CFEAFFEF500009D8B4120076C0EA
:104B180062F075C063F072C0F6FF73C0F7FFF86A01
:104B2800070EF76403D00800F55005D0F6CFE9FF6B
:104B3800F7CFEAFFEF508BEC23F00001724B732B99
:104B4800762B0F0ECED7F20E0001606F010E616F4B
:104B5800ED0E626F010E636F000E656F050E646FD8
:104B680000EC28F0F20E0001606F010E616F6BC05F
:104B780062F06CC063F0000E656F050E646F00ECA8
:104B880028F0000E00016D6F040E6D6501D00ED087
:104B98006D51010DF20EF324D96E010EF420DA6E78
:104BA800DF50D8B46DC0EDF06D2BEED700F01200D9
:104BB800BF0E0001726F7E0E736F000E746F000ED1
:104BC800756F71EC25F0010E7BEC18F0010E0001F9
:104BD800616FF40E606F91EC29F0000E7BEC18F019
:104BE800010E0001616FF40E606F91EC29F0010E67
:104BF8007BEC18F0010E0001616FF40E606F91EC10
:104C080029F0000E7BEC18F0010E0001616FF40E24
:104C1800606F91EC29F01200000E0001616FF551F0
:104C2800D8B42BD0000E626F22EC29F00001626F1D
:104C38000D0E6219D8A40FD0F251010D640EF324A1
:104C4800D96E010EF420DA6E000EDF6E010E616F70
:104C5800000EF26F12D06251D8B40FD00A0E62194A
:104C6800D8B40BD0F251010D640EF324D96E010EA5
:104C7800F420DA6E62C0DFFFF22B61511200000EE1
:104C88000101E66F4B0EE76F000EE86F000EE96F4B
:104C9800000EEA6F000EEB6F080EEC6F000E0001BD
:104CA800DE6F1A0E096E010E04EC29F01E0E096E55
:104CB800020E04EC29F0000E016E400E026E050E85
:104CC800036E400E046E020E45EC1EF001C0D6F0D5
:104CD80002C0D7F0000E336E000E346E000E0001D5
:104CE800EB6F1200060E0001726F7F0E736F000EDD
:104CF800746F010E756F71EC25F0898C898E010E29
:104D08000001616FF40E606F91EC29F0899C899E17
:104D1800010E0001616FF40E606F91EC29F0898C2F
:104D2800898E010E0001616FF40E606F91EC29F01D
:104D3800899C899E010E0001616FF40E606F91ECF1
:104D480029F01200000E0001756F050E756501D07F
:104D580026D072C0D9FF73C0DAFFDF50D8B412D0A2
:104D680072C0D9FF73C0DAFF7451010DC40EF32469
:104D7800E16E010EF420E26EDFCFE7FF724B732B7A
:104D8800742B0BD07451010DC40EF324D96E010E8F
:104D9800F420DA6E200EDF6E02D0752BD6D775514F
:104DA800120006D05EEC27F01200B3EC1FF01200E0
:104DB8000EC014F00FC015F01550000AD8B404D076
:104DC8007F0AD8A4120018D01450010AD8B4EAD720
:104DD800030AD8B41200010AD8B4E7D7060AD8B42F
:104DE8001200770AD8B41200010AD8B41200070AD0
:104DF800D8B41200010A12001450FF0A1200020E61
:104E08004C18D8A403D082EC13F01200000E4C6E9C
:104E18004950D8A41FD020EE01F03550D92636507D
:104E2800DA22080EDF6E20EE02F03550D926365011
:104E3800DA22300EDE6E040EDD6E35C0D9FF36C0C4
:104E4800DAFF0C0EDF6E35C0D9FF36C0DAFF000E70
:104E5800DB8E1200000E496E1200D4C1E6F1D5C1F6
:104E6800E7F1D6C1E8F1D7C1E9F1000E016E1B0EDA
:104E7800026EB70E036E000E046EE6C105F0E7C1C0
:104E880006F0E8C107F0E9C108F0CCEC23F0FF0E0A
:104E980001240E6EFF0E02200F6EFF0E0320106E0F
:104EA800FF0E0420116E0EC0AFFF0FC0B0FF5BEC09
:104EB80029F0120043EC26F0000E0101EA6F080EFB
:104EC800EC6F000EEB6F000EE66F4B0EE76F000EF7
:104ED800E86F000EE96F5BEC29F0000E0D6E3F0ED7
:104EE8000D6401D00CD00D50010D800EF324D96E45
:104EF800020EF420DA6E000EDF6E0D2AF0D7000ED7
:104F08000001E86F000EE66F120092809282928490
:104F180092868D949694929A929C929EF19E868EF9
:104F2800F28693829380938E939493969398939A10
:104F3800949094929484949C948E000E956E96947A
:104F4800899A899C899E8A948B948B9C8D840F0165
:104F58005B915B835B855B875D9F5D9D1200000EA7
:104F68000001716F000E706F6C0E616F7A0E626FC8
:104F78000DEC2AF009D00001704B712B510E705DB9
:104F8800C30E7159D8B005D010EC26F00009D8B47A
:104F9800F2D7640E00016B6F010E6C6FA7EC25F061
:104FA800640E00016E6F010E6F6F120005D00001D4
:104FB800604B612B624B632B60C0D9FF61C0DAFF85
:104FC800DF500001646F62C0F6FF63C0F7FF08009E
:104FD800F55000086425656F6551D8A407D060C0F6
:104FE800D9FF61C0DAFFDF50D8A4E1D76551606FFF
:104FF800616B60BF6107120062C068F063C069F04E
:1050080060C066F061C067F011D068C0D9FF69C0A0
:10501800DAFFDF5000016A6F684B692B66C0D9FF61
:1050280067C0DAFF6AC0DFFF664B672B00016407C1
:10503800D8A065076429E9E16529D8B41200E5D745
:10504800000162516311D8B418D0010E646F04D006
:10505800D89062376337642B63AFFAD76251605DCB
:1050680063516159D8A004D06251605F6351615B9C
:10507800D89063336233642FF1D760C060F061C0A9
:1050880061F01200000E0001606F3F0E606501D0F4
:105098000CD06051010D000EF324D96E020EF420DD
:1050A800DA6E000EDF6E602BF0D7000EE06F000E98
:1050B800DF6F000EF56F9D98000EE36F000EE26F34
:1050C800400EE16F12006AA01DD037C0D9FF38C06A
:1050D800DAFF800EDE18D8A414D0CAC0D9FFCBC01E
:1050E800DAFF840EDE18D8A40CD037C0D9FF38C038
:1050F800DAFF0C0EDF6E37C0D9FF38C0DAFF000EBA
:10510800DB8E6A90659A1200000E0001666F000E31
:10511800656F560E616F7A0E626F0DEC2AF009D03A
:105128000001654B662B510E655DC30E6659D8B0FC
:1051380005D010EC26F00009D8B4F2D7640E0001AF
:10514800636F010E646F12000001616F000E0001B1
:10515800636F6051D8B415D0010E626F03D0D89038
:105168006037622B60AFFBD7D89063376051615DC1
:10517800D8A003D06051615F6381D8906033622FFB
:10518800F3D7635112000001606F0001E151D8B4F8
:10519800FCD79DB803D060C0ADFF12D09D98E351F5
:1051A800010D400EF324D96E020EF420DA6E60C0B1
:1051B800DFFFE32B3F0EE36502D0000EE36FE1074C
:1051C8009D8812000001616F000EF2BE010E000101
:1051D800626F61C0A9FF60C0A8FFA69EA69CA684B6
:1051E800F29E550EA76EAA0EA76EA682A6B2FED78D
:1051F800A694000162B102D0F29E01D0F28E120094
:105208000C6E09A405D0000E016E0C50A6EC21F01E
:1052180009A205D0010E016E0C50A6EC21F00C502D
:10522800010D6A0EF3240A6E0F0EF4200B6E0AC0ED
:10523800D9FF0BC0DAFF09C0DFFF1200000E000122
:10524800606F01D0898EF551D8B4FCD79D9ADF5193
:10525800010D000EF324D96E020EF420DA6EDF5031
:10526800606FDF2B3F0EDF6502D0000EDF6FF507A2
:105278009D8A605112009D9A9D98480EB86E900EB6
:10528800AB6E260EAC6ED00EAF6E000EB06E000E7A
:105298000001E36F000EE26F400EE16F000EE06F59
:1052A800000EDF6F000EF56F9D8AAB8812009D9A85
:1052B8009D98480EB86E900EAB6E260EAC6ED00E52
:1052C800AF6E000EB06E000E0001E36F000EE26FCD
:1052D800400EE16F000EE06F000EDF6F000EF56FFD
:1052E8009D8AAB8812000001EC51D8A41200000E70
:1052F800606E000E646E160E626E9F0E666E7B0EFA
:10530800646ED08EA584A384F28E01D0608660A6D8
:10531800FDD7010E0001EC6F1200000E0001646F52
:10532800000E636F0CD0100E0001626F940EE82E11
:10533800FED7622FFCD700F00001634B642B60514D
:10534800635D61516459D8B01200EDD7000E0001B9
:10535800646F000E636F0CD0100E0001626F940E24
:10536800E82EFED7622FFCD700F00001634B642BB8
:105378006051635D61516459D8B01200EDD7000ED9
:10538800CD6E000ECC6ED00ECF6E200ECE6ECE50EF
:10539800CFCF60F00001616B60C061F0606B60119D
:1053A8003D6E61513E6E9E909D8094EC2CF01200F3
:1053B800016E0FD0000ED76EEE0ED66E1200000EE4
:1053C800D76EE50ED66E1200000ED76E000ED66EA2
:1053D80012000150680AD8B4EDD7F40AD8B4EFD750
:1053E800F3D796948D8493949396939894909492EB
:1053F8008A868A980DEC24F0010E07EC2BF0F70E44
:105408000001606F750E616FF3EC2BF0ADEC2BF0C3
:1054180012000BD061C0F6FF62C0F7FF0800F5501C
:10542800C7EC28F00001614B622B61C0F6FF62C037
:10543800F7FF0800F5500009D8A4ECD744EC2CF08D
:10544800120060C066F061C067F009D066C0D9FF7D
:1054580067C0DAFF62C0DFFF0001664B672B0001FF
:105468006407D8A065076429F1E16529D8B412005A
:10547800EDD7000E01015B6F000E0F6E740E0E6EFD
:10548800000E106E000E116E000E136E000E126EDE
:10549800D5EC26F06092649401D0659465A412005E
:1054A800FCD7400E0001E16112D0E251010D400E1F
:1054B800F324D96E020EF420DA6EDF50AD6EE22BC3
:1054C8003F0EE26502D0000EE26FE12B12009D98BC
:1054D8001200ABA203D0AB98AB8812000001E051D8
:1054E800010D000EF324D96E020EF420DA6EAECF51
:1054F800DFFFE02B3F0EE06502D0000EE06FF52BDA
:1055080012000001606F000160510F0B606F0A0EFE
:10551800606103D06051300F1200090E606506D03B
:10552800100E606103D06051370F1200000E120098
:105538005150D8B481BE10D09C0EDCEC29F0010E7D
:10554800516E000E4E6E000E5B6E000E01015C6F18
:10555800000E506E010E516E98EC2CF0120001C036
:1055680007F002C008F008D007C0D9FF08C0DAFF6A
:1055780003C0DFFF074A082A0506D8A00606052843
:10558800F3E10628D8B41200EFD7DDEC2BF089EC54
:1055980027F0C3EC29F011EC2CF052EC2BF03FEC87
:1055A80029F073EC2BF0BAEC2BF01BEC2CF09FECF1
:1055B8002BF01200648465986082010E01015B6F14
:1055C800000E0F6E750E0E6E000E106E000E116E30
:1055D800000E136E000E126ED5EC26F012000001BC
:1055E80060516203F3CF64F0F4CF65F06051630358
:1055F800F350652761516203F350652764C060F07A
:1056080065C061F012000001616F00016151D8A40A
:1056180007D0A00ED2EC2BF0C80ED2EC2BF0120063
:10562800A10ED2EC2BF0C00ED2EC2BF01200820EA1
:105638000001616F7A0E626F0DEC2AF09DB8FED7FB
:10564800FA0E0001636F580EE82EFED7632FFCD7C1
:1056580000F0120000016C6F000E00016D6F0F0E5C
:105668006D6501D012006DC062F06CC063F0200E51
:105678008BEC23F000016D2BF2D7A3940001EB51C2
:10568800D8A40AD060C051F161C052F162C0DDF007
:10569800010EDC6F010EEB6FA3841200040EB16ED5
:1056A800000EB46ED50EB36ED00EB26EB2CF3BF014
:1056B800B3CF3CF0A192A08290EC2CF01200000134
:1056C800606F000160A303D00101564B572B000106
:1056D80060B7F02B60A912000101612B1200D59A66
:1056E800D598D596D594D582D590000E3A6E6E0E83
:1056F800396EF294F28A96EC2CF01200A1928DA4E5
:1057080006D08D94D50EB36ED00EB26E12008D8475
:10571800FB0EB36E500EB26E12000001616F0001F5
:1057280061390F0B1009D2EC2BF0000161510F0BFE
:10573800D2EC2BF01200000E516E000E5B6E000EC4
:10574800506E000E01015C6F000E4F6E000E4E6E23
:105758001200000E2EEC2BF0010E2EEC2BF0020E98
:105768002EEC2BF0030E2EEC2BF01200A00E7D6E0B
:10577800010EC26E080EC16E8E0EC06E000EC36E94
:10578800000EC46E12000001606F8A988B8060C0A2
:105798008CFF8B9200F08B828A8812000001606F68
:1057A8008A988B9060C08CFF8B9200F08B828A88DD
:1057B8001200800E9B6E700ED36E100ED26ED2AE9B
:1057C800FED7900EB56E12000001606F60C0A9FF91
:1057D800A69CA69EA68000F000F0A850120000012A
:1057E80060516111D8B4120060C0FAF161C0FBF1D8
:1057F80012000001616F810ED2EC2BF000016151A3
:10580800D2EC2BF012000001616F00016151B00968
:10581800616F6151D2EC2BF012007A0EBA6E9B0EBA
:10582800BB6E000EBC6E9E9292EC2CF01200A09CF7
:105838009C0E986E9A8A9A929A96A19CA09C1200A5
:105848000001616F000161512009D2EC2BF01200B8
:105858000001616F000161512809D2EC2BF01200A0
:105868000001616F0001618D6151D2EC2BF01200D3
:10587800050E0001616F7A0E626F0DEC2AF01200BE
:105888000D0EC7EC28F00A0EC7EC28F01200F20E35
:105898000001606F010E616F12009E903E50CF6E46
:1058A8003DC0CEFF1200F29439C0D6FF3AC0D7FFF0
:1058B8001200BCCF60F00001605112000001606F5F
:1058C80060C0F9F012000001606F60C0EAF01200D9
:1058D8000001606F60C0FFF01200AE0ED2EC2BF03A
:1058E8001200000E0001F86F1200010E0001E96FAE
:0958F80012000103010203030187
:105902000001ED5112000001F95112000001E951AC
:105912001200010E526E12000001F8811200B180D5
:105922001200BA841200CD801200D58E1200F290BD
:0A5932001200A19C1200F775021389
:1075EE0000B4796E793A79F7780000000000000057
:1075FE00000000005F000000000000030003000018
:10760E0000643C26643C2624002649497F494932C1
:10761E0000422512082452210020504E552258288F
:10762E0000000000030000000000001C22410000CA
:10763E000000000041221C00000015150E0E15154D
:10764E00000008083E08080000000000503000004E
:10765E0000000808080808000000000040000000B4
:10766E00004020100804020100003E4141413E004E
:10767E00000000417F4000000000426151496E0051
:10768E00000022414949360000001814127F1000F4
:10769E00000027494949710000003C4A49487000E2
:1076AE0000004321110D0300000036494949360000
:1076BE000000060949291E0000000000120000000B
:1076CE0000000000523000000000000814142200D8
:1076DE0000001414141414140000002214140800D2
:1076EE000000020159050200003E415D554D512E2C
:1076FE0000407C4A094A7C4000417F49494949364D
:10770E00001C22414141412200417F414141221C46
:10771E0000417F49495D416300417F49091D0103D5
:10772E00001C224149493A0800417F0808087F4160
:10773E00000041417F41410000304041413F010185
:10774E0000417F080C12614100417F414040406082
:10775E0000417F420C427F4100417F420C117F016C
:10776E00001C22414141221C00417F4909090906A2
:10777E00000C12212161524C00417F090919694602
