:04000000A4EF00F079
:100008005D82FACF21F0FBCF22F0E9CF23F0EACFCF
:1000180024F0E1CF25F0E2CF26F0D9CF27F0DACFD0
:1000280028F0F3CF29F0F4CF2AF0F6CF2BF0F7CF52
:100038002CF0F8CF2DF0F5CF2EF09DA001D001D0F7
:1000480009D09EA001D001D005D0D8EC39F011EC30
:100058003AF000D0A0A201D001D007D0A1A201D0CF
:1000680001D003D0C9EC38F026D09DAA01D001D028
:1000780009D09EAA01D001D005D003EC3AF043EC98
:1000880037F019D09DA801D001D007D09EA801D083
:1000980001D003D061EC37F00ED0A0AC01D001D074
:1000A8000AD0A1AC01D001D006D01CEC3AF003D0A4
:1000B80002D001D000D0F2AA01D001D007D0F2A41A
:1000C80001D001D003D0DEEC39F01CD0F2A601D06B
:1000D80001D014D0F2A001D001D010D0F29080AE9F
:1000E80001D003D0206A202A01D0206A2032203291
:1000F800805020187F0B2018806E04D0FDEC19F07A
:1001080001D000D02EC0F5FF2DC0F8FF2CC0F7FF9E
:100118002BC0F6FF2AC0F4FF29C0F3FF28C0DAFF7E
:1001280027C0D9FF26C0E2FF25C0E1FF24C0EAFFAF
:1001380023C0E9FF22C0FBFF21C0FAFF5D92110036
:100148001AEF30F00001B56F000E0001B06F00012A
:10015800AE510001D8B4D8EF09F00001FA51D8B473
:10016800D8EF09F00001FD510001EC5DD8A0E5D001
:10017800C7EC26F0000E0101596F000E586F000EF3
:100188000001DF6F000EDE6F00F023EC2FF0000E91
:100198000001B16FEAEC33F06DC071F06EC072F01F
:1001A800B4EC2CF071C058F172C059F1C3EC39F0BD
:1001B80060C071F061C072F0060E0001736F010E2D
:1001C8000001746F92EC31F0C3EC39F060C071F04B
:1001D80061C072F0040E0001736FD6EC31F00001BB
:1001E800B16FEAEC34F063C071F064C072F0B4EC43
:1001F8002CF071C0DEF072C0DFF00001DE51BFEC00
:1002080027F00001AF6F0001AF510001DE6FDF6B17
:100218000BEC3AF0050F0001666F0001DE5170EC3F
:100228002BF0000E0001EC6F35EC39F0310E0001B7
:10023800716F7C0E0001726F000E0001736F000E6B
:100248000001746F92EC31F0340E0001716F7E0E74
:100258000001726F000E0001736F010E0001746FD0
:1002680092EC31F0720E0001716F7D0E0001726F19
:10027800000E0001736F020E0001746F92EC31F0F2
:10028800C3EC39F060C071F061C072F0030E000178
:10029800736F020E0001746F92EC31F00B0E0001C7
:1002A800766F020E0001776F0001DE5101EC2BF032
:1002B800D2EC39F00001F06F0001F0510001D8A430
:1002C80002D0050E09D0DF0E0001F06508D001D07C
:1002D80006D00001F051CE0F0001F06F00D00A0ED9
:1002E8000001766F010E0001776F0001F051CFEC2D
:1002F8002EF0000E0001666F0001F05170EC2BF03B
:10030800200E0101C46F00F02D0E0001616F7D0EFB
:100318000001626FC10E0001636F010E0001646F7E
:100328000C0E0001656F4DEC25F0070E0001EE6F15
:10033800080E0001F36FD8EF09F00001FB51D8B4A3
:100348000AD00001EC2B0F0E0001F36F010E000123
:10035800AC6FD8EF09F0000E0001EC6FD8EF09F090
:10036800FFD712000001B5510001D8A407D0000141
:10037800AC510001D8A402D0120000D035EC39F0FD
:10038800210E0001716F7B0E0001726F000E0001DB
:10039800736F000E0001746F92EC31F0870E00014C
:1003A800716F7B0E0001726F000E0001736F010EFA
:1003B8000001746F92EC31F0830E0001716F7C0EB6
:1003C8000001726F000E0001736F030E0001746F5D
:1003D80092EC31F0060E0001F36F12000001B551E6
:1003E8000001D8B430D035EC39F0100E0001716F2F
:1003F8007B0E0001726F000E0001736F000E00018A
:10040800746F92EC31F0FF0E0001716F7A0E0001EB
:10041800726F000E0001736F010E0001746F92EC91
:1004280031F0830E0001716F7C0E0001726F000EB7
:100438000001736F030E0001746F92EC31F00A0E25
:100448000001F36F12000001AC510001D8B4120092
:10045800000E0001EC6F35EC39F0DC0E0001716F15
:100468007B0E0001726F000E0001736F000E000119
:10047800746F92EC31F0650E0001716F7D0E000112
:10048800726F000E0001736F010E0001746F92EC21
:1004980031F0A90E0001716F7A0E0001726F000E23
:1004A8000001736F030E0001746F92EC31F0C7EC1A
:1004B80026F0D2EC39F00001F06F0001F051000194
:1004C800D8A402D0050E09D0DF0E0001F06508D0CF
:1004D80001D006D00001F051CE0F0001F06F00D01E
:1004E8000C0E0001766F010E0001776F0001F051CC
:1004F800CFEC2EF0000E0001666F0001F05170EC99
:100508002BF0200E0101C46F000E0101596F000E7F
:10051800586F000E0001DF6F000EDE6F00F023EC55
:100528002FF0010E0001616FF40E606FC8EC36F019
:10053800000E0001B26FEAEC33F06DC071F06EC0CE
:1005480072F0B4EC2CF071C058F172C059F1EAECB9
:1005580033F06DC071F06EC072F0040E0001736F5D
:10056800D6EC31F00001B26F00F000F0EAEC34F0A4
:1005780063C071F064C072F0B4EC2CF071C0DEF0AE
:1005880072C0DFF00001DE51BFEC27F00001AF6F51
:100598000001AF510001DE6FDF6B0BEC3AF0050F85
:1005A8000001666F0001DE5170EC2BF000F0070EC1
:1005B8000001F36F12000001B5510001D8B412D048
:1005C8002D0E0001616F7D0E0001626FC10E0001EA
:1005D800636F010E0001646F0C0E0001656F4DEC36
:1005E80025F000D00001AC510001D8B412D0640E3F
:1005F8000001616F7E0E0001626FC10E0001636F22
:10060800010E0001646F0C0E0001656F4DEC25F0C2
:1006180000D00001B5510001D8A407D00001AC51A9
:100628000001D8A402D0120000D035EC39F04C0EED
:100638000001716F7E0E0001726F000E0001736F72
:10064800000E0001746F92EC31F0400E0001716FE2
:100658007E0E0001726F000E0001736F010E000123
:10066800746F92EC31F00C0E0001766F010E0001F0
:10067800776F0001F051CFEC2EF0720E0001716F10
:100688007D0E0001726F000E0001736F020E0001F3
:10069800746F92EC31F0C3EC39F060C071F061C056
:1006A80072F0030E0001736F020E0001746F92EC7A
:1006B80031F00B0E0001766F020E0001776F00011A
:1006C800DE5101EC2BF0899C080E0001F36F12003B
:1006D8000001AD510001D8B443D1610E0001606F33
:1006E800010E0001616FF70E0001626F7F0E0001BD
:1006F800636F20EC34F00001605100016111D8A44F
:1007080005D0898C080E0001F36F00D0610E00013E
:10071800606F010E0001616FAA0E0001626F7F0E0B
:100728000001636F000E0001656F060E646F70ECC8
:100738002DF00001605100016111D8A48ED0070E80
:100748000001B46F0001B451010D610EF324D96E9C
:10075800010EF420DA6EDF500101F46F0001B42BB2
:100768000001B451010D610EF324D96E010EF4207D
:10077800DA6EDF500101F56F0001B42B200E010184
:10078800F519D8B416D00001B451010D610EF32447
:10079800D96E010EF420DA6EDF500101F66F000108
:1007A800B42B200E0101F619D8B403D00001B42BE4
:1007B80000D0000E0001B36F3F0E0001B36503D0F7
:1007C8002DD001D02BD00001B451010D610EF324BE
:1007D800D96E010EF420DA6E0001B351010DA10E9D
:1007E800F324E16E010EF420E26EDFCFE7FF000193
:1007F800B351010DA10EF324D96E010EF420DA6E67
:10080800DF50D8B403D00001B42B04D0400E00014F
:10081800B36F00D00001B32BCFD7D5D7898E899C71
:10082800540E0001716F7B0E0001726F000E000103
:10083800736F020E0001746F92EC31F0CC0E000160
:10084800716F7A0E0001726F000E0001736F030E54
:100858000001746F92EC31F079D0610E0001606F85
:10086800010E0001616FB10E0001626F7F0E000181
:10087800636F000E0001656F060E646F70EC2DF05B
:100888000001605100016111D8A410D0899CBA0EF2
:100898000001716F7B0E0001726F000E0001736F13
:1008A800030E0001746F92EC31F050D0610E00011C
:1008B800606F010E0001616FA30E0001626F7F0E71
:1008C8000001636F000E0001656F060E646F70EC27
:1008D8002DF00001605100016111D8A40FD0960ECF
:1008E8000001716F7A0E0001726F000E0001736FC4
:1008F800030E0001746F92EC31F028D0610E0001F4
:10090800606F010E0001616F9C0E0001626F7F0E27
:100918000001636F000E0001656F060E646F70ECD6
:100928002DF00001605100016111D8A40FD0B30E61
:100938000001716F7C0E0001726F000E0001736F71
:10094800030E0001746F92EC31F000D0FA0E000132
:10095800AF6F580EE82EFED7AF2FFCD700F000D0AF
:100968000001B5510001D8A407D00001AC51000125
:10097800D8A402D0120000D035EC39F0210E0001C5
:10098800716F7B0E0001726F000E0001736F000E15
:100998000001746F92EC31F0870E0001716F7B0ECD
:1009A8000001726F000E0001736F010E0001746F79
:1009B80092EC31F0830E0001716F7C0E0001726FB2
:1009C800000E0001736F030E0001746F92EC31F09A
:1009D800060E0001F36F12000001B5510001D8B4F2
:1009E80030D035EC39F0630E0001716F7C0E0001D8
:1009F800726F000E0001736F000E0001746F92ECAD
:100A080031F0530E0001716F7C0E0001726F000E01
:100A18000001736F010E0001746F92EC31F0830EC8
:100A28000001716F7C0E0001726F000E0001736F80
:100A3800030E0001746F92EC31F0010E0001F36FA8
:100A480012000001AC510001D8B4120035EC39F0A5
:100A5800899E420E0001716F7C0E0001726F000EBC
:100A68000001736F000E0001746F92EC31F0CA0E32
:100A78000001716F7E0E0001726F000E0001736F2E
:100A8800010E0001746F92EC31F0F40E0001716FE9
:100A9800010E0001726F090E0001736F010E000153
:100AA800746F92EC31F0510E0001716F7E0E0001EF
:100AB800726F000E0001736F020E0001746F92ECEA
:100AC80031F0A10E0001716F010E0001726F060E68
:100AD8000001736F020E0001746F92EC31F0AB0EDF
:100AE8000001716F010E0001726F000E0001736F3B
:100AF800030E0001746F92EC31F00B0E0001F36FDE
:100B080012000001B5510001D8A407D00001AC5172
:100B18000001D8A402D0120000D035EC39F0100E34
:100B28000001716F7B0E0001726F000E0001736F80
:100B3800000E0001746F92EC31F0FF0E0001716F2E
:100B48007A0E0001726F000E0001736F010E000132
:100B5800746F92EC31F0830E0001716F7C0E00010E
:100B6800726F000E0001736F030E0001746F92EC38
:100B780031F00A0E0001F36F12000001B5510001B7
:100B8800D8B443D035EC39F0200E0001716F7C0EDB
:100B98000001726F000E0001736F000E0001746F88
:100BA80092EC31F00001FB51D8B40FD0D30E000104
:100BB800716F7C0E0001726F000E0001736F020EE0
:100BC8000001746F92EC31F00ED0E20E0001716FEB
:100BD8007C0E0001726F000E0001736F020E00019F
:100BE800746F92EC31F0730E0001716F7C0E00018E
:100BF800726F000E0001736F030E0001746F92ECA8
:100C080031F00C0E0001F36F12000001AC5100012D
:100C1800D8B4120035EC39F0630E0001716F7C0E08
:100C28000001726F000E0001736F000E0001746FF7
:100C380092EC31F0800E0001716F7F0E0001726F2F
:100C4800000E0001736F010E0001746F92EC31F019
:100C5800790E0001716F7F0E0001726F000E0001A6
:100C6800736F020E0001746F92EC31F0FA0E0001FE
:100C7800716F7F0E0001726F0A0E0001736F020E12
:100C88000001746F92EC31F023EC2FF0020E00019A
:100C9800F36F12000001B5510001D8B4BDD035EC96
:100CA80039F0760E0001716F7B0E0001726F000E35
:100CB8000001736F000E0001746F92EC31F0650E45
:100CC8000001716F7B0E0001726F000E0001736FDF
:100CD800010E0001746F92EC31F0870E0001716F04
:100CE8007F0E0001726F000E0001736F020E00018B
:100CF800746F92EC31F0C20E0001716F7F0E00012B
:100D0800726F0C0E0001736F020E0001746F92EC8B
:100D180031F05BD000D0CB0E0001716F7D0E000169
:100D2800726F070E0001736F020E0001746F92EC70
:100D380031F060D0E00E0001716F7F0E0001726F1C
:100D4800070E0001736F020E0001746F92EC31F010
:100D580051D0EC0E0001716F7F0E0001726F070E0B
:100D68000001736F020E0001746F92EC31F042D0F3
:100D7800E40E0001716F7F0E0001726F070E000113
:100D8800736F020E0001746F92EC31F033D0E80EED
:100D98000001716F7F0E0001726F070E0001736F03
:100DA800020E0001746F92EC31F024D0EF0E0001B6
:100DB800716F7F0E0001726F070E0001736F020ED4
:100DC8000001746F92EC31F015D00001FE51000A59
:100DD800D8B4A1D7010AD8B4ADD7030AD8B4B9D7C3
:100DE800010AD8B4C5D7070AD8B4D1D7010AD8B4EC
:100DF800DDD791D7730E0001716F7C0E0001726F01
:100E0800000E0001736F030E0001746F92EC31F055
:100E18000D0E0001F36F12000001AC510001D8B4AF
:100E280012000001FB51D8B412D0000E0001FB6F74
:100E3800E20E0001716F7C0E0001726F000E00015E
:100E4800736F020E0001746F92EC31F01200010E04
:100E58000001FB6FD30E0001716F7C0E0001726FF1
:100E6800000E0001736F020E0001746F92EC31F0F6
:100E780012000001B5510001D8A407D00001AC51FF
:100E88000001D8A402D0120000D035EC39F0630E6E
:100E98000001716F7C0E0001726F000E0001736F0C
:100EA800000E0001746F92EC31F0530E0001716F67
:100EB8007C0E0001726F000E0001736F010E0001BD
:100EC800746F92EC31F0830E0001716F7C0E00019B
:100ED800726F000E0001736F030E0001746F92ECC5
:100EE80031F0010E0001F36F12000001B55100014D
:100EF800D8B4B3D035EC39F0ED0E0001716F7B0E2C
:100F08000001726F000E0001736F000E0001746F14
:100F180092EC31F0580E0001716F7E0E0001726F75
:100F2800000E0001736F020E0001746F92EC31F035
:100F3800730E0001716F7C0E0001726F000E0001CC
:100F4800736F030E0001746F92EC31F0030E000111
:100F5800F36F6AD000D0C70E0001716F7F0E0001D9
:100F6800726F0A0E0001736F020E0001746F92EC2B
:100F780031F073D0CB0E0001716F7F0E0001726FDC
:100F88000A0E0001736F020E0001746F92EC31F0CB
:100F980064D0CF0E0001716F7F0E0001726F0A0ED0
:100FA8000001736F020E0001746F92EC31F055D09E
:100FB800D30E0001716F7F0E0001726F0A0E0001DF
:100FC800736F020E0001746F92EC31F046D0D70EA9
:100FD8000001716F7F0E0001726F0A0E0001736FBE
:100FE800020E0001746F92EC31F037D0DB0E000175
:100FF800716F7F0E0001726F0A0E0001736F020E8F
:101008000001746F92EC31F028D0F30E0001716F7B
:101018007F0E0001726F0A0E0001736F020E00014D
:10102800746F92EC31F019D00001FC51000AD8B469
:1010380092D7010AD8B49ED7030AD8B4AAD7010A0E
:10104800D8B4B6D7070AD8B4C2D7010AD8B4CED70D
:10105800030AD8B4DAD77FD700D00001AC51000119
:10106800D8B41200050E0001FE6105D001D003D0EE
:101078000001FE2B70D0000E0001FE6F6CD000D076
:10108800090E0001FD6FDB0E0001716F7F0E00017C
:10109800726F070E0001736F020E0001746F92ECFD
:1010A80031F01200120E0001FD6FDF0E0001716FAA
:1010B8007F0E0001726F070E0001736F020E0001B0
:1010C800746F92EC31F012001B0E0001FD6FEB0EF5
:1010D8000001716F7F0E0001726F070E0001736FC0
:1010E800020E0001746F92EC31F01200360E00010E
:1010F800FD6FE30E0001716F7F0E0001726F070E26
:101108000001736F020E0001746F92EC31F012004F
:101118006C0E0001FD6FE70E0001716F7F0E00017C
:10112800726F070E0001736F020E0001746F92EC6C
:1011380031F012000001FD69EF0E0001716F7F0EA2
:101148000001726F070E0001736F020E0001746FC9
:1011580092EC31F012000001FE51000AD8B490D789
:10116800010AD8B49FD7030AD8B4AED7010AD8B4B5
:10117800BDD7070AD8B4CCD7010AD8B4DBD780D7F3
:1011880012000001B5510001D8B426D00001FC516D
:10119800E6EC1AF035EC39F0CB0E0001716F7B0EDE
:1011A8000001726F000E0001736F000E0001746F72
:1011B80092EC31F0930E0001716F7C0E0001726F9A
:1011C800000E0001736F030E0001746F92EC31F092
:1011D8000F0E0001F36F00D00001AC510001D8B42C
:1011E8001200060E0001FC6111D001D00FD00001E1
:1011F800EB05D8A408D0030E0001FC6504D001D08B
:1012080002D0060E04D00001FC2B6ED0000E0001A7
:10121800FC6F6AD000D0C70E0001716F7F0E00010D
:10122800726F0A0E0001736F020E0001746F92EC68
:1012380031F01200CB0E0001716F7F0E0001726F4A
:101248000A0E0001736F020E0001746F92EC31F008
:101258001200CF0E0001716F7F0E0001726F0A0E2F
:101268000001736F020E0001746F92EC31F01200EE
:10127800D30E0001716F7F0E0001726F0A0E00011C
:10128800736F020E0001746F92EC31F01200D70EEA
:101298000001716F7F0E0001726F0A0E0001736FFB
:1012A800020E0001746F92EC31F01200DB0E0001A7
:1012B800716F7F0E0001726F0A0E0001736F020ECC
:1012C8000001746F92EC31F01200F30E0001716F9F
:1012D8007F0E0001726F0A0E0001736F020E00018B
:1012E800746F92EC31F012000001FC51000AD8B47E
:1012F80092D7010AD8B49ED7030AD8B4AAD7010A4C
:10130800D8B4B6D7070AD8B4C2D7010AD8B4CED74A
:10131800030AD8B4DAD77FD712000001AC51000114
:10132800D8B40DD0CBEC25F00009D8B404D0010E08
:101338000001B56F04D0090E0001EE6F00D0000166
:10134800B5510001D8B4120035EC39F0210E000176
:10135800716F7B0E0001726F000E0001736F000E3B
:101368000001746F92EC31F0870E0001716F7B0EF3
:101378000001726F000E0001736F010E0001746F9F
:1013880092EC31F0830E0001716F7C0E0001726FD8
:10139800000E0001736F030E0001746F92EC31F0C0
:1013A800060E0001F36F12000001F351000AD8B4D1
:1013B800B6EF01F0010AD8B4C1EF05F0030AD8B4BA
:1013C80058D5010AD8B4DDD6050AD8B4F2EF01F031
:1013D800010AD8B4DFEF02F00F0AD8B46CEF03F0BB
:1013E800020AD8B4F0EF04F0010AD8B485EF05F08A
:1013F800070AD8B44FD4010AD8B477D5020AD8B4AA
:101408008CD7B4EF01F0120000017B6F000E0001D1
:101418007A6F8CD3FFD7AED3FC0E0001616F7E0EBE
:101428000001626F9AEC37F0010E0001F46FA2D34D
:10143800000177510001D8B401D001D003D00A0EC1
:101448000001F46F00017B510001D8B401D001D034
:1014580091D3610E0001606F010E0001616FB80E3B
:101468000001626F7F0E0001636F000E0001656F5F
:10147800040E646F70EC2DF00001605100016111E1
:10148800D8A401D001D033D0000E0001EB6F35ECA9
:1014980039F0430E0001716F7B0E0001726F000E70
:1014A8000001736F000E0001746F92EC31F0980E1A
:1014B8000001716F7B0E0001726F000E0001736FE7
:1014C800020E0001746F92EC31F0EE0E0001716FA4
:1014D8007A0E0001726F000E0001736F030E000197
:1014E800746F92EC31F0020E0001F46F43D3610E79
:1014F8000001606F010E0001616FBD0E0001626F97
:101508007F0E0001636F000E0001656F040E646FAB
:1015180070EC2DF00001605100016111D8A401D0D8
:1015280001D033D0010E0001EB6F35EC39F0430EDA
:101538000001716F7B0E0001726F000E0001736F66
:10154800000E0001746F92EC31F0980E0001716F7B
:101558007B0E0001726F000E0001736F020E000116
:10156800746F92EC31F0EE0E0001716F7A0E00018B
:10157800726F000E0001736F030E0001746F92EC1E
:1015880031F0020E0001F46FF5D2FC0E0001616F1C
:101598007E0E0001626F9AEC37F0000E0001616F59
:1015A800190E606FC8EC36F0000E0001F46FE2D23D
:1015B800E1D2E0D2DFD2000176510001D8B401D0E7
:1015C80001D021D0BB0E0001716F7A0E0001726F3D
:1015D800000E0001736F030E0001746F92EC31F07E
:1015E800010E0001616FF40E606FC8EC36F0E70E73
:1015F8000001616F7D0E0001626F9AEC37F0030EF7
:101608000001F46FB7D2000177510001D8B401D0BE
:1016180001D0B0D2DD0E0001716F7A0E0001726F39
:10162800000E0001736F030E0001746F92EC31F02D
:10163800010E0001616FF40E606FC8EC36F03B0ECE
:101648000001616F7D0E0001626F9AEC37F0050EA4
:101658000001F46F8FD28ED28DD200017B51000130
:10166800D8B401D001D086D2610E0001606F010E9E
:101678000001616FF70E0001626F7F0E0001636F5A
:1016880020EC34F00001605100016111D8A401D0B0
:1016980001D004D0040E0001F46F6CD2610E000179
:1016A800606F010E0001616F570E0001626F7D0EC1
:1016B8000001636F20EC34F00001605100016111FA
:1016C800D8A401D001D022D035EC39F0B40E0001F5
:1016D800716F7E0E0001726F000E0001736F000EB5
:1016E8000001746F92EC31F0190E0001716F7F0EDA
:1016F8000001726F000E0001736F010E0001746F1C
:1017080092EC31F0090E0001F46F34D2E70E0001BB
:10171800616F7D0E0001626F9AEC37F0030E0001D5
:10172800F46F28D227D226D225D200017B5100019E
:10173800D8B401D001D01ED2610E0001606F010E35
:101748000001616F220E0001626F7F0E0001636F5E
:1017580020EC34F00001605100016111D8A401D0DF
:1017680001D022D035EC39F0D40E0001716F7E0E15
:101778000001726F000E0001736F000E0001746F9C
:1017880092EC31F09E0E0001716F7E0E0001726FB7
:10179800000E0001736F010E0001746F92EC31F0BE
:1017A800070E0001F46FE6D1F20E0001616F7E0EA4
:1017B8000001626F9AEC37F0010E0001F46FDAD184
:1017C800D9D1D8D100017B510001D8B401D001D0C2
:1017D800D1D1610E0001606F010E0001616FF70E3B
:1017E8000001626F7F0E0001636F20EC34F000018E
:1017F800605100016111D8A401D001D004D0060EB7
:101808000001F46FB7D1610E0001606F010E000195
:10181800616F570E0001626F7D0E0001636F20EC4F
:1018280034F00001605100016111D8A401D001D049
:1018380022D035EC39F0B40E0001716F7E0E000134
:10184800726F000E0001736F000E0001746F92EC4E
:1018580031F0190E0001716F7F0E0001726F000EDA
:101868000001736F010E0001746F92EC31F0090EE4
:101878000001F46F7FD1610E0001606F010E00015D
:10188800616F490E0001626F7D0E0001636F20ECED
:1018980034F00001605100016111D8A401D001D0D9
:1018A8000CD03B0E0001616F7D0E0001626F9AEC57
:1018B80037F0050E0001F46F5DD1610E0001606F15
:1018C800010E0001616F930E0001626F7E0E000130
:1018D800636F20EC34F00001605100016111D8A45D
:1018E80001D001D047D1000E0001F46F43D142D19D
:1018F80041D140D13FD13ED100017B510001D8B444
:1019080001D001D037D1610E0001606F010E0001D6
:10191800616F220E0001626F7F0E0001636F20EC81
:1019280034F00001605100016111D8A401D001D048
:1019380022D035EC39F0880E0001716F7E0E00015F
:10194800726F000E0001736F000E0001746F92EC4D
:1019580031F09E0E0001716F7E0E0001726F000E55
:101968000001736F010E0001746F92EC31F0070EE5
:101978000001F46FFFD0610E0001606F010E0001DD
:10198800616F950E0001626F7F0E0001636F20EC9E
:1019980034F00001605100016111D8A401D001D0D8
:1019A8002AD035EC39F0E80E0001716F7E0E000187
:1019B800726F010E0001736F000E0001746F92ECDC
:1019C80031F08E0E0001716F7F0E0001726F020EF2
:1019D8000001736F010E0001746F92EC31F03B0E41
:1019E8000001616F7D0E0001626F9AEC37F0050E01
:1019F8000001F46FBFD0610E0001606F010E00019D
:101A0800616F930E0001626F7E0E0001636F20EC20
:101A180034F00001605100016111D8A401D001D057
:101A2800A9D0000E0001F46FA5D0A4D0A3D0A2D0F5
:101A3800A1D0A90E0001616F7E0E0001626F9AECC1
:101A480037F0080E0001F46F95D000017B510001BA
:101A5800D8B401D001D08ED0610E0001606F010EA4
:101A68000001616F490E0001626F7D0E0001636F16
:101A780020EC34F00001605100016111D8A401D0BC
:101A880001D00CD0A90E0001616F7E0E0001626FBB
:101A98009AEC37F0080E0001F46F6CD00101615127
:101AA800D00F0001796F79C0FCF0010E00017A6F48
:101AB80061D060D05FD0000177510001D8B401D067
:101AC80001D058D00A0E0001F46F54D053D0000E44
:101AD8000001606F000E86EC36F000D081B201D0B4
:101AE80001D006D081A001D001D0F8D701D000D014
:101AF800FA0E0001786F580EE82EFED7782FFCD723
:101B080000F0FA0E0001786F580EE82EFED7782FF5
:101B1800FCD700F0FA0E0001786F580EE82EFED7B9
:101B2800782FFCD700F0FF0025D024D00001F45115
:101B3800000AD8B471D4010AD8B47AD4030AD8B444
:101B48003AD5010AD8B489D5070AD8B4EED5010A1E
:101B5800D8B438D6030AD8B4CFD6010AD8B469D7CE
:101B68000F0AD8B472D7010AD8B4A5D7030AD8B4D3
:101B7800AED750D400017A5100D012000001635151
:101B8800800B0001706F0001635163250001726FC3
:101B9800000162AF01D001D003D00001728100D0F2
:101BA800000172510001D8B401D001D016D0000153
:101BB8007229D8A401D001D00AD0000E0001606FAC
:101BC800000E616F000E626F000E636F00D000019F
:101BD800628F000E0001636F0AD0000E0001606F73
:101BE800000E616F000E626F000E636F00D000017F
:101BF8006751800B0001716F00017051000171196C
:101C0800D8B401D001D003D00001708D00D00001FC
:101C1800675167250001716F000166AF01D001D0DF
:101C280003D00001718100D0000171510001D8B4C6
:101C380001D001D016D000017129D8A401D001D05B
:101C48000AD0000E0001646F000E656F000E666F0B
:101C5800000E676F00D00001668F000E0001676FED
:101C68000AD0000E0001646F000E656F000E666FEB
:101C7800000E676F00D0000172510001715DD8B08D
:101C880001D001D028D0000170AD01D001D004D01E
:101C9800800E0001701B00D072C073F071C072F02A
:101CA80073C071F060C073F064C060F073C064F01A
:101CB80061C073F065C061F073C065F062C073F015
:101CC80066C062F073C066F063C073F067C063F00B
:101CD80073C067F000D0000E0001736F00017251ED
:101CE8000001686F696B0001681F691F684B692BE9
:101CF8000001715100016A6F6B6B000168510001AE
:101D08006A270001695100016B2300016BBF09D0EC
:101D180000016B5107E11A0E00016A5DD8A001D0DD
:101D280001D03DD000016051000161110001621134
:101D380000016311D8A401D002D0010E01D0000E19
:101D48000001736F000E0001606F000E616F000EDE
:101D5800626F000E636F71C072F02AD020D000014C
:101D680073A101D001D007D00001D89073310109C7
:101D78000001736F04D00001D890733300D00001C4
:101D880060A101D001D003D00001738F00D0000101
:101D9800633563336233613360330001722B0001B2
:101DA80071510001725DD8A001D001D0D8D700D000
:101DB800000170BD01D001D04BD00001725100016B
:101DC800D8A401D001D00BD0000E0001606F000E26
:101DD800616F000E626F000E636F9AD199D1000196
:101DE8006451000160270001655100016123000171
:101DF800665100016223000167510001632300015D
:101E080063A101D001D0EDD0000173A101D001D0B0
:101E180009D00001D8907333000173510109000102
:101E2800736F04D00001D890733300D0000160A113
:101E380001D001D003D00001738F00D000016335B9
:101E480063336233613360330001722BCAD0C9D067
:101E5800000164510001605D000165510001615994
:101E6800000166510001625900016351800A0001B6
:101E7800686F00016751800A00016859D8B001D025
:101E880001D053D060C068F061C069F062C06AF0E8
:101E980063C06BF00001681F691F6A1F6B1F682B06
:101EA800000E69236A236B23000164510001682531
:101EB80000016C6F000165510001692100016D6F1F
:101EC8000001665100016A2100016E6F000167512F
:101ED80000016B2100016F6FFF0E00016C250001EE
:101EE800606FFF0E00016D210001616FFF0E0001A0
:101EF8006E210001626FFF0E00016F210001636F08
:101F0800800E0001701B0001736D00017351000108
:101F1800D8A401D001D019D0010E00016027000E0D
:101F280061236223632311D010D0000164510001A2
:101F3800605F000165510001615B000166510001AD
:101F4800625B000167510001635B000160510001A1
:101F580061110001621100016311D8A401D001D000
:101F680039D0000173510001D8A401D001D032D07A
:101F7800000E0001606F000E616F000E626F000EB0
:101F8800636FC6D0C5D026D00001D89060376137BE
:101F980062376337000173AF01D001D003D000016D
:101FA800608100D0000173A101D001D004D0D88095
:101FB8000001733704D00001D890733700D00001B6
:101FC80072510001D8B401D001D004D000017207C9
:101FD80001D000D0000162AF01D001D0D5D701D027
:101FE80000D0000E0001716F000173AF01D001D065
:101FF80017D073C068F07F0E00016817D8B401D0FD
:1020080001D004D0010E0001716F0AD0000160A157
:1020180001D001D005D0010E0001716F01D000D0B0
:10202800000171510001D8B401D001D02DD0010EAA
:1020380000016027000E612362236323000163A16E
:1020480001D001D021D060C068F061C069F062C0E1
:102058006AF063C06BF000016B356B336A33693328
:10206800683368C060F069C061F06AC062F06BC034
:1020780063F000017229D8B401D001D005D0000165
:10208800722B02D001D000D000017229D8B401D03F
:1020980001D008D0000172510001D8A401D001D0AC
:1020A80016D000D0000E0001606F000E616F000EA8
:1020B800626F000E636F000172510001D8A401D055
:1020C80001D005D0000E0001706F01D000D00001D2
:1020D80072A101D001D003D00001628F03D00001AA
:1020E800629F00D00001D89072310001636F000137
:1020F80070AF01D001D003D00001638F00D060C061
:1021080060F061C061F062C062F063C063F000D04B
:10211800120000017751800B0001806F0001775198
:1021280077250001866F000176AF01D001D003D07A
:102138000001868100D0000186510001D8B401D089
:1021480001D013D000018629D8A401D001D00AD02B
:10215800000E0001746F000E756F000E766F000E92
:10216800776F00D00001768F0AD0000E0001746FDF
:10217800000E756F000E766F000E776F00D00001AD
:102188007B51800B0001801B00017B517B250001E6
:10219800856F00017AAF01D001D003D0000185819D
:1021A80000D0000185510001D8B401D001D013D06E
:1021B80000018529D8A401D001D00AD0000E000161
:1021C800786F000E796F000E7A6F000E7B6F00D06B
:1021D80000017A8F09D0000E0001786F000E796F28
:1021E800000E7A6F000E7B6F000185510001D8B494
:1021F80001D001D008D0000186510001D8A401D037
:1022080001D00CD000D0000E0001746F000E756F65
:10221800000E766F000E776F08D207D200017A5150
:1022280000017403F3CF8BF0F4CF8CF000018B51D5
:102238000001816F826B836B846B00018C510001FC
:10224800876F886B896B8A6B000179510001750370
:10225800F3CF8BF0F4CF8CF000018B510001812774
:10226800000E82238323842300018C5100018727D9
:10227800000E882389238A23000178510001760300
:10228800F3CF8BF0F4CF8CF000018B510001812744
:10229800000E82238323842300018C5100018727A9
:1022A800000E882389238A2383C084F082C083F0A8
:1022B80081C082F00001816B000178510001750333
:1022C800F3CF8BF0F4CF8CF000018B510001812704
:1022D80000018C5100018223000E00018323000EAF
:1022E800000184230001795100017403F3CF8BF0BE
:1022F800F4CF8CF000018B510001812700018C5133
:1023080000018223000E00018323000E00018423B4
:1023180083C084F082C083F081C082F00001816BA9
:102328000001785100017403F3CF8BF0F4CF8CF0E7
:1023380000018B510001812700018C51000182238B
:10234800000E00018323000E0001842300017A514E
:1023580000017503F3CF8BF0F4CF8CF000018B51A3
:102368000001872700018C5100018823000E00011D
:102378008923000E00018A230001795100017603A8
:10238800F3CF8BF0F4CF8CF000018B51000187273D
:1023980000018C5100018823000E00018923000EE2
:1023A80000018A2300017A5100017603F3CF8BF0F4
:1023B800F4CF8CF000018B5100017C6F00018C512F
:1023C80000017D6F00017E6B00017F6B7EC07FF096
:1023D8007DC07EF07CC07DF000017C6B00017C51EB
:1023E8000001872700017D510001882300017E51EB
:1023F8000001892300017F5100018A2381C07CF0FC
:1024080082C07DF083C07EF084C07FF0190E06D0B4
:102418000001D8907F337E337D337C33E82EF8D7A4
:1024280000017C510001872700017D5100018823AC
:1024380000017E510001892300017F5100018A2398
:1024480083C084F082C083F081C082F00001816B78
:102458000001855186C07CF000017D6B00017C275E
:10246800000E7D23820E00017C2500018B6FFF0E7C
:1024780000017D2100018C6F18D00001D8908737AA
:10248800883789378A37000184AF01D001D002D05C
:10249800000187810001D8908137823783378437DC
:1024A80000018B07D8A08C0700D0000189AF01D0AC
:1024B80001D0E3D700D0000E0001856F000184AF82
:1024C80001D001D02ED0FF0E0001811500017C6FD4
:1024D800FF0E0001821500017D6FFF0E00018315BC
:1024E80000017E6F7F0E0001841500017F6F0001DF
:1024F8007C5100017D1100017E1100017F11D8B4CB
:1025080001D001D004D0010E0001856F0AD000016E
:1025180087A101D001D005D0010E0001856F01D03F
:1025280000D0000185510001D8B401D001D027D0D6
:10253800010E00018727000E882389238A230001C2
:102548008AA101D001D01BD087C07CF088C07DF063
:1025580089C07EF08AC07FF000017F357F337E33EB
:102568007D337C337CC087F07DC088F07EC089F0E5
:102578007FC08AF000018B4B8C2B01D000D000016A
:102588008CBF08D000018C5106E100018B29D8A02E
:1025980001D001D00AD0000E0001876F000E886FAD
:1025A800800E896F7F0E8A6F33D000018CBF09D0EF
:1025B80000018C5105E100018B05D8B001D001D094
:1025C8000DD0000E0001876F000E886F000E896F16
:1025D800000E8A6F000E0001806F1AD08BC086F043
:1025E800FF0E00018717FF0E88177F0E8917000E50
:1025F8008A17000186A101D001D003D00001898F7C
:1026080000D00001D890863100018A6F01D000D037
:102618000001805100018A1387C074F088C075F0EA
:1026280089C076F08AC077F000D01200000190517E
:10263800800B0001996F0001905190250001A46F53
:1026480000018FAF01D001D003D00001A48100D0D8
:102658000001A4510001D8B401D001D016D0000166
:10266800A429D8A401D001D00AD0000E00018D6F92
:10267800000E8E6F000E8F6F000E906F00D000015D
:102688008F8F000E0001906F0AD0000E00018D6F31
:10269800000E8E6F000E8F6F000E906F00D000013D
:1026A8009451800B0001991B00019451942500015D
:1026B800A56F000193AF01D001D003D00001A5811F
:1026C80000D00001A5510001D8B401D001D016D026
:1026D8000001A529D8A401D001D00AD0000E00011C
:1026E800916F000E926F000E936F000E946F00D0E2
:1026F8000001938F000E0001946F0AD0000E0001B4
:10270800916F000E926F000E936F000E946F00D0C1
:1027180000019151000192110001931100019411DF
:10272800D8A401D001D018D0000E00018D6F000E82
:102738008E6F000E8F6F000E906F0001800E8F134A
:102748007F0E90138DC08DF08EC08EF08FC08FF0ED
:1027580090C090F094D193D10001A4510001D8A465
:1027680001D001D013D0000E00018D6F000E8E6FC6
:10277800000E8F6F000E906F8DC08DF08EC08EF0A2
:102788008FC08FF090C090F07AD179D10001A55117
:102798000001956F966B0001951F961F954B962B20
:1027A8000001A4510001976F986B00019551000139
:1027B800972700019651000198237F0E0001972565
:1027C80000019E6F000E0001982100019F6F8DC0CF
:1027D8009AF08EC09BF08FC09CF090C09DF0000EC8
:1027E80000018D6F000E8E6F000E8F6F000E906FC0
:1027F800000E0001A06F000EA16F000EA26F000E68
:10280800A36F000E0001A56F4AD00001A551000179
:10281800D8B401D001D01AD00001D8909A379B378C
:102828009C379D370001D8908D378E378F3790377A
:102838000001A3AF01D001D002D000018D810001B9
:10284800D890A037A137A237A33700D00001915103
:1028580000019A5D0001925100019B5900019351BA
:1028680000019C590001945100019D59D8A001D044
:1028780001D013D00001A38D0001915100019A5F8E
:102888000001925100019B5B0001935100019C5B88
:102898000001945100019D5B00D00001A52B190E89
:1028A8000001A56501D001D0B0D700D000019A5130
:1028B80000019B1100019C1100019D11D8B401D0A9
:1028C80001D01CD00001A08119D018D00001D890E7
:1028D8008D378E378F3790370001A3AF01D001D0E5
:1028E80002D000018D810001D890A037A137A2370E
:1028F800A33700019E07D8A09F0700D000018FAF23
:1029080001D001D0E3D700D0000E0001A56F00016F
:10291800A3AF01D001D02ED0FF0E0001A0150001F9
:10292800956FFF0E0001A1150001966FFF0E0001C3
:10293800A2150001976F7F0E0001A3150001986F83
:10294800000195510001961100019711000198119D
:10295800D8B401D001D004D0010E0001A56F0AD06F
:1029680000018DA101D001D005D0010E0001A56F95
:1029780001D000D00001A5510001D8B401D001D088
:1029880027D0010E00018D27000E8E238F23902360
:10299800000190A101D001D01BD08DC095F08EC050
:1029A80096F08FC097F090C098F000019835983352
:1029B80097339633953395C08DF096C08EF097C0B7
:1029C8008FF098C090F000019E4B9F2B01D000D053
:1029D80000019FBF08D000019F5106E100019E2918
:1029E800D8A001D001D00ED0000E00019F6F9E69C3
:1029F800000E00018D6F000E8E6F000E8F6F000E9F
:102A0800906F00D000019FBF09D000019F5105E1E0
:102A180000019E05D8B001D001D012D0000E0001EF
:102A28009F6F000E9E6F000E00018D6F000E8E6F5F
:102A3800000E8F6F000E906F000E0001996F00D08E
:102A48009EC0A4F00001A4A101D001D003D00001D0
:102A58008F8F03D000018F9F00D00001D890A43140
:102A68000001906F00019951000190138DC08DF005
:102A78008EC08EF08FC08FF090C090F000D0120002
:102A880004013205D8A401D001D017D00401305177
:102A98001F0B0009D8A401D001D00FD00001C78FA7
:102AA800030E04013119D8A401D001D003D0010EBE
:102AB800436E03D0000E436E00D004013251D8A4F7
:102AC80001D001D061D1040130511F0B020AD8A4F2
:102AD80001D001D059D1040134510F0B0009D8B4E9
:102AE80001D001D051D1040134510F0B166E030EE1
:102AF800166001D001D048D1200E0001EA19D8A4EF
:102B080001D001D041D10001C78F040134BF01D0E9
:102B180001D01FD0040134510F0B166E1650020D50
:102B2800400EF324D96E010EF420DA6EDECF1AF0CF
:102B3800DDCF1BF0040134510F0B166E1650010D3A
:102B4800D00EF324D96E000EF420DA6EDF50196E21
:102B58001FD0040134510F0B166E1650020DCA0E09
:102B6800F324D96E000EF420DA6EDECF1AF0DDCF32
:102B78001BF0040134510F0B166E1650010DD30EC5
:102B8800F324D96E000EF420DA6EDF50196E00D0EF
:102B980019B001D001D002D01A9402D01A8400D002
:102BA800040134BF01D001D011D0040134510F0BFE
:102BB800166E1650020D400EF324D96E010EF42045
:102BC800DA6E1AC0DEFF1BC0DDFF11D004013451DC
:102BD8000F0B166E1650020DCA0EF324D96E000E96
:102BE800F420DA6E1AC0DEFF1BC0DDFF00D0030E32
:102BF80004013119D8A401D001D039D01AC0D9FFA5
:102C08001BC0DAFFDFAE01D001D024D0040134BFED
:102C180001D001D00FD0040134510F0B166E16509D
:102C2800010DD00EF324D96E000EF420DA6E0001E7
:102C3800DF8210D0040134510F0B166E1650010DAF
:102C4800D30EF324D96E000EF420DA6E0001DF8271
:102C580001D000D01AC0D9FF1BC0DAFF000EDB84F8
:102C68001AC0D9FF1BC0DAFF000EDB8E8DD0040E10
:102C78001A1A1AC0D9FF1BC0DAFFDFAE01D001D083
:102C88001BD01AC0D9FF1BC0DAFF7F0EDF161AC08F
:102C9800D9FF1BC0DAFF000EDB8C000E0F6E050E8D
:102CA8000E6E1AC010F01BC011F0000E136E020E4B
:102CB800126E94EC32F007D01AC0D9FF1BC0DAFFAD
:102CC800000EDB8C00D0040E1A1A19B201D001D004
:102CD80008D01AC0D9FF1BC0DAFFDFAE01D001D07F
:102CE80038D0040134BF01D001D00FD004013451D1
:102CF8000F0B166E1650010DD00EF324D96E000E70
:102D0800F420DA6E0001DF920FD0040134510F0B6A
:102D1800166E1650010DD30EF324D96E000EF42052
:102D2800DA6E0001DF9200D01AC0D9FF1BC0DAFFAB
:102D38003B0EDF16000E0F6E050E0E6E1AC010F059
:102D48001BC011F0000E136E020E126E94EC32F0DE
:102D580007D01AC0D9FF1BC0DAFF3B0EDF1600D020
:102D6800040134510F0B166E1650010D6A0EF32430
:102D7800176E0F0EF420186E17C0D9FF18C0DAFFAF
:102D8800FE0EDF1601D000D01200000E0001B76F52
:102D9800000E0001B86F000E0001B96F000E0001AF
:102DA800BB6F030E0001BA6F80A009D0F7EC39F0B1
:102DB8000009D8A408D0040E0001FF6F04D0000E4B
:102DC800E4EC39F000D00001F8A109D0FBEC39F0AF
:102DD80069EC1CF00001F8513EEC36F000D0CAEC6A
:102DE8002FF00001BA6F0001BA05D8A407D0000E71
:102DF8000001EE6F010E0001B86F0CD0020E000149
:102E0800BA19D8A407D0000E0001EE6F010E000118
:102E1800B96F00D068EC30F00009D8B402D0010EC8
:102E280001D0000E0001BB6F00D0020E0001F319A3
:102E3800D8A44CD00101575105E1640E0101565D3B
:102E4800D8A044D000F0C70E0001716F7A0E0001BF
:102E5800726F060E0001736F010E0001746F92EC21
:102E680031F0EAEC33F06DC071F06EC072F0060E0E
:102E78000001736F010E0001746F92EC31F0EAECFF
:102E880034F063C071F064C072F0B4EC2CF071C01F
:102E9800DEF072C0DFF00001DE51BFEC27F0000168
:102EA800B66F0001B6510001DE6FDF6B060E000140
:102EB800766F020E0001776F0001DE5101EC2BF0F6
:102EC800000E0101576F000E566F00D00001EE5141
:102ED800D8B48DD0090E0001EE6589D001D087D015
:102EE8000001FB51D8B483D0010E0001B76F000E6A
:102EF8000001EE6F7CD0FFD788D035EC39F0DE0EBC
:102F08000001716F7E0E0001726F010E0001736F78
:102F1800000E0001746F92EC31F0340E0001716FF5
:102F28007F0E0001726F020E0001736F010E000127
:102F3800746F92EC31F0A90E0001716F7B0E0001E5
:102F4800726F000E0001736F030E0001746F92EC34
:102F580031F0000E0001F46F020E3BD0B8C076F0DD
:102F6800B9C077F00001BB5108EC0AF00009D8B4E9
:102F78004CD035EC39F0FE0E0001716F7B0E00016C
:102F8800726F000E0001736F000E0001746F92ECF7
:102F980031F00F0E0001716F7C0E0001726F000E90
:102FA8000001736F020E0001746F92EC31F0320E63
:102FB8000001716F7B0E0001726F000E0001736FCC
:102FC800030E0001746F92EC31F0000E0001F36FF4
:102FD800030E0001FF6F19D0B9C0ACF0BBC0ADF053
:102FE800B7C0AEF00001B851A6EC00F00ED0000159
:102FF800FF51010AD8B481D7030AD8B4AFD7010A60
:10300800D8B4EAD7070AD8A476D70001FF5112002E
:1030180012000001686F000168510001D8B401D0A6
:1030280001D020D0000163BF02D000D01BD060C007
:1030380064F061C065F062C066F063C067F00001CB
:10304800641F651F661F671F642B000E65236623B8
:10305800672364C06AF065C06BF066C06CF067C037
:103068006DF009D060C06AF061C06BF062C06CF0AE
:1030780063C06DF000D000016051000161110001D2
:10308800621100016311D8A401D001D00BD0000E49
:103098000001606F000E616F000E626F000E636FBB
:1030A800BBD0BAD0960E0001696F09D00001692B18
:1030B8000001D8906D336C336B336A3300D0000E47
:1030C80000016A150001646F000E00016B15000114
:1030D800656F000E00016C150001666FFE0E0001A1
:1030E8006D150001676F0001645100016511000151
:1030F800661100016711D8A401D001D0D7D710D02C
:103108000FD00001692B010E00016A27000E6B2306
:103118006C236D230001D8906D336C336B336A33A5
:10312800000E00016A150001646F000E00016B15A6
:103138000001656F000E00016C150001666FFF0E3F
:1031480000016D150001676F0001645100016511F0
:103158000001661100016711D8A401D001D0D1D7B0
:103168000AD009D0000169070001D8906A376B3787
:103178006C376D3700D000016CBF01D001D007D08B
:10318800020E0001696101D001D0ECD700D0000126
:1031980069B101D001D009D0FF0E00016A17FF0EF6
:1031A8006B177F0E6C17FF0E6D170001D8906933EF
:1031B80069C064F00001656B666B676B64C067F09B
:1031C8000001666B656B646B0001645100016A1352
:1031D8000001655100016B130001665100016C1379
:1031E8000001675100016D13000168510001D8B456
:1031F80001D001D008D0000163BF02D000D003D0B5
:1032080000016D8F00D06AC060F06BC061F06CC0C7
:1032180062F06DC063F000D01200A3940001D65193
:103228000001D711D8B401D001D014D0D6C0D9FF2D
:10323800D7C0DAFF0001DFBE01D004D00001676B00
:10324800672B02D00001676B000167510001686FAE
:10325800696B06D0000E0001696F000E686F00D020
:103268000001685100016911D8B401D001D002D021
:10327800A384BED0030E0001E919D8A401D001D05F
:1032880003D0000E0001E96F0001E951D8A401D074
:1032980001D002D0A384ACD0020E0001E919D8A451
:1032A80001D001D017D0010E0001606F000E00019F
:1032B800616F000E0001626F000E0001636F020E65
:1032C800CDEC24F060C0D6F061C0D7F0030E000149
:1032D800E96F8DD00001E905D8A401D001D087D0CD
:1032E800400E0001E16501D001D004D0400E00017C
:1032F8006B6F03D0E1C06BF000D000016B51000888
:103308000001E1250001E16F000E01014E6F050E7D
:1033180001014F6F6BC06AF00001E051D8A401D0E1
:1033280001D032D014D013D051C1D9FF52C1DAFF25
:103338004EC1E1FF4FC1E2FFDFCFE7FF01014E4B76
:103348004F2B0101514B522B00016A0700D000019D
:103358006A510001D8A401D001D0E6D71ED01DD0F3
:1033680013D051C1D9FF52C1DAFF4EC1E1FF4FC19D
:10337800E2FFDFCFE7FF01014E4B4F2B0101514B1D
:10338800522B00016A0700D000016A510001D8A43D
:1033980001D001D0E6D701D000D00001E151D8A476
:1033A80001D001D010D0400E00016B19D8A401D073
:1033B80001D004D0020E0001E96F05D0030E000110
:1033C800E96F01D000D0010E0001606F000E00010E
:1033D800616F050E0001626F6BC063F0020ECDECE9
:1033E80024F060C0D6F061C0D7F001D000D0A3842B
:1033F80012000001EA05D8A401D001D00DD060BAAE
:1034080001D001D009D0000E656E64806488020E78
:103418000001EA6F01D000D065A401D001D008D026
:1034280064A401D001D004D06594EEEC37F000D04C
:1034380060A201D001D002D0A494C3D065A001D06D
:1034480001D00CD064A001D001D008D0D3EC1DF07D
:10345800A384040E0001EA6F659000D065A801D02E
:1034680001D008D064A801D001D004D0B4EC38F061
:10347800659800D065AC01D001D024D064AC01D0EF
:1034880001D00FD0000E0F6E730E0E6E000E106E70
:10349800000E116E000E136E010E126E94EC32F0D7
:1034A80000D0659C4050D8B401D001D002D040066D
:1034B80000D04050D8A401D001D004D0DFEC2BF0CC
:1034C80001D000D065AA01D001D007D064AA01D0EC
:1034D80001D003D016EC36F000D065A201D001D09F
:1034E80014D064A201D001D010D07F0E0F6E0E68E8
:1034F800000E106E000E116E000E136E010E126E8D
:1035080094EC32F0000E676E00D0040E0001EA6100
:1035180001D001D002D0A49454D064A601D001D027
:103528004FD0000E1F6E030E1F6401D001D002D0D1
:1035380047D046D065A601D001D042D061CF58F01F
:103548005830E832E8320F0B426E659658B401D015
:1035580001D00BD04250010DD00EF324D96E000ECD
:10356800F420DA6E0001DF700BD04250010DD30E4B
:10357800F324D96E000EF420DA6E0001DF7000D05B
:103588004250D8A401D001D003D02BEC29F011D09F
:10359800000E0F6E720E0E6E580E106E000E116E2B
:1035A800000E136E000E126E94EC32F002D001D0B1
:1035B80007D01F2A030E1F6401D001D0BBD700D04B
:1035C800A49412000001646F080E00016419D8B4B5
:1035D80001D001D077D0A30E0001616F7C0E0001ED
:1035E800626F9AEC37F0FA0E0001636F580EE82EFE
:1035F800FED7632FFCD700F0FA0E0001636F580E58
:10360800E82EFED7632FFCD700F0FA0E0001636F97
:10361800580EE82EFED7632FFCD700F053D052D0B7
:103628007F0E0001616F7D0E0001626F9AEC37F02A
:1036380067D08C0E0001616F7D0E0001626F9AECFD
:1036480037F05ED0990E0001616F7D0E0001626F48
:103658009AEC37F055D0A60E0001616F7D0E00017F
:10366800626F9AEC37F04CD0B30E0001616F7D0E9B
:103678000001626F9AEC37F043D0C00E0001616F11
:103688007D0E0001626F9AEC37F03AD0CD0E000142
:10369800616F7D0E0001626F9AEC37F031D0DA0E5F
:1036A8000001616F7D0E0001626F9AEC37F028D03F
:1036B800F10E0001616F7C0E0001626F9AEC37F029
:1036C8001FD01ED000016451000AD8B4A9D7010A3E
:1036D800D8B4AFD7030AD8B4B5D7010AD8B4BBD782
:1036E800070AD8B4C1D7010AD8B4C7D7030AD8B4CF
:1036F800CDD7010AD8B4D3D70F0AD8B4D9D700D0B8
:10370800FA0E0001636F580EE82EFED7632FFCD720
:1037180000F0FA0E0001636F580EE82EFED7632FF3
:10372800FCD700F0FA0E0001636F580EE82EFED7A2
:10373800632FFCD700F02B0E0001616F7F0E000194
:10374800626F9AEC37F01200A394000E676E000EB9
:10375800656E000E6A6E6B0E0001606F0F0E000141
:10376800616F000E0001636F000E626F000E0001B2
:10377800656F020E646F25EC37F0160E626E9F0EB1
:10378800666E7B0E646E000E0001686F0B0E000102
:10379800686501D001D002D016D015D0000168515B
:1037A800040D000EF324D96E040EF420DA6EDE6ADE
:1037B800DE6ADE6ADD6A0001682B0B0E00016865AF
:1037C80001D001D0EBD7608C000E636E6098609CCE
:1037D8000DD06596000E0001C76F000E0001BF6F87
:1037E800000E0001C16F000EC06F00D065B601D099
:1037F80001D0EFD700D0010E3E6E010E3D6E000ED7
:103808003C6E000E3B6E000E01015B6F000E000166
:10381800686F020E0001686501D001D002D03AD06D
:1038280039D000016851020DCA0EF324D96E000E7A
:10383800F420DA6E000EDE6E000EDD6E00016851B7
:10384800020D400EF324D96E010EF420DA6E000E3C
:10385800DE6E000EDD6E00016851010DD30EF324FB
:10386800D96E000EF420DA6E000EDF6E000168518A
:10387800010DD00EF324D96E000EF420DA6E000E7E
:10388800DF6E0001682B020E0001686501D001D0CF
:10389800C8D700D0080E0001CA6F040E0001CB6F14
:1038A800160E6A6E040E0401036F300E026F080EC6
:1038B8000401016F040E0401006F0401008F000E63
:1038C800596E000E0001EA6F12000001DC4BDD2B7F
:1038D800DCC060F0DDC061F0000E0001636F0A0E0D
:1038E800626F58EC32F00001605100016111D8A4F8
:1038F80001D001D09FD00001F883DCC060F0DDC0AA
:1039080061F0000E0001636F640E626F58EC32F0D4
:103918000001605100016111D8A401D001D08AD002
:103928000001F885DCC060F0DDC061F0030E000125
:10393800636FE80E626F58EC32F0000160510001CD
:103948006111D8A401D001D075D00001F887DCC07E
:1039580060F0DDC061F00001626B636B600E000116
:10396800646FEA0E656F000E666F000E676F9CEC61
:1039780021F0000160510001611100016211000194
:103988006311D8A401D001D055D00001DA4BDB2B4C
:103998000001F889DAC060F0DBC061F0000E0001B8
:1039A800636F3C0E626F58EC32F000016051000109
:1039B8006111D8A401D001D03DD00001F88BDAC044
:1039C80060F0DBC061F0020E0001636FD00E626F21
:1039D80058EC32F00001605100016111D8A401D007
:1039E80001D028D00001F88DDAC060F0DBC061F0AA
:1039F800050E0001636FA00E626F58EC32F00001F3
:103A0800605100016111D8A401D001D013D0000188
:103A1800F88F000E0001DD6F000EDC6F000E000154
:103A2800DB6F000EDA6F06D005D004D003D002D0C9
:103A380001D000D0120020EE01F03150D9263250CA
:103A4800DA22DF50136E13500001C05D000EC15919
:103A5800D8B001D001D003D0C0C013F000D01350AB
:103A68000001C05F000EC15B000E126E13D0125031
:103A7800010D380EF324D96E040EF420DA6EBCC0A2
:103A8800E1FFBDC0E2FFDFCFE7FF0001BC4BBD2B6C
:103A9800122A00D01350125CD8A001D001D0E7D769
:103AA80000D00001C0510001C111D8B401D001D02B
:103AB80035D020EE01F02F50D9263050DA22080EEA
:103AC800DF6E20EE02F02F50D9263050DA22380E61
:103AD800DE6E040EDD6E31C0D9FF32C0DAFFDFBC06
:103AE80001D001D00DD02FC0D9FF30C0DAFF480E69
:103AF800DF6E2FC0D9FF30C0DAFF000EDB8E4ED04C
:103B08002FC0D9FF30C0DAFF080EDF6E2FC0D9FFF3
:103B180030C0DAFF000EDB8E41D040D020EE01F03D
:103B28002F50D9263050DA22080EDF6E20EE02F030
:103B38002F50D9263050DA22300EDE6E040EDD6E9C
:103B48002FC0D9FF30C0DAFF040EDF6E2FC0D9FFB7
:103B580030C0DAFF000EDB8E0001C2510001C31134
:103B6800D8B401D001D00FD020EEC2F001D80AD0CD
:103B78000500FA6EDE50FD6EDE50FE6EF850FF6EE8
:103B8800FA50120000D00001BF9F3F50D8A401D0C6
:103B980001D004D0DFEC2BF001D000D01200A394A8
:103BA800000E676E000E656E000E6A6E6B0E016E7B
:103BB8000F0E026E000E046E000E036E000E066EEF
:103BC800020E056E26EC38F0160E626E9F0E666EBB
:103BD8007B0E646E000E096E0B0E096401D001D0D5
:103BE80002D013D012D00950040D000EF324D96E60
:103BF800040EF420DA6EDE6ADE6ADE6ADD6A092AFD
:103C08000B0E096401D001D0EED7608C000E636EF4
:103C18006098609C0DD06596000E0001C76F000E7D
:103C28000001BF6F000E0001C16F000EC06F00D011
:103C380065B601D001D0EFD700D0010E3E6E010E5F
:103C48003D6E000E3C6E000E3B6E000E01015B6F78
:103C5800000E096E020E096401D001D002D034D0E2
:103C680033D00950020DCA0EF324D96E000EF42089
:103C7800DA6E000EDE6E000EDD6E0950020D400E8B
:103C8800F324D96E010EF420DA6E000EDE6E000EFB
:103C9800DD6E0950010DD30EF324D96E000EF42009
:103CA800DA6E000EDF6E0950010DD00EF324D96EC6
:103CB800000EF420DA6E000EDF6E092A020E096487
:103CC80001D001D0CED700D0080E0001CA6F040E73
:103CD8000001CB6F160E6A6E040E0401036F300EDE
:103CE800026F080E0401016F040E0401006F040145
:103CF800008F000E596E000E0001EA6F1200800E50
:103D080004013019D8A401D001D0A1D0C00E0001FF
:103D1800C76F90D0A20E0001C46F790E0001C56F65
:103D2800000E0001C96F120EC86F91D00401325104
:103D3800D8A401D001D044D004013251020DF50EAF
:103D4800F324F66E750EF420F76E0900F5CFC4F073
:103D58000A00F5CFC5F0020E0001C425016E000E61
:103D68000001C521026E01C0F6FF02C0F7FFF86A24
:103D7800070EF76403D00800F55005D0F6CFE9FF29
:103D8800F7CFEAFFEF500001C86F030E0001C4250A
:103D9800016E000E0001C521026E01C0F6FF02C0CF
:103DA800F7FFF86A070EF76403D00800F55005D04E
:103DB800F6CFE9FFF7CFEAFFEF500001C96F47D010
:103DC800000E0001C76F43D042D0030E04013261D8
:103DD80001D001D025D004013251020DEF0EF32499
:103DE800F66E750EF420F76E0900F5CFC4F00A00E0
:103DF800F5CFC5F0C4C0F6FFC5C0F7FFF86A070ED7
:103E0800F76403D00800F55005D0F6CFE9FFF7CFE7
:103E1800EAFFEF50016E01500001C86FC96B17D05F
:103E2800000E0001C76F13D012D0000E0001C76F3B
:103E38000ED00DD004013351010AD8B46BD7030A50
:103E4800D8B474D7010AD8B4C0D7EFD700D01200BD
:103E58001F0E0001EA6501D001D09FD060A201D0F9
:103E680001D002D09AD099D00001E5510001D8A420
:103E780001D001D01AD0800E0001676F020E000138
:103E8800686F400E0001696F49EC24F00001E46F8F
:103E98000001E451D8B401D001D007D0010E0001CF
:103EA800E56F000E0001E36F00D00001E55100014D
:103EB800D8B401D001D01ED0ACA201D001D01AD004
:103EC8000001E351010D800EF324D96E020EF42097
:103ED800DA6EDF50C6EC35F00001E32B0001E45147
:103EE8000001E319D8A401D001D004D0000E0001CC
:103EF800E56F00D00001F551D8B401D001D02FD022
:103F0800FFEC39F00009D8B401D001D028D03F0E19
:103F18000001E66101D001D022D000F0EEEC35F0CE
:103F280000016D6F0001E651010D800EF324D96E7A
:103F3800020EF420DA6E6DC0DFFF0001E62B0001EF
:103F4800E651010D800EF324D96E020EF420DA6ECC
:103F5800000EDF6E000E0001E76F01D000D00001F7
:103F6800E951D8A401D001D016D00001E651D8B447
:103F780001D001D010D0800E0001606F020E000148
:103F8800616FE6C062F089EC38F00EEC3AF0000E92
:103F98000001E66F00D011EC19F012000001623543
:103FA80063350001696F00016951D8A401D001D0BF
:103FB8000BD0000E0001606F000E616F000E626F83
:103FC800000E636F87D086D060C064F061C065F072
:103FD80062C066F063C067F0200E06D00001D8907A
:103FE8006733663365336433E82EF8D700016451CC
:103FF8000001686F0001628FFF0E00016017FF0E5D
:104008006117FF0E6217000E6317960E0001695FB5
:10401800000169BF02D000D01FD000016951800A99
:10402800970FD8B001D001D00CD0000E0001606FFE
:10403800000E616F000E626F000E636F4BD04AD0A6
:1040480000D00001D89063336233613360330001DC
:10405800693FF7D725D024D01F0E0001696501D02C
:1040680001D015D0000E0001606F000E616F000EC8
:10407800626F000E636F2ED02DD009D00001D8904A
:1040880060376137623763370001690700D0000184
:1040980069510001D8A401D001D0F0D701D000D0D7
:1040A800000168510001D8B401D001D00AD0000144
:1040B800631F621F611F606D000E6123622363230B
:1040C80000D060C060F061C061F062C062F063C09F
:1040D80063F000D012009FEC38F040EC38F0A8EC08
:1040E8001BF0A7EC36F08A8A000E0001616F320ED1
:1040F800606FC8EC36F08A9A010E0001616FF40E09
:10410800606FC8EC36F0F28CF28E23EC2EF0000EC5
:104118000001616F140E606FC8EC36F0B1EC39F035
:10412800000E0001616F140E606FC8EC36F0000ECF
:1041380074EC39F00001F66F550E0001F619D8B489
:1041480009D00BEC33F0550E0001606F000E86ECC1
:1041580036F000D0000E0001F76F000EE9EC39F0E0
:1041680035EC39F01E0E0001716F7D0E0001726F83
:10417800000E0001736F000E0001746F92EC31F0B5
:10418800000E0001716F7D0E0001726F000E0001BC
:10419800736F010E0001746F92EC31F00F0E000185
:1041A800716F7D0E0001726F000E0001736F030EB8
:1041B8000001746F92EC31F0030E0001616FE80E9C
:1041C800606FC8EC36F017D0FFD715D039EC28F05F
:1041D800010E0001F76F010EEEEC39F00CD0C9ECBE
:1041E80016F0040AD8A407D0000E0001F76F000EDD
:1041F800E9EC39F000D00001F751000AD8B4E6D74D
:10420800010AD8B4ECD7E0D7F6D7A4EF00F060984D
:104218000001C7BF01D001D040D00001BFAF01D01D
:1042280001D00FD0020E446E3B50D8A401D001D06B
:1042380003D07AEC2EF000D0000E3D6E000E3E6EDC
:1042480076D020EE01F02F50D9263050DA22080E11
:10425800DF6E20EE02F02F50D9263050DA22300ED1
:10426800DE6E040EDD6E2FC0D9FF30C0DAFF0C0EF3
:10427800DF6E2FC0D9FF30C0DAFF000EDB8ECAC058
:10428800D9FFCBC0DAFF040EDF6ECAC0D9FFCBC09E
:10429800DAFF000EDB8E4BD04AD0040130AF01D0DC
:1042A80001D017D0010E446E3C50D8A401D001D0E3
:1042B80003D07AEC2EF000D0000E3D6E000E3E6E5C
:1042C8003F50D8A401D001D032D0DFEC2BF02FD052
:1042D8002ED0020E446E20EE01F02F50D926305019
:1042E800DA22080EDF6E20EE02F02F50D926305069
:1042F800DA22300EDE6E040EDD6E2FC0D9FF30C01C
:10430800DAFF040EDF6E2FC0D9FF30C0DAFF000ECF
:10431800DB8E000E3D6E000E3E6E3F50D8A401D0DD
:1043280001D005D0DFEC2BF002D001D000D0120074
:10433800000E0001696F000163BF02D000D00DD0EC
:104348000001631F621F611F606D000E61236223FD
:104358006323010E0001696F00D0000167BF02D01E
:1043680000D00AD00001671F661F651F646D000E2C
:1043780065236623672300D000016451000165119D
:104388000001661100016711D8B401D001D044D0F2
:10439800010E0001686F09D00001D89064376537B5
:1043A800663767370001682B00D0000167AF01D07E
:1043B80001D0F2D701D000D0000164510001605D46
:1043C80000016551000161590001665100016259FF
:1043D8000001675100016359D8A001D001D011D064
:1043E800000164510001605F000165510001615BDB
:1043F800000166510001625B000167510001635BC7
:1044080000D00001D8906733663365336433000108
:10441800682FD2D701D000D0000169510001D8B46B
:1044280001D001D00AD00001631F621F611F606DB7
:10443800000E61236223632300D060C060F061C076
:1044480061F062C062F063C063F000D01200CAC0BD
:10445800D9FFCBC0DAFF0001000EDFBC010E126EDF
:10446800040E0001CA1B080E0001EA19D8A401D0E5
:1044780001D012D0040132517F0B636E6350D8B45F
:1044880001D001D004D0100E0001EA6F05D0040E4F
:104498000001EA6F01D000D04404D8A401D001D0B3
:1044A80041D0000120EE02F0CA51D926CB51DA22C0
:1044B800380EDE6E040EDD6EC4EC23F0020E4518D5
:1044C800D8A401D001D00DD0CAC0D9FFCBC0DAFF23
:1044D800040EDF6ECAC0D9FFCBC0DAFF000EDB8E38
:1044E80043D01250D8A401D001D00DD0CAC0D9FFF2
:1044F800CBC0DAFF480EDF6ECAC0D9FFCBC0DAFFE7
:10450800000EDB8E31D0CAC0D9FFCBC0DAFF080E4F
:10451800DF6ECAC0D9FFCBC0DAFF000EDB8E24D015
:1045280023D022D00001BFAF01D001D01AD00001A2
:10453800C2510001C311D8B401D001D00FD020EE70
:10454800C2F001D80AD00500FA6EDE50FD6EDE50CA
:10455800FE6EF850FF6EFA50120000D00001BF9FA7
:1045680000D0000E446E00D01200010E0001786FDA
:10457800F40E776F000E0001796F35EC39F0F40E08
:104588000001716F7D0E0001726F000E0001736FE4
:10459800000E0001746F92EC31F081A204D081A06A
:1045A80002D010D000D07C0E0001716F7E0E000189
:1045B800726F000E0001736F030E0001746F92ECAE
:1045C80031F04BD01B0E0001716F7E0E0001726F2F
:1045D800000E0001736F010E0001746F92EC31F050
:1045E8003CD081B214D0010E0001716F7E0E000123
:1045F800726F000E0001736F020E0001746F92EC6F
:1046080031F000017951080F0001796F00D081B0B5
:1046180014D00E0E0001716F7E0E0001726F000E35
:104628000001736F030E0001746F92EC31F000010A
:104638007951800F0001796F00D0880E0001791937
:10464800D8B4120001D012009C0E0001766FD70E6C
:10465800E82EFED7762FFCD700D000017707D8A028
:10466800780700017729BDE100017829D8B4120044
:10467800B8D71200120004013039E832030B0009E0
:10468800D8B401D001D057D07AD079D054D0000115
:10469800C78F080E0001EA6F72D083EC1EF06FD04E
:1046A80049EC26F06CD0590E0001C46F000E0001D1
:1046B800C56F0001C781010E0001C86F0001C78FD7
:1046C8005ED0A3EC29F05BD000D044EC15F057D0B5
:1046D80004013451010D560EF3240001C46F000E7D
:1046E800F4200001C56F0001C781010E0001C86FE9
:1046F8000001C78F44D00001C78F04013451010D58
:10470800560EF324D96E000EF420DA6E32C4DFFFA1
:1047180036D0000E0F6E020E0E6E000E106E000EDA
:10472800116E000E136E000E126E94EC32F027D04C
:1047380026D025D024D004013151000AD8B4C1D7DD
:10474800010AD8B4C2D7020AD8B4BFD7060AD8B467
:104758009ED7030AD8B4A1D7010AD8B4DAD70F0A6A
:10476800D8B4A1D7010AD8B49BD7030AD8B4B0D714
:10477800010AD8B4C0D7070AD8B401D000D01200B3
:10478800080E016E0001C95106E1080E0001C85D5E
:10479800D8B001D001D014D0C8C001F04550D8A479
:1047A80001D001D003D0010E456E0AD04504D8A42B
:1047B80001D001D005D0020E456E02D001D000D044
:1047C80001500001C85F000EC95B000120EE01F036
:1047D800CA51D926CB51DA2201C0DFFF380E0101B8
:1047E800546F040E0101556F0001C7B101D001D00B
:1047F80044D01ED01DD0C4C0F6FFC5C0F7FFF86A6C
:1048080054C1D9FF55C1DAFF070EF76403D0080079
:10481800F55005D0F6CFE9FFF7CFEAFFEF50DF6E8E
:104828000001C44BC52B0101544B552B010600D088
:104838000150D8A401D001D0DED726D025D01DD074
:10484800C4C0F6FFC5C0F7FFF86A54C1D9FF55C107
:10485800DAFF070EF76403D00800F55005D0F6CF4D
:10486800E9FFF7CFEAFFEF50DF6E0001C44BC52B1D
:104878000101544B552B010600D00150D8A401D09A
:1048880001D0DED701D000D01200000E0001E26F87
:104898000001D8510001D911D8B401D001D014D0E9
:1048A800D8C0D9FFD9C0DAFF0001DFBE01D004D0DB
:1048B80000016A6B6A2B02D000016A6B00016A5121
:1048C80000016B6F6C6B06D0000E00016C6F000E60
:1048D8006B6F00D000016B5100016C11D8A401D09E
:1048E80001D053D0000120EE01F0D851D926D9517A
:1048F800DA2200016951DE5CD8B001D001D00BD0BA
:10490800000120EE01F0D851D926D951DA22DF5022
:104918000001696F00D0000E0001E26F19D000019C
:10492800E251010D400EF324D96E050EF420DA6E23
:104938000001E251010DF35000016725E16EF450CA
:1049480000016821E26EDFCFE7FF0001E22B00D013
:10495800000169510001E25DD8A001D001D0DFD784
:1049680000D0000E0001606F400E0001616F050E5F
:104978000001626F400E0001636F020ECDEC24F05F
:1049880060C0D8F061C0D9F000D00001E25100D079
:1049980012000001646F000160510001D8B401D019
:1049A80001D00ED000016451020DCA0EF324D96E55
:1049B800000EF420DA6EDECF65F0DDCF66F00ED0A3
:1049C80000016451020D400EF324D96E010EF4204B
:1049D800DA6EDECF65F0DDCF66F000D000016551FC
:1049E80000016611D8A401D001D008D0000E000142
:1049F800606F000E0001616F4BD04AD0000120EEBD
:104A080002F06551D9266651DA2261C0DEFF62C024
:104A1800DDFF000120EE01F06551D9266651DA224A
:104A280063C0DFFF65C0D9FF66C0DAFF400EDF163E
:104A380065C0D9FF66C0DAFF000EDB8665C0D9FF06
:104A480066C0DAFF000EDB8E000160510001D8B4A9
:104A580001D001D00CD000016451020DCA0EF3241C
:104A6800D96E000EF420DA6E040EDF1A0CD00001A5
:104A78006451020D400EF324D96E010EF420DA6E53
:104A8800040EDF1A00D065C060F066C061F000D087
:104A980012000CD061C0F6FF62C0F7FF0800F550A5
:104AA800C6EC35F00001614B622B00D061C0F6FF07
:104AB80062C0F7FF0800F5500009D8A401D001D062
:104AC800E9D700D0000E0001676F020E000167658C
:104AD80001D001D002D018D017D000016751010DC4
:104AE800F35000016325D96EF45000016421DA6E99
:104AF800DF50C6EC35F00001672B020E0001676538
:104B080001D001D0EAD700D0000120EE03F06351B4
:104B1800D9266451DA22DF50C6EC35F0040E0001C4
:104B2800686F29D000016851010DF3500001632519
:104B3800D96EF45000016421DA6EDF500001666F0F
:104B4800000166390F0B73EC35F0C6EC35F0000147
:104B58006851010DF35000016325D96EF45000012E
:104B68006421DA6EDF500F0B73EC35F0C6EC35F0CC
:104B78000001682B00D0000165510001685DD8A0D4
:104B880001D001D0CFD700D0CBEC39F01200000E05
:104B980000016E6F00D081A001D001D0FCD700D0F9
:104BA80071EC38F0010EF3EC39F0C290F29EF29EEF
:104BB800F29C8D94A0920F015B81A08CF086F28804
:104BC8008784000E81B2010E00016E6F000E81B065
:104BD800010E00016E6F000E82B4010E00016E6FAF
:104BE8000001FA51D8B401D001D001D0D180F2929D
:104BF800F090A19C00F0030000F0D19018EC35F083
:104C0800F096F2988794A09CF28EBBEC34F0F2B246
:104C180001D001D008D0F0B001D001D004D0A1ACAF
:104C280001D001D011D0F292F090010E00016E6F08
:104C3800000EF3EC39F040EC38F08D84FB0EB36EC7
:104C4800500EB26EA08209D00A0E0001EE6F000E5F
:104C580000016E6F8D94A09200D00F015B9123EC40
:104C68002EF0000E0001616F280E606FC8EC36F060
:104C780023EC2EF0000E0001616F280E606FC8EC67
:104C880036F000016E5100D012000001C78F6B0E84
:104C9800016E0F0E026E000E046E000E036E000E03
:104CA800066E020E056E26EC38F0000E016E040E3C
:104CB800026E000E046E000E036E000E066E300EBD
:104CC800056E26EC38F0608C000E166E020E166427
:104CD80001D001D002D01CD01BD01650010DD30E2C
:104CE800F324D96E000EF420DA6E000EDF6E165033
:104CF800010DD00EF324D96E000EF420DA6E000EEA
:104D0800DF6E162A020E166401D001D0E6D700D055
:104D1800560E016E000E026E000E046E000E036E3B
:104D2800000E066E020E056E26EC38F0609C080E2A
:104D38000001CA6F040E0001CB6F000E316E040E25
:104D4800326E31C02FF032C030F032C459F05950B1
:104D5800D8A401D001D004D0100E0001EA6F12D0FF
:104D6800000E0F6E010E0E6E590E106E000E116EB3
:104D7800000E136E010E126E94EC32F0200E00013C
:104D8800EA6F00D01200000E0001606F020E0001F1
:104D9800606501D001D002D015D014D00001605157
:104DA800010DF40EF324D96E010EF420DA6E000E14
:104DB800DF6E0001602B020E0001606501D001D09A
:104DC800EDD700D0000E0001616F210E0001616572
:104DD80001D001D002D015D014D000016151010DCD
:104DE800300EF324D96E010EF420DA6E000EDF6E59
:104DF8000001612B210E0001616501D001D0EDD7C2
:104E080000D0000E0001626F1F0E0001626501D024
:104E180001D002D015D014D000016251010DA10EAD
:104E2800F324D96E010EF420DA6E000EDF6E000155
:104E3800622B1F0E0001626501D001D0EDD700D0B2
:104E4800000E0001636F0F0E0001636501D001D0F1
:104E580002D015D014D000016351010DC10EF32406
:104E6800D96E010EF420DA6E000EDF6E0001632B9E
:104E78000F0E0001636501D001D0EDD700D01200FC
:104E88000001646FFA0E0001636F580EE82EFED71A
:104E9800632FFCD700F0FA0E0001636F580EE82E5E
:104EA800FED7632FFCD700F0FA0E0001636F580E8F
:104EB800E82EFED7632FFCD700F0000164510001F3
:104EC800D8B42CD0220E0001616F7A0E0001626FF7
:104ED8009AEC37F0FA0E0001636F580EE82EFED7F1
:104EE800632FFCD700F0FA0E0001636F580EE82E0E
:104EF800FED7632FFCD700F0FA0E0001636F580E3F
:104F0800E82EFED7632FFCD700F03C0E0001616F3E
:104F18007A0E0001626F9AEC37F01200EE0E000173
:104F2800616F790E0001626F9AEC37F0FA0E00019A
:104F3800636F580EE82EFED7632FFCD700F0FA0EE9
:104F48000001636F580EE82EFED7632FFCD700F0E0
:104F5800FA0E0001636F580EE82EFED7632FFCD7B8
:104F680000F0080E0001616F7A0E0001626F9AEC82
:104F780037F0120012000001A66FCD0E0001786F05
:104F8800CC0E796F4C0E7A6F400E7B6F0001A651E4
:104F98000001606F616B626B636B000E0DEC18F0C3
:104FA80060C074F061C075F062C076F063C077F0DD
:104FB8008DEC10F074C08DF075C08EF076C08FF057
:104FC80077C090F0000E0001916F000E926F800E76
:104FD800936F440E946F1AEC13F08DC0A8F08EC036
:104FE800A9F08FC0AAF090C0ABF0000E0001646F6A
:104FF800000E656F000E666FBF0E676FA8C060F089
:10500800A9C061F0AAC062F0ABC063F0C2EC0DF0B9
:1050180060C074F061C075F062C076F063C077F06C
:10502800000E0001786F000E796FC80E7A6F420E7D
:105038007B6F8DEC10F074C0A8F075C0A9F076C035
:10504800AAF077C0ABF0A8C060F0A9C061F0AAC010
:1050580062F0ABC063F0D2EC1FF0000160510001B8
:10506800A76F0001A75100D0120054D0FFD75ED01F
:1050780035EC39F0100E0001716F7F0E0001726F70
:10508800010E0001736F000E0001746F92EC31F095
:10509800610E0001716F7F0E0001726F020E000138
:1050A800736F010E0001746F92EC31F0280E00014D
:1050B800716F7E0E0001726F000E0001736F020E99
:1050C8000001746F92EC31F0010E0001E86F2ED0F0
:1050D800200E0001EA6101D001D002D027D026D0ED
:1050E800020E0001E86F22D02CEC1FF0030E000125
:1050F800766FCAEC2FF00001766F030E0001761967
:10510800D8B401D001D012D0020E0001F96F0ED030
:105118000DD00CD00001E851000AD8B4A9D7010A73
:10512800D8B4D6D7030AD8B4DFD7A0D780A001D087
:1051380001D007D00001F951D8B401D001D095D7DA
:1051480000D000F0020E0001F919D8B401D001D046
:1051580004D0000E0001F96F00D012000401305194
:105168001F0BE806D8B401D001D002D06FD06ED0A2
:1051780004013039E832030BE806D8B401D001D075
:1051880002D064D063D004013451D8B401D001D026
:105198004BD004013405D8B401D001D045D056D045
:1051A80055D042D0DB0E0001C46F010E0001C56F5F
:1051B800000E0001C96F080EC86F0001C781000109
:1051C800C78F44D0DB0E0001C46F010E0001C56F0C
:1051D8000001C78F3BD036C4C0F037C4C1F0D10E30
:1051E8000001BC6F010E0001BD6F8C0E0001C26F83
:1051F8006A0E0001C36F0001BF8F28D0E30E0001C3
:10520800C46F010E0001C56F000E0001C96F070EC3
:10521800C86FC10E0001C76F19D032C45AF100011E
:10522800C78F14D013D012D004013151000AD8B45A
:10523800B9D7010AD8B4C6D7210AD8B4CCD7010A3D
:10524800D8B4DCD7030AD8B4E8D700D012002D0EA2
:10525800406E58C01CF0FD0E1C16D8A401D001D019
:1052680062D058C01CF0D8901C323F0E1C161C503F
:10527800040D000EF324316E040EF420326E31C09A
:105288002FF032C030F0040E2F1A31C0D9FF32C0CF
:10529800DAFFDF30E8320F0B0D0AD8A401D001D0B5
:1052A8003ED0000E1E6E070E1E6401D001D002D043
:1052B80029D028D020EE02F03150D9263250DA22F7
:1052C800DECF1CF0DDCF1DF01CC0D9FF1DC0DAFFFA
:1052D8001E50010D300EF324E16E040EF420E26E30
:1052E800DFCFE7FF20EE02F03150D9263250DA2224
:1052F800DE2A000EDD221E2A070E1E6401D001D010
:10530800D9D700D020EE02F03150D9263250DA2217
:10531800300EDE6E040EDD6E4BEC31F00FD054EC27
:1053280034F00CD00BD05850FD0B040AD8A401D08F
:1053380001D004D02BEC22F001D000D01200000ED6
:105348000401386F000E0401396F51D00001C78F76
:1053580003D00401388100D04304D8A401D001D07F
:1053680053D00401388350D04FD00001C78F4CD0A0
:105378000001C78F040134BF01D001D011D004014E
:1053880034510F0B016E0150020D400EF324D96EFB
:10539800010EF420DA6EDECF02F0DDCF03F011D07B
:1053A800040134510F0B016E0150020DCA0EF32493
:1053B800D96E000EF420DA6EDECF02F0DDCF03F0F6
:1053C80000D002C0D9FF03C0DAFFDFAE01D001D0A0
:1053D8001BD002C0D9FF03C0DAFFDFA401D001D07F
:1053E80013D0010E0401386F0FD00ED00DD0040178
:1053F80030511F0B000AD8B4A9D7010AD8B4B5D7C1
:10540800030AD8B4B5D700D00001C7AF01D001D086
:105418000CD0380E0001C46F040E0001C56F0001E6
:10542800C781020E0001C86F00D0120023EC2FF0D4
:1054380035EC39F0580E0001716F7F0E0001726F64
:10544800000E0001736F000E0001746F92EC31F0D2
:10545800710E0001716F7F0E0001726F000E000166
:10546800736F010E0001746F92EC31F0690E000148
:10547800716F7F0E0001726F000E0001736F020ED4
:105488000001746F92EC31F00E0E0001626F020E93
:105498000001636F430E12EC2DF0EAEC34F063C0A8
:1054A80071F064C072F0B4EC2CF071C0DEF072C020
:1054B800DFF00001DE51BFEC27F00001AC6F000106
:1054C800AC510001DE6FDF6B0A0E0001766F020E31
:1054D8000001776F0001DE5101EC2BF000F0C70EE0
:1054E8000001716F7A0E0001726F0A0E0001736F6E
:1054F800010E0001746F92EC31F0EAEC33F06DC0EC
:1055080071F06EC072F00A0E0001736F010E000197
:10551800746F92EC31F01200056E0150D8B401D0CE
:1055280001D00DD00550020DCA0EF324D96E000E1D
:10553800F420DA6EDECF06F0DDCF07F00DD005508F
:10554800020D400EF324D96E010EF420DA6EDECF80
:1055580006F0DDCF07F000D006500710D8A401D020
:1055680001D006D0000E016E000E026E45D044D068
:1055780020EE02F00650D9260750DA2202C0DEFFDC
:1055880003C0DDFF20EE01F00650D9260750DA22CD
:1055980004C0DFFF06C0D9FF07C0DAFF400EDF16E0
:1055A80006C0D9FF07C0DAFF000EDB8606C0D9FFA8
:1055B80007C0DAFF000EDB8E0150D8B401D001D04D
:1055C8000BD00550020DCA0EF324D96E000EF4203C
:1055D800DA6E040EDF1A0BD00550020D400EF324CC
:1055E800D96E010EF420DA6E040EDF1A00D006C060
:1055F80001F007C002F000D0120000017F6F000E1A
:105608000001786F00017FAF01D001D004D0010EF6
:105618000001786F00D000017F517F0B00017F6F80
:105628007FC060F00001616B000E0001636F0A0E1D
:10563800626F4DEC2CF000016051300F00017B6F60
:105648000A0E0001606F00017F51D0EC32F00001BA
:105658007F6F7FC060F00001616B000E0001636F17
:105668000A0E626F4DEC2CF000016051300F000102
:105678007A6F0A0E0001606F00017F51D0EC32F0A2
:1056880000017F6F7FC060F00001616B000E0001B8
:10569800636F0A0E626F4DEC2CF000016051300F01
:1056A8000001796F000178510001D8B401D001D010
:1056B80003D02D0E0001796F000E00017C6F790E6A
:1056C8000001716F000E0001726F76C073F077C031
:1056D80074F092EC31F012000001696F000166511C
:1056E8000001676F686B020E00016727000E6823D0
:1056F800C10E00016725D96E010E00016821DA6E1E
:1057080069C060F00001616B000E0001636F0A0E52
:10571800626F4DEC2CF000016051300FDF6E0A0E05
:105728000001606F00016951D0EC32F00001696F2F
:10573800000166510001676F686B010E0001672761
:10574800000E6823C10E00016725D96E010E000105
:105758006821DA6E69C060F00001616B000E00011B
:10576800636F0A0E626F4DEC2CF000016051300F30
:10577800DF6E0A0E0001606F00016951D0EC32F053
:105788000001696F00016651010DC10EF324D96E45
:10579800010EF420DA6E69C060F00001616B000E42
:1057A8000001636F0A0E626F4DEC2CF0000160512E
:1057B800300FDF6E12003E50D8A401D001D068D05F
:1057C800010E3E6E3D50D8A401D001D061D0010E2B
:1057D8003D6E020E4418D8A401D001D016D00001A5
:1057E80020EE01F0CA51D926CB51DA22000EDF6E25
:1057F800CAC0D9FFCBC0DAFF480EDF6ECAC0D9FFD6
:10580800CBC0DAFF000EDB8E43D04404D8A401D00D
:1058180001D03ED0000E416E20EE01F03150D92665
:105828003250DA22080EDF6E20EE02F03150D9260F
:105838003250DA22300EDE6E040EDD6E31C0D9FF32
:1058480032C0DAFF040EDF6E31C0D9FF32C0DAFF92
:10585800000EDB8E010E416E20EE01F02F50D9268E
:105868003050DA22080EDF6E20EE02F02F50D926D3
:105878003050DA22300EDE6E040EDD6E2FC0D9FFF6
:1058880030C0DAFF800EDF6E03D002D001D000D026
:105898001200000E0001656F000161BF02D000D048
:1058A80009D00001606D611FD8B0612B010E0001A5
:1058B800656F00D0000163BF02D000D006D00001A0
:1058C800626D631FD8B0632B00D0000162510001E4
:1058D8006311D8B401D001D030D0010E0001646F3B
:1058E80007D00001D890623763370001642B00D0DD
:1058F800000163AF01D001D0F4D701D000D000017E
:1059080062510001605D0001635100016159D8A036
:1059180001D001D009D0000162510001605F00018F
:1059280063510001615B00D00001D890633362339A
:105938000001642FE4D701D000D0000165510001B7
:10594800D8B401D001D006D00001606D611FD8B075
:10595800612B00D060C060F061C061F000D012001F
:10596800000E0001786F000E776F000E0001766F51
:10597800030E0001766501D001D002D04AD049D08B
:1059880071C0D9FF72C0DAFFDF50D8B401D001D09E
:1059980040D0000176510001D8B401D001D010D018
:1059A80077C060F078C061F0000E0001636F0A0EE6
:1059B800626F7EEC37F060C077F061C078F000D09D
:1059C80071C0D9FF72C0DAFFDF500001736F0001A8
:1059D8007351000177250001746F000E00017821D2
:1059E8000001756FD00E000174250001776FFF0E5E
:1059F800000175210001786F0001714B722B01D0F5
:105A080008D00001762B030E0001766501D001D085
:105A1800B7D777C071F078C072F0120000016A6FD2
:105A28000001635142EC39F000016251080DF35056
:105A3800040FECEC38F0000E00016B6F070E00014C
:105A48006B6501D001D002D046D045D000016B5122
:105A5800010D000E0001646FFF0E0001656F00016B
:105A68006A510001666F676B0001D8906637673727
:105A78000001D890663767370001D89066376737D6
:105A88000001645100016627000165510001672388
:105A9800F7C168F0F8C169F0000166510001682794
:105AA8000001675100016923F35000016827F45091
:105AB8000001692368C0F6FF69C0F7FF0800F550C8
:105AC8005CEC39F000016B2B070E00016B6501D00F
:105AD80001D0BCD700D0120046D060C0D9FF61C049
