:040000007FEF00F09E
:100008005E82FACF20F0FBCF21F0E9CF22F0EACFD1
:1000180023F0E1CF24F0E2CF25F0D9CF26F0DACFD4
:1000280027F0F3CF28F0F4CF29F0F6CF2AF0F7CF56
:100038002BF0F8CF2CF0F5CF2DF05EC02EF05FC07E
:100048002FF060C030F061C031F09DB09EA004D0A8
:100058000BEC32F049EC32F0A0B2A1A203D041EC93
:1000680031F013D09DBA9EAA05D03CEC32F01AECC0
:1000780030F00BD09DB89EA803D002EC30F005D02C
:10008800A0BCA1AC02D05EEC32F0F2BAF2A405D06A
:1000980056EC32F0F2EC22F008D0F2B6F2A003D01F
:1000A80062EC2DF002D0B8EC18F031C061F030C02D
:1000B80060F02FC05FF02EC05EF02DC0F5FF2CC0A1
:1000C800F8FF2BC0F7FF2AC0F6FF29C0F4FF28C0AD
:1000D800F3FF27C0DAFF26C0D9FF25C0E2FF24C0FE
:1000E800E1FF23C0EAFF22C0E9FF21C0FBFF20C0D7
:1000F800FAFF5E9211006BEF24F00001B96F000E59
:100108000001B16FAE51D8B45DEF0AF0FB51D8B41D
:100118005DEF0AF05C50525CD8A01DD15FEC27F06F
:10012800000E01011D6F000E1C6F000E0001DF6F35
:10013800000EDE6F00F0B7EC29F0000E0001B26F80
:1001480014EC2DF06EC072F06FC073F078EC29F0EB
:1001580072C01CF173C01DF105EC32F0000160C0E3
:1001680072F061C073F072517311D8A4200E746FCD
:10017800060E756F010E766FF3EC29F005EC32F080
:1001880060C072F061C073F0040E0001746FDEECA1
:100198002BF00001B26F11EC2EF063C072F064C056
:1001A80073F078EC29F072C0DEF073C0DFF0000164
:1001B800DE5111EC1DF00001AF6FAF51DE6FDF6B48
:1001C8004CEC32F0050F0001666FDE51C6EC24F0EE
:1001D800000E526E5EEC31F0320E0001726F7C0E32
:1001E800736F72517311D8A4000E746F000E756F7F
:1001F800000E766FF3EC29F0350E0001726F7E0E5B
:10020800736F72517311D8A4000E746F000E756F5E
:10021800010E766FF3EC29F0730E0001726F7D0EFC
:10022800736F72517311D8A4000E746F000E756F3E
:10023800020E766FF3EC29F005EC32F0000160C095
:1002480072F061C073F072517311D8A4200E746FEC
:10025800030E756F020E766FF3EC29F00B0E00019A
:10026800786F020E796FDE5121EC25F017EC32F031
:100278000001F36FF351D8A402D0050E05D0DF0EAC
:10028800F36503D0F351CE0FF36F0A0E786F010EAA
:10029800796FF351CBEC26F0000E0001666FF35135
:1002A800C6EC24F0200E01012F6F0001F051D8B4E4
:1002B8002DD0000EB46F18D0B451010D000EF324E8
:1002C800D96E060EF420DA6EB451AF6FB06B040E1F
:1002D800AF27000EB0232C0EAF25E16E010EB02122
:1002E800E26EDFCFE7FFB42BF051B45DD8A0E4D7BE
:1002F8002E0E616F7D0E626F2C0E636F010E646FA0
:10030800F051040F656F91EC22F01ED0450E0101EB
:10031800306F520E316F520E326F4F0E336F520ED6
:10032800346F2D0E356F430E366F530E376F2E0E0A
:100338000001616F7D0E626F2C0E636F010E646F9A
:100348000C0E656F91EC22F0070E0001F26F080E9B
:10035800F66F5DEF0AF0FC51D8B407D0522A0F0EA1
:10036800F66F010EAC6F5DEF0AF0000E526E5DEF96
:100378000AF0FFD70001B951D8A403D0AC51D8B4C2
:1003880012005EEC31F0220E0001726F7B0E736F6B
:1003980072517311D8A4000E746F000E756F000EA1
:1003A800766FF3EC29F0880E0001726F7B0E736F85
:1003B80072517311D8A4000E746F000E756F010E80
:1003C800766FF3EC29F0840E0001726F7C0E736F68
:1003D80072517311D8A4000E746F000E756F030E5E
:1003E800766FF3EC29F0060E0001F66F1200B95192
:1003F800D8B436D05EEC31F0110E0001726F7B0E6E
:10040800736F72517311D8A4000E746F000E756F5C
:10041800000E766FF3EC29F0000E0001726F7B0E70
:10042800736F72517311D8A4000E746F000E756F3C
:10043800010E766FF3EC29F0840E0001726F7C0ECA
:10044800736F72517311D8A4000E746F000E756F1C
:10045800030E766FF3EC29F00A0E0001F66F120016
:10046800AC51D8B41200000E526E5EEC31F0DD0EC5
:100478000001726F7B0E736F72517311D8A4000E56
:10048800746F000E756F000E766FF3EC29F0660E30
:100498000001726F7D0E736F72517311D8A4000E34
:1004A800746F000E756F010E766FF3EC29F0AA0ECB
:1004B8000001726F7A0E736F72517311D8A4000E17
:1004C800746F000E756F030E766FF3EC29F05FEC16
:1004D80027F017EC32F00001F36FF351D8A402D0E3
:1004E800050E05D0DF0EF36503D0F351CE0FF36F81
:1004F8000C0E786F010E796FF351CBEC26F0000EDD
:100508000001666FF351C6EC24F0200E01012F6F35
:10051800000E1D6F000E1C6F000E0001DF6F000E35
:10052800DE6F00F0B7EC29F0010E0001616FF40EE8
:10053800606F88EC2FF0000E0001B36F14EC2DF003
:100548006EC072F06FC073F078EC29F072C01CF1C5
:1005580073C01DF114EC2DF06EC072F06FC073F013
:10056800040E0001746FDEEC2BF00001B36F00F095
:1005780000F011EC2EF063C072F064C073F078ECF8
:1005880029F072C0DEF073C0DFF00001DE5111EC1B
:100598001DF00001AF6FAF51DE6FDF6B4CEC32F036
:1005A800050F0001666FDE51C6EC24F000F0070E5F
:1005B8000001F66F1200B951D8B44ED0F051D8B43A
:1005C8002DD0000EB56F18D0B551010D000EF324D3
:1005D800D96E060EF420DA6EB551AF6FB06B040E0B
:1005E800AF27000EB0232C0EAF25E16E010EB0210F
:1005F800E26EDFCFE7FFB52BF051B55DD8A0E4D7A9
:100608002E0E616F7D0E626F2C0E636F010E646F8C
:10061800F051040F656F91EC22F01ED0450E0101D8
:10062800306F520E316F520E326F4F0E336F520EC3
:10063800346F2D0E356F430E366F530E376F2E0EF7
:100648000001616F7D0E626F2C0E636F010E646F87
:100658000C0E656F91EC22F00001AC51D8B44ED06D
:10066800F051D8B42DD0000EB66F18D0B651010D88
:10067800000EF324D96E060EF420DA6EB651AF6F71
:10068800B06B040EAF27000EB0232C0EAF25E16E21
:10069800010EB021E26EDFCFE7FFB62BF051B65D59
:1006A800D8A0E4D7650E616F7E0E626F2C0E636F63
:1006B800010E646FF051040F656F91EC22F01ED0AB
:1006C800450E0101306F520E316F520E326F4F0ED0
:1006D800336F520E346F2D0E356F430E366F530E37
:1006E800376F650E0001616F7E0E626F2C0E636FAF
:1006F800010E646F0C0E656F91EC22F00001B95188
:10070800D8A403D0AC51D8B412005EEC31F04D0E31
:100718000001726F7E0E736F72517311D8A4000EB0
:10072800746F000E756F000E766FF3EC29F0410EB2
:100738000001726F7E0E736F72517311D8A4000E90
:10074800746F000E756F010E766FF3EC29F00C0EC6
:100758000001786F010E796FF351CBEC26F0730E20
:100768000001726F7D0E736F72517311D8A4000E61
:10077800746F000E756F020E766FF3EC29F005ECBE
:1007880032F0000160C072F061C073F072517311F1
:10079800D8A4200E746F030E756F020E766FF3ECFB
:1007A80029F00B0E0001786F020E796FDE5121ECF3
:1007B80025F0899C080E0001F66F1200AD51D8B4DF
:1007C8001CD1900E606F010E616FF80E626F7F0E84
:1007D800636F3BEC2DF0000160516111D8A403D088
:1007E800898C080EF66F900E606F010E616FAB0E6C
:1007F800626F7F0E636F000E656F060E646FA8EC64
:1008080027F0000160516111D8A482D0070EB86F9B
:10081800B851010D900EF324D96E010EF420DA6E52
:10082800DF500101F36F0001B82BB851010D900E94
:10083800F324D96E010EF420DA6EDF500101F46F53
:100848000001B82B200E0101F419D8B415D000010D
:10085800B851010D900EF324D96E010EF420DA6E12
:10086800DF500101F56F0001B82B200E0101F519C9
:10087800D8B402D00001B82B000E0001B76F3F0EAC
:10088800B76501D023D0B851010D900EF324D96E6D
:10089800010EF420DA6EB751010DC00EF324E16E9B
:1008A800020EF420E26EDFCFE7FFB751010DC00E54
:1008B800F324D96E020EF420DA6EDF50D8B402D0D9
:1008C800B82B02D0400EB76FB72BD9D7898E899C29
:1008D800550E726F7B0E736F72517311D8A4000E90
:1008E800746F000E756F020E766FF3EC29F0CD0E63
:1008F8000001726F7A0E736F72517311D8A4000ED3
:10090800746F000E756F030E766FF3EC29F06CD0E0
:10091800900E0001606F010E616FB20E626F7F0E64
:10092800636F000E656F060E646FA8EC27F0000178
:1009380060516111D8A411D0899CBB0E726F7B0ED7
:10094800736F72517311D8A4000E746F000E756F17
:10095800030E766FF3EC29F047D0900E0001606F1C
:10096800010E616FA40E626F7F0E636F000E656FDC
:10097800060E646FA8EC27F0000160516111D8A43D
:1009880010D0970E726F7A0E736F72517311D8A4CC
:10099800000E746F000E756F030E766FF3EC29F07E
:1009A80023D0900E0001606F010E616F9D0E626F83
:1009B8007F0E636F000E656F060E646FA8EC27F05C
:1009C800000160516111D8A40FD0B40E726F7C0E73
:1009D800736F72517311D8A4000E746F000E756F87
:1009E800030E766FF3EC29F0FA0E0001AF6F580E84
:1009F800E82EFED7AF2FFCD700F00001B951D8A4DC
:100A080003D0AC51D8B412005EEC31F0220E0001D4
:100A1800726F7B0E736F72517311D8A4000E746FCE
:100A2800000E756F000E766FF3EC29F0880E00014A
:100A3800726F7B0E736F72517311D8A4000E746FAE
:100A4800000E756F010E766FF3EC29F0840E00012D
:100A5800726F7C0E736F72517311D8A4000E746F8D
:100A6800000E756F030E766FF3EC29F0060E000189
:100A7800F66F1200B951D8B436D05EEC31F0640E7E
:100A88000001726F7C0E736F72517311D8A4000E3F
:100A9800746F000E756F000E766FF3EC29F0540E2C
:100AA8000001726F7C0E736F72517311D8A4000E1F
:100AB800746F000E756F010E766FF3EC29F0840EDB
:100AC8000001726F7C0E736F72517311D8A4000EFF
:100AD800746F000E756F030E766FF3EC29F0010E3C
:100AE8000001F66F1200AC51D8B412005EEC31F080
:100AF800899E430E0001726F7C0E736F72517311E1
:100B0800D8A4000E746F000E756F000E766FF3ECAC
:100B180029F0CB0E0001726F7E0E736F7251731144
:100B2800D8A4000E746F000E756F010E766FF3EC8B
:100B380029F0F30E0001726F010E736F7251731179
:100B4800D8A4200E746F090E756F010E766FF3EC42
:100B580029F0520E0001726F7E0E736F725173117D
:100B6800D8A4000E746F000E756F020E766FF3EC4A
:100B780029F0C00E0001726F020E736F725173116B
:100B8800D8A4200E746F060E756F020E766FF3EC04
:100B980029F0CA0E0001726F020E736F7251731141
:100BA800D8A4200E746F000E756F030E766FF3ECE9
:100BB80029F00B0E0001F66F1200B951D8A403D02A
:100BC800AC51D8B412005EEC31F0110E0001726F16
:100BD8007B0E736F72517311D8A4000E746F000EE0
:100BE800756F000E766FF3EC29F0000E0001726F3E
:100BF8007B0E736F72517311D8A4000E746F000EC0
:100C0800756F010E766FF3EC29F0840E0001726F98
:100C18007C0E736F72517311D8A4000E746F000E9E
:100C2800756F030E766FF3EC29F00A0E0001F66F6C
:100C38001200B951D8B44AD05EEC31F0210E00014F
:100C4800726F7C0E736F72517311D8A4000E746F9B
:100C5800000E756F000E766FF3EC29F00001FC5161
:100C6800D8B410D0D40E726F7C0E736F725173119A
:100C7800D8A4000E746F000E756F020E766FF3EC39
:100C880029F010D0E30E0001726F7C0E736F725161
:100C98007311D8A4000E746F000E756F020E766F74
:100CA800F3EC29F0740E0001726F7C0E736F7251B1
:100CB8007311D8A4000E746F000E756F030E766F53
:100CC800F3EC29F00C0E0001F66F1200AC51D8B409
:100CD80012005EEC31F0640E0001726F7C0E736FCF
:100CE80072517311D8A4000E746F000E756F000E48
:100CF800766FF3EC29F0810E0001726F7F0E736F2F
:100D080072517311D8A4000E746F000E756F010E26
:100D1800766FF3EC29F07A0E0001726F7F0E736F15
:100D280072517311D8A4000E746F000E756F020E05
:100D3800766FF3EC29F0FB0E0001726F7F0E736F74
:100D480072517311D8A4000E746F0A0E756F020EDB
:100D5800766FF3EC29F0B7EC29F0020E0001F66F7C
:100D68001200B951D8B4D2D05EEC31F0770E000140
:100D7800726F7B0E736F72517311D8A4000E746F6B
:100D8800000E756F000E766FF3EC29F0660E000109
:100D9800726F7B0E736F72517311D8A4000E746F4B
:100DA800000E756F010E766FF3EC29F0880E0001C6
:100DB800726F7F0E736F72517311D8A4000E746F27
:100DC800000E756F020E766FF3EC29F0C30E00016A
:100DD800726F7F0E736F72517311D8A4000E746F07
:100DE8000C0E756F020E766FF3EC29F066D0CC0E00
:100DF8000001726F7D0E736F72517311D8A4000ECB
:100E0800746F070E756F020E766FF3EC29F06AD0D7
:100E1800E10E0001726F7F0E736F72517311D8A4C7
:100E2800000E746F070E756F020E766FF3EC29F0E3
:100E380059D0ED0E0001726F7F0E736F72517311EE
:100E4800D8A4000E746F070E756F020E766FF3EC60
:100E580029F048D0E50E0001726F7F0E736F725152
:100E68007311D8A4000E746F070E756F020E766F9B
:100E7800F3EC29F037D0E90E0001726F7F0E736F23
:100E880072517311D8A4000E746F070E756F020E9D
:100E9800766FF3EC29F026D0F00E0001726F7F0E0A
:100EA800736F72517311D8A4000E746F070E756FAB
:100EB800020E766FF3EC29F015D00001FE51000AFE
:100EC800D8B495D7010AD8B4A3D7030AD8B4B1D7F0
:100ED800010AD8B4BFD7070AD8B4CDD7010AD8B405
:100EE800DBD785D7740E0001726F7C0E736F725159
:100EF8007311D8A4000E746F000E756F030E766F11
:100F0800F3EC29F00D0E0001F66F1200AC51D8B4C5
:100F18001200FC51D8B412D0000EFC6FE30E726FB1
:100F28007C0E736F72517311D8A4000E746F000E8B
:100F3800756F020E766FF3EC29F01200010E0001B6
:100F4800FC6FD40E726F7C0E736F72517311D8A43C
:100F5800000E746F000E756F020E766FF3EC29F0B9
:100F680012000001B951D8A403D0AC51D8B4120072
:100F78005EEC31F0640E0001726F7C0E736F72517B
:100F88007311D8A4000E746F000E756F000E766F83
:100F9800F3EC29F0540E0001726F7C0E736F7251DE
:100FA8007311D8A4000E746F000E756F010E766F62
:100FB800F3EC29F0840E0001726F7C0E736F72518E
:100FC8007311D8A4000E746F000E756F030E766F40
:100FD800F3EC29F0010E0001F66F1200B951D8B4F4
:100FE800C4D05EEC31F0EE0E0001726F7B0E736FB1
:100FF80072517311D8A4000E746F000E756F000E35
:10100800766FF3EC29F0590E0001726F7E0E736F44
:1010180072517311D8A4000E746F000E756F020E12
:10102800766FF3EC29F0740E0001726F7C0E736F0B
:1010380072517311D8A4000E746F000E756F030EF1
:10104800766FF3EC29F0030E0001F66F76D0C80E28
:10105800726F7F0E736F72517311D8A4000E746F84
:101068000A0E756F020E766FF3EC29F07ED0CC0E67
:101078000001726F7F0E736F72517311D8A4000E46
:10108800746F0A0E756F020E766FF3EC29F06DD04F
:10109800D00E0001726F7F0E736F72517311D8A456
:1010A800000E746F0A0E756F020E766FF3EC29F05E
:1010B8005CD0D40E0001726F7F0E736F7251731182
:1010C800D8A4000E746F0A0E756F020E766FF3ECDB
:1010D80029F04BD0D80E0001726F7F0E736F7251DA
:1010E8007311D8A4000E746F0A0E756F020E766F16
:1010F800F3EC29F03AD0DC0E0001726F7F0E736FAB
:1011080072517311D8A4000E746F0A0E756F020E17
:10111800766FF3EC29F029D0F40E0001726F7F0E80
:10112800736F72517311D8A4000E746F0A0E756F25
:10113800020E766FF3EC29F018D00001FD51000A79
:10114800D8B485D7010AD8B492D7030AD8B4A0D79F
:10115800010AD8B4AED7070AD8B4BCD7010AD8B4A4
:10116800CAD7030AD8B4D8D772D70001AC51D8B4BB
:101178001200050EFE6102D0FE2B72D0000EFE6F2B
:101188006FD0090E5C6EDC0E726F7F0E736F72513A
:101198007311D8A4000E746F070E756F020E766F68
:1011A800F3EC29F01200120E5C6EE00E0001726F73
:1011B8007F0E736F72517311D8A4000E746F070EEF
:1011C800756F020E766FF3EC29F012001B0E5C6E41
:1011D800EC0E0001726F7F0E736F72517311D8A4F9
:1011E800000E746F070E756F020E766FF3EC29F020
:1011F8001200360E5C6EE40E0001726F7F0E736F84
:1012080072517311D8A4000E746F070E756F020E19
:10121800766FF3EC29F012006C0E5C6EE80E00019C
:10122800726F7F0E736F72517311D8A4000E746FB2
:10123800070E756F020E766FF3EC29F012005C68EA
:10124800F00E726F7F0E736F72517311D8A4000E77
:10125800746F070E756F020E766FF3EC29F01200AB
:101268000001FE51000AD8B48CD7010AD8B49BD724
:10127800030AD8B4ABD7010AD8B4BBD7070AD8B485
:10128800CBD7010AD8B4DBD77CD7B951D8B428D08A
:10129800FD5182EC15F05EEC31F0CC0E0001726F5E
:1012A8007B0E736F72517311D8A4000E746F000E09
:1012B800756F000E766FF3EC29F0940E0001726FD3
:1012C8007C0E736F72517311D8A4000E746F000EE8
:1012D800756F030E766FF3EC29F00F0E0001F66FB1
:1012E800AC51D8B41200060EFD610AD05104D8A43E
:1012F80005D0030EFD6502D0060E03D0FD2B79D074
:10130800000EFD6F76D0C80E726F7F0E736F72512C
:101318007311D8A4000E746F0A0E756F020E766FE3
:10132800F3EC29F01200CC0E0001726F7F0E736F80
:1013380072517311D8A4000E746F0A0E756F020EE5
:10134800766FF3EC29F01200D00E0001726F7F0E59
:10135800736F72517311D8A4000E746F0A0E756FF3
:10136800020E766FF3EC29F01200D40E0001726FB2
:101378007F0E736F72517311D8A4000E746F0A0E2A
:10138800756F020E766FF3EC29F01200D80E00018B
:10139800726F7F0E736F72517311D8A4000E746F41
:1013A8000A0E756F020E766FF3EC29F01200DC0E50
:1013B8000001726F7F0E736F72517311D8A4000E03
:1013C800746F0A0E756F020E766FF3EC29F0120037
:1013D800F40E0001726F7F0E736F72517311D8A4EF
:1013E800000E746F0A0E756F020E766FF3EC29F01B
:1013F80012000001FD51000AD8B485D7010AD8B4FB
:1014080092D7030AD8B4A0D7010AD8B4AED7070A2E
:10141800D8B4BCD7010AD8B4CAD7030AD8B4D8D725
:1014280072D7AC51D8B40CD029EC20F00009D8B44C
:1014380004D0010E0001B96F03D0090E0001F26F4C
:10144800B951D8B412005EEC31F0220E0001726F6F
:101458007B0E736F72517311D8A4000E746F000E57
:10146800756F000E766FF3EC29F0880E0001726F2D
:101478007B0E736F72517311D8A4000E746F000E37
:10148800756F010E766FF3EC29F0840E0001726F10
:101498007C0E736F72517311D8A4000E746F000E16
:1014A800756F030E766FF3EC29F0060E0001F66FE8
:1014B8001200F651000AD8B4BEEF01F0010AD8B400
:1014C8001DEF06F0030AD8B44CD5010AD8B4DDD60E
:1014D800050AD8B4FBEF01F0010AD8B4DFEF02F037
:1014E8000F0AD8B4E2EF03F0020AD8B43EEF05F0D1
:1014F800010AD8B4E1EF05F0070AD8B432D4010ADA
:10150800D8B46CD5020AD8B48CD7BDEF01F000016D
:101518007D6F000E00017C6FD1D2FFD7FD0E000158
:10152800616F7E0E626F3BEC2FF07DD10001795127
:10153800D8B402D00A0E536E7D51D8B4E2D2900EC0
:10154800606F010E616FB90E626F7F0E636F000EE0
:10155800656F040E646FA8EC27F0000160516111FB
:10156800D8A437D0000E516E5EEC31F0440E000165
:10157800726F7B0E736F72517311D8A4000E746F63
:10158800000E756F000E766FF3EC29F0990E0001CE
:10159800726F7B0E736F72517311D8A4000E746F43
:1015A800000E756F020E766FF3EC29F0EF0E000156
:1015B800726F7A0E736F72517311D8A4000E746F24
:1015C800000E756F030E766FF3EC29F04AD0536E58
:1015D80098D2900E0001606F010E616FBE0E626FAF
:1015E8007F0E636F000E656F040E646FA8EC27F022
:1015F800000160516111D8A436D0010E516E5EEC25
:1016080031F0440E0001726F7B0E736F72517311CB
:10161800D8A4000E746F000E756F000E766FF3EC91
:1016280029F0990E0001726F7B0E736F725173115E
:10163800D8A4000E746F000E756F020E766FF3EC6F
:1016480029F0EF0E0001726F7A0E736F72517311E9
:10165800D8A4000E746F000E756F030E766FF3EC4E
:1016680029F0020EB4D7FD0E0001616F7E0E626F85
:101678003BEC2FF0000E0001616F190E606F88ECD3
:101688002FF0C0D100017851D8B41ED0BC0E726FB3
:101698007A0E736F72517311D8A4000E746F000E16
:1016A800756F030E766FF3EC29F0010E0001616F80
:1016B800F40E606F88EC2FF0E80E0001616F7D0E6C
:1016C800626F3BEC2FF070D000017951D8B419D279
:1016D800DE0E726F7A0E736F72517311D8A4000EFA
:1016E800746F000E756F030E766FF3EC29F0010E20
:1016F8000001616FF40E606F88EC2FF03C0E000162
:10170800616F7D0E626F3BEC2FF06AD100017D5155
:10171800D8B4F7D1900E606F010E616FF80E626F4A
:101728007F0E636F3BEC2DF0000160516111D8A46E
:1017380002D0040E4CD7900E606F010E616F580EE8
:10174800626F7D0E636F3BEC2DF0000160516111FB
:10175800D8A423D05EEC31F0B50E0001726F7E0E76
:10176800736F72517311D8A4000E746F000E756FE9
:10177800000E766FF3EC29F01A0E0001726F7F0EDF
:10178800736F72517311D8A4000E746F000E756FC9
:10179800010E766FF3EC29F08ED0E80E0001616F30
:1017A8007D0E626F3BEC2FF0030E11D700017D51C7
:1017B800D8B4A7D1900E606F010E616F230E626FCF
:1017C8007F0E636F3BEC2DF0000160516111D8A4CE
:1017D80023D05EEC31F0D50E0001726F7E0E736F70
:1017E80072517311D8A4000E746F000E756F000E3D
:1017F800766FF3EC29F09F0E0001726F7E0E736F07
:1018080072517311D8A4000E746F000E756F010E1B
:10181800766FF3EC29F0A9D0F30E0001616F7E0E0C
:10182800626F3BEC2FF0010ED2D600017D51D8B487
:1018380068D1900E606F010E616FF80E626F7F0EB7
:10184800636F3BEC2DF0000160516111D8A402D008
:10185800060EBDD6900E606F010E616F580E626F56
:101868007D0E636F3BEC2DF0000160516111D8A42F
:1018780024D05EEC31F0B50E0001726F7E0E736FEE
:1018880072517311D8A4000E746F000E756F000E9C
:10189800766FF3EC29F01A0E0001726F7F0E736FEA
:1018A80072517311D8A4000E746F000E756F010E7B
:1018B800766FF3EC29F0090E8AD6900E0001606F5E
:1018C800010E616F4A0E626F7D0E636F3BEC2DF067
:1018D800000160516111D8A407D03C0E616F7D0EE4
:1018E800626F3BEC2FF07CD0900E0001606F010E10
:1018F800616F940E626F7E0E636F3BEC2DF07DD0AE
:1019080000017D51D8B4FDD0900E606F010E616F5B
:10191800230E626F7F0E636F3BEC2DF00001605168
:101928006111D8A424D05EEC31F0890E0001726FE9
:101938007E0E736F72517311D8A4000E746F000E6F
:10194800756F000E766FF3EC29F09F0E0001726F31
:101958007E0E736F72517311D8A4000E746F000E4F
:10196800756F010E766FF3EC29F0070E30D6900EE6
:101978000001606F010E616F960E626F7F0E636FDC
:101988003BEC2DF0000160516111D8A42BD05EEC26
:1019980031F0E90E0001726F7E0E736F7251731190
:1019A800D8A4000E746F010E756F000E766FF3ECFD
:1019B80029F08F0E0001726F7F0E736F72517311D1
:1019C800D8A4000E746F020E756F010E766FF3ECDB
:1019D80029F03C0E0001616F7D0E626F3BEC2FF029
:1019E800050EF5D5900E0001606F010E616F940E23
:1019F800626F7E0E636F3BEC2DF000016051611148
:101A0800D8A47FD0000EE3D5AA0E0001616F7E0E28
:101A1800626F3BEC2FF019D000017D51D8B471D022
:101A2800900E606F010E616F4A0E626F7D0E636FDC
:101A38003BEC2DF0000160516111D8A408D0AA0E2A
:101A4800616F7E0E626F3BEC2FF0080EC0D501016E
:101A58009051D00F00017B6F7BC0FDF0010E7C6FB1
:101A680050D000017951D8B44CD00A0EB0D5000E30
:101A78000001606F000E8EEC2EF081B202D081A0C2
:101A8800FCD7FA0E00017A6F580EE82EFED77A2F8F
:101A9800FCD700F0FA0E00017A6F580EE82EFED738
:101AA8007A2FFCD700F0FA0E00017A6F580EE82E54
:101AB800FED77A2FFCD700F0FF0023D05350000A3E
:101AC800D8B42CD5010AD8B431D5030AD8B4DAD59C
:101AD800010AD8B41BD6070AD8B468D6010AD8B404
:101AE800A4D6030AD8B40CD7010AD8B48DD70F0AE4
:101AF800D8B492D7010AD8B4B4D7030AD8B4B7D7A0
:101B08000CD500017C51120000017751800B806FC9
:101B180077517725866F76BF86818651D8B40DD0E8
:101B28008629D8A408D0000E746F000E756F000EB9
:101B3800766F000E776F768F08D0000E746F000EE8
:101B4800756F000E766F000E776F7B51800B801BD0
:101B58007B517B25856F7ABF85818551D8B40DD09F
:101B68008529D8A408D0000E786F000E796F000E72
:101B78007A6F000E7B6F7A8F08D0000E786F000E98
:101B8800796F000E7A6F000E7B6F8551D8B403D041
:101B98008651D8A409D0000E746F000E756F000E20
:101BA800766F000E776F12007A517403F3CF8BF0C3
:101BB800F4CF8CF08B51816F826B836B846B8C516B
:101BC800876F886B896B8A6B79517503F3CF8BF0BC
:101BD800F4CF8CF08B518127000E8223832384233A
:101BE8008C518727000E882389238A23785176030E
:101BF800F3CF8BF0F4CF8CF08B518127000E82232A
:101C0800832384238C518727000E882389238A23E2
:101C180083C084F082C083F081C082F0816B7851E8
:101C28007503F3CF8BF0F4CF8CF08B5181278C5157
:101C38008223000E8323000E842379517403F3CF8B
:101C48008BF0F4CF8CF08B5181278C518223000EBE
:101C58008323000E842383C084F082C083F081C074
:101C680082F0816B78517403F3CF8BF0F4CF8CF052
:101C78008B5181278C518223000E8323000E8423ED
:101C88007A517503F3CF8BF0F4CF8CF08B51872703
:101C98008C518823000E8923000E8A2379517603FC
:101CA800F3CF8BF0F4CF8CF08B5187278C5188239E
:101CB800000E8923000E8A237A517603F3CF8BF026
:101CC800F4CF8CF08B517C6F8C517D6F7E6B7F6B6A
:101CD8007EC07FF07DC07EF07CC07DF07C6B7C5147
:101CE80087277D5188237E5189237F518A2381C08C
:101CF8007CF082C07DF083C07EF084C07FF0190E36
:101D080005D0D8907F337E337D337C33E82EF9D7E6
:101D18007C5187277D5188237E5189237F518A23CF
:101D280083C084F082C083F081C082F0816B8551CA
:101D380086C07CF07D6B7C27000E7D23820E7C257F
:101D48008B6FFF0E7D218C6F0FD0D8908737883727
:101D580089378A3784BF8781D8908137823783371C
:101D680084378B07D8A08C0789AFEFD7000E856F13
:101D780084AF16D0FF0E81157C6FFF0E82157D6F24
:101D8800FF0E83157E6F7F0E84157F6F7C517D114A
:101D98007E117F11D8A402D087A102D0010E856FD1
:101DA8008551D8B41FD0010E8727000E88238923B8
:101DB8008A238AA117D087C07CF088C07DF089C0AB
:101DC8007EF08AC07FF07F357F337E337D337C336E
:101DD8007CC087F07DC088F07EC089F07FC08AF023
:101DE8008B4B8C2B8CBF0DD08C5103E18B29D8A049
:101DF80008D0000E876F000E886F800E896F7F0EE7
:101E080020D08CBF05D08C510EE18B05D8B00BD0FB
:101E1800000E876F000E886F000E896F000E8A6FA4
:101E2800000E806F0FD08BC086F0FF0E8717FF0E55
:101E380088177F0E8917000E8A1786B1898FD89068
:101E480086318A6F80518A1387C074F088C075F014
:101E580089C076F08AC077F0120000016351800BC8
:101E6800706F63516325726F62BF72817251D8B40B
:101E78000DD07229D8A408D0000E606F000E616FD3
:101E8800000E626F000E636F628F06D0000E606FE7
:101E9800000E616F000E626F000E636F6751800B5A
:101EA800716F70517119D8A4708D67516725716F62
:101EB80066BF71817151D8B40DD07129D8A408D0EA
:101EC800000E646F000E656F000E666F000E676F80
:101ED800668F06D0000E646F000E656F000E666F89
:101EE800000E676F7251715DD8B022D070AD02D00C
:101EF800800E701B72C073F071C072F073C071F005
:101F080060C073F064C060F073C064F061C073F0C7
:101F180065C061F073C065F062C073F066C062F0BE
:101F280073C066F063C073F067C063F073C067F096
:101F3800000E736F7251686F696B681F691F684B79
:101F4800692B71516A6F6B6B68516A2769516B23F2
:101F58006BBF2CD06B5104E11A0E6A5DD8A026D055
:101F68006051611162116311D8B402D0010E01D021
:101F7800000E736F000E606F000E616F000E626FCF
:101F8800000E636F71C072F015D073A105D0D890A0
:101F980073310109736F02D0D890733360B1738FB6
:101FA80063356333623361336033722B7151725D11
:101FB800D8A0EBD770BD29D07251D8A409D0000E93
:101FC800606F000E616F000E626F000E636F12008B
:101FD8006451602765516123665162236751632309
:101FE80063A183D073A106D0D890733373510109CC
:101FF800736F02D0D890733360B1738F63356333D6
:10200800623361336033722B70D06451605D655107
:102018006159665162596351800A686F6751800A35
:102028006859D8B036D060C068F061C069F062C045
:102038006AF063C06BF0681F691F6A1F6B1F682B0B
:10204800000E69236A236B23645168256C6F655100
:1020580069216D6F66516A216E6F67516B216F6FD1
:10206800FF0E6C25606FFF0E6D21616FFF0E6E21F4
:10207800626FFF0E6F21636F800E701B736D73515B
:10208800D8A40FD0010E6027000E612362236323BA
:1020980008D06451605F6551615B6651625B67514E
:1020A800635B6051611162116311D8A41CD0735134
:1020B800D8A419D0000E606F000E616F000E626F19
:1020C800000E636F1200D89060376137623763374C
:1020D80073BF608173A102D0D88001D0D8907337C4
:1020E8007251D8A4720762AFEED7000E716F73AF4A
:1020F8000AD073C068F07F0E6817D8A402D060A118
:1021080002D0010E716F7151D8B420D0010E602732
:10211800000E61236223632363A118D060C068F0B6
:1021280061C069F062C06AF063C06BF06B356B33F5
:102138006A336933683368C060F069C061F06AC0A7
:1021480062F06BC063F07229D8A4722B7229D8B4DC
:1021580003D07251D8A40DD0000E606F000E616FCD
:10216800000E626F000E636F7251D8A402D0000E89
:10217800706F72A102D0628F01D0629FD8907231C5
:10218800636F70BF638F60C060F061C061F062C050
:1021980062F063C063F0120000019051800B996FE8
:1021A80090519025A46F8FBFA481A451D8B40DD0AD
:1021B800A429D8A408D0000E8D6F000E8E6F000ED3
:1021C8008F6F000E906F8F8F06D0000E8D6F000EF0
:1021D8008E6F000E8F6F000E906F9451800B991BBD
:1021E80094519425A56F93BFA581A551D8B40DD05E
:1021F800A529D8A408D0000E916F000E926F000E8A
:10220800936F000E946F938F06D0000E916F000E9F
:10221800926F000E936F000E946F9151921193116B
:102228009411D8A415D0000E8D6F000E8E6F000E7D
:102238008F6F000E906F800E8F137F0E90138DC0DE
:102248008DF08EC08EF08FC08FF090C090F012008D
:10225800A451D8A411D0000E8D6F000E8E6F000E01
:102268008F6F000E906F8DC08DF08EC08EF08FC076
:102278008FF090C090F01200A551956F966B951F46
:10228800961F954B962BA451976F986B955197274E
:10229800965198237F0E97259E6F000E98219F6F69
:1022A8008DC09AF08EC09BF08FC09CF090C09DF0BE
:1022B800000E8D6F000E8E6F000E8F6F000E906FE8
:1022C800000EA06F000EA16F000EA26F000EA36F8C
:1022D800000EA56F28D0A551D8B411D0D8909A3740
:1022E8009B379C379D37D8908D378E378F379037EF
:1022F800A3BF8D81D890A037A137A237A3379151BA
:102308009A5D92519B5993519C5994519D59D8A0CB
:1023180009D0A38D91519A5F92519B5B93519C5B1D
:1023280094519D5BA52B190EA565D5D79A519B1184
:102338009C119D11D8B411D0A0810FD0D8908D37A1
:102348008E378F379037A3BF8D81D890A037A137AC
:10235800A237A3379E07D8A09F078FAFEFD7000EED
:10236800A56FA3AF16D0FF0EA015956FFF0EA11590
:10237800966FFF0EA215976F7F0EA315986F955154
:10238800961197119811D8A402D08DA102D0010EF0
:10239800A56FA551D8B41FD0010E8D27000E8E232E
:1023A8008F23902390A117D08DC095F08EC096F002
:1023B8008FC097F090C098F098359833973396333C
:1023C800953395C08DF096C08EF097C08FF098C069
:1023D80090F09E4B9F2B9FBF10D09F5103E19E29E9
:1023E800D8A00BD0000E9F6F9E69000E8D6F000E57
:1023F8008E6F000E8F6F000E906F9FBF05D09F519C
:1024080011E19E05D8B00ED0000E9F6F000E9E6F92
:10241800000E8D6F000E8E6F000E8F6F000E906F86
:10242800000E996F9EC0A4F0A4A102D08F8F01D096
:102438008F9FD890A431906F995190138DC08DF0D3
:102448008EC08EF08FC08FF090C090F01200000EFA
:102458000001BB6F000EBC6F000EBD6F000EBF6F9A
:10246800030EBE6F94EC14F080A009D043EC32F058
:102478000009D8A407D0040E0001FF6F03D0000E96
:102488001CEC32F00001F9A108D034EC32F017EC62
:102498001BF00001F95121EC31F042EC2BF0000166
:1024A800BE6FBE05D8A405D0000EF26F010EBC6F3A
:1024B80008D0020EBE19D8A404D0000EF26F010E87
:1024C800BD6FABEC2BF00009D8B402D0010E01D0DF
:1024D800000E0001BF6F020EF619D8A44BD00101FF
:1024E8001B5104E1640E1A5DD8A044D000F0C80E58
:1024F8000001726F7A0E736F72517311D8A4000EB7
:10250800746F060E756F010E766FF3EC29F014ECFC
:102518002DF000016EC072F06FC073F0725173112C
:10252800D8A4200E746F060E756F010E766FF3EC4B
:1025380029F011EC2EF063C072F064C073F078ECEF
:1025480029F072C0DEF073C0DFF00001DE5111EC3B
:102558001DF00001BA6FBA51DE6FDF6B060E786F9F
:10256800020E796FDE5121EC25F0000E01011B6F80
:10257800000E1A6F0001F251D8B48FD0090EF2651F
:102588008CD0FC51D8B489D0010EBB6F000EF26F0D
:1025980084D0FFD75EEC31F0DF0E0001726F7E0E43
:1025A800736F72517311D8A4000E746F010E756F9A
:1025B800000E766FF3EC29F0350E0001726F7F0E76
:1025C800736F72517311D8A4000E746F020E756F79
:1025D800010E766FF3EC29F0AA0E0001726F7B0EE4
:1025E800736F72517311D8A4000E746F000E756F5B
:1025F800030E766FF3EC29F0000E536E020E000105
:1026080040D0BCC078F0BDC079F0BF518BEC0AF067
:102618000009D8B450D05EEC31F0FF0E0001726FA3
:102628007B0E736F72517311D8A4000E746F000E75
:10263800756F000E766FF3EC29F0100E0001726FC3
:102648007C0E736F72517311D8A4000E746F000E54
:10265800756F020E766FF3EC29F0330E0001726F7E
:102668007B0E736F72517311D8A4000E746F000E35
:10267800756F030E766FF3EC29F0000E0001F66F0C
:10268800030EFF6F18D0BDC0ACF0BFC0ADF0BBC02B
:10269800AEF0BC5181EC00F00ED00001FF51010AF0
:1026A800D8B478D7030AD8B4ACD7010AD8B4EBD7D2
:1026B800070AD8A46ED70001FF51120004013205A1
:1026C800D8A410D030511F0B0009D8A40BD000019A
:1026D800CB8F030E04013119D8A402D0010E01D00A
:1026E800000E476E3251D8A4120030511F0B020A57
:1026F800D8A4120034510F0B0009D8B41200345179
:102708000F0B166E030E16601200200E0001EF1953
:10271800D8A41200CB8F040134BF19D034510F0B49
:10272800166E1650020D000EF324D96E010EF42019
:10273800DA6EDECF1AF0DDCF1BF034510F0B166EB8
:102748001650010DD40EF324D96E000E18D0345152
:102758000F0B166E1650020DCE0EF324D96E000E16
:10276800F420DA6EDECF1AF0DDCF1BF034510F0BF8
:10277800166E1650010DD70EF324D96E000EF420F4
:10278800DA6EDF50196E19B002D01A9401D01A848B
:1027980034BF0AD034510F0B166E1650020D000EBE
:1027A800F324D96E010E09D034510F0B166E165052
:1027B800020DCE0EF324D96E000EF420DA6E1AC084
:1027C800DEFF1BC0DDFF030E3119D8A42DD01AC0BF
:1027D800D9FF1BC0DAFFDFAE1AD034BF0AD034519C
:1027E8000F0B166E1650010DD40EF324D96E000E81
:1027F8000AD0040134510F0B166E1650010DD70E76
:10280800F324D96E000EF420DA6E0001DF821AC0BC
:10281800D9FF1BC0DAFF000EDB841AC0D9FF1BC02A
:10282800DAFF000EDB8E1200040E1A1A1AC0D9FF46
:102838001BC0DAFFDFAE1BD01AC0D9FF1BC0DAFFFE
:102848007F0EDF161AC0D9FF1BC0DAFF000EDB8C23
:10285800000E0F6E050E0E6E1AC010F01BC011F0A0
:10286800000E136E020E126E0DEC2CF006D01AC07C
:10287800D9FF1BC0DAFF000EDB8C040E1A1A19B23E
:1028880006D01AC0D9FF1BC0DAFFDFAE30D0040172
:1028980034BF0AD034510F0B166E1650010DD40EEA
:1028A800F324D96E000E0AD0040134510F0B166EB2
:1028B8001650010DD70EF324D96E000EF420DA6EEF
:1028C8000001DF921AC0D9FF1BC0DAFF3B0EDF16EA
:1028D800000E0F6E050E0E6E1AC010F01BC011F020
:1028E800000E136E020E126E0DEC2CF006D01AC0FC
:1028F800D9FF1BC0DAFF3B0EDF16040134510F0B62
:10290800166E1650010D6A0EF324176E0F0EF42082
:10291800186E17C0D9FF18C0DAFFFE0EDF161200B6
:10292800E0D0E7EC2EF00001866F240E8619D8A4BB
:1029380004D0000EF16F010EF56FCCEC31F0E80613
:10294800D8A4EFD70001F505D8A4120021D0E7ECF0
:102958002EF00001866FF151010DF10EF324F66E91
:10296800750EF420F76EF86A000EF8220800F5508C
:102978008619D8A40AD0F12B050EF119D8A408D0CD
:10298800000EF16F020EF56F03D0000EF56F120006
:10299800CCEC31F0E806D8B41200D9D7E7EC2EF029
:1029A8000001866F0D0E8619D8A40DD0F151010DC6
:1029B800000EF324D96E060EF420DA6E000EDF6ED8
:1029C800030EF56F0BD0F151010D000EF324D96EF3
:1029D800060EF420DA6E86C0DFFFF12BCCEC31F066
:1029E800E806D8A4DBD7030E0001F519D8A4120015
:1029F800000E876F000E856F470E851B500E851BD6
:102A0800470E851B4C0E851B4C0E851BF151875DAF
:102A1800D8B04BD08751010D000EF324D96E060EA5
:102A2800F420DA6E2A0EDE18D8A433D08751826FCC
:102A3800836B010E8227000E8323000E8225D96E38
:102A4800060E8321DA6EDF5049EC30F0100DF3CF1B
:102A580084F000018751826F836B020E8227000E7B
:102A68008323000E8225D96E060E8321DA6EDF508D
:102A780049EC30F00001842787C0F0F08751010D40
:102A8800000EF324D96E060EF420DA6E000EDF6E07
:102A98000CD08751010D000EF324D96E060EF420D8
:102AA800DA6EDF50851B872BB1D75EEC31F0000161
:102AB80084518519D8A407D0000E6C6F060E6D6F6F
:102AC800EBEC2CF00AD0000E0001F06F000E786FCE
:102AD800000E796F845121EC25F0000E0001F56F8E
:102AE80012000001F551000AD8B427D7010AD8B45A
:102AF8004FD7030AD8B472D7010A78D70001646F98
:102B0800080E00016419D8B46AD0A40E616F7C0E57
:102B1800626F3BEC2FF0FA0E0001636F580EE82E3F
:102B2800FED7632FFCD700F0FA0E0001636F580E32
:102B3800E82EFED7632FFCD700F0FA0E0001636F72
:102B4800580EE82EFED7632FFCD700F048D0800E31
:102B58000001616F7D0E626F3BEC2FF05DD08D0E32
:102B68000001616F7D0E626F3BEC2FF055D09A0E1D
:102B78000001616F7D0E626F3BEC2FF04DD0A70E08
:102B88000001616F7D0E626F3BEC2FF045D0B40EF3
:102B98000001616F7D0E626F3BEC2FF03DD0C10EDE
:102BA8000001616F7D0E626F3BEC2FF035D0CE0EC9
:102BB8000001616F7D0E626F3BEC2FF02DD0DB0EB4
:102BC8000001616F7D0E626F3BEC2FF025D0F20E95
:102BD8000001616F7C0E626F3BEC2FF01DD000018D
:102BE8006451000AD8B4B3D7010AD8B4B8D7030AD5
:102BF800D8B4BDD7010AD8B4C2D7070AD8B4C7D742
:102C0800010AD8B4CCD7030AD8B4D1D7010AD8B4AA
:102C1800D6D70F0AD8B4DBD7FA0E0001636F580E67
:102C2800E82EFED7632FFCD700F0FA0E0001636F81
:102C3800580EE82EFED7632FFCD700F0FA0E0001DD
:102C4800636F580EE82EFED7632FFCD700F02C0ECA
:102C58000001616F7F0E626F3BEC2FF012000001E4
:102C6800686F00016851D8A463AF1AD060C064F0DF
:102C780061C065F062C066F063C067F0641F651FDD
:102C8800661F671F642B000E65236623672364C0D5
:102C98006AF065C06BF066C06CF067C06DF008D074
:102CA80060C06AF061C06BF062C06CF063C06DF028
:102CB8006051611162116311D8A409D0000E606FD0
:102CC800000E616F000E626F000E636F1200960EA9
:102CD800696F06D0692BD8906D336C336B336A33C8
:102CE800000E6A15646F000E6B15656F000E6C158B
:102CF800666FFE0E6D15676F645165116611671179
:102D0800D8B40DD0E7D7692B010E6A27000E6B23C4
:102D18006C236D23D8906D336C336B336A33000E9C
:102D28006A15646F000E6B15656F000E6C15666F83
:102D3800FF0E6D15676F6451651166116711D8B480
:102D480007D0E1D76907D8906A376B376C376D378A
:102D58006CBF03D0020E6961F5D769B108D0FF0EC8
:102D68006A17FF0E6B177F0E6C17FF0E6D17D89042
:102D7800693369C064F0656B666B676B64C067F044
:102D8800666B656B646B64516A1365516B136651AE
:102D98006C1367516D136851D8A463AF01D06D8F60
:102DA8006AC060F06BC061F06CC062F06DC063F027
:102DB8001200A394010114511511D8B410D014C1F4
:102DC800D9FF15C1DAFFDFAE04D00001676B672BAE
:102DD80002D00001676B6751686F696B05D0000E00
:102DE8000001696F000E686F68516911D8B402D08C
:102DF800A3841200030EEE19D8A402D0000EEE6FC1
:102E0800EE51D8A402D0A3841200020EEE19D8A461
:102E180013D0010E606F000E616F000E626F000E1E
:102E2800636F020E53EC23F060C014F161C015F11A
:102E3800030E0001EE6F5FD0EE05D8A45CD0400E03
:102E4800E06503D0400E6B6F02D0E0C06BF06B51B1
:102E58000008E025E06F000E01010E6F050E0F6FF0
:102E68006BC06AF03E50D8B412D027D011C1D9FF38
:102E780012C1DAFF0EC1E1FF0FC1E2FFDFCFE7FFAA
:102E880001010E4B0F2B114B122B00016A07000199
:102E98006A51D8B416D0EAD711C1D9FF12C1DAFFE6
:102EA8000EC1E1FF0FC1E2FFDFCFE7FF01010E4BCB
:102EB8000F2B114B122B00016A0700016A51D8A48D
:102EC800EBD7E051D8A408D0400E6B19D8A402D093
:102ED800020E01D0030EEE6F010E606F000E616FDF
:102EE800050E626F6BC063F0020E53EC23F060C0F6
:102EF80014F161C015F1A3841200800E0401301989
:102F0800D8A41200C00E0001CB6F88D0A30E000118
:102F1800C86F790EC96F000ECD6F120ECC6F1200FC
:102F280004013251D8A443D03251020DF60EF324D5
:102F3800F66E750EF420F76EF86A000EF822090096
:102F4800F5CFC8F00A00F5CFC9F0020E0001C82578
:102F5800016E000EC921026E01C0F6FF02C0F7FF24
:102F6800F86A070EF76403D00800F55005D0F6CFCD
:102F7800E9FFF7CFEAFFEF500001CC6F030EC82539
:102F8800016E000EC921026E01C0F6FF02C0F7FFF4
:102F9800F86A070EF76403D00800F55005D0F6CF9D
:102FA800E9FFF7CFEAFFEF500001CD6F1200000EE6
:102FB8000001CB6F1200030E0401326127D0325199
:102FC800020DEB0EF324F66E750EF420F76EF86A18
:102FD800000EF8220900F5CFC8F00A00F5CFC9F0B5
:102FE800C8C0F6FFC9C0F7FFF86A070EF76403D038
:102FF8000800F55005D0F6CFE9FFF7CFEAFFEF500C
:10300800016E01500001CC6FCD6B1200000E000163
:10301800CB6F1200000E0001CB6F12000401335178
:10302800010AD8B473D7030AD8B47AD7010AD8B436
:10303800C2D7F0D776EC30F0BAEC2FF051EC19F09B
:1030480055EC2FF08A8A000E0001616F320E606F16
:1030580088EC2FF08A9A010E0001616FF40E606F00
:1030680088EC2FF0F28CF28E31EC28F0000E000183
:10307800616F140E606F88EC2FF0F6EC31F0000EE3
:103088000001616F140E606F88EC2FF0000E99EC50
:1030980031F0546E550E5418D8B408D02DEC2AF0DF
:1030A800550E0001606F000E8EEC2EF0000E000130
:1030B800F86F000E21EC32F05EEC31F01F0E0001CB
:1030C800726F7D0E736F72517311D8A4000E746FF6
:1030D800000E756F000E766FF3EC29F0010E0001FB
:1030E800726F7D0E736F72517311D8A4000E746FD6
:1030F800000E756F010E766FF3EC29F0100E0001CB
:10310800726F7D0E736F72517311D8A4000E746FB5
:10311800000E756F030E766FF3EC29F0030E0001B5
:10312800616FE80E606F88EC2FF015D0FFD7FDECCB
:1031380020F0010E0001F86F010E26EC32F00BD0E2
:103148002BEC12F0040AD8A406D0000E0001F86F88
:10315800000E21EC32F00001F851000AD8B4E7D78C
:10316800010AD8B4EDD7E2D70001EF05D8B460BAA8
:1031780006D0000E656E64806488020EEF6F65B439
:1031880064A403D06594EAEC2FF060A202D0A49462
:10319800120065B064A007D0E9EC19F0A384040E0E
:1031A8000001EF6F659065B864A803D08BEC30F030
:1031B800659865AC18D064AC0ED0000E0F6E730E17
:1031C8000E6E000E106E000E116E000E136E010EC4
:1031D800126E0DEC2CF0659C4450D8A44406445063
:1031E800D8B42FEC22F065BA64AA02D0F0EC2DF026
:1031F80065B264A20FD07F0E0F6E0E68000E106EBF
:10320800000E116E000E136E010E126E0DEC2CF0F6
:10321800000E676E040E0001EF6102D0A494120044
:1032280064A639D0000E1F6E030E1F6401D033D080
:1032380065A631D061CF58F05830E832E8320F0B2C
:10324800466E659658B407D04650010DD40EF32447
:10325800D96E000E06D04650010DD70EF324D96E54
:10326800000EF420DA6E0001DF704650D8A403D0B7
:1032780065EC21F00ED0000E0F6E720E0E6E580E19
:10328800106E000E116E000E136E000E126E0DEC15
:103298002CF01F2AC9D7A4941200A394000E676EBD
:1032A800000E656E000E6A6E6B0E0001606F0F0EE9
:1032B800616F000E636F000E626F000E656F020E85
:1032C800646FD2EC2FF0160E626E9F0E666E7B0E48
:1032D800646E000E0001686F0B0E686501D00ED099
:1032E8006851040D000EF324D96E040EF420DA6E32
:1032F800DE6ADE6ADE6ADD6A682BEED7608C000E55
:10330800636E6098609C09D06596000ECB6F000EC6
:10331800C36F000EC56F000EC46F65B6F5D7010EFA
:10332800426E010E416E000E406E000E3F6E000EA2
:1033380001011F6F000E0001686F020E686501D061
:103348002ED06851020DCE0EF324D96E000EF42053
:10335800DA6E000EDE6E000EDD6E6851020D000E94
:10336800F324D96E010EF420DA6E000EDE6E000E24
:10337800DD6E6851010DD70EF324D96E000EF420CE
:10338800DA6E000EDF6E6851010DD40EF324D96E8B
:10339800000EF420DA6E000EDF6E682BCED7080E12
:1033A800CE6F040ECF6F160E6A6E040E0401036F03
:1033B800300E026F080E016F040E006F008F000EB2
:1033C800596E000E0001EF6F1200A394000E676E95
:1033D800000E656E000E6A6E6B0E016E0F0E026EA9
:1033E800000E046E000E036E000E066E020E056ED1
:1033F80060EC30F0160E626E9F0E666E7B0E646E89
:10340800000E096E0B0E096401D00ED00950040D90
:10341800000EF324D96E040EF420DA6EDE6ADE6A3A
:10342800DE6ADD6A092AEED7608C000E636E60984A
:10343800609C0AD06596000E0001CB6F000EC36F2A
:10344800000EC56F000EC46F65B6F4D7010E426E4C
:10345800010E416E000E406E000E3F6E000E01011F
:103468001F6F000E096E020E096401D02ED009509C
:10347800020DCE0EF324D96E000EF420DA6E000E83
:10348800DE6E000EDD6E0950020D000EF324D96EBB
:10349800010EF420DA6E000EDE6E000EDD6E0950AD
:1034A800010DD70EF324D96E000EF420DA6E000E4B
:1034B800DF6E0950010DD40EF324D96E000EF420EE
:1034C800DA6E000EDF6E092ACED7080E0001CE6F25
:1034D800040ECF6F160E6A6E040E0401036F300ED1
:1034E800026F080E016F040E006F008F000E596EF8
:1034F800000E0001EF6F120020EE01F03450D926C3
:103508003550DA22DF50136E13500001C45D000EEF
:10351800C559D8A0C4C013F01350C45F000EC55BD2
:10352800000E126E11D01250010D380EF324D96E10
:10353800040EF420DA6EC0C0E1FFC1C0E2FFDFCFA5
:10354800E7FFC04BC12B122A1350125CD8A0EBD74F
:10355800C451C511D8B432D020EE01F03250D9266A
:103568003350DA22080EDF6E20EE02F03250D926F0
:103578003350DA22380EDE6E040EDD6E34C0D9FF09
:1035880035C0DAFFDFBC0DD032C0D9FF33C0DAFF57
:10359800480EDF6E32C0D9FF33C0DAFF000EDB8E73
:1035A800120032C0D9FF33C0DAFF080EDF6E32C016
:1035B800D9FF33C0DAFF000EDB8E120020EE01F0D7
:1035C8003250D9263350DA22080EDF6E20EE02F090
:1035D8003250D9263350DA22300EDE6E040EDD6EFC
:1035E80032C0D9FF33C0DAFF040EDF6E32C0D9FF14
:1035F80033C0DAFF000EDB8EC651C711D8B40BD02A
:1036080001D809D00500FA6EC651FD6EC751FE6E8D
:10361800FF6AFA5012000001C39F4350D8A4120059
:103628002FEC22F012000001DC4BDD2BDCC060F037
:10363800DDC061F0000E636F0A0E626FADEC2DF015
:10364800000160516111D8A41200F983DCC060F058
:10365800DDC061F0000E636F640E626FADEC2DF09B
:10366800000160516111D8A41200F985DCC060F036
:10367800DDC061F0030E636FE80E626FADEC2DF0F4
:10368800000160516111D8A41200F987DCC060F014
:10369800DDC061F0626B636B600E646FEA0E656F8C
:1036A800000E666F000E676FD1EC25F000016051C7
:1036B800611162116311D8A412003A4A3B2AF989B0
:1036C8003AC060F03BC061F0000E636F3C0E626F61
:1036D800ADEC2DF0000160516111D8A41200F98BF6
:1036E8003AC060F03BC061F0020E636FD00E626FAB
:1036F800ADEC2DF0000160516111D8A41200F98DD4
:103708003AC060F03BC061F0050E636FA00E626FB7
:10371800ADEC2DF0000160516111D8A41200F98FB1
:10372800000EDD6F000EDC6F000E3B6E000E3A6E71
:103738001200010E00017A6FF40E796F000E7B6F94
:103748005EEC31F0F50E0001726F7D0E736F7251F1
:103758007311D8A4000E746F000E756F000E766F8B
:10376800F3EC29F081A202D081B011D07D0E0001C6
:10377800726F7E0E736F72517311D8A4000E746F3E
:10378800000E756F030E766FF3EC29F047D01C0E10
:103798000001726F7E0E736F72517311D8A4000E00
:1037A800746F000E756F010E766FF3EC29F036D04A
:1037B80081B213D0020E726F7E0E736F7251731145
:1037C800D8A4000E746F000E756F020E766FF3ECBE
:1037D80029F000017B51080F7B6F81B013D00F0EC9
:1037E800726F7E0E736F72517311D8A4000E746FCE
:1037F800000E756F030E766FF3EC29F000017B5114
:10380800800F7B6F880E7B19D8B412009C0E0001C4
:10381800786FD70EE82EFED7782FFCD700017907EE
:10382800D8A07A077929C4E17A29D8B41200C0D778
:10383800B7EC29F05EEC31F0590E0001726F7F0E83
:10384800736F72517311D8A4000E746F000E756FE8
:10385800000E766FF3EC29F0720E0001726F7F0E86
:10386800736F72517311D8A4000E746F000E756FC8
:10387800010E766FF3EC29F06A0E0001726F7F0E6D
:10388800736F72517311D8A4000E746F000E756FA8
:10389800020E766FF3EC29F00E0E0001626F020E35
:1038A800636F430E73EC28F011EC2EF063C072F0D6
:1038B80064C073F078EC29F072C0DEF073C0DFF0FA
:1038C8000001DE5111EC1DF00001AC6FAC51DE6F50
:1038D800DF6B0A0E786F020E796FDE5121EC25F04E
:1038E80000F0C80E0001726F7A0E736F7251731177
:1038F800D8A4000E746F0A0E756F010E766FF3EC84
:1039080029F014EC2DF000016EC072F06FC073F056
:1039180072517311D8A4200E746F0A0E756F010EC0
:10392800766FF3EC29F0120060980001CBBF38D015
:10393800C3AF0BD0020E486E3F50D8B47CEC26F0D3
:10394800000E416E000E426E120020EE01F0325061
:10395800D9263350DA22080EDF6E20EE02F03250FC
:10396800D9263350DA22300EDE6E040EDD6E32C0F8
:10397800D9FF33C0DAFF0C0EDF6E32C0D9FF33C077
:10398800DAFF000EDB8ECEC0D9FFCFC0DAFF040EFF
:10399800DF6ECEC0D9FFCFC0DAFF000EDB8E12007B
:1039A800040130AF10D0010E486E4050D8B47CEC02
:1039B80026F0000E416E000E426E4350D8A412004D
:1039C8002FEC22F01200020E486E20EE01F0325069
:1039D800D9263350DA22080EDF6E20EE02F032507C
:1039E800D9263350DA22300EDE6E040EDD6E32C078
:1039F800D9FF33C0DAFF040EDF6E32C0D9FF33C0FF
:103A0800DAFF000EDB8E000E416E000E426E435050
:103A1800D8A412002FEC22F012000001A66FCD0EE0
:103A28000001786FCC0E796F4C0E7A6F400E7B6F69
:103A3800A651606F616B626B636B000E33EC16F01E
:103A480060C074F061C075F062C076F063C077F052
:103A580088EC0DF074C08DF075C08EF076C08FF0D4
:103A680077C090F0000E0001916F000E926F800EEB
:103A7800936F440E946FD0EC10F08DC0A8F08EC0F8
:103A8800A9F08FC0AAF090C0ABF0000E0001646FDF
:103A9800000E656F000E666FBF0E676FA8C060F0FE
:103AA800A9C061F0AAC062F0ABC063F031EC0FF0BE
:103AB80060C074F061C075F062C076F063C077F0E2
:103AC800000E0001786F000E796FC80E7A6F420EF3
:103AD8007B6F88EC0DF074C0A8F075C0A9F076C0B3
:103AE800AAF077C0ABF0A8C060F0A9C061F0AAC086
:103AF80062F0ABC063F04CEC1FF000016051A76F9F
:103B0800A75112000001646FFA0E0001636F580E8E
:103B1800E82EFED7632FFCD700F0FA0E0001636F82
:103B2800580EE82EFED7632FFCD700F0FA0E0001DE
:103B3800636F580EE82EFED7632FFCD700F0000104
:103B48006451D8B429D0230E616F7A0E626F3BECB2
:103B58002FF0FA0E0001636F580EE82EFED7632F80
:103B6800FCD700F0FA0E0001636F580EE82EFED75E
:103B7800632FFCD700F0FA0E0001636F580EE82E91
:103B8800FED7632FFCD700F03D0E0001616F7A0E5F
:103B9800626F3BEC2FF01200EF0E0001616F790E9F
:103BA800626F3BEC2FF0FA0E0001636F580EE82E9F
:103BB800FED7632FFCD700F0FA0E0001636F580E92
:103BC800E82EFED7632FFCD700F0FA0E0001636FD2
:103BD800580EE82EFED7632FFCD700F0090E00011F
:103BE800616F7A0E626F3BEC2FF0120004013039DE
:103BF800E832030B0009D8A4120047D00001CB8F8C
:103C0800080EEF6F120081EC17F012006BEC1EF03B
:103C18001200590E0001C86F000EC96FCB81010E4A
:103C2800CC6FCB8F120028EC26F0120062EC13F058
:103C3800120004013451010D560EF3240001C86F1F
:103C4800000EF420C96FCB81010ECC6FCB8F120010
:103C58000001CB8F04013451010D560EF324D96EA7
:103C6800000EF420DA6E32C4DFFF1200000E0F6E71
:103C7800020E0E6E000E106E000E116E000E136E08
:103C8800000E126E0DEC2CF0120004013151000AE6
:103C9800D8B4C9D7010AD8B4C9D7020AD8B4C6D784
:103CA800060AD8B4ABD7030AD8B4ADD7010AD8B43A
:103CB800DDD70F0AD8B4ADD7010AD8B4A7D7030AFD
:103CC800D8B4B7D7010AD8B4C3D7070A120000017D
:103CD800CB8F6B0E016E0F0E026E000E046E000E7F
:103CE800036E000E066E020E056E60EC30F0000EDC
:103CF800016E040E026E000E046E000E036E000EBE
:103D0800066E300E056E60EC30F0608C000E166E9C
:103D1800020E166401D016D01650010DD70EF324EA
:103D2800D96E000EF420DA6E000EDF6E1650010D0B
:103D3800D40EF324D96E000EF420DA6E000EDF6E76
:103D4800162AE6D7560E016E000E026E000E046E9D
:103D5800000E036E000E066E020E056E60EC30F06B
:103D6800609C080E0001CE6F040ECF6F000E346EFB
:103D7800040E356E34C032F035C033F032C459F019
:103D88005950D8A403D0100EEF6F1200000E0F6E1A
:103D9800010E0E6E590E106E000E116E000E136E8F
:103DA800010E126E0DEC2CF0200E0001EF6F1200C8
:103DB8001F0E0001EF65120060B21200EB51D8A48B
:103DC80011D0800E676F020E686F400E696F0FEC9E
:103DD80024F00001EA6FEA51D8B404D0010EEB6F69
:103DE800000EE96FEB51D8A4ACA213D0E951010D34
:103DF800800EF324D96E020EF420DA6EDF5050ECF8
:103E08002EF00001E92BEA51E919D8A402D0000EDE
:103E1800EB6FF751D8B425D046EC32F00009D8B48E
:103E280020D03F0E0001EC611CD000F0CAEC2EF04F
:103E380000016D6FEC51010D800EF324D96E020E56
:103E4800F420DA6E6DC0DFFFEC2BEC51010D800E13
:103E5800F324D96E020EF420DA6E000EDF6E000E27
:103E6800ED6F0001EE51D8A410D0EC51D8B40DD0AC
:103E7800800E606F020E616FECC062F0EEEC30F005
:103E880038EC32F0000E0001EC6FDDEC16F0120099
:103E9800000162356335696F6951D8A409D0000EF5
:103EA800606F000E616F000E626F000E636F12008C
:103EB80060C064F061C065F062C066F063C067F01E
:103EC800200E05D0D8906733663365336433E82E07
:103ED800F9D76451686F628FFF0E6017FF0E611784
:103EE800FF0E6217000E6317960E695F69AF16D052
:103EF8006951800A970FD8B009D0000E606F000E84
:103F0800616F000E626F000E636F1200D89063330A
:103F1800623361336033693FF9D715D01F0E696585
:103F28000FD0000E606F000E616F000E626F000E02
:103F3800636F1200D890603761376237633769075B
:103F48006951D8A4F7D76851D8B408D0631F621F45
:103F5800611F606D000E61236223632360C060F0FF
:103F680061C061F062C062F063C063F01200CEC04D
:103F7800D9FFCFC0DAFF0001000EDFBC010E126EC0
:103F8800040ECE1B080EEF19D8A40CD00401325130
:103F98007F0B636E6350D8B402D0100E01D0040EAC
:103FA8000001EF6F4804D8A43AD020EE02F0CE51B9
:103FB800D926CF51DA22380EDE6E040EDD6E93EC70
:103FC80020F0020E4918D8A40DD0CEC0D9FFCFC01A
:103FD800DAFF040EDF6ECEC0D9FFCFC0DAFF000EC5
:103FE800DB8E12001250D8A40DD0CEC0D9FFCFC09E
:103FF800DAFF480EDF6ECEC0D9FFCFC0DAFF000E61
:10400800DB8E1200CEC0D9FFCFC0DAFF080EDF6EFC
:10401800CEC0D9FFCFC0DAFF000EDB8E1200C3AFCF
:1040280011D0C651C711D8B40BD001D809D005009A
:10403800FA6EC651FD6EC751FE6EFF6AFA50120045
:104048000001C39F000E486E1200000E00016E6F43
:1040580081A0FED7C8EC30F0010E30EC32F0C290EF
:10406800F29EF29EF29C8D94A0920F015B81A08C2F
:10407800F086F2888784000E81B2010E00016E6F0F
:10408800000E81B0010E6E6F000E82B4010E6E6FCD
:10409800FB51D8A4D180F292F090A19C00F00300CB
:1040A80000F0D190CFEC2DF0F096F2988794A09C78
:1040B800F28EC1EC2CF0F2A2F0B002D0A1AC11D07B
:1040C800F292F090010E00016E6F000E30EC32F0AB
:1040D800BAEC2FF08D84FB0EB36E500EB26EA08238
:1040E80007D00A0E0001F26F000E6E6F8D94A09239
:1040F8000F015B9131EC28F0000E0001616F280E72
:10410800606F88EC2FF031EC28F0000E0001616F31
:10411800280E606F88EC2FF000016E511200080E17
:10412800016E0001CD5110E1080ECC5DD8B00CD065
:10413800CCC001F04950D8A402D0010E04D04904E3
:10414800D8A402D0020E496E0150CC5F000ECD5BA0
:1041580020EE01F0CE51D926CF51DA2201C0DFFF7F
:10416800380E0101166F040E176F0001CBA11DD088
:104178003CD0C8C0F6FFC9C0F7FFF86A16C1D9FF1E
:1041880017C1DAFF070EF76403D00800F55005D011
:10419800F6CFE9FFF7CFEAFFEF50DF6E0001C84B1B
:1041A800C92B0101164B172B01060150D8B4120078
:1041B800E0D7C8C0F6FFC9C0F7FFF86A16C1D9FF33
:1041C80017C1DAFF070EF76403D00800F55005D0D1
:1041D800F6CFE9FFF7CFEAFFEF50DF6E0001C84BDB
:1041E800C92B0101164B172B01060150D8B4120038
:1041F800E0D74DD0FFD75EEC31F0110E0001726FA1
:104208007F0E736F72517311D8A4000E746F010E74
:10421800756F000E766FF3EC29F0620E0001726F75
:104228007F0E736F72517311D8A4000E746F020E53
:10423800756F010E766FF3EC29F0290E0001726F8D
:104248007E0E736F72517311D8A4000E746F000E36
:10425800756F020E766FF3EC29F0010E06D0200E72
:104268000001EF6101D01ED0020E4F6E1BD0DCECB6
:104278001EF0030E0001786F42EC2BF00001786FFE
:10428800030E7819D8B40ED0020EFA6F0BD04F5027
:10429800000AD8B4B0D7010AD8B4E1D7030AD8B411
:1042A800E6D7A8D780A004D00001FA51D8B4EFD738
:1042B80000F0020E0001FA19D8B41200000EFA6FCD
:1042C80012002D0E446E58C01CF0FD0E1C16D8A40A
:1042D80057D058C01CF0D8901C323F0E1C161C50EA
:1042E800040D000EF324346E040EF420356E34C031
:1042F80032F035C033F0040E321A34C0D9FF35C05D
:10430800DAFFDF30E8320F0B0D0AD8A436D0000EE2
:104318001E6E070E1E6401D023D020EE02F034502A
:10432800D9263550DA22DECF1CF0DDCF1DF01CC0B7
:10433800D9FF1DC0DAFF1E50010D300EF324E16EC7
:10434800040EF420E26EDFCFE7FF20EE02F03450D7
:10435800D9263550DA22DE2A000EDD221E2AD9D7C8
:1043680020EE02F03450D9263550DA22300EDE6EB7
:10437800040EDD6EB5EC28F012003BEC2CF01200B8
:104388005850FD0B040AD8A41200BBEC1FF0120011
:104398005EEC31F03E0E0001726F7F0E736F72514A
:1043A8007311D8A4000E746F000E756F000E766F2F
:1043B800F3EC29F08B0E0001726F7D0E736F725152
:1043C8007311D8A4000E746F000E756F060E766F09
:1043D800F3EC29F0980E0001726F7D0E736F725125
:1043E8007311D8A4000E746F000E756F080E766FE7
:1043F800F3EC29F0C40E0001726F7C0E736F7251DA
:104408007311D8A4000E746F000E756F010E766FCD
:10441800F3EC29F0710E0001726F7E0E736F72510A
:104428007311D8A4000E746F000E756F020E766FAC
:10443800F3EC29F0470E0001726F7F0E736F725113
:104448007311D8A4000E746F000E756F030E766F8B
:10445800F3EC29F012004250D8A41200010E426E6B
:104468004150D8A41200010E416E020E4818D8A47B
:1044780016D0000120EE01F0CE51D926CF51DA2214
:10448800000EDF6ECEC0D9FFCFC0DAFF480EDF6E58
:10449800CEC0D9FFCFC0DAFF000EDB8E1200480471
:1044A800D8A41200000E456E20EE01F03450D92633
:1044B8003550DA22080EDF6E20EE02F03450D9268D
:1044C8003550DA22300EDE6E040EDD6E34C0D9FFB0
:1044D80035C0DAFF040EDF6E34C0D9FF35C0DAFF0D
:1044E800000EDB8E010E456E20EE01F03250D9260B
:1044F8003350DA22080EDF6E20EE02F03250D92651
:104508003350DA22300EDE6E040EDD6E32C0D9FF73
:1045180033C0DAFF800EDF6E12000CD061C0F6FFE8
:1045280062C0F7FFF86A0800F55050EC2EF0000161
:10453800614B622B61C0F6FF62C0F7FFF86A0800A2
:10454800F5500009D8A4EAD7000E0001676F020EE3
:10455800676501D00ED06751010DF3506325D96E00
:10456800F4506421DA6EDF5050EC2EF00001672B16
:10457800EED720EE03F06351D9266451DA22DF50DA
:1045880050EC2EF0040E0001686F21D06851010D27
:10459800F3506325D96EF4506421DA6EDF50666FEC
:1045A80066390F0B32EC30F050EC2EF000016851F8
:1045B800010DF3506325D96EF4506421DA6EDF5093
:1045C8000F0B32EC30F050EC2EF00001682B6551E7
:1045D800685DD8A0DBD7FEEC31F012006E0E2BEC34
:1045E80032F080BE03D0026A022A01D0026A023287
:1045F8000232805002187F0B0218806E3FD0150ED1
:104608004B18D8A404D058EC32F063EC32F0160EF4
:104618004B6042D04B2A40D05AC002F0010E036EC4
:10462800022A02D0D8900336022EFCD70350056E1A
:1046380081AE05D005504C120101202B03D0055046
:10464800FF0A4C165A2A080E5A18D8A425D001D0A9
:104658008150030E4D6E20D04C506FEC2EF0000EA2
:104668004D6E000E2BEC32F081CF04F0F290F28602
:1046780013D0000E4D6E160E4B6E0ED04D50000A24
:10468800D8B4BDD7010AD8B4C7D7030AD8B4E0D77D
:10469800010AD8B4E1D7EDD75CEC32F01200000182
:1046A800646F00016051D8B407D06451020DCE0E7A
:1046B800F324D96E000E06D06451020D000EF324C7
:1046C800D96E010EF420DA6EDECF65F0DDCF66F02C
:1046D80065516611D8A405D0000E606F000E616F99
:1046E800120020EE02F06551D9266651DA2261C027
:1046F800DEFF62C0DDFF20EE01F06551D92666516C
:10470800DA2263C0DFFF65C0D9FF66C0DAFF400E5A
:10471800DF1665C0D9FF66C0DAFF000EDB8665C00C
:10472800D9FF66C0DAFF000EDB8E6051D8B407D01F
:104738006451020DCE0EF324D96E000E06D06451DA
:10474800020D000EF324D96E010EF420DA6E040E69
:10475800DF1A65C060F066C061F01200056E015096
:10476800D8B407D00550020DCE0EF324D96E000E32
:1047780006D00550020D000EF324D96E010EF42068
:10478800DA6EDECF06F0DDCF07F006500710D8A4AA
:1047980005D0000E016E000E026E120020EE02F02F
:1047A8000650D9260750DA2202C0DEFF03C0DDFF1B
:1047B80020EE01F00650D9260750DA2204C0DFFFA8
:1047C80006C0D9FF07C0DAFF400EDF1606C0D9FFC2
:1047D80007C0DAFF000EDB8606C0D9FF07C0DAFF84
:1047E800000EDB8E0150D8B407D00550020DCE0E56
:1047F800F324D96E000E06D00550020D000EF324E6
:10480800D96E010EF420DA6E040EDF1A06C001F02C
:1048180007C002F01200000E0001E16FDA51DB114F
:10482800D8B40FD0DAC0D9FFDBC0DAFFDFAE03D0CF
:104838006A6B6A2B02D000016A6B6A516B6F6C6BF2
:1048480004D0000E6C6F000E6B6F6B516C11D8A406
:104858003BD020EE01F0DA51D926DB51DA2269513A
:10486800DE5CD8B008D020EE01F0DA51D926DB5151
:10487800DA22DF50696F000EE16F13D0E151010DAC
:10488800400EF324D96E050EF420DA6EE151010DC5
:10489800F3506725E16EF4506821E26EDFCFE7FF41
:1048A800E12B6951E15DD8A0E9D7000E606F400E99
:1048B800616F050E626F400E636F020E53EC23F0BA
:1048C80060C0DAF061C0DBF00001E1511200C00EF7
:1048D800F66E640EF76E000EF86E0900F5CFF6F16D
:1048E8000900F5CFF7F10900F5CFF8F1800EF66E63
:1048F800640EF76E000EF86E00EEFAF010EE06F099
:104908000900F5CFEEFFE550E150FAE1C30EF66E6F
:10491800640EF76E000EF86E0900F5CF5BF0090023
:10492800F5CF5CF007EE00F0C80EEE6AE806FDE190
:1049380006EE00F0C80EEE6AE806FDE103EE00F0B0
:10494800400EEE6AE806FDE102EE00F0E00EEE6AC7
:10495800E806FDE101EE00F0F60EEE6AE806FDE17C
:1049680000EEC0F03A0EEE6AE806FDE15D6A00EE80
:1049780032F0290EEE6AE806FDE15E905E920001D3
:104988001EEF18F00001696F00016651676F686BD0
:10499800020E6727000E68232C0E6725D96E010EBC
:1049A8006821DA6E69C060F0616B000E636F0A0EF1
:1049B800626F9FEC2AF000016051300FDF6E0A0E23
:1049C800606F695131EC2EF00001696F6651676FB5
:1049D800686B010E6727000E68232C0E6725D96EB9
:1049E800010E6821DA6E69C060F0616B000E636FBA
:1049F8000A0E626F9FEC2AF000016051300FDF6EE3
:104A08000A0E606F695131EC2EF00001696F665132
:104A1800010D2C0EF324D96E010EF420DA6E69C054
:104A280060F0616B000E636F0A0E626F9FEC2AF0F4
:104A380000016051300FDF6E12000001816F000E1F
:104A480000017A6F81AF02D0010E7A6F81517F0B1E
:104A5800816F81C060F0616B000E636F0A0E626F38
:104A68009FEC2AF000016051300F7D6F0A0E606FD5
:104A7800815131EC2EF00001816F81C060F0616BD3
:104A8800000E636F0A0E626F9FEC2AF000016051FE
:104A9800300F7C6F0A0E606F815131EC2EF00001EF
:104AA800816F81C060F0616B000E636F0A0E626FE8
:104AB8009FEC2AF000016051300F7B6F7A51D8B417
:104AC80002D02D0E7B6F000E7E6F7B0E726F000E74
:104AD800736F72517311D8A4200E746F78C075F07B
:104AE80079C076F0F3EC29F01200040130511F0B65
:104AF800E806D8A412003039E832030BE806D8A437
:104B080012003451D8B437D03405D8A4120033D0A9
:104B1800DA0E0001C86F010EC96F000ECD6F080EC6
:104B2800CC6FCB81CB8F1200DA0E0001C86F010E5B
:104B3800C96FCB8F120036C4C4F037C4C5F0D00E8D
:104B48000001C06F010EC16FD20EC66F580EC76F3D
:104B5800C38F1200E20E0001C86F010EC96F000E6C
:104B6800CD6F070ECC6FC10ECB6F120032C41EF191
:104B78000001CB8F120004013151000AD8B4C8D704
:104B8800010AD8B4D1D7210AD8B4D5D7010AD8B4E4
:104B9800E1D7030AD8A41200E9D7000E0001696F13
:104BA80063AF0AD0631F621F611F606D000E61232F
:104BB80062236323010E696F67AF08D0671F661F02
:104BC800651F646D000E65236623672364516511B4
:104BD80066116711D8B424D0010E686F06D0D8903A
:104BE8006437653766376737682B67AFF8D764511E
:104BF800605D655161596651625967516359D8A022
:104C080008D06451605F6551615B6651625B6751B2
:104C1800635BD8906733663365336433682FE7D7AF
:104C28006951D8B408D0631F621F611F606D000E00
:104C380061236223632360C060F061C061F062C0D9
:104C480062F063C063F01200000E0401386F000EBA
:104C5800396F38D00001CB8F4704D8A43ED0040167
:104C680038833BD00001CB8F38D00001CB8F0401B3
:104C780034BF0AD034510F0B016E0150020D000EE3
:104C8800F324D96E010E09D034510F0B016E015077
:104C9800020DCE0EF324D96E000EF420DA6EDECFAC
:104CA80002F0DDCF03F002C0D9FF03C0DAFFDFAEA8
:104CB80014D002C0D9FF03C0DAFFDFA40ED0010E62
:104CC800386F0BD030511F0B000AD8B4C3D7010A74
:104CD800D8B4C8D7030AD8B4C8D70001CBAF1200DC
:104CE800380EC86F040EC96FCB81020ECC6F12004C
:104CF800000E406E000E3F6E020E4818D8A41FD05A
:104D080020EE01F03250D9263350DA22080EDF6E39
:104D180020EE02F03250D9263350DA22380EDE6EF9
:104D2800040EDD6E32C0D9FF33C0DAFF480EDF6EE5
:104D380032C0D9FF33C0DAFF000EDB8E120000014B
:104D4800CC510401365D0001CD5104013759D8B06A
:104D580004D036C4CCF037C4CDF093EC20F0000179
:104D680020EE02F0CE51D926CF51DA22380EDE6E6F
:104D7800040EDD6ECEC0D9FFCFC0DAFF480EDF6E5D
:104D8800CEC0D9FFCFC0DAFF000EDB8E12000001C3
:104D98007A6F7AC060F00001616B000E636F0A0ED3
:104DA800626F9FEC2AF000016051300F7D6F0A0E90
:104DB800606F7A5131EC2EF000017A6F7AC060F0A2
:104DC800616B000E636F0A0E626F9FEC2AF00001A0
:104DD8006051300F7C6F0A0E606F7A5131EC2EF003
:104DE80000017A6F7AC060F0616B000E636F0A0E83
:104DF800626F9FEC2AF000016051300F7B6F000E4C
:104E08007E6F7B0E726F000E736F72517311D8A490
:104E1800200E746F78C075F079C076F0F3EC29F045
:104E28001200066E000E076E040E086E0150026E28
:104E3800036AD890023603360650046E056AD89085
:104E480004360536D8900436053602500426035039
:104E58000522D89004360536D89004360536045015
:104E680007260550082207C0D9FF08C0DAFFDF9ED1
:104E78000150D8A407D00650020D000EF324D96EB5
:104E8800010E06D00650020DCE0EF324D96E000E88
:104E9800F420DA6E07C0DEFF08C0DDFF07C0D9FFC7
:104EA80008C0DAFFDF9C20EE04F00750D92608502E
:104EB800DA22DF8C1200000E0001606F020E6065BE
:104EC80001D00CD06051010DF30EF324D96E010E00
:104ED800F420DA6E000EDF6E602BF0D7000E616FE3
:104EE800210E616501D00CD06151010D700EF324C3
:104EF800D96E020EF420DA6E000EDF6E612BF0D749
:104F0800000E626F1F0E626501D00CD06251010D58
:104F1800C00EF324D96E020EF420DA6E000EDF6E96
:104F2800622BF0D7000E636F630E636501D0120029
:104F38006351010D2C0EF324D96E010EF420DA6EA4
:104F4800000EDF6E632BF0D737D060C0D9FF61C089
:104F5800DAFFDF50D8B411D060C0D9FF61C0DAFFE2
:104F6800DF500001666F62C0F6FF63C0F7FFF86AA2
:104F78000800F5506619D8B41BD062C0F6FF63C0AC
:104F8800F7FFF86A0800F5500001666F676B661F47
:104F9800671F664B672B60C0D9FF61C0DAFFDF501F
:104FA800686F68516625606F000E6721616F120097
:104FB800604B612B624B632B00016407D8A0650727
:104FC8006429C3E16529D8A4C0D7000E616F000E1B
:104FD800606F1200000E0001656F63AF06D0626D4E
:104FE800631FD8B0632B010E656F61AF06D0606D8B
:104FF800611FD8B0612B010E651B000E676F000E94
:10500800666F62516311D8B41CD0010E646F04D06E
:10501800D89062376337642B63AFFAD7D890663776
:1050280067376251605D63516159D8A005D06251FC
:10503800605F6351615B6681D89063336233642F2C
:10504800EDD76551D8B404D0666D671FD8B0672B0B
:1050580066C060F067C061F01200000E0001676F63
:10506800000E666F000E656FAC9A8B9C000E616F28
:105078000A0E606F88EC2FF0AC8A000E0001616F99
:10508800050E606F88EC2FF0550EAD6EACA2FED702
:10509800FD0E0001616F7F0E626F3BEC2FF0000E7A
:1050A8000001616F280E606F88EC2FF013D0ABEC15
:1050B8002BF00009D8B403D0010E00010AD000017A
:1050C800654B662B890E655D130E6659D8A002D014
:1050D800010E676F00016751D8B41200E8D70001CC
:1050E8006A6F00016351B8EC31F000016251080D9C
:1050F800F350040F50EC31F0000E00016B6F070EF7
:105108006B6501D012006B51010D000E646FFF0E2C
:10511800656F6A51666F676BD89066376737D89046
:1051280066376737D89066376737645166276551A1
:105138006723F6C168F0F7C169F0665168276751BF
:105148006923F3506827F450692368C0F6FF69C0E3
:10515800F7FFF86A0800F55078EC31F000016B2B86
:10516800CED7000E496E000E436E000E406E000E44
:105178003F6E000E456E000E486ECEC0D9FFCFC000
:10518800DAFF7F0EDF16040E0001CE1BCEC0D9FF5A
:10519800CFC0DAFF7F0EDF16040ECE1B32C0D9FF58
:1051A80033C0DAFF7F0EDF16000ECB6F000ECD6F17
:1051B800000ECC6F000EC36F000EC56F000EC46FDB
:1051C800FAEC1DF0000E0F6E030E0E6E000E106E40
:1051D800000E116E000E136E000E126E0DEC2CF008
:1051E80098EC1CF01200000E096E000E0A6E000EFC
:1051F8000B6E000E0C6E0550061007100810D8B480
:105208002AD0010E0D6E06D0D89005360636073620
:1052180008360D2A08AEF8D7D89009360A360B3664
:105228000C360550015C06500258075003580850C8
:105238000458D8A009D00550015E0650025A0750FC
:10524800035A0850045A0980D890083207320632A7
:1052580005320D2EE1D709C001F00AC002F00BC0DB
:1052680003F00CC004F01200E20E83EC31F08A84E3
:10527800040E0001626F1C0EE82EFED7622FFCD7C9
:1052880000F08A94200E0001626F290EE82EFED7E6
:10529800622FFCD700D08A84100E0001626F940E32
:1052A800E82EFED7622FFCD700F0A10E83EC31F078
:1052B800C00E83EC31F0A30E83EC31F0070EE6EC60
:1052C80031F0050EDEEC31F05B50AEEC31F0000E43
:1052D800EEEC31F0F80E83EC31F0000E83EC31F097
:1052E800AF0E83EC31F01200000E0001786F000E53
:1052F800776F000E796F030E796501D02FD072C0D9
:10530800D9FF73C0DAFFDF50D8B428D07951D8B4A8
:105318000ED077C060F078C061F0000E636F0A0E9F
:10532800626FA0EC30F060C077F061C078F072C0B6
:10533800D9FF73C0DAFFDF500001746F745177250D
:10534800756F000E7821766FD00E7525776FFF0E7A
:105358007621786F724B732B792BCDD777C072F08B
:1053680078C073F01200000E0001666F000E656FC2
:10537800D40E616F790E626F3BEC2FF009D00001FB
:10538800654B662B510E655DC30E6659D8B005D0C6
:10539800ABEC2BF00009D8B4F2D7000E0001666F11
:1053A800000E656FB90E616F790E626F3BEC2FF0DE
:1053B80009D00001654B662B510E655DC30E665919
:1053C800D8B005D0ABEC2BF00009D8B4F2D7000E5A
:1053D8000001616F640E606F88EC2FF0120075C0D9
:1053E80077F00F0E0001776501D0120072C0F6FF4A
:1053F80073C0F7FF74C0F8FFF8BA03D00800F5507F
:1054080005D0F6CFE9FFF7CFEAFFEF500009D8B48F
:10541800120077C062F076C063F072C0F6FF73C006
:10542800F7FF74C0F8FFF8BA03D00800F55005D0AC
:10543800F6CFE9FFF7CFEAFFEF5073EC28F0000151
:10544800010E7227000E7323000E7423772B0F0EA4
:10545800CAD7CCEC21F0000E0001616F140E606F0A
:1054680088EC2FF09DEC1BF05EEC31F0000E000193
:10547800616F140E606F88EC2FF066EC2AF0000E56
:105488000001616F140E606F88EC2FF0D8EC2AF0E1
:10549800000E0001616F140E606F88EC2FF0CFECE6
:1054A8002DF0000E0001616F140E606F88EC2FF074
:1054B8001CEC1CF00B0E0001616FB80E606F88ECDD
:1054C8002FF01200C00E0001726F7E0E736F7251C2
:1054D8007311D8A4000E746F000E756F000E766FEE
:1054E800F3EC29F0010E86EC1DF0010E0001616F4E
:1054F800F40E606F6FEC2FF0000E86EC1DF0010EBD
:105508000001616FF40E606F6FEC2FF0010E86ECF6
:105518001DF0010E0001616FF40E606F6FEC2FF04B
:10552800000E86EC1DF0010E0001616FF40E606F35
:105538006FEC2FF01200000E0001656F61AF06D00E
:10554800606D611FD8B0612B010E656F63AF04D029
:10555800626D631FD8B0632B62516311D8B418D041
:10556800010E646F04D0D89062376337642B63AF41
:10557800FAD76251605D63516159D8A004D0625175
:10558800605F6351615BD89063336233642FF1D7F6
:105598006551D8B404D0606D611FD8B0612B60C06C
:1055A80060F061C061F01200070E0001726F7F0E9B
:1055B800736F72517311D8A4000E746F000E756F5B
:1055C800010E766FF3EC29F0898C898E010E0001AB
:1055D800616FF40E606F6FEC2FF0899C899E010E4D
:1055E8000001616FF40E606F6FEC2FF0898C898E6B
:1055F800010E0001616FF40E606F6FEC2FF0899C53
:10560800899E010E0001616FF40E606F6FEC2FF040
:105618001200EE0E0001606F010E616FE90E626FFD
:10562800010E636F000E656F050E646F89EC2DF037
:10563800EE0E0001606F010E616F6BC062F06CC00E
:1056480063F0000E656F050E646F89EC2DF0000E97
:1056580000016D6F040E6D6501D00ED06D51010D06
:10566800EE0EF324D96E010EF420DA6EDF50D8B4B2
:105678006DC050F06D2BEED700F01200000E000147
:10568800606F81A202D081B018D0010E01010A27F3
:10569800000E0B230C230D23370E0A190B110C11C6
:1056A8000D11D8A408D0000E4E6E81B202D0010EA2
:1056B80016D0020E14D0000E12D0140E4E18D8A414
:1056C8000CD0000E01010A6F000E0B6F000E0C6F5C
:1056D800000E0D6F000E4E6E01D04E2A030E000113
:1056E800606F60511200000E0101E26F4B0EE36F14
:1056F800000EE46F000EE56F000EE66F000EE76F18
:10570800080EE86F000E0001E16F1A0E096E010E17
:10571800ACEC2EF01E0E096E020EACEC2EF0000E54
:10572800016E400E026E050E036E400E046E020EF0
:10573800B2EC23F001C0DAF002C0DBF0000E010188
:10574800146F000E156F000E0001EE6F1200000EB0
:105758000001616FF751D8B42BD0000E626FCAEC0C
:105768002EF00001626F0D0E6219D8A40FD0F4510B
:10577800010D900EF324D96E010EF420DA6E000E9E
:10578800DF6E010E616F000EF46F12D06251D8B453
:105798000FD00A0E6219D8B40BD0F451010D900E37
:1057A800F324D96E010EF420DA6E62C0DFFFF42B09
:1057B80061511200000E0001756F050E756501D06C
:1057C80026D072C0D9FF73C0DAFFDF50D8B412D028
:1057D80072C0D9FF73C0DAFF7451010D2C0EF32487
:1057E800E16E010EF420E26EDFCFE7FF724B732B00
:1057F800742B0BD07451010D2C0EF324D96E010EAD
:10580800F420DA6E200EDF6E02D0752BD6D77551D4
:10581800120006D096EC2CF0120079EC25F012005C
:105828000EC014F00FC015F01550000AD8B404D0FB
:105838007F0AD8A4120018D01450010AD8B4EAD7A5
:10584800030AD8B41200010AD8B4E7D7060AD8B4B4
:105858001200770AD8B41200010AD8B41200070A55
:10586800D8B41200010A12001450FF0A1200020EE6
:105878004818D8A403D080EC1AF01200000E486E25
:105888004550D8A41FD020EE01F03250D92633500D
:10589800DA22080EDF6E20EE02F03250D92633509D
:1058A800DA22300EDE6E040EDD6E32C0D9FF33C050
:1058B800DAFF0C0EDF6E32C0D9FF33C0DAFF000EFC
:1058C800DB8E1200000E456E1200D0C1E2F1D1C18C
:1058D800E3F1D2C1E4F1D3C1E5F1000E016E1B0E74
:1058E800026EB70E036E000E046EE2C105F0E3C14E
:1058F80006F0E4C107F0E5C108F0F7EC28F0FF0E68
:1059080001240E6EFF0E02200F6EFF0E0320106E94
:10591800FF0E0420116E0EC0AFFF0FC0B0FF1FECCA
:105928002FF0120077EC2BF0000E0101E66F080E45
:10593800E86F000EE76F000EE26F4B0EE36F000E8C
:10594800E46F000EE56F1FEC2FF0000E0D6E3F0E9A
:105958000D6401D00CD00D50010D800EF324D96ECA
:10596800020EF420DA6E000EDF6E0D2AF0D7000E5C
:105978000001EC6F000EEA6F12009280928292840E
:1059880092868D949694929A929C929EF19E868E7F
:10599800F28693829380938E939493969398939A96
:1059A800949094929484949C948E000E956E969400
:1059B800899A899C899E8A948B948B9C8D840F01EB
:1059C8005B915B835B855B875D9F5D9D1200000E2D
:1059D8000001706F6CC0D9FF6DC0DAFFDF50D8B41A
:1059E800120070C060F0616B000E636F100E626F82
:1059F800EEEC27F0000160516F6F70510F0B6E6F66
:105A08006EC062F06FC063F06CC0D9FF6DC0DAFF82
:105A1800DF5073EC28F000016C4B6D2B702BDAD73C
:105A2800000E0001716F000E706F6D0E616F7A0EBF
:105A3800626F3BEC2FF009D00001704B712B510EB7
:105A4800705DC30E7159D8B005D0ABEC2BF00009CE
:105A5800D8B4F2D7900E00016B6F010E6C6F0DEC8D
:105A68002BF0900E00016E6F010E6F6F120005D0C3
:105A78000001604B612B624B632B60C0D9FF61C092
:105A8800DAFFDF500001646F62C0F6FF63C0F7FF02
:105A9800F86A0800F55000086425656F6551D8A4B8
:105AA80007D060C0D9FF61C0DAFFDF50D8A4E0D7C3
:105AB8006551606F616B60BF610712004D50D8B4CB
:105AC80081BE20D080BE03D0026A022A01D0026AB9
:105AD80002320232805002187F0B0218806EF29652
